{
	"Contrato/Contrato_Copilado.sol": {
		"CrowdFunding": {
			"abi": [
				{
					"inputs": [
						{
							"internalType": "uint256",
							"name": "_targetAmount",
							"type": "uint256"
						},
						{
							"internalType": "uint256",
							"name": "_deadline",
							"type": "uint256"
						}
					],
					"stateMutability": "nonpayable",
					"type": "constructor"
				},
				{
					"inputs": [
						{
							"internalType": "string",
							"name": "_description",
							"type": "string"
						},
						{
							"internalType": "address payable",
							"name": "_recipient",
							"type": "address"
						},
						{
							"internalType": "uint256",
							"name": "_value",
							"type": "uint256"
						}
					],
					"name": "createRequest",
					"outputs": [],
					"stateMutability": "nonpayable",
					"type": "function"
				},
				{
					"inputs": [],
					"name": "deadline",
					"outputs": [
						{
							"internalType": "uint256",
							"name": "",
							"type": "uint256"
						}
					],
					"stateMutability": "view",
					"type": "function"
				},
				{
					"inputs": [
						{
							"internalType": "address",
							"name": "",
							"type": "address"
						}
					],
					"name": "fundContributors",
					"outputs": [
						{
							"internalType": "uint256",
							"name": "",
							"type": "uint256"
						}
					],
					"stateMutability": "view",
					"type": "function"
				},
				{
					"inputs": [],
					"name": "getBalance",
					"outputs": [
						{
							"internalType": "uint256",
							"name": "",
							"type": "uint256"
						}
					],
					"stateMutability": "view",
					"type": "function"
				},
				{
					"inputs": [
						{
							"internalType": "uint256",
							"name": "_requestNum",
							"type": "uint256"
						}
					],
					"name": "makePayment",
					"outputs": [],
					"stateMutability": "nonpayable",
					"type": "function"
				},
				{
					"inputs": [],
					"name": "manager",
					"outputs": [
						{
							"internalType": "address",
							"name": "",
							"type": "address"
						}
					],
					"stateMutability": "view",
					"type": "function"
				},
				{
					"inputs": [],
					"name": "numRequests",
					"outputs": [
						{
							"internalType": "uint256",
							"name": "",
							"type": "uint256"
						}
					],
					"stateMutability": "view",
					"type": "function"
				},
				{
					"inputs": [],
					"name": "raisedAmount",
					"outputs": [
						{
							"internalType": "uint256",
							"name": "",
							"type": "uint256"
						}
					],
					"stateMutability": "view",
					"type": "function"
				},
				{
					"inputs": [],
					"name": "refund",
					"outputs": [],
					"stateMutability": "nonpayable",
					"type": "function"
				},
				{
					"inputs": [
						{
							"internalType": "uint256",
							"name": "",
							"type": "uint256"
						}
					],
					"name": "requests",
					"outputs": [
						{
							"internalType": "string",
							"name": "description",
							"type": "string"
						},
						{
							"internalType": "address payable",
							"name": "recipient",
							"type": "address"
						},
						{
							"internalType": "uint256",
							"name": "value",
							"type": "uint256"
						},
						{
							"internalType": "bool",
							"name": "completed",
							"type": "bool"
						}
					],
					"stateMutability": "view",
					"type": "function"
				},
				{
					"inputs": [],
					"name": "sendFunds",
					"outputs": [],
					"stateMutability": "payable",
					"type": "function"
				},
				{
					"inputs": [],
					"name": "targetAmount",
					"outputs": [
						{
							"internalType": "uint256",
							"name": "",
							"type": "uint256"
						}
					],
					"stateMutability": "view",
					"type": "function"
				}
			],
			"devdoc": {
				"kind": "dev",
				"methods": {},
				"version": 1
			},
			"evm": {
				"assembly": "    /* \"Contrato/Contrato_Copilado.sol\":63:2638  contract CrowdFunding {... */\n  mstore(0x40, 0x80)\n    /* \"Contrato/Contrato_Copilado.sol\":551:698  constructor(uint _targetAmount, uint _deadline) {... */\n  callvalue\n  dup1\n  iszero\n  tag_1\n  jumpi\n  0x00\n  dup1\n  revert\ntag_1:\n  pop\n  mload(0x40)\n  sub(codesize, bytecodeSize)\n  dup1\n  bytecodeSize\n  dup4\n  codecopy\n  dup2\n  dup2\n  add\n  0x40\n  mstore\n  dup2\n  add\n  swap1\n  tag_2\n  swap2\n  swap1\n  tag_3\n  jump\t// in\ntag_2:\n    /* \"Contrato/Contrato_Copilado.sol\":617:630  _targetAmount */\n  dup2\n    /* \"Contrato/Contrato_Copilado.sol\":602:614  targetAmount */\n  0x03\n    /* \"Contrato/Contrato_Copilado.sol\":602:630  targetAmount = _targetAmount */\n  dup2\n  swap1\n  sstore\n  pop\n    /* \"Contrato/Contrato_Copilado.sol\":662:671  _deadline */\n  dup1\n    /* \"Contrato/Contrato_Copilado.sol\":644:659  block.timestamp */\n  timestamp\n    /* \"Contrato/Contrato_Copilado.sol\":644:671  block.timestamp + _deadline */\n  tag_6\n  swap2\n  swap1\n  tag_7\n  jump\t// in\ntag_6:\n    /* \"Contrato/Contrato_Copilado.sol\":633:641  deadline */\n  0x02\n    /* \"Contrato/Contrato_Copilado.sol\":633:671  deadline = block.timestamp + _deadline */\n  dup2\n  swap1\n  sstore\n  pop\n    /* \"Contrato/Contrato_Copilado.sol\":684:694  msg.sender */\n  caller\n    /* \"Contrato/Contrato_Copilado.sol\":674:681  manager */\n  0x01\n  0x00\n    /* \"Contrato/Contrato_Copilado.sol\":674:694  manager = msg.sender */\n  0x0100\n  exp\n  dup2\n  sload\n  dup2\n  0xffffffffffffffffffffffffffffffffffffffff\n  mul\n  not\n  and\n  swap1\n  dup4\n  0xffffffffffffffffffffffffffffffffffffffff\n  and\n  mul\n  or\n  swap1\n  sstore\n  pop\n    /* \"Contrato/Contrato_Copilado.sol\":551:698  constructor(uint _targetAmount, uint _deadline) {... */\n  pop\n  pop\n    /* \"Contrato/Contrato_Copilado.sol\":63:2638  contract CrowdFunding {... */\n  jump(tag_8)\n    /* \"#utility.yul\":88:205   */\ntag_10:\n    /* \"#utility.yul\":197:198   */\n  0x00\n    /* \"#utility.yul\":194:195   */\n  dup1\n    /* \"#utility.yul\":187:199   */\n  revert\n    /* \"#utility.yul\":334:411   */\ntag_12:\n    /* \"#utility.yul\":371:378   */\n  0x00\n    /* \"#utility.yul\":400:405   */\n  dup2\n    /* \"#utility.yul\":389:405   */\n  swap1\n  pop\n    /* \"#utility.yul\":334:411   */\n  swap2\n  swap1\n  pop\n  jump\t// out\n    /* \"#utility.yul\":417:539   */\ntag_13:\n    /* \"#utility.yul\":490:514   */\n  tag_22\n    /* \"#utility.yul\":508:513   */\n  dup2\n    /* \"#utility.yul\":490:514   */\n  tag_12\n  jump\t// in\ntag_22:\n    /* \"#utility.yul\":483:488   */\n  dup2\n    /* \"#utility.yul\":480:515   */\n  eq\n    /* \"#utility.yul\":470:533   */\n  tag_23\n  jumpi\n    /* \"#utility.yul\":529:530   */\n  0x00\n    /* \"#utility.yul\":526:527   */\n  dup1\n    /* \"#utility.yul\":519:531   */\n  revert\n    /* \"#utility.yul\":470:533   */\ntag_23:\n    /* \"#utility.yul\":417:539   */\n  pop\n  jump\t// out\n    /* \"#utility.yul\":545:688   */\ntag_14:\n    /* \"#utility.yul\":602:607   */\n  0x00\n    /* \"#utility.yul\":633:639   */\n  dup2\n    /* \"#utility.yul\":627:640   */\n  mload\n    /* \"#utility.yul\":618:640   */\n  swap1\n  pop\n    /* \"#utility.yul\":649:682   */\n  tag_25\n    /* \"#utility.yul\":676:681   */\n  dup2\n    /* \"#utility.yul\":649:682   */\n  tag_13\n  jump\t// in\ntag_25:\n    /* \"#utility.yul\":545:688   */\n  swap3\n  swap2\n  pop\n  pop\n  jump\t// out\n    /* \"#utility.yul\":694:1201   */\ntag_3:\n    /* \"#utility.yul\":773:779   */\n  0x00\n    /* \"#utility.yul\":781:787   */\n  dup1\n    /* \"#utility.yul\":830:832   */\n  0x40\n    /* \"#utility.yul\":818:827   */\n  dup4\n    /* \"#utility.yul\":809:816   */\n  dup6\n    /* \"#utility.yul\":805:828   */\n  sub\n    /* \"#utility.yul\":801:833   */\n  slt\n    /* \"#utility.yul\":798:917   */\n  iszero\n  tag_27\n  jumpi\n    /* \"#utility.yul\":836:915   */\n  tag_28\n  tag_10\n  jump\t// in\ntag_28:\n    /* \"#utility.yul\":798:917   */\ntag_27:\n    /* \"#utility.yul\":956:957   */\n  0x00\n    /* \"#utility.yul\":981:1045   */\n  tag_29\n    /* \"#utility.yul\":1037:1044   */\n  dup6\n    /* \"#utility.yul\":1028:1034   */\n  dup3\n    /* \"#utility.yul\":1017:1026   */\n  dup7\n    /* \"#utility.yul\":1013:1035   */\n  add\n    /* \"#utility.yul\":981:1045   */\n  tag_14\n  jump\t// in\ntag_29:\n    /* \"#utility.yul\":971:1045   */\n  swap3\n  pop\n    /* \"#utility.yul\":927:1055   */\n  pop\n    /* \"#utility.yul\":1094:1096   */\n  0x20\n    /* \"#utility.yul\":1120:1184   */\n  tag_30\n    /* \"#utility.yul\":1176:1183   */\n  dup6\n    /* \"#utility.yul\":1167:1173   */\n  dup3\n    /* \"#utility.yul\":1156:1165   */\n  dup7\n    /* \"#utility.yul\":1152:1174   */\n  add\n    /* \"#utility.yul\":1120:1184   */\n  tag_14\n  jump\t// in\ntag_30:\n    /* \"#utility.yul\":1110:1184   */\n  swap2\n  pop\n    /* \"#utility.yul\":1065:1194   */\n  pop\n    /* \"#utility.yul\":694:1201   */\n  swap3\n  pop\n  swap3\n  swap1\n  pop\n  jump\t// out\n    /* \"#utility.yul\":1207:1387   */\ntag_15:\n    /* \"#utility.yul\":1255:1332   */\n  0x4e487b7100000000000000000000000000000000000000000000000000000000\n    /* \"#utility.yul\":1252:1253   */\n  0x00\n    /* \"#utility.yul\":1245:1333   */\n  mstore\n    /* \"#utility.yul\":1352:1356   */\n  0x11\n    /* \"#utility.yul\":1349:1350   */\n  0x04\n    /* \"#utility.yul\":1342:1357   */\n  mstore\n    /* \"#utility.yul\":1376:1380   */\n  0x24\n    /* \"#utility.yul\":1373:1374   */\n  0x00\n    /* \"#utility.yul\":1366:1381   */\n  revert\n    /* \"#utility.yul\":1393:1584   */\ntag_7:\n    /* \"#utility.yul\":1433:1436   */\n  0x00\n    /* \"#utility.yul\":1452:1472   */\n  tag_33\n    /* \"#utility.yul\":1470:1471   */\n  dup3\n    /* \"#utility.yul\":1452:1472   */\n  tag_12\n  jump\t// in\ntag_33:\n    /* \"#utility.yul\":1447:1472   */\n  swap2\n  pop\n    /* \"#utility.yul\":1486:1506   */\n  tag_34\n    /* \"#utility.yul\":1504:1505   */\n  dup4\n    /* \"#utility.yul\":1486:1506   */\n  tag_12\n  jump\t// in\ntag_34:\n    /* \"#utility.yul\":1481:1506   */\n  swap3\n  pop\n    /* \"#utility.yul\":1529:1530   */\n  dup3\n    /* \"#utility.yul\":1526:1527   */\n  dup3\n    /* \"#utility.yul\":1522:1531   */\n  add\n    /* \"#utility.yul\":1515:1531   */\n  swap1\n  pop\n    /* \"#utility.yul\":1550:1553   */\n  dup1\n    /* \"#utility.yul\":1547:1548   */\n  dup3\n    /* \"#utility.yul\":1544:1554   */\n  gt\n    /* \"#utility.yul\":1541:1577   */\n  iszero\n  tag_35\n  jumpi\n    /* \"#utility.yul\":1557:1575   */\n  tag_36\n  tag_15\n  jump\t// in\ntag_36:\n    /* \"#utility.yul\":1541:1577   */\ntag_35:\n    /* \"#utility.yul\":1393:1584   */\n  swap3\n  swap2\n  pop\n  pop\n  jump\t// out\n    /* \"Contrato/Contrato_Copilado.sol\":63:2638  contract CrowdFunding {... */\ntag_8:\n  dataSize(sub_0)\n  dup1\n  dataOffset(sub_0)\n  0x00\n  codecopy\n  0x00\n  return\nstop\n\nsub_0: assembly {\n        /* \"Contrato/Contrato_Copilado.sol\":63:2638  contract CrowdFunding {... */\n      mstore(0x40, 0x80)\n      jumpi(tag_1, lt(calldatasize, 0x04))\n      shr(0xe0, calldataload(0x00))\n      dup1\n      0x590e1ae3\n      gt\n      tag_14\n      jumpi\n      dup1\n      0x590e1ae3\n      eq\n      tag_8\n      jumpi\n      dup1\n      0x81d12c58\n      eq\n      tag_9\n      jumpi\n      dup1\n      0x8d68cf59\n      eq\n      tag_10\n      jumpi\n      dup1\n      0x953b8fb8\n      eq\n      tag_11\n      jumpi\n      dup1\n      0x9fb42b1f\n      eq\n      tag_12\n      jumpi\n      dup1\n      0xc59ee1dc\n      eq\n      tag_13\n      jumpi\n      jump(tag_1)\n    tag_14:\n      dup1\n      0x12065fe0\n      eq\n      tag_2\n      jumpi\n      dup1\n      0x1b16bb5c\n      eq\n      tag_3\n      jumpi\n      dup1\n      0x29dcb0cf\n      eq\n      tag_4\n      jumpi\n      dup1\n      0x4034a539\n      eq\n      tag_5\n      jumpi\n      dup1\n      0x481c6a75\n      eq\n      tag_6\n      jumpi\n      dup1\n      0x5114cb52\n      eq\n      tag_7\n      jumpi\n    tag_1:\n      0x00\n      dup1\n      revert\n        /* \"Contrato/Contrato_Copilado.sol\":981:1065  function getBalance() public view returns (uint) {... */\n    tag_2:\n      callvalue\n      dup1\n      iszero\n      tag_15\n      jumpi\n      0x00\n      dup1\n      revert\n    tag_15:\n      pop\n      tag_16\n      tag_17\n      jump\t// in\n    tag_16:\n      mload(0x40)\n      tag_18\n      swap2\n      swap1\n      tag_19\n      jump\t// in\n    tag_18:\n      mload(0x40)\n      dup1\n      swap2\n      sub\n      swap1\n      return\n        /* \"Contrato/Contrato_Copilado.sol\":1828:2230  function createRequest(string memory _description, address payable _recipient, uint _value) public onlyManager {... */\n    tag_3:\n      callvalue\n      dup1\n      iszero\n      tag_20\n      jumpi\n      0x00\n      dup1\n      revert\n    tag_20:\n      pop\n      tag_21\n      0x04\n      dup1\n      calldatasize\n      sub\n      dup2\n      add\n      swap1\n      tag_22\n      swap2\n      swap1\n      tag_23\n      jump\t// in\n    tag_22:\n      tag_24\n      jump\t// in\n    tag_21:\n      stop\n        /* \"Contrato/Contrato_Copilado.sol\":222:242  uint public deadline */\n    tag_4:\n      callvalue\n      dup1\n      iszero\n      tag_25\n      jumpi\n      0x00\n      dup1\n      revert\n    tag_25:\n      pop\n      tag_26\n      tag_27\n      jump\t// in\n    tag_26:\n      mload(0x40)\n      tag_28\n      swap2\n      swap1\n      tag_19\n      jump\t// in\n    tag_28:\n      mload(0x40)\n      dup1\n      swap2\n      sub\n      swap1\n      return\n        /* \"Contrato/Contrato_Copilado.sol\":88:136  mapping(address => uint) public fundContributors */\n    tag_5:\n      callvalue\n      dup1\n      iszero\n      tag_29\n      jumpi\n      0x00\n      dup1\n      revert\n    tag_29:\n      pop\n      tag_30\n      0x04\n      dup1\n      calldatasize\n      sub\n      dup2\n      add\n      swap1\n      tag_31\n      swap2\n      swap1\n      tag_32\n      jump\t// in\n    tag_31:\n      tag_33\n      jump\t// in\n    tag_30:\n      mload(0x40)\n      tag_34\n      swap2\n      swap1\n      tag_19\n      jump\t// in\n    tag_34:\n      mload(0x40)\n      dup1\n      swap2\n      sub\n      swap1\n      return\n        /* \"Contrato/Contrato_Copilado.sol\":167:189  address public manager */\n    tag_6:\n      callvalue\n      dup1\n      iszero\n      tag_35\n      jumpi\n      0x00\n      dup1\n      revert\n    tag_35:\n      pop\n      tag_36\n      tag_37\n      jump\t// in\n    tag_36:\n      mload(0x40)\n      tag_38\n      swap2\n      swap1\n      tag_39\n      jump\t// in\n    tag_38:\n      mload(0x40)\n      dup1\n      swap2\n      sub\n      swap1\n      return\n        /* \"Contrato/Contrato_Copilado.sol\":2300:2633  function makePayment(uint _requestNum) public onlyManager {... */\n    tag_7:\n      callvalue\n      dup1\n      iszero\n      tag_40\n      jumpi\n      0x00\n      dup1\n      revert\n    tag_40:\n      pop\n      tag_41\n      0x04\n      dup1\n      calldatasize\n      sub\n      dup2\n      add\n      swap1\n      tag_42\n      swap2\n      swap1\n      tag_43\n      jump\t// in\n    tag_42:\n      tag_44\n      jump\t// in\n    tag_41:\n      stop\n        /* \"Contrato/Contrato_Copilado.sol\":1161:1505  function refund() public {... */\n    tag_8:\n      callvalue\n      dup1\n      iszero\n      tag_45\n      jumpi\n      0x00\n      dup1\n      revert\n    tag_45:\n      pop\n      tag_46\n      tag_47\n      jump\t// in\n    tag_46:\n      stop\n        /* \"Contrato/Contrato_Copilado.sol\":480:520  mapping(uint => Request) public requests */\n    tag_9:\n      callvalue\n      dup1\n      iszero\n      tag_48\n      jumpi\n      0x00\n      dup1\n      revert\n    tag_48:\n      pop\n      tag_49\n      0x04\n      dup1\n      calldatasize\n      sub\n      dup2\n      add\n      swap1\n      tag_50\n      swap2\n      swap1\n      tag_43\n      jump\t// in\n    tag_50:\n      tag_51\n      jump\t// in\n    tag_49:\n      mload(0x40)\n      tag_52\n      swap5\n      swap4\n      swap3\n      swap2\n      swap1\n      tag_53\n      jump\t// in\n    tag_52:\n      mload(0x40)\n      dup1\n      swap2\n      sub\n      swap1\n      return\n        /* \"Contrato/Contrato_Copilado.sol\":762:937  function sendFunds() public payable {... */\n    tag_10:\n      tag_54\n      tag_55\n      jump\t// in\n    tag_54:\n      stop\n        /* \"Contrato/Contrato_Copilado.sol\":266:290  uint public targetAmount */\n    tag_11:\n      callvalue\n      dup1\n      iszero\n      tag_56\n      jumpi\n      0x00\n      dup1\n      revert\n    tag_56:\n      pop\n      tag_57\n      tag_58\n      jump\t// in\n    tag_57:\n      mload(0x40)\n      tag_59\n      swap2\n      swap1\n      tag_19\n      jump\t// in\n    tag_59:\n      mload(0x40)\n      dup1\n      swap2\n      sub\n      swap1\n      return\n        /* \"Contrato/Contrato_Copilado.sol\":523:546  uint public numRequests */\n    tag_12:\n      callvalue\n      dup1\n      iszero\n      tag_60\n      jumpi\n      0x00\n      dup1\n      revert\n    tag_60:\n      pop\n      tag_61\n      tag_62\n      jump\t// in\n    tag_61:\n      mload(0x40)\n      tag_63\n      swap2\n      swap1\n      tag_19\n      jump\t// in\n    tag_63:\n      mload(0x40)\n      dup1\n      swap2\n      sub\n      swap1\n      return\n        /* \"Contrato/Contrato_Copilado.sol\":320:344  uint public raisedAmount */\n    tag_13:\n      callvalue\n      dup1\n      iszero\n      tag_64\n      jumpi\n      0x00\n      dup1\n      revert\n    tag_64:\n      pop\n      tag_65\n      tag_66\n      jump\t// in\n    tag_65:\n      mload(0x40)\n      tag_67\n      swap2\n      swap1\n      tag_19\n      jump\t// in\n    tag_67:\n      mload(0x40)\n      dup1\n      swap2\n      sub\n      swap1\n      return\n        /* \"Contrato/Contrato_Copilado.sol\":981:1065  function getBalance() public view returns (uint) {... */\n    tag_17:\n        /* \"Contrato/Contrato_Copilado.sol\":1024:1028  uint */\n      0x00\n        /* \"Contrato/Contrato_Copilado.sol\":1040:1061  address(this).balance */\n      selfbalance\n        /* \"Contrato/Contrato_Copilado.sol\":1033:1061  return address(this).balance */\n      swap1\n      pop\n        /* \"Contrato/Contrato_Copilado.sol\":981:1065  function getBalance() public view returns (uint) {... */\n      swap1\n      jump\t// out\n        /* \"Contrato/Contrato_Copilado.sol\":1828:2230  function createRequest(string memory _description, address payable _recipient, uint _value) public onlyManager {... */\n    tag_24:\n        /* \"Contrato/Contrato_Copilado.sol\":1647:1654  manager */\n      0x01\n      0x00\n      swap1\n      sload\n      swap1\n      0x0100\n      exp\n      swap1\n      div\n      0xffffffffffffffffffffffffffffffffffffffff\n      and\n        /* \"Contrato/Contrato_Copilado.sol\":1633:1654  msg.sender == manager */\n      0xffffffffffffffffffffffffffffffffffffffff\n      and\n        /* \"Contrato/Contrato_Copilado.sol\":1633:1643  msg.sender */\n      caller\n        /* \"Contrato/Contrato_Copilado.sol\":1633:1654  msg.sender == manager */\n      0xffffffffffffffffffffffffffffffffffffffff\n      and\n      eq\n        /* \"Contrato/Contrato_Copilado.sol\":1625:1707  require(msg.sender == manager, \"Solo el administrador puede realizar esta accion\") */\n      tag_70\n      jumpi\n      mload(0x40)\n      0x08c379a000000000000000000000000000000000000000000000000000000000\n      dup2\n      mstore\n      0x04\n      add\n      tag_71\n      swap1\n      tag_72\n      jump\t// in\n    tag_71:\n      mload(0x40)\n      dup1\n      swap2\n      sub\n      swap1\n      revert\n    tag_70:\n        /* \"Contrato/Contrato_Copilado.sol\":1966:1972  _value */\n      dup1\n        /* \"Contrato/Contrato_Copilado.sol\":1950:1962  raisedAmount */\n      sload(0x04)\n        /* \"Contrato/Contrato_Copilado.sol\":1950:1972  raisedAmount >= _value */\n      lt\n      iszero\n        /* \"Contrato/Contrato_Copilado.sol\":1942:2022  require(raisedAmount >= _value, \"No hay fondos suficientes para esta solicitud\") */\n      tag_74\n      jumpi\n      mload(0x40)\n      0x08c379a000000000000000000000000000000000000000000000000000000000\n      dup2\n      mstore\n      0x04\n      add\n      tag_75\n      swap1\n      tag_76\n      jump\t// in\n    tag_75:\n      mload(0x40)\n      dup1\n      swap2\n      sub\n      swap1\n      revert\n    tag_74:\n        /* \"Contrato/Contrato_Copilado.sol\":2025:2051  Request storage newRequest */\n      0x00\n        /* \"Contrato/Contrato_Copilado.sol\":2054:2062  requests */\n      0x05\n        /* \"Contrato/Contrato_Copilado.sol\":2054:2075  requests[numRequests] */\n      0x00\n        /* \"Contrato/Contrato_Copilado.sol\":2063:2074  numRequests */\n      sload(0x06)\n        /* \"Contrato/Contrato_Copilado.sol\":2054:2075  requests[numRequests] */\n      dup2\n      mstore\n      0x20\n      add\n      swap1\n      dup2\n      mstore\n      0x20\n      add\n      0x00\n      keccak256\n        /* \"Contrato/Contrato_Copilado.sol\":2025:2075  Request storage newRequest = requests[numRequests] */\n      swap1\n      pop\n        /* \"Contrato/Contrato_Copilado.sol\":2078:2089  numRequests */\n      0x06\n      0x00\n        /* \"Contrato/Contrato_Copilado.sol\":2078:2091  numRequests++ */\n      dup2\n      sload\n      dup1\n      swap3\n      swap2\n      swap1\n      tag_77\n      swap1\n      tag_78\n      jump\t// in\n    tag_77:\n      swap2\n      swap1\n      pop\n      sstore\n      pop\n        /* \"Contrato/Contrato_Copilado.sol\":2119:2131  _description */\n      dup4\n        /* \"Contrato/Contrato_Copilado.sol\":2094:2104  newRequest */\n      dup2\n        /* \"Contrato/Contrato_Copilado.sol\":2094:2116  newRequest.description */\n      0x00\n      add\n        /* \"Contrato/Contrato_Copilado.sol\":2094:2131  newRequest.description = _description */\n      swap1\n      dup2\n      tag_79\n      swap2\n      swap1\n      tag_80\n      jump\t// in\n    tag_79:\n      pop\n        /* \"Contrato/Contrato_Copilado.sol\":2157:2167  _recipient */\n      dup3\n        /* \"Contrato/Contrato_Copilado.sol\":2134:2144  newRequest */\n      dup2\n        /* \"Contrato/Contrato_Copilado.sol\":2134:2154  newRequest.recipient */\n      0x01\n      add\n      0x00\n        /* \"Contrato/Contrato_Copilado.sol\":2134:2167  newRequest.recipient = _recipient */\n      0x0100\n      exp\n      dup2\n      sload\n      dup2\n      0xffffffffffffffffffffffffffffffffffffffff\n      mul\n      not\n      and\n      swap1\n      dup4\n      0xffffffffffffffffffffffffffffffffffffffff\n      and\n      mul\n      or\n      swap1\n      sstore\n      pop\n        /* \"Contrato/Contrato_Copilado.sol\":2189:2195  _value */\n      dup2\n        /* \"Contrato/Contrato_Copilado.sol\":2170:2180  newRequest */\n      dup2\n        /* \"Contrato/Contrato_Copilado.sol\":2170:2186  newRequest.value */\n      0x02\n      add\n        /* \"Contrato/Contrato_Copilado.sol\":2170:2195  newRequest.value = _value */\n      dup2\n      swap1\n      sstore\n      pop\n        /* \"Contrato/Contrato_Copilado.sol\":2221:2226  false */\n      0x00\n        /* \"Contrato/Contrato_Copilado.sol\":2198:2208  newRequest */\n      dup2\n        /* \"Contrato/Contrato_Copilado.sol\":2198:2218  newRequest.completed */\n      0x03\n      add\n      0x00\n        /* \"Contrato/Contrato_Copilado.sol\":2198:2226  newRequest.completed = false */\n      0x0100\n      exp\n      dup2\n      sload\n      dup2\n      0xff\n      mul\n      not\n      and\n      swap1\n      dup4\n      iszero\n      iszero\n      mul\n      or\n      swap1\n      sstore\n      pop\n        /* \"Contrato/Contrato_Copilado.sol\":1939:2230  {... */\n      pop\n        /* \"Contrato/Contrato_Copilado.sol\":1828:2230  function createRequest(string memory _description, address payable _recipient, uint _value) public onlyManager {... */\n      pop\n      pop\n      pop\n      jump\t// out\n        /* \"Contrato/Contrato_Copilado.sol\":222:242  uint public deadline */\n    tag_27:\n      sload(0x02)\n      dup2\n      jump\t// out\n        /* \"Contrato/Contrato_Copilado.sol\":88:136  mapping(address => uint) public fundContributors */\n    tag_33:\n      mstore(0x20, 0x00)\n      dup1\n      0x00\n      mstore\n      keccak256(0x00, 0x40)\n      0x00\n      swap2\n      pop\n      swap1\n      pop\n      sload\n      dup2\n      jump\t// out\n        /* \"Contrato/Contrato_Copilado.sol\":167:189  address public manager */\n    tag_37:\n      0x01\n      0x00\n      swap1\n      sload\n      swap1\n      0x0100\n      exp\n      swap1\n      div\n      0xffffffffffffffffffffffffffffffffffffffff\n      and\n      dup2\n      jump\t// out\n        /* \"Contrato/Contrato_Copilado.sol\":2300:2633  function makePayment(uint _requestNum) public onlyManager {... */\n    tag_44:\n        /* \"Contrato/Contrato_Copilado.sol\":1647:1654  manager */\n      0x01\n      0x00\n      swap1\n      sload\n      swap1\n      0x0100\n      exp\n      swap1\n      div\n      0xffffffffffffffffffffffffffffffffffffffff\n      and\n        /* \"Contrato/Contrato_Copilado.sol\":1633:1654  msg.sender == manager */\n      0xffffffffffffffffffffffffffffffffffffffff\n      and\n        /* \"Contrato/Contrato_Copilado.sol\":1633:1643  msg.sender */\n      caller\n        /* \"Contrato/Contrato_Copilado.sol\":1633:1654  msg.sender == manager */\n      0xffffffffffffffffffffffffffffffffffffffff\n      and\n      eq\n        /* \"Contrato/Contrato_Copilado.sol\":1625:1707  require(msg.sender == manager, \"Solo el administrador puede realizar esta accion\") */\n      tag_82\n      jumpi\n      mload(0x40)\n      0x08c379a000000000000000000000000000000000000000000000000000000000\n      dup2\n      mstore\n      0x04\n      add\n      tag_83\n      swap1\n      tag_72\n      jump\t// in\n    tag_83:\n      mload(0x40)\n      dup1\n      swap2\n      sub\n      swap1\n      revert\n    tag_82:\n        /* \"Contrato/Contrato_Copilado.sol\":2385:2397  targetAmount */\n      sload(0x03)\n        /* \"Contrato/Contrato_Copilado.sol\":2369:2381  raisedAmount */\n      sload(0x04)\n        /* \"Contrato/Contrato_Copilado.sol\":2369:2397  raisedAmount >= targetAmount */\n      lt\n      iszero\n        /* \"Contrato/Contrato_Copilado.sol\":2361:2423  require(raisedAmount >= targetAmount, \"No se cumplio la meta\") */\n      tag_85\n      jumpi\n      mload(0x40)\n      0x08c379a000000000000000000000000000000000000000000000000000000000\n      dup2\n      mstore\n      0x04\n      add\n      tag_86\n      swap1\n      tag_87\n      jump\t// in\n    tag_86:\n      mload(0x40)\n      dup1\n      swap2\n      sub\n      swap1\n      revert\n    tag_85:\n        /* \"Contrato/Contrato_Copilado.sol\":2426:2453  Request storage thisRequest */\n      0x00\n        /* \"Contrato/Contrato_Copilado.sol\":2456:2464  requests */\n      0x05\n        /* \"Contrato/Contrato_Copilado.sol\":2456:2477  requests[_requestNum] */\n      0x00\n        /* \"Contrato/Contrato_Copilado.sol\":2465:2476  _requestNum */\n      dup4\n        /* \"Contrato/Contrato_Copilado.sol\":2456:2477  requests[_requestNum] */\n      dup2\n      mstore\n      0x20\n      add\n      swap1\n      dup2\n      mstore\n      0x20\n      add\n      0x00\n      keccak256\n        /* \"Contrato/Contrato_Copilado.sol\":2426:2477  Request storage thisRequest = requests[_requestNum] */\n      swap1\n      pop\n        /* \"Contrato/Contrato_Copilado.sol\":2489:2500  thisRequest */\n      dup1\n        /* \"Contrato/Contrato_Copilado.sol\":2489:2510  thisRequest.completed */\n      0x03\n      add\n      0x00\n      swap1\n      sload\n      swap1\n      0x0100\n      exp\n      swap1\n      div\n      0xff\n      and\n        /* \"Contrato/Contrato_Copilado.sol\":2488:2510  !thisRequest.completed */\n      iszero\n        /* \"Contrato/Contrato_Copilado.sol\":2480:2546  require(!thisRequest.completed, \"Esta peticion ya fue completada\") */\n      tag_88\n      jumpi\n      mload(0x40)\n      0x08c379a000000000000000000000000000000000000000000000000000000000\n      dup2\n      mstore\n      0x04\n      add\n      tag_89\n      swap1\n      tag_90\n      jump\t// in\n    tag_89:\n      mload(0x40)\n      dup1\n      swap2\n      sub\n      swap1\n      revert\n    tag_88:\n        /* \"Contrato/Contrato_Copilado.sol\":2549:2560  thisRequest */\n      dup1\n        /* \"Contrato/Contrato_Copilado.sol\":2549:2570  thisRequest.recipient */\n      0x01\n      add\n      0x00\n      swap1\n      sload\n      swap1\n      0x0100\n      exp\n      swap1\n      div\n      0xffffffffffffffffffffffffffffffffffffffff\n      and\n        /* \"Contrato/Contrato_Copilado.sol\":2549:2579  thisRequest.recipient.transfer */\n      0xffffffffffffffffffffffffffffffffffffffff\n      and\n        /* \"Contrato/Contrato_Copilado.sol\":2549:2598  thisRequest.recipient.transfer(thisRequest.value) */\n      0x08fc\n        /* \"Contrato/Contrato_Copilado.sol\":2580:2591  thisRequest */\n      dup3\n        /* \"Contrato/Contrato_Copilado.sol\":2580:2597  thisRequest.value */\n      0x02\n      add\n      sload\n        /* \"Contrato/Contrato_Copilado.sol\":2549:2598  thisRequest.recipient.transfer(thisRequest.value) */\n      swap1\n      dup2\n      iszero\n      mul\n      swap1\n      mload(0x40)\n      0x00\n      mload(0x40)\n      dup1\n      dup4\n      sub\n      dup2\n      dup6\n      dup9\n      dup9\n      call\n      swap4\n      pop\n      pop\n      pop\n      pop\n      iszero\n      dup1\n      iszero\n      tag_92\n      jumpi\n      returndatasize\n      0x00\n      dup1\n      returndatacopy\n      revert(0x00, returndatasize)\n    tag_92:\n      pop\n        /* \"Contrato/Contrato_Copilado.sol\":2625:2629  true */\n      0x01\n        /* \"Contrato/Contrato_Copilado.sol\":2601:2612  thisRequest */\n      dup2\n        /* \"Contrato/Contrato_Copilado.sol\":2601:2622  thisRequest.completed */\n      0x03\n      add\n      0x00\n        /* \"Contrato/Contrato_Copilado.sol\":2601:2629  thisRequest.completed = true */\n      0x0100\n      exp\n      dup2\n      sload\n      dup2\n      0xff\n      mul\n      not\n      and\n      swap1\n      dup4\n      iszero\n      iszero\n      mul\n      or\n      swap1\n      sstore\n      pop\n        /* \"Contrato/Contrato_Copilado.sol\":2358:2633  {... */\n      pop\n        /* \"Contrato/Contrato_Copilado.sol\":2300:2633  function makePayment(uint _requestNum) public onlyManager {... */\n      pop\n      jump\t// out\n        /* \"Contrato/Contrato_Copilado.sol\":1161:1505  function refund() public {... */\n    tag_47:\n        /* \"Contrato/Contrato_Copilado.sol\":1215:1223  deadline */\n      sload(0x02)\n        /* \"Contrato/Contrato_Copilado.sol\":1197:1212  block.timestamp */\n      timestamp\n        /* \"Contrato/Contrato_Copilado.sol\":1197:1223  block.timestamp > deadline */\n      gt\n        /* \"Contrato/Contrato_Copilado.sol\":1197:1254  block.timestamp > deadline && raisedAmount < targetAmount */\n      dup1\n      iszero\n      tag_94\n      jumpi\n      pop\n        /* \"Contrato/Contrato_Copilado.sol\":1242:1254  targetAmount */\n      sload(0x03)\n        /* \"Contrato/Contrato_Copilado.sol\":1227:1239  raisedAmount */\n      sload(0x04)\n        /* \"Contrato/Contrato_Copilado.sol\":1227:1254  raisedAmount < targetAmount */\n      lt\n        /* \"Contrato/Contrato_Copilado.sol\":1197:1254  block.timestamp > deadline && raisedAmount < targetAmount */\n    tag_94:\n        /* \"Contrato/Contrato_Copilado.sol\":1189:1307  require(block.timestamp > deadline && raisedAmount < targetAmount, \"La meta fue alcanzada o el plazo no ha terminado\") */\n      tag_95\n      jumpi\n      mload(0x40)\n      0x08c379a000000000000000000000000000000000000000000000000000000000\n      dup2\n      mstore\n      0x04\n      add\n      tag_96\n      swap1\n      tag_97\n      jump\t// in\n    tag_96:\n      mload(0x40)\n      dup1\n      swap2\n      sub\n      swap1\n      revert\n    tag_95:\n        /* \"Contrato/Contrato_Copilado.sol\":1310:1329  uint amountToRefund */\n      0x00\n        /* \"Contrato/Contrato_Copilado.sol\":1332:1348  fundContributors */\n      dup1\n        /* \"Contrato/Contrato_Copilado.sol\":1332:1360  fundContributors[msg.sender] */\n      0x00\n        /* \"Contrato/Contrato_Copilado.sol\":1349:1359  msg.sender */\n      caller\n        /* \"Contrato/Contrato_Copilado.sol\":1332:1360  fundContributors[msg.sender] */\n      0xffffffffffffffffffffffffffffffffffffffff\n      and\n      0xffffffffffffffffffffffffffffffffffffffff\n      and\n      dup2\n      mstore\n      0x20\n      add\n      swap1\n      dup2\n      mstore\n      0x20\n      add\n      0x00\n      keccak256\n      sload\n        /* \"Contrato/Contrato_Copilado.sol\":1310:1360  uint amountToRefund = fundContributors[msg.sender] */\n      swap1\n      pop\n        /* \"Contrato/Contrato_Copilado.sol\":1388:1389  0 */\n      0x00\n        /* \"Contrato/Contrato_Copilado.sol\":1371:1385  amountToRefund */\n      dup2\n        /* \"Contrato/Contrato_Copilado.sol\":1371:1389  amountToRefund > 0 */\n      gt\n        /* \"Contrato/Contrato_Copilado.sol\":1363:1419  require(amountToRefund > 0, \"No has contribuido fondos\") */\n      tag_98\n      jumpi\n      mload(0x40)\n      0x08c379a000000000000000000000000000000000000000000000000000000000\n      dup2\n      mstore\n      0x04\n      add\n      tag_99\n      swap1\n      tag_100\n      jump\t// in\n    tag_99:\n      mload(0x40)\n      dup1\n      swap2\n      sub\n      swap1\n      revert\n    tag_98:\n        /* \"Contrato/Contrato_Copilado.sol\":1453:1454  0 */\n      0x00\n        /* \"Contrato/Contrato_Copilado.sol\":1422:1438  fundContributors */\n      dup1\n        /* \"Contrato/Contrato_Copilado.sol\":1422:1450  fundContributors[msg.sender] */\n      0x00\n        /* \"Contrato/Contrato_Copilado.sol\":1439:1449  msg.sender */\n      caller\n        /* \"Contrato/Contrato_Copilado.sol\":1422:1450  fundContributors[msg.sender] */\n      0xffffffffffffffffffffffffffffffffffffffff\n      and\n      0xffffffffffffffffffffffffffffffffffffffff\n      and\n      dup2\n      mstore\n      0x20\n      add\n      swap1\n      dup2\n      mstore\n      0x20\n      add\n      0x00\n      keccak256\n        /* \"Contrato/Contrato_Copilado.sol\":1422:1454  fundContributors[msg.sender] = 0 */\n      dup2\n      swap1\n      sstore\n      pop\n        /* \"Contrato/Contrato_Copilado.sol\":1465:1475  msg.sender */\n      caller\n        /* \"Contrato/Contrato_Copilado.sol\":1457:1485  payable(msg.sender).transfer */\n      0xffffffffffffffffffffffffffffffffffffffff\n      and\n        /* \"Contrato/Contrato_Copilado.sol\":1457:1501  payable(msg.sender).transfer(amountToRefund) */\n      0x08fc\n        /* \"Contrato/Contrato_Copilado.sol\":1486:1500  amountToRefund */\n      dup3\n        /* \"Contrato/Contrato_Copilado.sol\":1457:1501  payable(msg.sender).transfer(amountToRefund) */\n      swap1\n      dup2\n      iszero\n      mul\n      swap1\n      mload(0x40)\n      0x00\n      mload(0x40)\n      dup1\n      dup4\n      sub\n      dup2\n      dup6\n      dup9\n      dup9\n      call\n      swap4\n      pop\n      pop\n      pop\n      pop\n      iszero\n      dup1\n      iszero\n      tag_102\n      jumpi\n      returndatasize\n      0x00\n      dup1\n      returndatacopy\n      revert(0x00, returndatasize)\n    tag_102:\n      pop\n        /* \"Contrato/Contrato_Copilado.sol\":1186:1505  {... */\n      pop\n        /* \"Contrato/Contrato_Copilado.sol\":1161:1505  function refund() public {... */\n      jump\t// out\n        /* \"Contrato/Contrato_Copilado.sol\":480:520  mapping(uint => Request) public requests */\n    tag_51:\n      mstore(0x20, 0x05)\n      dup1\n      0x00\n      mstore\n      keccak256(0x00, 0x40)\n      0x00\n      swap2\n      pop\n      swap1\n      pop\n      dup1\n      0x00\n      add\n      dup1\n      sload\n      tag_103\n      swap1\n      tag_104\n      jump\t// in\n    tag_103:\n      dup1\n      0x1f\n      add\n      0x20\n      dup1\n      swap2\n      div\n      mul\n      0x20\n      add\n      mload(0x40)\n      swap1\n      dup2\n      add\n      0x40\n      mstore\n      dup1\n      swap3\n      swap2\n      swap1\n      dup2\n      dup2\n      mstore\n      0x20\n      add\n      dup3\n      dup1\n      sload\n      tag_105\n      swap1\n      tag_104\n      jump\t// in\n    tag_105:\n      dup1\n      iszero\n      tag_106\n      jumpi\n      dup1\n      0x1f\n      lt\n      tag_107\n      jumpi\n      0x0100\n      dup1\n      dup4\n      sload\n      div\n      mul\n      dup4\n      mstore\n      swap2\n      0x20\n      add\n      swap2\n      jump(tag_106)\n    tag_107:\n      dup3\n      add\n      swap2\n      swap1\n      0x00\n      mstore\n      keccak256(0x00, 0x20)\n      swap1\n    tag_108:\n      dup2\n      sload\n      dup2\n      mstore\n      swap1\n      0x01\n      add\n      swap1\n      0x20\n      add\n      dup1\n      dup4\n      gt\n      tag_108\n      jumpi\n      dup3\n      swap1\n      sub\n      0x1f\n      and\n      dup3\n      add\n      swap2\n    tag_106:\n      pop\n      pop\n      pop\n      pop\n      pop\n      swap1\n      dup1\n      0x01\n      add\n      0x00\n      swap1\n      sload\n      swap1\n      0x0100\n      exp\n      swap1\n      div\n      0xffffffffffffffffffffffffffffffffffffffff\n      and\n      swap1\n      dup1\n      0x02\n      add\n      sload\n      swap1\n      dup1\n      0x03\n      add\n      0x00\n      swap1\n      sload\n      swap1\n      0x0100\n      exp\n      swap1\n      div\n      0xff\n      and\n      swap1\n      pop\n      dup5\n      jump\t// out\n        /* \"Contrato/Contrato_Copilado.sol\":762:937  function sendFunds() public payable {... */\n    tag_55:\n        /* \"Contrato/Contrato_Copilado.sol\":827:835  deadline */\n      sload(0x02)\n        /* \"Contrato/Contrato_Copilado.sol\":809:824  block.timestamp */\n      timestamp\n        /* \"Contrato/Contrato_Copilado.sol\":809:835  block.timestamp < deadline */\n      lt\n        /* \"Contrato/Contrato_Copilado.sol\":801:861  require(block.timestamp < deadline, \"El plazo ha terminado\") */\n      tag_110\n      jumpi\n      mload(0x40)\n      0x08c379a000000000000000000000000000000000000000000000000000000000\n      dup2\n      mstore\n      0x04\n      add\n      tag_111\n      swap1\n      tag_112\n      jump\t// in\n    tag_111:\n      mload(0x40)\n      dup1\n      swap2\n      sub\n      swap1\n      revert\n    tag_110:\n        /* \"Contrato/Contrato_Copilado.sol\":896:905  msg.value */\n      callvalue\n        /* \"Contrato/Contrato_Copilado.sol\":864:880  fundContributors */\n      0x00\n        /* \"Contrato/Contrato_Copilado.sol\":864:892  fundContributors[msg.sender] */\n      dup1\n        /* \"Contrato/Contrato_Copilado.sol\":881:891  msg.sender */\n      caller\n        /* \"Contrato/Contrato_Copilado.sol\":864:892  fundContributors[msg.sender] */\n      0xffffffffffffffffffffffffffffffffffffffff\n      and\n      0xffffffffffffffffffffffffffffffffffffffff\n      and\n      dup2\n      mstore\n      0x20\n      add\n      swap1\n      dup2\n      mstore\n      0x20\n      add\n      0x00\n      keccak256\n      0x00\n        /* \"Contrato/Contrato_Copilado.sol\":864:905  fundContributors[msg.sender] += msg.value */\n      dup3\n      dup3\n      sload\n      tag_113\n      swap2\n      swap1\n      tag_114\n      jump\t// in\n    tag_113:\n      swap3\n      pop\n      pop\n      dup2\n      swap1\n      sstore\n      pop\n        /* \"Contrato/Contrato_Copilado.sol\":924:933  msg.value */\n      callvalue\n        /* \"Contrato/Contrato_Copilado.sol\":908:920  raisedAmount */\n      0x04\n      0x00\n        /* \"Contrato/Contrato_Copilado.sol\":908:933  raisedAmount += msg.value */\n      dup3\n      dup3\n      sload\n      tag_115\n      swap2\n      swap1\n      tag_114\n      jump\t// in\n    tag_115:\n      swap3\n      pop\n      pop\n      dup2\n      swap1\n      sstore\n      pop\n        /* \"Contrato/Contrato_Copilado.sol\":762:937  function sendFunds() public payable {... */\n      jump\t// out\n        /* \"Contrato/Contrato_Copilado.sol\":266:290  uint public targetAmount */\n    tag_58:\n      sload(0x03)\n      dup2\n      jump\t// out\n        /* \"Contrato/Contrato_Copilado.sol\":523:546  uint public numRequests */\n    tag_62:\n      sload(0x06)\n      dup2\n      jump\t// out\n        /* \"Contrato/Contrato_Copilado.sol\":320:344  uint public raisedAmount */\n    tag_66:\n      sload(0x04)\n      dup2\n      jump\t// out\n        /* \"#utility.yul\":7:84   */\n    tag_116:\n        /* \"#utility.yul\":44:51   */\n      0x00\n        /* \"#utility.yul\":73:78   */\n      dup2\n        /* \"#utility.yul\":62:78   */\n      swap1\n      pop\n        /* \"#utility.yul\":7:84   */\n      swap2\n      swap1\n      pop\n      jump\t// out\n        /* \"#utility.yul\":90:208   */\n    tag_117:\n        /* \"#utility.yul\":177:201   */\n      tag_182\n        /* \"#utility.yul\":195:200   */\n      dup2\n        /* \"#utility.yul\":177:201   */\n      tag_116\n      jump\t// in\n    tag_182:\n        /* \"#utility.yul\":172:175   */\n      dup3\n        /* \"#utility.yul\":165:202   */\n      mstore\n        /* \"#utility.yul\":90:208   */\n      pop\n      pop\n      jump\t// out\n        /* \"#utility.yul\":214:436   */\n    tag_19:\n        /* \"#utility.yul\":307:311   */\n      0x00\n        /* \"#utility.yul\":345:347   */\n      0x20\n        /* \"#utility.yul\":334:343   */\n      dup3\n        /* \"#utility.yul\":330:348   */\n      add\n        /* \"#utility.yul\":322:348   */\n      swap1\n      pop\n        /* \"#utility.yul\":358:429   */\n      tag_184\n        /* \"#utility.yul\":426:427   */\n      0x00\n        /* \"#utility.yul\":415:424   */\n      dup4\n        /* \"#utility.yul\":411:428   */\n      add\n        /* \"#utility.yul\":402:408   */\n      dup5\n        /* \"#utility.yul\":358:429   */\n      tag_117\n      jump\t// in\n    tag_184:\n        /* \"#utility.yul\":214:436   */\n      swap3\n      swap2\n      pop\n      pop\n      jump\t// out\n        /* \"#utility.yul\":442:517   */\n    tag_118:\n        /* \"#utility.yul\":475:481   */\n      0x00\n        /* \"#utility.yul\":508:510   */\n      0x40\n        /* \"#utility.yul\":502:511   */\n      mload\n        /* \"#utility.yul\":492:511   */\n      swap1\n      pop\n        /* \"#utility.yul\":442:517   */\n      swap1\n      jump\t// out\n        /* \"#utility.yul\":523:640   */\n    tag_119:\n        /* \"#utility.yul\":632:633   */\n      0x00\n        /* \"#utility.yul\":629:630   */\n      dup1\n        /* \"#utility.yul\":622:634   */\n      revert\n        /* \"#utility.yul\":646:763   */\n    tag_120:\n        /* \"#utility.yul\":755:756   */\n      0x00\n        /* \"#utility.yul\":752:753   */\n      dup1\n        /* \"#utility.yul\":745:757   */\n      revert\n        /* \"#utility.yul\":769:886   */\n    tag_121:\n        /* \"#utility.yul\":878:879   */\n      0x00\n        /* \"#utility.yul\":875:876   */\n      dup1\n        /* \"#utility.yul\":868:880   */\n      revert\n        /* \"#utility.yul\":892:1009   */\n    tag_122:\n        /* \"#utility.yul\":1001:1002   */\n      0x00\n        /* \"#utility.yul\":998:999   */\n      dup1\n        /* \"#utility.yul\":991:1003   */\n      revert\n        /* \"#utility.yul\":1015:1117   */\n    tag_123:\n        /* \"#utility.yul\":1056:1062   */\n      0x00\n        /* \"#utility.yul\":1107:1109   */\n      0x1f\n        /* \"#utility.yul\":1103:1110   */\n      not\n        /* \"#utility.yul\":1098:1100   */\n      0x1f\n        /* \"#utility.yul\":1091:1096   */\n      dup4\n        /* \"#utility.yul\":1087:1101   */\n      add\n        /* \"#utility.yul\":1083:1111   */\n      and\n        /* \"#utility.yul\":1073:1111   */\n      swap1\n      pop\n        /* \"#utility.yul\":1015:1117   */\n      swap2\n      swap1\n      pop\n      jump\t// out\n        /* \"#utility.yul\":1123:1303   */\n    tag_124:\n        /* \"#utility.yul\":1171:1248   */\n      0x4e487b7100000000000000000000000000000000000000000000000000000000\n        /* \"#utility.yul\":1168:1169   */\n      0x00\n        /* \"#utility.yul\":1161:1249   */\n      mstore\n        /* \"#utility.yul\":1268:1272   */\n      0x41\n        /* \"#utility.yul\":1265:1266   */\n      0x04\n        /* \"#utility.yul\":1258:1273   */\n      mstore\n        /* \"#utility.yul\":1292:1296   */\n      0x24\n        /* \"#utility.yul\":1289:1290   */\n      0x00\n        /* \"#utility.yul\":1282:1297   */\n      revert\n        /* \"#utility.yul\":1309:1590   */\n    tag_125:\n        /* \"#utility.yul\":1392:1419   */\n      tag_193\n        /* \"#utility.yul\":1414:1418   */\n      dup3\n        /* \"#utility.yul\":1392:1419   */\n      tag_123\n      jump\t// in\n    tag_193:\n        /* \"#utility.yul\":1384:1390   */\n      dup2\n        /* \"#utility.yul\":1380:1420   */\n      add\n        /* \"#utility.yul\":1522:1528   */\n      dup2\n        /* \"#utility.yul\":1510:1520   */\n      dup2\n        /* \"#utility.yul\":1507:1529   */\n      lt\n        /* \"#utility.yul\":1486:1504   */\n      0xffffffffffffffff\n        /* \"#utility.yul\":1474:1484   */\n      dup3\n        /* \"#utility.yul\":1471:1505   */\n      gt\n        /* \"#utility.yul\":1468:1530   */\n      or\n        /* \"#utility.yul\":1465:1553   */\n      iszero\n      tag_194\n      jumpi\n        /* \"#utility.yul\":1533:1551   */\n      tag_195\n      tag_124\n      jump\t// in\n    tag_195:\n        /* \"#utility.yul\":1465:1553   */\n    tag_194:\n        /* \"#utility.yul\":1573:1583   */\n      dup1\n        /* \"#utility.yul\":1569:1571   */\n      0x40\n        /* \"#utility.yul\":1562:1584   */\n      mstore\n        /* \"#utility.yul\":1352:1590   */\n      pop\n        /* \"#utility.yul\":1309:1590   */\n      pop\n      pop\n      jump\t// out\n        /* \"#utility.yul\":1596:1725   */\n    tag_126:\n        /* \"#utility.yul\":1630:1636   */\n      0x00\n        /* \"#utility.yul\":1657:1677   */\n      tag_197\n      tag_118\n      jump\t// in\n    tag_197:\n        /* \"#utility.yul\":1647:1677   */\n      swap1\n      pop\n        /* \"#utility.yul\":1686:1719   */\n      tag_198\n        /* \"#utility.yul\":1714:1718   */\n      dup3\n        /* \"#utility.yul\":1706:1712   */\n      dup3\n        /* \"#utility.yul\":1686:1719   */\n      tag_125\n      jump\t// in\n    tag_198:\n        /* \"#utility.yul\":1596:1725   */\n      swap2\n      swap1\n      pop\n      jump\t// out\n        /* \"#utility.yul\":1731:2039   */\n    tag_127:\n        /* \"#utility.yul\":1793:1797   */\n      0x00\n        /* \"#utility.yul\":1883:1901   */\n      0xffffffffffffffff\n        /* \"#utility.yul\":1875:1881   */\n      dup3\n        /* \"#utility.yul\":1872:1902   */\n      gt\n        /* \"#utility.yul\":1869:1925   */\n      iszero\n      tag_200\n      jumpi\n        /* \"#utility.yul\":1905:1923   */\n      tag_201\n      tag_124\n      jump\t// in\n    tag_201:\n        /* \"#utility.yul\":1869:1925   */\n    tag_200:\n        /* \"#utility.yul\":1943:1972   */\n      tag_202\n        /* \"#utility.yul\":1965:1971   */\n      dup3\n        /* \"#utility.yul\":1943:1972   */\n      tag_123\n      jump\t// in\n    tag_202:\n        /* \"#utility.yul\":1935:1972   */\n      swap1\n      pop\n        /* \"#utility.yul\":2027:2031   */\n      0x20\n        /* \"#utility.yul\":2021:2025   */\n      dup2\n        /* \"#utility.yul\":2017:2032   */\n      add\n        /* \"#utility.yul\":2009:2032   */\n      swap1\n      pop\n        /* \"#utility.yul\":1731:2039   */\n      swap2\n      swap1\n      pop\n      jump\t// out\n        /* \"#utility.yul\":2045:2193   */\n    tag_128:\n        /* \"#utility.yul\":2143:2149   */\n      dup3\n        /* \"#utility.yul\":2138:2141   */\n      dup2\n        /* \"#utility.yul\":2133:2136   */\n      dup4\n        /* \"#utility.yul\":2120:2150   */\n      calldatacopy\n        /* \"#utility.yul\":2184:2185   */\n      0x00\n        /* \"#utility.yul\":2175:2181   */\n      dup4\n        /* \"#utility.yul\":2170:2173   */\n      dup4\n        /* \"#utility.yul\":2166:2182   */\n      add\n        /* \"#utility.yul\":2159:2186   */\n      mstore\n        /* \"#utility.yul\":2045:2193   */\n      pop\n      pop\n      pop\n      jump\t// out\n        /* \"#utility.yul\":2199:2624   */\n    tag_129:\n        /* \"#utility.yul\":2277:2282   */\n      0x00\n        /* \"#utility.yul\":2302:2368   */\n      tag_205\n        /* \"#utility.yul\":2318:2367   */\n      tag_206\n        /* \"#utility.yul\":2360:2366   */\n      dup5\n        /* \"#utility.yul\":2318:2367   */\n      tag_127\n      jump\t// in\n    tag_206:\n        /* \"#utility.yul\":2302:2368   */\n      tag_126\n      jump\t// in\n    tag_205:\n        /* \"#utility.yul\":2293:2368   */\n      swap1\n      pop\n        /* \"#utility.yul\":2391:2397   */\n      dup3\n        /* \"#utility.yul\":2384:2389   */\n      dup2\n        /* \"#utility.yul\":2377:2398   */\n      mstore\n        /* \"#utility.yul\":2429:2433   */\n      0x20\n        /* \"#utility.yul\":2422:2427   */\n      dup2\n        /* \"#utility.yul\":2418:2434   */\n      add\n        /* \"#utility.yul\":2467:2470   */\n      dup5\n        /* \"#utility.yul\":2458:2464   */\n      dup5\n        /* \"#utility.yul\":2453:2456   */\n      dup5\n        /* \"#utility.yul\":2449:2465   */\n      add\n        /* \"#utility.yul\":2446:2471   */\n      gt\n        /* \"#utility.yul\":2443:2555   */\n      iszero\n      tag_207\n      jumpi\n        /* \"#utility.yul\":2474:2553   */\n      tag_208\n      tag_122\n      jump\t// in\n    tag_208:\n        /* \"#utility.yul\":2443:2555   */\n    tag_207:\n        /* \"#utility.yul\":2564:2618   */\n      tag_209\n        /* \"#utility.yul\":2611:2617   */\n      dup5\n        /* \"#utility.yul\":2606:2609   */\n      dup3\n        /* \"#utility.yul\":2601:2604   */\n      dup6\n        /* \"#utility.yul\":2564:2618   */\n      tag_128\n      jump\t// in\n    tag_209:\n        /* \"#utility.yul\":2283:2624   */\n      pop\n        /* \"#utility.yul\":2199:2624   */\n      swap4\n      swap3\n      pop\n      pop\n      pop\n      jump\t// out\n        /* \"#utility.yul\":2644:2984   */\n    tag_130:\n        /* \"#utility.yul\":2700:2705   */\n      0x00\n        /* \"#utility.yul\":2749:2752   */\n      dup3\n        /* \"#utility.yul\":2742:2746   */\n      0x1f\n        /* \"#utility.yul\":2734:2740   */\n      dup4\n        /* \"#utility.yul\":2730:2747   */\n      add\n        /* \"#utility.yul\":2726:2753   */\n      slt\n        /* \"#utility.yul\":2716:2838   */\n      tag_211\n      jumpi\n        /* \"#utility.yul\":2757:2836   */\n      tag_212\n      tag_121\n      jump\t// in\n    tag_212:\n        /* \"#utility.yul\":2716:2838   */\n    tag_211:\n        /* \"#utility.yul\":2874:2880   */\n      dup2\n        /* \"#utility.yul\":2861:2881   */\n      calldataload\n        /* \"#utility.yul\":2899:2978   */\n      tag_213\n        /* \"#utility.yul\":2974:2977   */\n      dup5\n        /* \"#utility.yul\":2966:2972   */\n      dup3\n        /* \"#utility.yul\":2959:2963   */\n      0x20\n        /* \"#utility.yul\":2951:2957   */\n      dup7\n        /* \"#utility.yul\":2947:2964   */\n      add\n        /* \"#utility.yul\":2899:2978   */\n      tag_129\n      jump\t// in\n    tag_213:\n        /* \"#utility.yul\":2890:2978   */\n      swap2\n      pop\n        /* \"#utility.yul\":2706:2984   */\n      pop\n        /* \"#utility.yul\":2644:2984   */\n      swap3\n      swap2\n      pop\n      pop\n      jump\t// out\n        /* \"#utility.yul\":2990:3116   */\n    tag_131:\n        /* \"#utility.yul\":3027:3034   */\n      0x00\n        /* \"#utility.yul\":3067:3109   */\n      0xffffffffffffffffffffffffffffffffffffffff\n        /* \"#utility.yul\":3060:3065   */\n      dup3\n        /* \"#utility.yul\":3056:3110   */\n      and\n        /* \"#utility.yul\":3045:3110   */\n      swap1\n      pop\n        /* \"#utility.yul\":2990:3116   */\n      swap2\n      swap1\n      pop\n      jump\t// out\n        /* \"#utility.yul\":3122:3226   */\n    tag_132:\n        /* \"#utility.yul\":3167:3174   */\n      0x00\n        /* \"#utility.yul\":3196:3220   */\n      tag_216\n        /* \"#utility.yul\":3214:3219   */\n      dup3\n        /* \"#utility.yul\":3196:3220   */\n      tag_131\n      jump\t// in\n    tag_216:\n        /* \"#utility.yul\":3185:3220   */\n      swap1\n      pop\n        /* \"#utility.yul\":3122:3226   */\n      swap2\n      swap1\n      pop\n      jump\t// out\n        /* \"#utility.yul\":3232:3370   */\n    tag_133:\n        /* \"#utility.yul\":3313:3345   */\n      tag_218\n        /* \"#utility.yul\":3339:3344   */\n      dup2\n        /* \"#utility.yul\":3313:3345   */\n      tag_132\n      jump\t// in\n    tag_218:\n        /* \"#utility.yul\":3306:3311   */\n      dup2\n        /* \"#utility.yul\":3303:3346   */\n      eq\n        /* \"#utility.yul\":3293:3364   */\n      tag_219\n      jumpi\n        /* \"#utility.yul\":3360:3361   */\n      0x00\n        /* \"#utility.yul\":3357:3358   */\n      dup1\n        /* \"#utility.yul\":3350:3362   */\n      revert\n        /* \"#utility.yul\":3293:3364   */\n    tag_219:\n        /* \"#utility.yul\":3232:3370   */\n      pop\n      jump\t// out\n        /* \"#utility.yul\":3376:3531   */\n    tag_134:\n        /* \"#utility.yul\":3430:3435   */\n      0x00\n        /* \"#utility.yul\":3468:3474   */\n      dup2\n        /* \"#utility.yul\":3455:3475   */\n      calldataload\n        /* \"#utility.yul\":3446:3475   */\n      swap1\n      pop\n        /* \"#utility.yul\":3484:3525   */\n      tag_221\n        /* \"#utility.yul\":3519:3524   */\n      dup2\n        /* \"#utility.yul\":3484:3525   */\n      tag_133\n      jump\t// in\n    tag_221:\n        /* \"#utility.yul\":3376:3531   */\n      swap3\n      swap2\n      pop\n      pop\n      jump\t// out\n        /* \"#utility.yul\":3537:3659   */\n    tag_135:\n        /* \"#utility.yul\":3610:3634   */\n      tag_223\n        /* \"#utility.yul\":3628:3633   */\n      dup2\n        /* \"#utility.yul\":3610:3634   */\n      tag_116\n      jump\t// in\n    tag_223:\n        /* \"#utility.yul\":3603:3608   */\n      dup2\n        /* \"#utility.yul\":3600:3635   */\n      eq\n        /* \"#utility.yul\":3590:3653   */\n      tag_224\n      jumpi\n        /* \"#utility.yul\":3649:3650   */\n      0x00\n        /* \"#utility.yul\":3646:3647   */\n      dup1\n        /* \"#utility.yul\":3639:3651   */\n      revert\n        /* \"#utility.yul\":3590:3653   */\n    tag_224:\n        /* \"#utility.yul\":3537:3659   */\n      pop\n      jump\t// out\n        /* \"#utility.yul\":3665:3804   */\n    tag_136:\n        /* \"#utility.yul\":3711:3716   */\n      0x00\n        /* \"#utility.yul\":3749:3755   */\n      dup2\n        /* \"#utility.yul\":3736:3756   */\n      calldataload\n        /* \"#utility.yul\":3727:3756   */\n      swap1\n      pop\n        /* \"#utility.yul\":3765:3798   */\n      tag_226\n        /* \"#utility.yul\":3792:3797   */\n      dup2\n        /* \"#utility.yul\":3765:3798   */\n      tag_135\n      jump\t// in\n    tag_226:\n        /* \"#utility.yul\":3665:3804   */\n      swap3\n      swap2\n      pop\n      pop\n      jump\t// out\n        /* \"#utility.yul\":3810:4625   */\n    tag_23:\n        /* \"#utility.yul\":3905:3911   */\n      0x00\n        /* \"#utility.yul\":3913:3919   */\n      dup1\n        /* \"#utility.yul\":3921:3927   */\n      0x00\n        /* \"#utility.yul\":3970:3972   */\n      0x60\n        /* \"#utility.yul\":3958:3967   */\n      dup5\n        /* \"#utility.yul\":3949:3956   */\n      dup7\n        /* \"#utility.yul\":3945:3968   */\n      sub\n        /* \"#utility.yul\":3941:3973   */\n      slt\n        /* \"#utility.yul\":3938:4057   */\n      iszero\n      tag_228\n      jumpi\n        /* \"#utility.yul\":3976:4055   */\n      tag_229\n      tag_119\n      jump\t// in\n    tag_229:\n        /* \"#utility.yul\":3938:4057   */\n    tag_228:\n        /* \"#utility.yul\":4124:4125   */\n      0x00\n        /* \"#utility.yul\":4113:4122   */\n      dup5\n        /* \"#utility.yul\":4109:4126   */\n      add\n        /* \"#utility.yul\":4096:4127   */\n      calldataload\n        /* \"#utility.yul\":4154:4172   */\n      0xffffffffffffffff\n        /* \"#utility.yul\":4146:4152   */\n      dup2\n        /* \"#utility.yul\":4143:4173   */\n      gt\n        /* \"#utility.yul\":4140:4257   */\n      iszero\n      tag_230\n      jumpi\n        /* \"#utility.yul\":4176:4255   */\n      tag_231\n      tag_120\n      jump\t// in\n    tag_231:\n        /* \"#utility.yul\":4140:4257   */\n    tag_230:\n        /* \"#utility.yul\":4281:4344   */\n      tag_232\n        /* \"#utility.yul\":4336:4343   */\n      dup7\n        /* \"#utility.yul\":4327:4333   */\n      dup3\n        /* \"#utility.yul\":4316:4325   */\n      dup8\n        /* \"#utility.yul\":4312:4334   */\n      add\n        /* \"#utility.yul\":4281:4344   */\n      tag_130\n      jump\t// in\n    tag_232:\n        /* \"#utility.yul\":4271:4344   */\n      swap4\n      pop\n        /* \"#utility.yul\":4067:4354   */\n      pop\n        /* \"#utility.yul\":4393:4395   */\n      0x20\n        /* \"#utility.yul\":4419:4480   */\n      tag_233\n        /* \"#utility.yul\":4472:4479   */\n      dup7\n        /* \"#utility.yul\":4463:4469   */\n      dup3\n        /* \"#utility.yul\":4452:4461   */\n      dup8\n        /* \"#utility.yul\":4448:4470   */\n      add\n        /* \"#utility.yul\":4419:4480   */\n      tag_134\n      jump\t// in\n    tag_233:\n        /* \"#utility.yul\":4409:4480   */\n      swap3\n      pop\n        /* \"#utility.yul\":4364:4490   */\n      pop\n        /* \"#utility.yul\":4529:4531   */\n      0x40\n        /* \"#utility.yul\":4555:4608   */\n      tag_234\n        /* \"#utility.yul\":4600:4607   */\n      dup7\n        /* \"#utility.yul\":4591:4597   */\n      dup3\n        /* \"#utility.yul\":4580:4589   */\n      dup8\n        /* \"#utility.yul\":4576:4598   */\n      add\n        /* \"#utility.yul\":4555:4608   */\n      tag_136\n      jump\t// in\n    tag_234:\n        /* \"#utility.yul\":4545:4608   */\n      swap2\n      pop\n        /* \"#utility.yul\":4500:4618   */\n      pop\n        /* \"#utility.yul\":3810:4625   */\n      swap3\n      pop\n      swap3\n      pop\n      swap3\n      jump\t// out\n        /* \"#utility.yul\":4631:4727   */\n    tag_137:\n        /* \"#utility.yul\":4668:4675   */\n      0x00\n        /* \"#utility.yul\":4697:4721   */\n      tag_236\n        /* \"#utility.yul\":4715:4720   */\n      dup3\n        /* \"#utility.yul\":4697:4721   */\n      tag_131\n      jump\t// in\n    tag_236:\n        /* \"#utility.yul\":4686:4721   */\n      swap1\n      pop\n        /* \"#utility.yul\":4631:4727   */\n      swap2\n      swap1\n      pop\n      jump\t// out\n        /* \"#utility.yul\":4733:4855   */\n    tag_138:\n        /* \"#utility.yul\":4806:4830   */\n      tag_238\n        /* \"#utility.yul\":4824:4829   */\n      dup2\n        /* \"#utility.yul\":4806:4830   */\n      tag_137\n      jump\t// in\n    tag_238:\n        /* \"#utility.yul\":4799:4804   */\n      dup2\n        /* \"#utility.yul\":4796:4831   */\n      eq\n        /* \"#utility.yul\":4786:4849   */\n      tag_239\n      jumpi\n        /* \"#utility.yul\":4845:4846   */\n      0x00\n        /* \"#utility.yul\":4842:4843   */\n      dup1\n        /* \"#utility.yul\":4835:4847   */\n      revert\n        /* \"#utility.yul\":4786:4849   */\n    tag_239:\n        /* \"#utility.yul\":4733:4855   */\n      pop\n      jump\t// out\n        /* \"#utility.yul\":4861:5000   */\n    tag_139:\n        /* \"#utility.yul\":4907:4912   */\n      0x00\n        /* \"#utility.yul\":4945:4951   */\n      dup2\n        /* \"#utility.yul\":4932:4952   */\n      calldataload\n        /* \"#utility.yul\":4923:4952   */\n      swap1\n      pop\n        /* \"#utility.yul\":4961:4994   */\n      tag_241\n        /* \"#utility.yul\":4988:4993   */\n      dup2\n        /* \"#utility.yul\":4961:4994   */\n      tag_138\n      jump\t// in\n    tag_241:\n        /* \"#utility.yul\":4861:5000   */\n      swap3\n      swap2\n      pop\n      pop\n      jump\t// out\n        /* \"#utility.yul\":5006:5335   */\n    tag_32:\n        /* \"#utility.yul\":5065:5071   */\n      0x00\n        /* \"#utility.yul\":5114:5116   */\n      0x20\n        /* \"#utility.yul\":5102:5111   */\n      dup3\n        /* \"#utility.yul\":5093:5100   */\n      dup5\n        /* \"#utility.yul\":5089:5112   */\n      sub\n        /* \"#utility.yul\":5085:5117   */\n      slt\n        /* \"#utility.yul\":5082:5201   */\n      iszero\n      tag_243\n      jumpi\n        /* \"#utility.yul\":5120:5199   */\n      tag_244\n      tag_119\n      jump\t// in\n    tag_244:\n        /* \"#utility.yul\":5082:5201   */\n    tag_243:\n        /* \"#utility.yul\":5240:5241   */\n      0x00\n        /* \"#utility.yul\":5265:5318   */\n      tag_245\n        /* \"#utility.yul\":5310:5317   */\n      dup5\n        /* \"#utility.yul\":5301:5307   */\n      dup3\n        /* \"#utility.yul\":5290:5299   */\n      dup6\n        /* \"#utility.yul\":5286:5308   */\n      add\n        /* \"#utility.yul\":5265:5318   */\n      tag_139\n      jump\t// in\n    tag_245:\n        /* \"#utility.yul\":5255:5318   */\n      swap2\n      pop\n        /* \"#utility.yul\":5211:5328   */\n      pop\n        /* \"#utility.yul\":5006:5335   */\n      swap3\n      swap2\n      pop\n      pop\n      jump\t// out\n        /* \"#utility.yul\":5341:5459   */\n    tag_140:\n        /* \"#utility.yul\":5428:5452   */\n      tag_247\n        /* \"#utility.yul\":5446:5451   */\n      dup2\n        /* \"#utility.yul\":5428:5452   */\n      tag_137\n      jump\t// in\n    tag_247:\n        /* \"#utility.yul\":5423:5426   */\n      dup3\n        /* \"#utility.yul\":5416:5453   */\n      mstore\n        /* \"#utility.yul\":5341:5459   */\n      pop\n      pop\n      jump\t// out\n        /* \"#utility.yul\":5465:5687   */\n    tag_39:\n        /* \"#utility.yul\":5558:5562   */\n      0x00\n        /* \"#utility.yul\":5596:5598   */\n      0x20\n        /* \"#utility.yul\":5585:5594   */\n      dup3\n        /* \"#utility.yul\":5581:5599   */\n      add\n        /* \"#utility.yul\":5573:5599   */\n      swap1\n      pop\n        /* \"#utility.yul\":5609:5680   */\n      tag_249\n        /* \"#utility.yul\":5677:5678   */\n      0x00\n        /* \"#utility.yul\":5666:5675   */\n      dup4\n        /* \"#utility.yul\":5662:5679   */\n      add\n        /* \"#utility.yul\":5653:5659   */\n      dup5\n        /* \"#utility.yul\":5609:5680   */\n      tag_140\n      jump\t// in\n    tag_249:\n        /* \"#utility.yul\":5465:5687   */\n      swap3\n      swap2\n      pop\n      pop\n      jump\t// out\n        /* \"#utility.yul\":5693:6022   */\n    tag_43:\n        /* \"#utility.yul\":5752:5758   */\n      0x00\n        /* \"#utility.yul\":5801:5803   */\n      0x20\n        /* \"#utility.yul\":5789:5798   */\n      dup3\n        /* \"#utility.yul\":5780:5787   */\n      dup5\n        /* \"#utility.yul\":5776:5799   */\n      sub\n        /* \"#utility.yul\":5772:5804   */\n      slt\n        /* \"#utility.yul\":5769:5888   */\n      iszero\n      tag_251\n      jumpi\n        /* \"#utility.yul\":5807:5886   */\n      tag_252\n      tag_119\n      jump\t// in\n    tag_252:\n        /* \"#utility.yul\":5769:5888   */\n    tag_251:\n        /* \"#utility.yul\":5927:5928   */\n      0x00\n        /* \"#utility.yul\":5952:6005   */\n      tag_253\n        /* \"#utility.yul\":5997:6004   */\n      dup5\n        /* \"#utility.yul\":5988:5994   */\n      dup3\n        /* \"#utility.yul\":5977:5986   */\n      dup6\n        /* \"#utility.yul\":5973:5995   */\n      add\n        /* \"#utility.yul\":5952:6005   */\n      tag_136\n      jump\t// in\n    tag_253:\n        /* \"#utility.yul\":5942:6005   */\n      swap2\n      pop\n        /* \"#utility.yul\":5898:6015   */\n      pop\n        /* \"#utility.yul\":5693:6022   */\n      swap3\n      swap2\n      pop\n      pop\n      jump\t// out\n        /* \"#utility.yul\":6028:6127   */\n    tag_141:\n        /* \"#utility.yul\":6080:6086   */\n      0x00\n        /* \"#utility.yul\":6114:6119   */\n      dup2\n        /* \"#utility.yul\":6108:6120   */\n      mload\n        /* \"#utility.yul\":6098:6120   */\n      swap1\n      pop\n        /* \"#utility.yul\":6028:6127   */\n      swap2\n      swap1\n      pop\n      jump\t// out\n        /* \"#utility.yul\":6133:6302   */\n    tag_142:\n        /* \"#utility.yul\":6217:6228   */\n      0x00\n        /* \"#utility.yul\":6251:6257   */\n      dup3\n        /* \"#utility.yul\":6246:6249   */\n      dup3\n        /* \"#utility.yul\":6239:6258   */\n      mstore\n        /* \"#utility.yul\":6291:6295   */\n      0x20\n        /* \"#utility.yul\":6286:6289   */\n      dup3\n        /* \"#utility.yul\":6282:6296   */\n      add\n        /* \"#utility.yul\":6267:6296   */\n      swap1\n      pop\n        /* \"#utility.yul\":6133:6302   */\n      swap3\n      swap2\n      pop\n      pop\n      jump\t// out\n        /* \"#utility.yul\":6308:6447   */\n    tag_143:\n        /* \"#utility.yul\":6397:6403   */\n      dup3\n        /* \"#utility.yul\":6392:6395   */\n      dup2\n        /* \"#utility.yul\":6387:6390   */\n      dup4\n        /* \"#utility.yul\":6381:6404   */\n      mcopy\n        /* \"#utility.yul\":6438:6439   */\n      0x00\n        /* \"#utility.yul\":6429:6435   */\n      dup4\n        /* \"#utility.yul\":6424:6427   */\n      dup4\n        /* \"#utility.yul\":6420:6436   */\n      add\n        /* \"#utility.yul\":6413:6440   */\n      mstore\n        /* \"#utility.yul\":6308:6447   */\n      pop\n      pop\n      pop\n      jump\t// out\n        /* \"#utility.yul\":6453:6830   */\n    tag_144:\n        /* \"#utility.yul\":6541:6544   */\n      0x00\n        /* \"#utility.yul\":6569:6608   */\n      tag_258\n        /* \"#utility.yul\":6602:6607   */\n      dup3\n        /* \"#utility.yul\":6569:6608   */\n      tag_141\n      jump\t// in\n    tag_258:\n        /* \"#utility.yul\":6624:6695   */\n      tag_259\n        /* \"#utility.yul\":6688:6694   */\n      dup2\n        /* \"#utility.yul\":6683:6686   */\n      dup6\n        /* \"#utility.yul\":6624:6695   */\n      tag_142\n      jump\t// in\n    tag_259:\n        /* \"#utility.yul\":6617:6695   */\n      swap4\n      pop\n        /* \"#utility.yul\":6704:6769   */\n      tag_260\n        /* \"#utility.yul\":6762:6768   */\n      dup2\n        /* \"#utility.yul\":6757:6760   */\n      dup6\n        /* \"#utility.yul\":6750:6754   */\n      0x20\n        /* \"#utility.yul\":6743:6748   */\n      dup7\n        /* \"#utility.yul\":6739:6755   */\n      add\n        /* \"#utility.yul\":6704:6769   */\n      tag_143\n      jump\t// in\n    tag_260:\n        /* \"#utility.yul\":6794:6823   */\n      tag_261\n        /* \"#utility.yul\":6816:6822   */\n      dup2\n        /* \"#utility.yul\":6794:6823   */\n      tag_123\n      jump\t// in\n    tag_261:\n        /* \"#utility.yul\":6789:6792   */\n      dup5\n        /* \"#utility.yul\":6785:6824   */\n      add\n        /* \"#utility.yul\":6778:6824   */\n      swap2\n      pop\n        /* \"#utility.yul\":6545:6830   */\n      pop\n        /* \"#utility.yul\":6453:6830   */\n      swap3\n      swap2\n      pop\n      pop\n      jump\t// out\n        /* \"#utility.yul\":6836:6978   */\n    tag_145:\n        /* \"#utility.yul\":6939:6971   */\n      tag_263\n        /* \"#utility.yul\":6965:6970   */\n      dup2\n        /* \"#utility.yul\":6939:6971   */\n      tag_132\n      jump\t// in\n    tag_263:\n        /* \"#utility.yul\":6934:6937   */\n      dup3\n        /* \"#utility.yul\":6927:6972   */\n      mstore\n        /* \"#utility.yul\":6836:6978   */\n      pop\n      pop\n      jump\t// out\n        /* \"#utility.yul\":6984:7074   */\n    tag_146:\n        /* \"#utility.yul\":7018:7025   */\n      0x00\n        /* \"#utility.yul\":7061:7066   */\n      dup2\n        /* \"#utility.yul\":7054:7067   */\n      iszero\n        /* \"#utility.yul\":7047:7068   */\n      iszero\n        /* \"#utility.yul\":7036:7068   */\n      swap1\n      pop\n        /* \"#utility.yul\":6984:7074   */\n      swap2\n      swap1\n      pop\n      jump\t// out\n        /* \"#utility.yul\":7080:7189   */\n    tag_147:\n        /* \"#utility.yul\":7161:7182   */\n      tag_266\n        /* \"#utility.yul\":7176:7181   */\n      dup2\n        /* \"#utility.yul\":7161:7182   */\n      tag_146\n      jump\t// in\n    tag_266:\n        /* \"#utility.yul\":7156:7159   */\n      dup3\n        /* \"#utility.yul\":7149:7183   */\n      mstore\n        /* \"#utility.yul\":7080:7189   */\n      pop\n      pop\n      jump\t// out\n        /* \"#utility.yul\":7195:7859   */\n    tag_53:\n        /* \"#utility.yul\":7402:7406   */\n      0x00\n        /* \"#utility.yul\":7440:7443   */\n      0x80\n        /* \"#utility.yul\":7429:7438   */\n      dup3\n        /* \"#utility.yul\":7425:7444   */\n      add\n        /* \"#utility.yul\":7417:7444   */\n      swap1\n      pop\n        /* \"#utility.yul\":7490:7499   */\n      dup2\n        /* \"#utility.yul\":7484:7488   */\n      dup2\n        /* \"#utility.yul\":7480:7500   */\n      sub\n        /* \"#utility.yul\":7476:7477   */\n      0x00\n        /* \"#utility.yul\":7465:7474   */\n      dup4\n        /* \"#utility.yul\":7461:7478   */\n      add\n        /* \"#utility.yul\":7454:7501   */\n      mstore\n        /* \"#utility.yul\":7518:7596   */\n      tag_268\n        /* \"#utility.yul\":7591:7595   */\n      dup2\n        /* \"#utility.yul\":7582:7588   */\n      dup8\n        /* \"#utility.yul\":7518:7596   */\n      tag_144\n      jump\t// in\n    tag_268:\n        /* \"#utility.yul\":7510:7596   */\n      swap1\n      pop\n        /* \"#utility.yul\":7606:7694   */\n      tag_269\n        /* \"#utility.yul\":7690:7692   */\n      0x20\n        /* \"#utility.yul\":7679:7688   */\n      dup4\n        /* \"#utility.yul\":7675:7693   */\n      add\n        /* \"#utility.yul\":7666:7672   */\n      dup7\n        /* \"#utility.yul\":7606:7694   */\n      tag_145\n      jump\t// in\n    tag_269:\n        /* \"#utility.yul\":7704:7776   */\n      tag_270\n        /* \"#utility.yul\":7772:7774   */\n      0x40\n        /* \"#utility.yul\":7761:7770   */\n      dup4\n        /* \"#utility.yul\":7757:7775   */\n      add\n        /* \"#utility.yul\":7748:7754   */\n      dup6\n        /* \"#utility.yul\":7704:7776   */\n      tag_117\n      jump\t// in\n    tag_270:\n        /* \"#utility.yul\":7786:7852   */\n      tag_271\n        /* \"#utility.yul\":7848:7850   */\n      0x60\n        /* \"#utility.yul\":7837:7846   */\n      dup4\n        /* \"#utility.yul\":7833:7851   */\n      add\n        /* \"#utility.yul\":7824:7830   */\n      dup5\n        /* \"#utility.yul\":7786:7852   */\n      tag_147\n      jump\t// in\n    tag_271:\n        /* \"#utility.yul\":7195:7859   */\n      swap6\n      swap5\n      pop\n      pop\n      pop\n      pop\n      pop\n      jump\t// out\n        /* \"#utility.yul\":7865:8100   */\n    tag_148:\n        /* \"#utility.yul\":8005:8039   */\n      0x536f6c6f20656c2061646d696e6973747261646f72207075656465207265616c\n        /* \"#utility.yul\":8001:8002   */\n      0x00\n        /* \"#utility.yul\":7993:7999   */\n      dup3\n        /* \"#utility.yul\":7989:8003   */\n      add\n        /* \"#utility.yul\":7982:8040   */\n      mstore\n        /* \"#utility.yul\":8074:8092   */\n      0x697a6172206573746120616363696f6e00000000000000000000000000000000\n        /* \"#utility.yul\":8069:8071   */\n      0x20\n        /* \"#utility.yul\":8061:8067   */\n      dup3\n        /* \"#utility.yul\":8057:8072   */\n      add\n        /* \"#utility.yul\":8050:8093   */\n      mstore\n        /* \"#utility.yul\":7865:8100   */\n      pop\n      jump\t// out\n        /* \"#utility.yul\":8106:8472   */\n    tag_149:\n        /* \"#utility.yul\":8248:8251   */\n      0x00\n        /* \"#utility.yul\":8269:8336   */\n      tag_274\n        /* \"#utility.yul\":8333:8335   */\n      0x30\n        /* \"#utility.yul\":8328:8331   */\n      dup4\n        /* \"#utility.yul\":8269:8336   */\n      tag_142\n      jump\t// in\n    tag_274:\n        /* \"#utility.yul\":8262:8336   */\n      swap2\n      pop\n        /* \"#utility.yul\":8345:8438   */\n      tag_275\n        /* \"#utility.yul\":8434:8437   */\n      dup3\n        /* \"#utility.yul\":8345:8438   */\n      tag_148\n      jump\t// in\n    tag_275:\n        /* \"#utility.yul\":8463:8465   */\n      0x40\n        /* \"#utility.yul\":8458:8461   */\n      dup3\n        /* \"#utility.yul\":8454:8466   */\n      add\n        /* \"#utility.yul\":8447:8466   */\n      swap1\n      pop\n        /* \"#utility.yul\":8106:8472   */\n      swap2\n      swap1\n      pop\n      jump\t// out\n        /* \"#utility.yul\":8478:8897   */\n    tag_72:\n        /* \"#utility.yul\":8644:8648   */\n      0x00\n        /* \"#utility.yul\":8682:8684   */\n      0x20\n        /* \"#utility.yul\":8671:8680   */\n      dup3\n        /* \"#utility.yul\":8667:8685   */\n      add\n        /* \"#utility.yul\":8659:8685   */\n      swap1\n      pop\n        /* \"#utility.yul\":8731:8740   */\n      dup2\n        /* \"#utility.yul\":8725:8729   */\n      dup2\n        /* \"#utility.yul\":8721:8741   */\n      sub\n        /* \"#utility.yul\":8717:8718   */\n      0x00\n        /* \"#utility.yul\":8706:8715   */\n      dup4\n        /* \"#utility.yul\":8702:8719   */\n      add\n        /* \"#utility.yul\":8695:8742   */\n      mstore\n        /* \"#utility.yul\":8759:8890   */\n      tag_277\n        /* \"#utility.yul\":8885:8889   */\n      dup2\n        /* \"#utility.yul\":8759:8890   */\n      tag_149\n      jump\t// in\n    tag_277:\n        /* \"#utility.yul\":8751:8890   */\n      swap1\n      pop\n        /* \"#utility.yul\":8478:8897   */\n      swap2\n      swap1\n      pop\n      jump\t// out\n        /* \"#utility.yul\":8903:9135   */\n    tag_150:\n        /* \"#utility.yul\":9043:9077   */\n      0x4e6f2068617920666f6e646f7320737566696369656e74657320706172612065\n        /* \"#utility.yul\":9039:9040   */\n      0x00\n        /* \"#utility.yul\":9031:9037   */\n      dup3\n        /* \"#utility.yul\":9027:9041   */\n      add\n        /* \"#utility.yul\":9020:9078   */\n      mstore\n        /* \"#utility.yul\":9112:9127   */\n      0x73746120736f6c69636974756400000000000000000000000000000000000000\n        /* \"#utility.yul\":9107:9109   */\n      0x20\n        /* \"#utility.yul\":9099:9105   */\n      dup3\n        /* \"#utility.yul\":9095:9110   */\n      add\n        /* \"#utility.yul\":9088:9128   */\n      mstore\n        /* \"#utility.yul\":8903:9135   */\n      pop\n      jump\t// out\n        /* \"#utility.yul\":9141:9507   */\n    tag_151:\n        /* \"#utility.yul\":9283:9286   */\n      0x00\n        /* \"#utility.yul\":9304:9371   */\n      tag_280\n        /* \"#utility.yul\":9368:9370   */\n      0x2d\n        /* \"#utility.yul\":9363:9366   */\n      dup4\n        /* \"#utility.yul\":9304:9371   */\n      tag_142\n      jump\t// in\n    tag_280:\n        /* \"#utility.yul\":9297:9371   */\n      swap2\n      pop\n        /* \"#utility.yul\":9380:9473   */\n      tag_281\n        /* \"#utility.yul\":9469:9472   */\n      dup3\n        /* \"#utility.yul\":9380:9473   */\n      tag_150\n      jump\t// in\n    tag_281:\n        /* \"#utility.yul\":9498:9500   */\n      0x40\n        /* \"#utility.yul\":9493:9496   */\n      dup3\n        /* \"#utility.yul\":9489:9501   */\n      add\n        /* \"#utility.yul\":9482:9501   */\n      swap1\n      pop\n        /* \"#utility.yul\":9141:9507   */\n      swap2\n      swap1\n      pop\n      jump\t// out\n        /* \"#utility.yul\":9513:9932   */\n    tag_76:\n        /* \"#utility.yul\":9679:9683   */\n      0x00\n        /* \"#utility.yul\":9717:9719   */\n      0x20\n        /* \"#utility.yul\":9706:9715   */\n      dup3\n        /* \"#utility.yul\":9702:9720   */\n      add\n        /* \"#utility.yul\":9694:9720   */\n      swap1\n      pop\n        /* \"#utility.yul\":9766:9775   */\n      dup2\n        /* \"#utility.yul\":9760:9764   */\n      dup2\n        /* \"#utility.yul\":9756:9776   */\n      sub\n        /* \"#utility.yul\":9752:9753   */\n      0x00\n        /* \"#utility.yul\":9741:9750   */\n      dup4\n        /* \"#utility.yul\":9737:9754   */\n      add\n        /* \"#utility.yul\":9730:9777   */\n      mstore\n        /* \"#utility.yul\":9794:9925   */\n      tag_283\n        /* \"#utility.yul\":9920:9924   */\n      dup2\n        /* \"#utility.yul\":9794:9925   */\n      tag_151\n      jump\t// in\n    tag_283:\n        /* \"#utility.yul\":9786:9925   */\n      swap1\n      pop\n        /* \"#utility.yul\":9513:9932   */\n      swap2\n      swap1\n      pop\n      jump\t// out\n        /* \"#utility.yul\":9938:10118   */\n    tag_152:\n        /* \"#utility.yul\":9986:10063   */\n      0x4e487b7100000000000000000000000000000000000000000000000000000000\n        /* \"#utility.yul\":9983:9984   */\n      0x00\n        /* \"#utility.yul\":9976:10064   */\n      mstore\n        /* \"#utility.yul\":10083:10087   */\n      0x11\n        /* \"#utility.yul\":10080:10081   */\n      0x04\n        /* \"#utility.yul\":10073:10088   */\n      mstore\n        /* \"#utility.yul\":10107:10111   */\n      0x24\n        /* \"#utility.yul\":10104:10105   */\n      0x00\n        /* \"#utility.yul\":10097:10112   */\n      revert\n        /* \"#utility.yul\":10124:10357   */\n    tag_78:\n        /* \"#utility.yul\":10163:10166   */\n      0x00\n        /* \"#utility.yul\":10186:10210   */\n      tag_286\n        /* \"#utility.yul\":10204:10209   */\n      dup3\n        /* \"#utility.yul\":10186:10210   */\n      tag_116\n      jump\t// in\n    tag_286:\n        /* \"#utility.yul\":10177:10210   */\n      swap2\n      pop\n        /* \"#utility.yul\":10232:10298   */\n      0xffffffffffffffffffffffffffffffffffffffffffffffffffffffffffffffff\n        /* \"#utility.yul\":10225:10230   */\n      dup3\n        /* \"#utility.yul\":10222:10299   */\n      sub\n        /* \"#utility.yul\":10219:10322   */\n      tag_287\n      jumpi\n        /* \"#utility.yul\":10302:10320   */\n      tag_288\n      tag_152\n      jump\t// in\n    tag_288:\n        /* \"#utility.yul\":10219:10322   */\n    tag_287:\n        /* \"#utility.yul\":10349:10350   */\n      0x01\n        /* \"#utility.yul\":10342:10347   */\n      dup3\n        /* \"#utility.yul\":10338:10351   */\n      add\n        /* \"#utility.yul\":10331:10351   */\n      swap1\n      pop\n        /* \"#utility.yul\":10124:10357   */\n      swap2\n      swap1\n      pop\n      jump\t// out\n        /* \"#utility.yul\":10363:10543   */\n    tag_153:\n        /* \"#utility.yul\":10411:10488   */\n      0x4e487b7100000000000000000000000000000000000000000000000000000000\n        /* \"#utility.yul\":10408:10409   */\n      0x00\n        /* \"#utility.yul\":10401:10489   */\n      mstore\n        /* \"#utility.yul\":10508:10512   */\n      0x22\n        /* \"#utility.yul\":10505:10506   */\n      0x04\n        /* \"#utility.yul\":10498:10513   */\n      mstore\n        /* \"#utility.yul\":10532:10536   */\n      0x24\n        /* \"#utility.yul\":10529:10530   */\n      0x00\n        /* \"#utility.yul\":10522:10537   */\n      revert\n        /* \"#utility.yul\":10549:10869   */\n    tag_104:\n        /* \"#utility.yul\":10593:10599   */\n      0x00\n        /* \"#utility.yul\":10630:10631   */\n      0x02\n        /* \"#utility.yul\":10624:10628   */\n      dup3\n        /* \"#utility.yul\":10620:10632   */\n      div\n        /* \"#utility.yul\":10610:10632   */\n      swap1\n      pop\n        /* \"#utility.yul\":10677:10678   */\n      0x01\n        /* \"#utility.yul\":10671:10675   */\n      dup3\n        /* \"#utility.yul\":10667:10679   */\n      and\n        /* \"#utility.yul\":10698:10716   */\n      dup1\n        /* \"#utility.yul\":10688:10769   */\n      tag_291\n      jumpi\n        /* \"#utility.yul\":10754:10758   */\n      0x7f\n        /* \"#utility.yul\":10746:10752   */\n      dup3\n        /* \"#utility.yul\":10742:10759   */\n      and\n        /* \"#utility.yul\":10732:10759   */\n      swap2\n      pop\n        /* \"#utility.yul\":10688:10769   */\n    tag_291:\n        /* \"#utility.yul\":10816:10818   */\n      0x20\n        /* \"#utility.yul\":10808:10814   */\n      dup3\n        /* \"#utility.yul\":10805:10819   */\n      lt\n        /* \"#utility.yul\":10785:10803   */\n      dup2\n        /* \"#utility.yul\":10782:10820   */\n      sub\n        /* \"#utility.yul\":10779:10863   */\n      tag_292\n      jumpi\n        /* \"#utility.yul\":10835:10853   */\n      tag_293\n      tag_153\n      jump\t// in\n    tag_293:\n        /* \"#utility.yul\":10779:10863   */\n    tag_292:\n        /* \"#utility.yul\":10600:10869   */\n      pop\n        /* \"#utility.yul\":10549:10869   */\n      swap2\n      swap1\n      pop\n      jump\t// out\n        /* \"#utility.yul\":10875:11016   */\n    tag_154:\n        /* \"#utility.yul\":10924:10928   */\n      0x00\n        /* \"#utility.yul\":10947:10950   */\n      dup2\n        /* \"#utility.yul\":10939:10950   */\n      swap1\n      pop\n        /* \"#utility.yul\":10970:10973   */\n      dup2\n        /* \"#utility.yul\":10967:10968   */\n      0x00\n        /* \"#utility.yul\":10960:10974   */\n      mstore\n        /* \"#utility.yul\":11004:11008   */\n      0x20\n        /* \"#utility.yul\":11001:11002   */\n      0x00\n        /* \"#utility.yul\":10991:11009   */\n      keccak256\n        /* \"#utility.yul\":10983:11009   */\n      swap1\n      pop\n        /* \"#utility.yul\":10875:11016   */\n      swap2\n      swap1\n      pop\n      jump\t// out\n        /* \"#utility.yul\":11022:11115   */\n    tag_155:\n        /* \"#utility.yul\":11059:11065   */\n      0x00\n        /* \"#utility.yul\":11106:11108   */\n      0x20\n        /* \"#utility.yul\":11101:11103   */\n      0x1f\n        /* \"#utility.yul\":11094:11099   */\n      dup4\n        /* \"#utility.yul\":11090:11104   */\n      add\n        /* \"#utility.yul\":11086:11109   */\n      div\n        /* \"#utility.yul\":11076:11109   */\n      swap1\n      pop\n        /* \"#utility.yul\":11022:11115   */\n      swap2\n      swap1\n      pop\n      jump\t// out\n        /* \"#utility.yul\":11121:11228   */\n    tag_156:\n        /* \"#utility.yul\":11165:11173   */\n      0x00\n        /* \"#utility.yul\":11215:11220   */\n      dup3\n        /* \"#utility.yul\":11209:11213   */\n      dup3\n        /* \"#utility.yul\":11205:11221   */\n      shl\n        /* \"#utility.yul\":11184:11221   */\n      swap1\n      pop\n        /* \"#utility.yul\":11121:11228   */\n      swap3\n      swap2\n      pop\n      pop\n      jump\t// out\n        /* \"#utility.yul\":11234:11627   */\n    tag_157:\n        /* \"#utility.yul\":11303:11309   */\n      0x00\n        /* \"#utility.yul\":11353:11354   */\n      0x08\n        /* \"#utility.yul\":11341:11351   */\n      dup4\n        /* \"#utility.yul\":11337:11355   */\n      mul\n        /* \"#utility.yul\":11376:11473   */\n      tag_298\n        /* \"#utility.yul\":11406:11472   */\n      0xffffffffffffffffffffffffffffffffffffffffffffffffffffffffffffffff\n        /* \"#utility.yul\":11395:11404   */\n      dup3\n        /* \"#utility.yul\":11376:11473   */\n      tag_156\n      jump\t// in\n    tag_298:\n        /* \"#utility.yul\":11494:11533   */\n      tag_299\n        /* \"#utility.yul\":11524:11532   */\n      dup7\n        /* \"#utility.yul\":11513:11522   */\n      dup4\n        /* \"#utility.yul\":11494:11533   */\n      tag_156\n      jump\t// in\n    tag_299:\n        /* \"#utility.yul\":11482:11533   */\n      swap6\n      pop\n        /* \"#utility.yul\":11566:11570   */\n      dup1\n        /* \"#utility.yul\":11562:11571   */\n      not\n        /* \"#utility.yul\":11555:11560   */\n      dup5\n        /* \"#utility.yul\":11551:11572   */\n      and\n        /* \"#utility.yul\":11542:11572   */\n      swap4\n      pop\n        /* \"#utility.yul\":11615:11619   */\n      dup1\n        /* \"#utility.yul\":11605:11613   */\n      dup7\n        /* \"#utility.yul\":11601:11620   */\n      and\n        /* \"#utility.yul\":11594:11599   */\n      dup5\n        /* \"#utility.yul\":11591:11621   */\n      or\n        /* \"#utility.yul\":11581:11621   */\n      swap3\n      pop\n        /* \"#utility.yul\":11310:11627   */\n      pop\n      pop\n        /* \"#utility.yul\":11234:11627   */\n      swap4\n      swap3\n      pop\n      pop\n      pop\n      jump\t// out\n        /* \"#utility.yul\":11633:11693   */\n    tag_158:\n        /* \"#utility.yul\":11661:11664   */\n      0x00\n        /* \"#utility.yul\":11682:11687   */\n      dup2\n        /* \"#utility.yul\":11675:11687   */\n      swap1\n      pop\n        /* \"#utility.yul\":11633:11693   */\n      swap2\n      swap1\n      pop\n      jump\t// out\n        /* \"#utility.yul\":11699:11841   */\n    tag_159:\n        /* \"#utility.yul\":11749:11758   */\n      0x00\n        /* \"#utility.yul\":11782:11835   */\n      tag_302\n        /* \"#utility.yul\":11800:11834   */\n      tag_303\n        /* \"#utility.yul\":11809:11833   */\n      tag_304\n        /* \"#utility.yul\":11827:11832   */\n      dup5\n        /* \"#utility.yul\":11809:11833   */\n      tag_116\n      jump\t// in\n    tag_304:\n        /* \"#utility.yul\":11800:11834   */\n      tag_158\n      jump\t// in\n    tag_303:\n        /* \"#utility.yul\":11782:11835   */\n      tag_116\n      jump\t// in\n    tag_302:\n        /* \"#utility.yul\":11769:11835   */\n      swap1\n      pop\n        /* \"#utility.yul\":11699:11841   */\n      swap2\n      swap1\n      pop\n      jump\t// out\n        /* \"#utility.yul\":11847:11922   */\n    tag_160:\n        /* \"#utility.yul\":11890:11893   */\n      0x00\n        /* \"#utility.yul\":11911:11916   */\n      dup2\n        /* \"#utility.yul\":11904:11916   */\n      swap1\n      pop\n        /* \"#utility.yul\":11847:11922   */\n      swap2\n      swap1\n      pop\n      jump\t// out\n        /* \"#utility.yul\":11928:12197   */\n    tag_161:\n        /* \"#utility.yul\":12038:12077   */\n      tag_307\n        /* \"#utility.yul\":12069:12076   */\n      dup4\n        /* \"#utility.yul\":12038:12077   */\n      tag_159\n      jump\t// in\n    tag_307:\n        /* \"#utility.yul\":12099:12190   */\n      tag_308\n        /* \"#utility.yul\":12148:12189   */\n      tag_309\n        /* \"#utility.yul\":12172:12188   */\n      dup3\n        /* \"#utility.yul\":12148:12189   */\n      tag_160\n      jump\t// in\n    tag_309:\n        /* \"#utility.yul\":12140:12146   */\n      dup5\n        /* \"#utility.yul\":12133:12137   */\n      dup5\n        /* \"#utility.yul\":12127:12138   */\n      sload\n        /* \"#utility.yul\":12099:12190   */\n      tag_157\n      jump\t// in\n    tag_308:\n        /* \"#utility.yul\":12093:12097   */\n      dup3\n        /* \"#utility.yul\":12086:12191   */\n      sstore\n        /* \"#utility.yul\":12004:12197   */\n      pop\n        /* \"#utility.yul\":11928:12197   */\n      pop\n      pop\n      pop\n      jump\t// out\n        /* \"#utility.yul\":12203:12276   */\n    tag_162:\n        /* \"#utility.yul\":12248:12251   */\n      0x00\n        /* \"#utility.yul\":12203:12276   */\n      swap1\n      jump\t// out\n        /* \"#utility.yul\":12282:12471   */\n    tag_163:\n        /* \"#utility.yul\":12359:12391   */\n      tag_312\n      tag_162\n      jump\t// in\n    tag_312:\n        /* \"#utility.yul\":12400:12465   */\n      tag_313\n        /* \"#utility.yul\":12458:12464   */\n      dup2\n        /* \"#utility.yul\":12450:12456   */\n      dup5\n        /* \"#utility.yul\":12444:12448   */\n      dup5\n        /* \"#utility.yul\":12400:12465   */\n      tag_161\n      jump\t// in\n    tag_313:\n        /* \"#utility.yul\":12335:12471   */\n      pop\n        /* \"#utility.yul\":12282:12471   */\n      pop\n      pop\n      jump\t// out\n        /* \"#utility.yul\":12477:12663   */\n    tag_164:\n        /* \"#utility.yul\":12537:12657   */\n    tag_315:\n        /* \"#utility.yul\":12554:12557   */\n      dup2\n        /* \"#utility.yul\":12547:12552   */\n      dup2\n        /* \"#utility.yul\":12544:12558   */\n      lt\n        /* \"#utility.yul\":12537:12657   */\n      iszero\n      tag_317\n      jumpi\n        /* \"#utility.yul\":12608:12647   */\n      tag_318\n        /* \"#utility.yul\":12645:12646   */\n      0x00\n        /* \"#utility.yul\":12638:12643   */\n      dup3\n        /* \"#utility.yul\":12608:12647   */\n      tag_163\n      jump\t// in\n    tag_318:\n        /* \"#utility.yul\":12581:12582   */\n      0x01\n        /* \"#utility.yul\":12574:12579   */\n      dup2\n        /* \"#utility.yul\":12570:12583   */\n      add\n        /* \"#utility.yul\":12561:12583   */\n      swap1\n      pop\n        /* \"#utility.yul\":12537:12657   */\n      jump(tag_315)\n    tag_317:\n        /* \"#utility.yul\":12477:12663   */\n      pop\n      pop\n      jump\t// out\n        /* \"#utility.yul\":12669:13212   */\n    tag_165:\n        /* \"#utility.yul\":12770:12772   */\n      0x1f\n        /* \"#utility.yul\":12765:12768   */\n      dup3\n        /* \"#utility.yul\":12762:12773   */\n      gt\n        /* \"#utility.yul\":12759:13205   */\n      iszero\n      tag_320\n      jumpi\n        /* \"#utility.yul\":12804:12842   */\n      tag_321\n        /* \"#utility.yul\":12836:12841   */\n      dup2\n        /* \"#utility.yul\":12804:12842   */\n      tag_154\n      jump\t// in\n    tag_321:\n        /* \"#utility.yul\":12888:12917   */\n      tag_322\n        /* \"#utility.yul\":12906:12916   */\n      dup5\n        /* \"#utility.yul\":12888:12917   */\n      tag_155\n      jump\t// in\n    tag_322:\n        /* \"#utility.yul\":12878:12886   */\n      dup2\n        /* \"#utility.yul\":12874:12918   */\n      add\n        /* \"#utility.yul\":13071:13073   */\n      0x20\n        /* \"#utility.yul\":13059:13069   */\n      dup6\n        /* \"#utility.yul\":13056:13074   */\n      lt\n        /* \"#utility.yul\":13053:13102   */\n      iszero\n      tag_323\n      jumpi\n        /* \"#utility.yul\":13092:13100   */\n      dup2\n        /* \"#utility.yul\":13077:13100   */\n      swap1\n      pop\n        /* \"#utility.yul\":13053:13102   */\n    tag_323:\n        /* \"#utility.yul\":13115:13195   */\n      tag_324\n        /* \"#utility.yul\":13171:13193   */\n      tag_325\n        /* \"#utility.yul\":13189:13192   */\n      dup6\n        /* \"#utility.yul\":13171:13193   */\n      tag_155\n      jump\t// in\n    tag_325:\n        /* \"#utility.yul\":13161:13169   */\n      dup4\n        /* \"#utility.yul\":13157:13194   */\n      add\n        /* \"#utility.yul\":13144:13155   */\n      dup3\n        /* \"#utility.yul\":13115:13195   */\n      tag_164\n      jump\t// in\n    tag_324:\n        /* \"#utility.yul\":12774:13205   */\n      pop\n      pop\n        /* \"#utility.yul\":12759:13205   */\n    tag_320:\n        /* \"#utility.yul\":12669:13212   */\n      pop\n      pop\n      pop\n      jump\t// out\n        /* \"#utility.yul\":13218:13335   */\n    tag_166:\n        /* \"#utility.yul\":13272:13280   */\n      0x00\n        /* \"#utility.yul\":13322:13327   */\n      dup3\n        /* \"#utility.yul\":13316:13320   */\n      dup3\n        /* \"#utility.yul\":13312:13328   */\n      shr\n        /* \"#utility.yul\":13291:13328   */\n      swap1\n      pop\n        /* \"#utility.yul\":13218:13335   */\n      swap3\n      swap2\n      pop\n      pop\n      jump\t// out\n        /* \"#utility.yul\":13341:13510   */\n    tag_167:\n        /* \"#utility.yul\":13385:13391   */\n      0x00\n        /* \"#utility.yul\":13418:13469   */\n      tag_328\n        /* \"#utility.yul\":13466:13467   */\n      0x00\n        /* \"#utility.yul\":13462:13468   */\n      not\n        /* \"#utility.yul\":13454:13459   */\n      dup5\n        /* \"#utility.yul\":13451:13452   */\n      0x08\n        /* \"#utility.yul\":13447:13460   */\n      mul\n        /* \"#utility.yul\":13418:13469   */\n      tag_166\n      jump\t// in\n    tag_328:\n        /* \"#utility.yul\":13414:13470   */\n      not\n        /* \"#utility.yul\":13499:13503   */\n      dup1\n        /* \"#utility.yul\":13493:13497   */\n      dup4\n        /* \"#utility.yul\":13489:13504   */\n      and\n        /* \"#utility.yul\":13479:13504   */\n      swap2\n      pop\n        /* \"#utility.yul\":13392:13510   */\n      pop\n        /* \"#utility.yul\":13341:13510   */\n      swap3\n      swap2\n      pop\n      pop\n      jump\t// out\n        /* \"#utility.yul\":13515:13810   */\n    tag_168:\n        /* \"#utility.yul\":13591:13595   */\n      0x00\n        /* \"#utility.yul\":13737:13766   */\n      tag_330\n        /* \"#utility.yul\":13762:13765   */\n      dup4\n        /* \"#utility.yul\":13756:13760   */\n      dup4\n        /* \"#utility.yul\":13737:13766   */\n      tag_167\n      jump\t// in\n    tag_330:\n        /* \"#utility.yul\":13729:13766   */\n      swap2\n      pop\n        /* \"#utility.yul\":13799:13802   */\n      dup3\n        /* \"#utility.yul\":13796:13797   */\n      0x02\n        /* \"#utility.yul\":13792:13803   */\n      mul\n        /* \"#utility.yul\":13786:13790   */\n      dup3\n        /* \"#utility.yul\":13783:13804   */\n      or\n        /* \"#utility.yul\":13775:13804   */\n      swap1\n      pop\n        /* \"#utility.yul\":13515:13810   */\n      swap3\n      swap2\n      pop\n      pop\n      jump\t// out\n        /* \"#utility.yul\":13815:15210   */\n    tag_80:\n        /* \"#utility.yul\":13932:13969   */\n      tag_332\n        /* \"#utility.yul\":13965:13968   */\n      dup3\n        /* \"#utility.yul\":13932:13969   */\n      tag_141\n      jump\t// in\n    tag_332:\n        /* \"#utility.yul\":14034:14052   */\n      0xffffffffffffffff\n        /* \"#utility.yul\":14026:14032   */\n      dup2\n        /* \"#utility.yul\":14023:14053   */\n      gt\n        /* \"#utility.yul\":14020:14076   */\n      iszero\n      tag_333\n      jumpi\n        /* \"#utility.yul\":14056:14074   */\n      tag_334\n      tag_124\n      jump\t// in\n    tag_334:\n        /* \"#utility.yul\":14020:14076   */\n    tag_333:\n        /* \"#utility.yul\":14100:14138   */\n      tag_335\n        /* \"#utility.yul\":14132:14136   */\n      dup3\n        /* \"#utility.yul\":14126:14137   */\n      sload\n        /* \"#utility.yul\":14100:14138   */\n      tag_104\n      jump\t// in\n    tag_335:\n        /* \"#utility.yul\":14185:14252   */\n      tag_336\n        /* \"#utility.yul\":14245:14251   */\n      dup3\n        /* \"#utility.yul\":14237:14243   */\n      dup3\n        /* \"#utility.yul\":14231:14235   */\n      dup6\n        /* \"#utility.yul\":14185:14252   */\n      tag_165\n      jump\t// in\n    tag_336:\n        /* \"#utility.yul\":14279:14280   */\n      0x00\n        /* \"#utility.yul\":14303:14307   */\n      0x20\n        /* \"#utility.yul\":14290:14307   */\n      swap1\n      pop\n        /* \"#utility.yul\":14335:14337   */\n      0x1f\n        /* \"#utility.yul\":14327:14333   */\n      dup4\n        /* \"#utility.yul\":14324:14338   */\n      gt\n        /* \"#utility.yul\":14352:14353   */\n      0x01\n        /* \"#utility.yul\":14347:14965   */\n      dup2\n      eq\n      tag_338\n      jumpi\n        /* \"#utility.yul\":15009:15010   */\n      0x00\n        /* \"#utility.yul\":15026:15032   */\n      dup5\n        /* \"#utility.yul\":15023:15100   */\n      iszero\n      tag_339\n      jumpi\n        /* \"#utility.yul\":15075:15084   */\n      dup3\n        /* \"#utility.yul\":15070:15073   */\n      dup8\n        /* \"#utility.yul\":15066:15085   */\n      add\n        /* \"#utility.yul\":15060:15086   */\n      mload\n        /* \"#utility.yul\":15051:15086   */\n      swap1\n      pop\n        /* \"#utility.yul\":15023:15100   */\n    tag_339:\n        /* \"#utility.yul\":15126:15193   */\n      tag_340\n        /* \"#utility.yul\":15186:15192   */\n      dup6\n        /* \"#utility.yul\":15179:15184   */\n      dup3\n        /* \"#utility.yul\":15126:15193   */\n      tag_168\n      jump\t// in\n    tag_340:\n        /* \"#utility.yul\":15120:15124   */\n      dup7\n        /* \"#utility.yul\":15113:15194   */\n      sstore\n        /* \"#utility.yul\":14982:15204   */\n      pop\n        /* \"#utility.yul\":14317:15204   */\n      jump(tag_337)\n        /* \"#utility.yul\":14347:14965   */\n    tag_338:\n        /* \"#utility.yul\":14399:14403   */\n      0x1f\n        /* \"#utility.yul\":14395:14404   */\n      not\n        /* \"#utility.yul\":14387:14393   */\n      dup5\n        /* \"#utility.yul\":14383:14405   */\n      and\n        /* \"#utility.yul\":14433:14470   */\n      tag_341\n        /* \"#utility.yul\":14465:14469   */\n      dup7\n        /* \"#utility.yul\":14433:14470   */\n      tag_154\n      jump\t// in\n    tag_341:\n        /* \"#utility.yul\":14492:14493   */\n      0x00\n        /* \"#utility.yul\":14506:14714   */\n    tag_342:\n        /* \"#utility.yul\":14520:14527   */\n      dup3\n        /* \"#utility.yul\":14517:14518   */\n      dup2\n        /* \"#utility.yul\":14514:14528   */\n      lt\n        /* \"#utility.yul\":14506:14714   */\n      iszero\n      tag_344\n      jumpi\n        /* \"#utility.yul\":14599:14608   */\n      dup5\n        /* \"#utility.yul\":14594:14597   */\n      dup10\n        /* \"#utility.yul\":14590:14609   */\n      add\n        /* \"#utility.yul\":14584:14610   */\n      mload\n        /* \"#utility.yul\":14576:14582   */\n      dup3\n        /* \"#utility.yul\":14569:14611   */\n      sstore\n        /* \"#utility.yul\":14650:14651   */\n      0x01\n        /* \"#utility.yul\":14642:14648   */\n      dup3\n        /* \"#utility.yul\":14638:14652   */\n      add\n        /* \"#utility.yul\":14628:14652   */\n      swap2\n      pop\n        /* \"#utility.yul\":14697:14699   */\n      0x20\n        /* \"#utility.yul\":14686:14695   */\n      dup6\n        /* \"#utility.yul\":14682:14700   */\n      add\n        /* \"#utility.yul\":14669:14700   */\n      swap5\n      pop\n        /* \"#utility.yul\":14543:14547   */\n      0x20\n        /* \"#utility.yul\":14540:14541   */\n      dup2\n        /* \"#utility.yul\":14536:14548   */\n      add\n        /* \"#utility.yul\":14531:14548   */\n      swap1\n      pop\n        /* \"#utility.yul\":14506:14714   */\n      jump(tag_342)\n    tag_344:\n        /* \"#utility.yul\":14742:14748   */\n      dup7\n        /* \"#utility.yul\":14733:14740   */\n      dup4\n        /* \"#utility.yul\":14730:14749   */\n      lt\n        /* \"#utility.yul\":14727:14906   */\n      iszero\n      tag_345\n      jumpi\n        /* \"#utility.yul\":14800:14809   */\n      dup5\n        /* \"#utility.yul\":14795:14798   */\n      dup10\n        /* \"#utility.yul\":14791:14810   */\n      add\n        /* \"#utility.yul\":14785:14811   */\n      mload\n        /* \"#utility.yul\":14843:14891   */\n      tag_346\n        /* \"#utility.yul\":14885:14889   */\n      0x1f\n        /* \"#utility.yul\":14877:14883   */\n      dup10\n        /* \"#utility.yul\":14873:14890   */\n      and\n        /* \"#utility.yul\":14862:14871   */\n      dup3\n        /* \"#utility.yul\":14843:14891   */\n      tag_167\n      jump\t// in\n    tag_346:\n        /* \"#utility.yul\":14835:14841   */\n      dup4\n        /* \"#utility.yul\":14828:14892   */\n      sstore\n        /* \"#utility.yul\":14750:14906   */\n      pop\n        /* \"#utility.yul\":14727:14906   */\n    tag_345:\n        /* \"#utility.yul\":14952:14953   */\n      0x01\n        /* \"#utility.yul\":14948:14949   */\n      0x02\n        /* \"#utility.yul\":14940:14946   */\n      dup9\n        /* \"#utility.yul\":14936:14950   */\n      mul\n        /* \"#utility.yul\":14932:14954   */\n      add\n        /* \"#utility.yul\":14926:14930   */\n      dup9\n        /* \"#utility.yul\":14919:14955   */\n      sstore\n        /* \"#utility.yul\":14354:14965   */\n      pop\n      pop\n      pop\n        /* \"#utility.yul\":14317:15204   */\n    tag_337:\n      pop\n        /* \"#utility.yul\":13907:15210   */\n      pop\n      pop\n      pop\n        /* \"#utility.yul\":13815:15210   */\n      pop\n      pop\n      jump\t// out\n        /* \"#utility.yul\":15216:15387   */\n    tag_169:\n        /* \"#utility.yul\":15356:15379   */\n      0x4e6f2073652063756d706c696f206c61206d6574610000000000000000000000\n        /* \"#utility.yul\":15352:15353   */\n      0x00\n        /* \"#utility.yul\":15344:15350   */\n      dup3\n        /* \"#utility.yul\":15340:15354   */\n      add\n        /* \"#utility.yul\":15333:15380   */\n      mstore\n        /* \"#utility.yul\":15216:15387   */\n      pop\n      jump\t// out\n        /* \"#utility.yul\":15393:15759   */\n    tag_170:\n        /* \"#utility.yul\":15535:15538   */\n      0x00\n        /* \"#utility.yul\":15556:15623   */\n      tag_349\n        /* \"#utility.yul\":15620:15622   */\n      0x15\n        /* \"#utility.yul\":15615:15618   */\n      dup4\n        /* \"#utility.yul\":15556:15623   */\n      tag_142\n      jump\t// in\n    tag_349:\n        /* \"#utility.yul\":15549:15623   */\n      swap2\n      pop\n        /* \"#utility.yul\":15632:15725   */\n      tag_350\n        /* \"#utility.yul\":15721:15724   */\n      dup3\n        /* \"#utility.yul\":15632:15725   */\n      tag_169\n      jump\t// in\n    tag_350:\n        /* \"#utility.yul\":15750:15752   */\n      0x20\n        /* \"#utility.yul\":15745:15748   */\n      dup3\n        /* \"#utility.yul\":15741:15753   */\n      add\n        /* \"#utility.yul\":15734:15753   */\n      swap1\n      pop\n        /* \"#utility.yul\":15393:15759   */\n      swap2\n      swap1\n      pop\n      jump\t// out\n        /* \"#utility.yul\":15765:16184   */\n    tag_87:\n        /* \"#utility.yul\":15931:15935   */\n      0x00\n        /* \"#utility.yul\":15969:15971   */\n      0x20\n        /* \"#utility.yul\":15958:15967   */\n      dup3\n        /* \"#utility.yul\":15954:15972   */\n      add\n        /* \"#utility.yul\":15946:15972   */\n      swap1\n      pop\n        /* \"#utility.yul\":16018:16027   */\n      dup2\n        /* \"#utility.yul\":16012:16016   */\n      dup2\n        /* \"#utility.yul\":16008:16028   */\n      sub\n        /* \"#utility.yul\":16004:16005   */\n      0x00\n        /* \"#utility.yul\":15993:16002   */\n      dup4\n        /* \"#utility.yul\":15989:16006   */\n      add\n        /* \"#utility.yul\":15982:16029   */\n      mstore\n        /* \"#utility.yul\":16046:16177   */\n      tag_352\n        /* \"#utility.yul\":16172:16176   */\n      dup2\n        /* \"#utility.yul\":16046:16177   */\n      tag_170\n      jump\t// in\n    tag_352:\n        /* \"#utility.yul\":16038:16177   */\n      swap1\n      pop\n        /* \"#utility.yul\":15765:16184   */\n      swap2\n      swap1\n      pop\n      jump\t// out\n        /* \"#utility.yul\":16190:16371   */\n    tag_171:\n        /* \"#utility.yul\":16330:16363   */\n      0x45737461207065746963696f6e2079612066756520636f6d706c657461646100\n        /* \"#utility.yul\":16326:16327   */\n      0x00\n        /* \"#utility.yul\":16318:16324   */\n      dup3\n        /* \"#utility.yul\":16314:16328   */\n      add\n        /* \"#utility.yul\":16307:16364   */\n      mstore\n        /* \"#utility.yul\":16190:16371   */\n      pop\n      jump\t// out\n        /* \"#utility.yul\":16377:16743   */\n    tag_172:\n        /* \"#utility.yul\":16519:16522   */\n      0x00\n        /* \"#utility.yul\":16540:16607   */\n      tag_355\n        /* \"#utility.yul\":16604:16606   */\n      0x1f\n        /* \"#utility.yul\":16599:16602   */\n      dup4\n        /* \"#utility.yul\":16540:16607   */\n      tag_142\n      jump\t// in\n    tag_355:\n        /* \"#utility.yul\":16533:16607   */\n      swap2\n      pop\n        /* \"#utility.yul\":16616:16709   */\n      tag_356\n        /* \"#utility.yul\":16705:16708   */\n      dup3\n        /* \"#utility.yul\":16616:16709   */\n      tag_171\n      jump\t// in\n    tag_356:\n        /* \"#utility.yul\":16734:16736   */\n      0x20\n        /* \"#utility.yul\":16729:16732   */\n      dup3\n        /* \"#utility.yul\":16725:16737   */\n      add\n        /* \"#utility.yul\":16718:16737   */\n      swap1\n      pop\n        /* \"#utility.yul\":16377:16743   */\n      swap2\n      swap1\n      pop\n      jump\t// out\n        /* \"#utility.yul\":16749:17168   */\n    tag_90:\n        /* \"#utility.yul\":16915:16919   */\n      0x00\n        /* \"#utility.yul\":16953:16955   */\n      0x20\n        /* \"#utility.yul\":16942:16951   */\n      dup3\n        /* \"#utility.yul\":16938:16956   */\n      add\n        /* \"#utility.yul\":16930:16956   */\n      swap1\n      pop\n        /* \"#utility.yul\":17002:17011   */\n      dup2\n        /* \"#utility.yul\":16996:17000   */\n      dup2\n        /* \"#utility.yul\":16992:17012   */\n      sub\n        /* \"#utility.yul\":16988:16989   */\n      0x00\n        /* \"#utility.yul\":16977:16986   */\n      dup4\n        /* \"#utility.yul\":16973:16990   */\n      add\n        /* \"#utility.yul\":16966:17013   */\n      mstore\n        /* \"#utility.yul\":17030:17161   */\n      tag_358\n        /* \"#utility.yul\":17156:17160   */\n      dup2\n        /* \"#utility.yul\":17030:17161   */\n      tag_172\n      jump\t// in\n    tag_358:\n        /* \"#utility.yul\":17022:17161   */\n      swap1\n      pop\n        /* \"#utility.yul\":16749:17168   */\n      swap2\n      swap1\n      pop\n      jump\t// out\n        /* \"#utility.yul\":17174:17409   */\n    tag_173:\n        /* \"#utility.yul\":17314:17348   */\n      0x4c61206d6574612066756520616c63616e7a616461206f20656c20706c617a6f\n        /* \"#utility.yul\":17310:17311   */\n      0x00\n        /* \"#utility.yul\":17302:17308   */\n      dup3\n        /* \"#utility.yul\":17298:17312   */\n      add\n        /* \"#utility.yul\":17291:17349   */\n      mstore\n        /* \"#utility.yul\":17383:17401   */\n      0x206e6f206861207465726d696e61646f00000000000000000000000000000000\n        /* \"#utility.yul\":17378:17380   */\n      0x20\n        /* \"#utility.yul\":17370:17376   */\n      dup3\n        /* \"#utility.yul\":17366:17381   */\n      add\n        /* \"#utility.yul\":17359:17402   */\n      mstore\n        /* \"#utility.yul\":17174:17409   */\n      pop\n      jump\t// out\n        /* \"#utility.yul\":17415:17781   */\n    tag_174:\n        /* \"#utility.yul\":17557:17560   */\n      0x00\n        /* \"#utility.yul\":17578:17645   */\n      tag_361\n        /* \"#utility.yul\":17642:17644   */\n      0x30\n        /* \"#utility.yul\":17637:17640   */\n      dup4\n        /* \"#utility.yul\":17578:17645   */\n      tag_142\n      jump\t// in\n    tag_361:\n        /* \"#utility.yul\":17571:17645   */\n      swap2\n      pop\n        /* \"#utility.yul\":17654:17747   */\n      tag_362\n        /* \"#utility.yul\":17743:17746   */\n      dup3\n        /* \"#utility.yul\":17654:17747   */\n      tag_173\n      jump\t// in\n    tag_362:\n        /* \"#utility.yul\":17772:17774   */\n      0x40\n        /* \"#utility.yul\":17767:17770   */\n      dup3\n        /* \"#utility.yul\":17763:17775   */\n      add\n        /* \"#utility.yul\":17756:17775   */\n      swap1\n      pop\n        /* \"#utility.yul\":17415:17781   */\n      swap2\n      swap1\n      pop\n      jump\t// out\n        /* \"#utility.yul\":17787:18206   */\n    tag_97:\n        /* \"#utility.yul\":17953:17957   */\n      0x00\n        /* \"#utility.yul\":17991:17993   */\n      0x20\n        /* \"#utility.yul\":17980:17989   */\n      dup3\n        /* \"#utility.yul\":17976:17994   */\n      add\n        /* \"#utility.yul\":17968:17994   */\n      swap1\n      pop\n        /* \"#utility.yul\":18040:18049   */\n      dup2\n        /* \"#utility.yul\":18034:18038   */\n      dup2\n        /* \"#utility.yul\":18030:18050   */\n      sub\n        /* \"#utility.yul\":18026:18027   */\n      0x00\n        /* \"#utility.yul\":18015:18024   */\n      dup4\n        /* \"#utility.yul\":18011:18028   */\n      add\n        /* \"#utility.yul\":18004:18051   */\n      mstore\n        /* \"#utility.yul\":18068:18199   */\n      tag_364\n        /* \"#utility.yul\":18194:18198   */\n      dup2\n        /* \"#utility.yul\":18068:18199   */\n      tag_174\n      jump\t// in\n    tag_364:\n        /* \"#utility.yul\":18060:18199   */\n      swap1\n      pop\n        /* \"#utility.yul\":17787:18206   */\n      swap2\n      swap1\n      pop\n      jump\t// out\n        /* \"#utility.yul\":18212:18387   */\n    tag_175:\n        /* \"#utility.yul\":18352:18379   */\n      0x4e6f2068617320636f6e747269627569646f20666f6e646f7300000000000000\n        /* \"#utility.yul\":18348:18349   */\n      0x00\n        /* \"#utility.yul\":18340:18346   */\n      dup3\n        /* \"#utility.yul\":18336:18350   */\n      add\n        /* \"#utility.yul\":18329:18380   */\n      mstore\n        /* \"#utility.yul\":18212:18387   */\n      pop\n      jump\t// out\n        /* \"#utility.yul\":18393:18759   */\n    tag_176:\n        /* \"#utility.yul\":18535:18538   */\n      0x00\n        /* \"#utility.yul\":18556:18623   */\n      tag_367\n        /* \"#utility.yul\":18620:18622   */\n      0x19\n        /* \"#utility.yul\":18615:18618   */\n      dup4\n        /* \"#utility.yul\":18556:18623   */\n      tag_142\n      jump\t// in\n    tag_367:\n        /* \"#utility.yul\":18549:18623   */\n      swap2\n      pop\n        /* \"#utility.yul\":18632:18725   */\n      tag_368\n        /* \"#utility.yul\":18721:18724   */\n      dup3\n        /* \"#utility.yul\":18632:18725   */\n      tag_175\n      jump\t// in\n    tag_368:\n        /* \"#utility.yul\":18750:18752   */\n      0x20\n        /* \"#utility.yul\":18745:18748   */\n      dup3\n        /* \"#utility.yul\":18741:18753   */\n      add\n        /* \"#utility.yul\":18734:18753   */\n      swap1\n      pop\n        /* \"#utility.yul\":18393:18759   */\n      swap2\n      swap1\n      pop\n      jump\t// out\n        /* \"#utility.yul\":18765:19184   */\n    tag_100:\n        /* \"#utility.yul\":18931:18935   */\n      0x00\n        /* \"#utility.yul\":18969:18971   */\n      0x20\n        /* \"#utility.yul\":18958:18967   */\n      dup3\n        /* \"#utility.yul\":18954:18972   */\n      add\n        /* \"#utility.yul\":18946:18972   */\n      swap1\n      pop\n        /* \"#utility.yul\":19018:19027   */\n      dup2\n        /* \"#utility.yul\":19012:19016   */\n      dup2\n        /* \"#utility.yul\":19008:19028   */\n      sub\n        /* \"#utility.yul\":19004:19005   */\n      0x00\n        /* \"#utility.yul\":18993:19002   */\n      dup4\n        /* \"#utility.yul\":18989:19006   */\n      add\n        /* \"#utility.yul\":18982:19029   */\n      mstore\n        /* \"#utility.yul\":19046:19177   */\n      tag_370\n        /* \"#utility.yul\":19172:19176   */\n      dup2\n        /* \"#utility.yul\":19046:19177   */\n      tag_176\n      jump\t// in\n    tag_370:\n        /* \"#utility.yul\":19038:19177   */\n      swap1\n      pop\n        /* \"#utility.yul\":18765:19184   */\n      swap2\n      swap1\n      pop\n      jump\t// out\n        /* \"#utility.yul\":19190:19361   */\n    tag_177:\n        /* \"#utility.yul\":19330:19353   */\n      0x456c20706c617a6f206861207465726d696e61646f0000000000000000000000\n        /* \"#utility.yul\":19326:19327   */\n      0x00\n        /* \"#utility.yul\":19318:19324   */\n      dup3\n        /* \"#utility.yul\":19314:19328   */\n      add\n        /* \"#utility.yul\":19307:19354   */\n      mstore\n        /* \"#utility.yul\":19190:19361   */\n      pop\n      jump\t// out\n        /* \"#utility.yul\":19367:19733   */\n    tag_178:\n        /* \"#utility.yul\":19509:19512   */\n      0x00\n        /* \"#utility.yul\":19530:19597   */\n      tag_373\n        /* \"#utility.yul\":19594:19596   */\n      0x15\n        /* \"#utility.yul\":19589:19592   */\n      dup4\n        /* \"#utility.yul\":19530:19597   */\n      tag_142\n      jump\t// in\n    tag_373:\n        /* \"#utility.yul\":19523:19597   */\n      swap2\n      pop\n        /* \"#utility.yul\":19606:19699   */\n      tag_374\n        /* \"#utility.yul\":19695:19698   */\n      dup3\n        /* \"#utility.yul\":19606:19699   */\n      tag_177\n      jump\t// in\n    tag_374:\n        /* \"#utility.yul\":19724:19726   */\n      0x20\n        /* \"#utility.yul\":19719:19722   */\n      dup3\n        /* \"#utility.yul\":19715:19727   */\n      add\n        /* \"#utility.yul\":19708:19727   */\n      swap1\n      pop\n        /* \"#utility.yul\":19367:19733   */\n      swap2\n      swap1\n      pop\n      jump\t// out\n        /* \"#utility.yul\":19739:20158   */\n    tag_112:\n        /* \"#utility.yul\":19905:19909   */\n      0x00\n        /* \"#utility.yul\":19943:19945   */\n      0x20\n        /* \"#utility.yul\":19932:19941   */\n      dup3\n        /* \"#utility.yul\":19928:19946   */\n      add\n        /* \"#utility.yul\":19920:19946   */\n      swap1\n      pop\n        /* \"#utility.yul\":19992:20001   */\n      dup2\n        /* \"#utility.yul\":19986:19990   */\n      dup2\n        /* \"#utility.yul\":19982:20002   */\n      sub\n        /* \"#utility.yul\":19978:19979   */\n      0x00\n        /* \"#utility.yul\":19967:19976   */\n      dup4\n        /* \"#utility.yul\":19963:19980   */\n      add\n        /* \"#utility.yul\":19956:20003   */\n      mstore\n        /* \"#utility.yul\":20020:20151   */\n      tag_376\n        /* \"#utility.yul\":20146:20150   */\n      dup2\n        /* \"#utility.yul\":20020:20151   */\n      tag_178\n      jump\t// in\n    tag_376:\n        /* \"#utility.yul\":20012:20151   */\n      swap1\n      pop\n        /* \"#utility.yul\":19739:20158   */\n      swap2\n      swap1\n      pop\n      jump\t// out\n        /* \"#utility.yul\":20164:20355   */\n    tag_114:\n        /* \"#utility.yul\":20204:20207   */\n      0x00\n        /* \"#utility.yul\":20223:20243   */\n      tag_378\n        /* \"#utility.yul\":20241:20242   */\n      dup3\n        /* \"#utility.yul\":20223:20243   */\n      tag_116\n      jump\t// in\n    tag_378:\n        /* \"#utility.yul\":20218:20243   */\n      swap2\n      pop\n        /* \"#utility.yul\":20257:20277   */\n      tag_379\n        /* \"#utility.yul\":20275:20276   */\n      dup4\n        /* \"#utility.yul\":20257:20277   */\n      tag_116\n      jump\t// in\n    tag_379:\n        /* \"#utility.yul\":20252:20277   */\n      swap3\n      pop\n        /* \"#utility.yul\":20300:20301   */\n      dup3\n        /* \"#utility.yul\":20297:20298   */\n      dup3\n        /* \"#utility.yul\":20293:20302   */\n      add\n        /* \"#utility.yul\":20286:20302   */\n      swap1\n      pop\n        /* \"#utility.yul\":20321:20324   */\n      dup1\n        /* \"#utility.yul\":20318:20319   */\n      dup3\n        /* \"#utility.yul\":20315:20325   */\n      gt\n        /* \"#utility.yul\":20312:20348   */\n      iszero\n      tag_380\n      jumpi\n        /* \"#utility.yul\":20328:20346   */\n      tag_381\n      tag_152\n      jump\t// in\n    tag_381:\n        /* \"#utility.yul\":20312:20348   */\n    tag_380:\n        /* \"#utility.yul\":20164:20355   */\n      swap3\n      swap2\n      pop\n      pop\n      jump\t// out\n\n    auxdata: 0xa26469706673582212207ff91e85cdf89ad4f766753e9e537668751160954df60790711982daeca0d28764736f6c634300081a0033\n}\n",
				"bytecode": {
					"linkReferences": {},
					"object": "608060405234801561000f575f80fd5b50604051611574380380611574833981810160405281019061003191906100c8565b8160038190555080426100449190610133565b6002819055503360015f6101000a81548173ffffffffffffffffffffffffffffffffffffffff021916908373ffffffffffffffffffffffffffffffffffffffff1602179055505050610166565b5f80fd5b5f819050919050565b6100a781610095565b81146100b1575f80fd5b50565b5f815190506100c28161009e565b92915050565b5f80604083850312156100de576100dd610091565b5b5f6100eb858286016100b4565b92505060206100fc858286016100b4565b9150509250929050565b7f4e487b71000000000000000000000000000000000000000000000000000000005f52601160045260245ffd5b5f61013d82610095565b915061014883610095565b92508282019050808211156101605761015f610106565b5b92915050565b611401806101735f395ff3fe6080604052600436106100a6575f3560e01c8063590e1ae311610063578063590e1ae3146101b457806381d12c58146101ca5780638d68cf5914610209578063953b8fb8146102135780639fb42b1f1461023d578063c59ee1dc14610267576100a6565b806312065fe0146100aa5780631b16bb5c146100d457806329dcb0cf146100fc5780634034a53914610126578063481c6a75146101625780635114cb521461018c575b5f80fd5b3480156100b5575f80fd5b506100be610291565b6040516100cb919061092f565b60405180910390f35b3480156100df575f80fd5b506100fa60048036038101906100f59190610b19565b610298565b005b348015610107575f80fd5b50610110610416565b60405161011d919061092f565b60405180910390f35b348015610131575f80fd5b5061014c60048036038101906101479190610bc0565b61041c565b604051610159919061092f565b60405180910390f35b34801561016d575f80fd5b50610176610430565b6040516101839190610bfa565b60405180910390f35b348015610197575f80fd5b506101b260048036038101906101ad9190610c13565b610455565b005b3480156101bf575f80fd5b506101c861061b565b005b3480156101d5575f80fd5b506101f060048036038101906101eb9190610c13565b610778565b6040516102009493929190610cc7565b60405180910390f35b610211610855565b005b34801561021e575f80fd5b50610227610905565b604051610234919061092f565b60405180910390f35b348015610248575f80fd5b5061025161090b565b60405161025e919061092f565b60405180910390f35b348015610272575f80fd5b5061027b610911565b604051610288919061092f565b60405180910390f35b5f47905090565b60015f9054906101000a900473ffffffffffffffffffffffffffffffffffffffff1673ffffffffffffffffffffffffffffffffffffffff163373ffffffffffffffffffffffffffffffffffffffff1614610327576040517f08c379a000000000000000000000000000000000000000000000000000000000815260040161031e90610d81565b60405180910390fd5b80600454101561036c576040517f08c379a000000000000000000000000000000000000000000000000000000000815260040161036390610e0f565b60405180910390fd5b5f60055f60065481526020019081526020015f20905060065f81548092919061039490610e5a565b919050555083815f0190816103a9919061109b565b5082816001015f6101000a81548173ffffffffffffffffffffffffffffffffffffffff021916908373ffffffffffffffffffffffffffffffffffffffff1602179055508181600201819055505f816003015f6101000a81548160ff02191690831515021790555050505050565b60025481565b5f602052805f5260405f205f915090505481565b60015f9054906101000a900473ffffffffffffffffffffffffffffffffffffffff1681565b60015f9054906101000a900473ffffffffffffffffffffffffffffffffffffffff1673ffffffffffffffffffffffffffffffffffffffff163373ffffffffffffffffffffffffffffffffffffffff16146104e4576040517f08c379a00000000000000000000000000000000000000000000000000000000081526004016104db90610d81565b60405180910390fd5b600354600454101561052b576040517f08c379a0000000000000000000000000000000000000000000000000000000008152600401610522906111b4565b60405180910390fd5b5f60055f8381526020019081526020015f209050806003015f9054906101000a900460ff1615610590576040517f08c379a00000000000000000000000000000000000000000000000000000000081526004016105879061121c565b60405180910390fd5b806001015f9054906101000a900473ffffffffffffffffffffffffffffffffffffffff1673ffffffffffffffffffffffffffffffffffffffff166108fc826002015490811502906040515f60405180830381858888f193505050501580156105fa573d5f803e3d5ffd5b506001816003015f6101000a81548160ff0219169083151502179055505050565b6002544211801561062f5750600354600454105b61066e576040517f08c379a0000000000000000000000000000000000000000000000000000000008152600401610665906112aa565b60405180910390fd5b5f805f3373ffffffffffffffffffffffffffffffffffffffff1673ffffffffffffffffffffffffffffffffffffffff1681526020019081526020015f205490505f81116106f0576040517f08c379a00000000000000000000000000000000000000000000000000000000081526004016106e790611312565b60405180910390fd5b5f805f3373ffffffffffffffffffffffffffffffffffffffff1673ffffffffffffffffffffffffffffffffffffffff1681526020019081526020015f20819055503373ffffffffffffffffffffffffffffffffffffffff166108fc8290811502906040515f60405180830381858888f19350505050158015610774573d5f803e3d5ffd5b5050565b6005602052805f5260405f205f91509050805f01805461079790610ece565b80601f01602080910402602001604051908101604052809291908181526020018280546107c390610ece565b801561080e5780601f106107e55761010080835404028352916020019161080e565b820191905f5260205f20905b8154815290600101906020018083116107f157829003601f168201915b505050505090806001015f9054906101000a900473ffffffffffffffffffffffffffffffffffffffff1690806002015490806003015f9054906101000a900460ff16905084565b6002544210610899576040517f08c379a00000000000000000000000000000000000000000000000000000000081526004016108909061137a565b60405180910390fd5b345f803373ffffffffffffffffffffffffffffffffffffffff1673ffffffffffffffffffffffffffffffffffffffff1681526020019081526020015f205f8282546108e49190611398565b925050819055503460045f8282546108fc9190611398565b92505081905550565b60035481565b60065481565b60045481565b5f819050919050565b61092981610917565b82525050565b5f6020820190506109425f830184610920565b92915050565b5f604051905090565b5f80fd5b5f80fd5b5f80fd5b5f80fd5b5f601f19601f8301169050919050565b7f4e487b71000000000000000000000000000000000000000000000000000000005f52604160045260245ffd5b6109a782610961565b810181811067ffffffffffffffff821117156109c6576109c5610971565b5b80604052505050565b5f6109d8610948565b90506109e4828261099e565b919050565b5f67ffffffffffffffff821115610a0357610a02610971565b5b610a0c82610961565b9050602081019050919050565b828183375f83830152505050565b5f610a39610a34846109e9565b6109cf565b905082815260208101848484011115610a5557610a5461095d565b5b610a60848285610a19565b509392505050565b5f82601f830112610a7c57610a7b610959565b5b8135610a8c848260208601610a27565b91505092915050565b5f73ffffffffffffffffffffffffffffffffffffffff82169050919050565b5f610abe82610a95565b9050919050565b610ace81610ab4565b8114610ad8575f80fd5b50565b5f81359050610ae981610ac5565b92915050565b610af881610917565b8114610b02575f80fd5b50565b5f81359050610b1381610aef565b92915050565b5f805f60608486031215610b3057610b2f610951565b5b5f84013567ffffffffffffffff811115610b4d57610b4c610955565b5b610b5986828701610a68565b9350506020610b6a86828701610adb565b9250506040610b7b86828701610b05565b9150509250925092565b5f610b8f82610a95565b9050919050565b610b9f81610b85565b8114610ba9575f80fd5b50565b5f81359050610bba81610b96565b92915050565b5f60208284031215610bd557610bd4610951565b5b5f610be284828501610bac565b91505092915050565b610bf481610b85565b82525050565b5f602082019050610c0d5f830184610beb565b92915050565b5f60208284031215610c2857610c27610951565b5b5f610c3584828501610b05565b91505092915050565b5f81519050919050565b5f82825260208201905092915050565b8281835e5f83830152505050565b5f610c7082610c3e565b610c7a8185610c48565b9350610c8a818560208601610c58565b610c9381610961565b840191505092915050565b610ca781610ab4565b82525050565b5f8115159050919050565b610cc181610cad565b82525050565b5f6080820190508181035f830152610cdf8187610c66565b9050610cee6020830186610c9e565b610cfb6040830185610920565b610d086060830184610cb8565b95945050505050565b7f536f6c6f20656c2061646d696e6973747261646f72207075656465207265616c5f8201527f697a6172206573746120616363696f6e00000000000000000000000000000000602082015250565b5f610d6b603083610c48565b9150610d7682610d11565b604082019050919050565b5f6020820190508181035f830152610d9881610d5f565b9050919050565b7f4e6f2068617920666f6e646f7320737566696369656e746573207061726120655f8201527f73746120736f6c69636974756400000000000000000000000000000000000000602082015250565b5f610df9602d83610c48565b9150610e0482610d9f565b604082019050919050565b5f6020820190508181035f830152610e2681610ded565b9050919050565b7f4e487b71000000000000000000000000000000000000000000000000000000005f52601160045260245ffd5b5f610e6482610917565b91507fffffffffffffffffffffffffffffffffffffffffffffffffffffffffffffffff8203610e9657610e95610e2d565b5b600182019050919050565b7f4e487b71000000000000000000000000000000000000000000000000000000005f52602260045260245ffd5b5f6002820490506001821680610ee557607f821691505b602082108103610ef857610ef7610ea1565b5b50919050565b5f819050815f5260205f209050919050565b5f6020601f8301049050919050565b5f82821b905092915050565b5f60088302610f5a7fffffffffffffffffffffffffffffffffffffffffffffffffffffffffffffffff82610f1f565b610f648683610f1f565b95508019841693508086168417925050509392505050565b5f819050919050565b5f610f9f610f9a610f9584610917565b610f7c565b610917565b9050919050565b5f819050919050565b610fb883610f85565b610fcc610fc482610fa6565b848454610f2b565b825550505050565b5f90565b610fe0610fd4565b610feb818484610faf565b505050565b5b8181101561100e576110035f82610fd8565b600181019050610ff1565b5050565b601f8211156110535761102481610efe565b61102d84610f10565b8101602085101561103c578190505b61105061104885610f10565b830182610ff0565b50505b505050565b5f82821c905092915050565b5f6110735f1984600802611058565b1980831691505092915050565b5f61108b8383611064565b9150826002028217905092915050565b6110a482610c3e565b67ffffffffffffffff8111156110bd576110bc610971565b5b6110c78254610ece565b6110d2828285611012565b5f60209050601f831160018114611103575f84156110f1578287015190505b6110fb8582611080565b865550611162565b601f19841661111186610efe565b5f5b8281101561113857848901518255600182019150602085019450602081019050611113565b868310156111555784890151611151601f891682611064565b8355505b6001600288020188555050505b505050505050565b7f4e6f2073652063756d706c696f206c61206d65746100000000000000000000005f82015250565b5f61119e601583610c48565b91506111a98261116a565b602082019050919050565b5f6020820190508181035f8301526111cb81611192565b9050919050565b7f45737461207065746963696f6e2079612066756520636f6d706c6574616461005f82015250565b5f611206601f83610c48565b9150611211826111d2565b602082019050919050565b5f6020820190508181035f830152611233816111fa565b9050919050565b7f4c61206d6574612066756520616c63616e7a616461206f20656c20706c617a6f5f8201527f206e6f206861207465726d696e61646f00000000000000000000000000000000602082015250565b5f611294603083610c48565b915061129f8261123a565b604082019050919050565b5f6020820190508181035f8301526112c181611288565b9050919050565b7f4e6f2068617320636f6e747269627569646f20666f6e646f73000000000000005f82015250565b5f6112fc601983610c48565b9150611307826112c8565b602082019050919050565b5f6020820190508181035f830152611329816112f0565b9050919050565b7f456c20706c617a6f206861207465726d696e61646f00000000000000000000005f82015250565b5f611364601583610c48565b915061136f82611330565b602082019050919050565b5f6020820190508181035f83015261139181611358565b9050919050565b5f6113a282610917565b91506113ad83610917565b92508282019050808211156113c5576113c4610e2d565b5b9291505056fea26469706673582212207ff91e85cdf89ad4f766753e9e537668751160954df60790711982daeca0d28764736f6c634300081a0033",
					"opcodes": "PUSH1 0x80 PUSH1 0x40 MSTORE CALLVALUE DUP1 ISZERO PUSH2 0xF JUMPI PUSH0 DUP1 REVERT JUMPDEST POP PUSH1 0x40 MLOAD PUSH2 0x1574 CODESIZE SUB DUP1 PUSH2 0x1574 DUP4 CODECOPY DUP2 DUP2 ADD PUSH1 0x40 MSTORE DUP2 ADD SWAP1 PUSH2 0x31 SWAP2 SWAP1 PUSH2 0xC8 JUMP JUMPDEST DUP2 PUSH1 0x3 DUP2 SWAP1 SSTORE POP DUP1 TIMESTAMP PUSH2 0x44 SWAP2 SWAP1 PUSH2 0x133 JUMP JUMPDEST PUSH1 0x2 DUP2 SWAP1 SSTORE POP CALLER PUSH1 0x1 PUSH0 PUSH2 0x100 EXP DUP2 SLOAD DUP2 PUSH20 0xFFFFFFFFFFFFFFFFFFFFFFFFFFFFFFFFFFFFFFFF MUL NOT AND SWAP1 DUP4 PUSH20 0xFFFFFFFFFFFFFFFFFFFFFFFFFFFFFFFFFFFFFFFF AND MUL OR SWAP1 SSTORE POP POP POP PUSH2 0x166 JUMP JUMPDEST PUSH0 DUP1 REVERT JUMPDEST PUSH0 DUP2 SWAP1 POP SWAP2 SWAP1 POP JUMP JUMPDEST PUSH2 0xA7 DUP2 PUSH2 0x95 JUMP JUMPDEST DUP2 EQ PUSH2 0xB1 JUMPI PUSH0 DUP1 REVERT JUMPDEST POP JUMP JUMPDEST PUSH0 DUP2 MLOAD SWAP1 POP PUSH2 0xC2 DUP2 PUSH2 0x9E JUMP JUMPDEST SWAP3 SWAP2 POP POP JUMP JUMPDEST PUSH0 DUP1 PUSH1 0x40 DUP4 DUP6 SUB SLT ISZERO PUSH2 0xDE JUMPI PUSH2 0xDD PUSH2 0x91 JUMP JUMPDEST JUMPDEST PUSH0 PUSH2 0xEB DUP6 DUP3 DUP7 ADD PUSH2 0xB4 JUMP JUMPDEST SWAP3 POP POP PUSH1 0x20 PUSH2 0xFC DUP6 DUP3 DUP7 ADD PUSH2 0xB4 JUMP JUMPDEST SWAP2 POP POP SWAP3 POP SWAP3 SWAP1 POP JUMP JUMPDEST PUSH32 0x4E487B7100000000000000000000000000000000000000000000000000000000 PUSH0 MSTORE PUSH1 0x11 PUSH1 0x4 MSTORE PUSH1 0x24 PUSH0 REVERT JUMPDEST PUSH0 PUSH2 0x13D DUP3 PUSH2 0x95 JUMP JUMPDEST SWAP2 POP PUSH2 0x148 DUP4 PUSH2 0x95 JUMP JUMPDEST SWAP3 POP DUP3 DUP3 ADD SWAP1 POP DUP1 DUP3 GT ISZERO PUSH2 0x160 JUMPI PUSH2 0x15F PUSH2 0x106 JUMP JUMPDEST JUMPDEST SWAP3 SWAP2 POP POP JUMP JUMPDEST PUSH2 0x1401 DUP1 PUSH2 0x173 PUSH0 CODECOPY PUSH0 RETURN INVALID PUSH1 0x80 PUSH1 0x40 MSTORE PUSH1 0x4 CALLDATASIZE LT PUSH2 0xA6 JUMPI PUSH0 CALLDATALOAD PUSH1 0xE0 SHR DUP1 PUSH4 0x590E1AE3 GT PUSH2 0x63 JUMPI DUP1 PUSH4 0x590E1AE3 EQ PUSH2 0x1B4 JUMPI DUP1 PUSH4 0x81D12C58 EQ PUSH2 0x1CA JUMPI DUP1 PUSH4 0x8D68CF59 EQ PUSH2 0x209 JUMPI DUP1 PUSH4 0x953B8FB8 EQ PUSH2 0x213 JUMPI DUP1 PUSH4 0x9FB42B1F EQ PUSH2 0x23D JUMPI DUP1 PUSH4 0xC59EE1DC EQ PUSH2 0x267 JUMPI PUSH2 0xA6 JUMP JUMPDEST DUP1 PUSH4 0x12065FE0 EQ PUSH2 0xAA JUMPI DUP1 PUSH4 0x1B16BB5C EQ PUSH2 0xD4 JUMPI DUP1 PUSH4 0x29DCB0CF EQ PUSH2 0xFC JUMPI DUP1 PUSH4 0x4034A539 EQ PUSH2 0x126 JUMPI DUP1 PUSH4 0x481C6A75 EQ PUSH2 0x162 JUMPI DUP1 PUSH4 0x5114CB52 EQ PUSH2 0x18C JUMPI JUMPDEST PUSH0 DUP1 REVERT JUMPDEST CALLVALUE DUP1 ISZERO PUSH2 0xB5 JUMPI PUSH0 DUP1 REVERT JUMPDEST POP PUSH2 0xBE PUSH2 0x291 JUMP JUMPDEST PUSH1 0x40 MLOAD PUSH2 0xCB SWAP2 SWAP1 PUSH2 0x92F JUMP JUMPDEST PUSH1 0x40 MLOAD DUP1 SWAP2 SUB SWAP1 RETURN JUMPDEST CALLVALUE DUP1 ISZERO PUSH2 0xDF JUMPI PUSH0 DUP1 REVERT JUMPDEST POP PUSH2 0xFA PUSH1 0x4 DUP1 CALLDATASIZE SUB DUP2 ADD SWAP1 PUSH2 0xF5 SWAP2 SWAP1 PUSH2 0xB19 JUMP JUMPDEST PUSH2 0x298 JUMP JUMPDEST STOP JUMPDEST CALLVALUE DUP1 ISZERO PUSH2 0x107 JUMPI PUSH0 DUP1 REVERT JUMPDEST POP PUSH2 0x110 PUSH2 0x416 JUMP JUMPDEST PUSH1 0x40 MLOAD PUSH2 0x11D SWAP2 SWAP1 PUSH2 0x92F JUMP JUMPDEST PUSH1 0x40 MLOAD DUP1 SWAP2 SUB SWAP1 RETURN JUMPDEST CALLVALUE DUP1 ISZERO PUSH2 0x131 JUMPI PUSH0 DUP1 REVERT JUMPDEST POP PUSH2 0x14C PUSH1 0x4 DUP1 CALLDATASIZE SUB DUP2 ADD SWAP1 PUSH2 0x147 SWAP2 SWAP1 PUSH2 0xBC0 JUMP JUMPDEST PUSH2 0x41C JUMP JUMPDEST PUSH1 0x40 MLOAD PUSH2 0x159 SWAP2 SWAP1 PUSH2 0x92F JUMP JUMPDEST PUSH1 0x40 MLOAD DUP1 SWAP2 SUB SWAP1 RETURN JUMPDEST CALLVALUE DUP1 ISZERO PUSH2 0x16D JUMPI PUSH0 DUP1 REVERT JUMPDEST POP PUSH2 0x176 PUSH2 0x430 JUMP JUMPDEST PUSH1 0x40 MLOAD PUSH2 0x183 SWAP2 SWAP1 PUSH2 0xBFA JUMP JUMPDEST PUSH1 0x40 MLOAD DUP1 SWAP2 SUB SWAP1 RETURN JUMPDEST CALLVALUE DUP1 ISZERO PUSH2 0x197 JUMPI PUSH0 DUP1 REVERT JUMPDEST POP PUSH2 0x1B2 PUSH1 0x4 DUP1 CALLDATASIZE SUB DUP2 ADD SWAP1 PUSH2 0x1AD SWAP2 SWAP1 PUSH2 0xC13 JUMP JUMPDEST PUSH2 0x455 JUMP JUMPDEST STOP JUMPDEST CALLVALUE DUP1 ISZERO PUSH2 0x1BF JUMPI PUSH0 DUP1 REVERT JUMPDEST POP PUSH2 0x1C8 PUSH2 0x61B JUMP JUMPDEST STOP JUMPDEST CALLVALUE DUP1 ISZERO PUSH2 0x1D5 JUMPI PUSH0 DUP1 REVERT JUMPDEST POP PUSH2 0x1F0 PUSH1 0x4 DUP1 CALLDATASIZE SUB DUP2 ADD SWAP1 PUSH2 0x1EB SWAP2 SWAP1 PUSH2 0xC13 JUMP JUMPDEST PUSH2 0x778 JUMP JUMPDEST PUSH1 0x40 MLOAD PUSH2 0x200 SWAP5 SWAP4 SWAP3 SWAP2 SWAP1 PUSH2 0xCC7 JUMP JUMPDEST PUSH1 0x40 MLOAD DUP1 SWAP2 SUB SWAP1 RETURN JUMPDEST PUSH2 0x211 PUSH2 0x855 JUMP JUMPDEST STOP JUMPDEST CALLVALUE DUP1 ISZERO PUSH2 0x21E JUMPI PUSH0 DUP1 REVERT JUMPDEST POP PUSH2 0x227 PUSH2 0x905 JUMP JUMPDEST PUSH1 0x40 MLOAD PUSH2 0x234 SWAP2 SWAP1 PUSH2 0x92F JUMP JUMPDEST PUSH1 0x40 MLOAD DUP1 SWAP2 SUB SWAP1 RETURN JUMPDEST CALLVALUE DUP1 ISZERO PUSH2 0x248 JUMPI PUSH0 DUP1 REVERT JUMPDEST POP PUSH2 0x251 PUSH2 0x90B JUMP JUMPDEST PUSH1 0x40 MLOAD PUSH2 0x25E SWAP2 SWAP1 PUSH2 0x92F JUMP JUMPDEST PUSH1 0x40 MLOAD DUP1 SWAP2 SUB SWAP1 RETURN JUMPDEST CALLVALUE DUP1 ISZERO PUSH2 0x272 JUMPI PUSH0 DUP1 REVERT JUMPDEST POP PUSH2 0x27B PUSH2 0x911 JUMP JUMPDEST PUSH1 0x40 MLOAD PUSH2 0x288 SWAP2 SWAP1 PUSH2 0x92F JUMP JUMPDEST PUSH1 0x40 MLOAD DUP1 SWAP2 SUB SWAP1 RETURN JUMPDEST PUSH0 SELFBALANCE SWAP1 POP SWAP1 JUMP JUMPDEST PUSH1 0x1 PUSH0 SWAP1 SLOAD SWAP1 PUSH2 0x100 EXP SWAP1 DIV PUSH20 0xFFFFFFFFFFFFFFFFFFFFFFFFFFFFFFFFFFFFFFFF AND PUSH20 0xFFFFFFFFFFFFFFFFFFFFFFFFFFFFFFFFFFFFFFFF AND CALLER PUSH20 0xFFFFFFFFFFFFFFFFFFFFFFFFFFFFFFFFFFFFFFFF AND EQ PUSH2 0x327 JUMPI PUSH1 0x40 MLOAD PUSH32 0x8C379A000000000000000000000000000000000000000000000000000000000 DUP2 MSTORE PUSH1 0x4 ADD PUSH2 0x31E SWAP1 PUSH2 0xD81 JUMP JUMPDEST PUSH1 0x40 MLOAD DUP1 SWAP2 SUB SWAP1 REVERT JUMPDEST DUP1 PUSH1 0x4 SLOAD LT ISZERO PUSH2 0x36C JUMPI PUSH1 0x40 MLOAD PUSH32 0x8C379A000000000000000000000000000000000000000000000000000000000 DUP2 MSTORE PUSH1 0x4 ADD PUSH2 0x363 SWAP1 PUSH2 0xE0F JUMP JUMPDEST PUSH1 0x40 MLOAD DUP1 SWAP2 SUB SWAP1 REVERT JUMPDEST PUSH0 PUSH1 0x5 PUSH0 PUSH1 0x6 SLOAD DUP2 MSTORE PUSH1 0x20 ADD SWAP1 DUP2 MSTORE PUSH1 0x20 ADD PUSH0 KECCAK256 SWAP1 POP PUSH1 0x6 PUSH0 DUP2 SLOAD DUP1 SWAP3 SWAP2 SWAP1 PUSH2 0x394 SWAP1 PUSH2 0xE5A JUMP JUMPDEST SWAP2 SWAP1 POP SSTORE POP DUP4 DUP2 PUSH0 ADD SWAP1 DUP2 PUSH2 0x3A9 SWAP2 SWAP1 PUSH2 0x109B JUMP JUMPDEST POP DUP3 DUP2 PUSH1 0x1 ADD PUSH0 PUSH2 0x100 EXP DUP2 SLOAD DUP2 PUSH20 0xFFFFFFFFFFFFFFFFFFFFFFFFFFFFFFFFFFFFFFFF MUL NOT AND SWAP1 DUP4 PUSH20 0xFFFFFFFFFFFFFFFFFFFFFFFFFFFFFFFFFFFFFFFF AND MUL OR SWAP1 SSTORE POP DUP2 DUP2 PUSH1 0x2 ADD DUP2 SWAP1 SSTORE POP PUSH0 DUP2 PUSH1 0x3 ADD PUSH0 PUSH2 0x100 EXP DUP2 SLOAD DUP2 PUSH1 0xFF MUL NOT AND SWAP1 DUP4 ISZERO ISZERO MUL OR SWAP1 SSTORE POP POP POP POP POP JUMP JUMPDEST PUSH1 0x2 SLOAD DUP2 JUMP JUMPDEST PUSH0 PUSH1 0x20 MSTORE DUP1 PUSH0 MSTORE PUSH1 0x40 PUSH0 KECCAK256 PUSH0 SWAP2 POP SWAP1 POP SLOAD DUP2 JUMP JUMPDEST PUSH1 0x1 PUSH0 SWAP1 SLOAD SWAP1 PUSH2 0x100 EXP SWAP1 DIV PUSH20 0xFFFFFFFFFFFFFFFFFFFFFFFFFFFFFFFFFFFFFFFF AND DUP2 JUMP JUMPDEST PUSH1 0x1 PUSH0 SWAP1 SLOAD SWAP1 PUSH2 0x100 EXP SWAP1 DIV PUSH20 0xFFFFFFFFFFFFFFFFFFFFFFFFFFFFFFFFFFFFFFFF AND PUSH20 0xFFFFFFFFFFFFFFFFFFFFFFFFFFFFFFFFFFFFFFFF AND CALLER PUSH20 0xFFFFFFFFFFFFFFFFFFFFFFFFFFFFFFFFFFFFFFFF AND EQ PUSH2 0x4E4 JUMPI PUSH1 0x40 MLOAD PUSH32 0x8C379A000000000000000000000000000000000000000000000000000000000 DUP2 MSTORE PUSH1 0x4 ADD PUSH2 0x4DB SWAP1 PUSH2 0xD81 JUMP JUMPDEST PUSH1 0x40 MLOAD DUP1 SWAP2 SUB SWAP1 REVERT JUMPDEST PUSH1 0x3 SLOAD PUSH1 0x4 SLOAD LT ISZERO PUSH2 0x52B JUMPI PUSH1 0x40 MLOAD PUSH32 0x8C379A000000000000000000000000000000000000000000000000000000000 DUP2 MSTORE PUSH1 0x4 ADD PUSH2 0x522 SWAP1 PUSH2 0x11B4 JUMP JUMPDEST PUSH1 0x40 MLOAD DUP1 SWAP2 SUB SWAP1 REVERT JUMPDEST PUSH0 PUSH1 0x5 PUSH0 DUP4 DUP2 MSTORE PUSH1 0x20 ADD SWAP1 DUP2 MSTORE PUSH1 0x20 ADD PUSH0 KECCAK256 SWAP1 POP DUP1 PUSH1 0x3 ADD PUSH0 SWAP1 SLOAD SWAP1 PUSH2 0x100 EXP SWAP1 DIV PUSH1 0xFF AND ISZERO PUSH2 0x590 JUMPI PUSH1 0x40 MLOAD PUSH32 0x8C379A000000000000000000000000000000000000000000000000000000000 DUP2 MSTORE PUSH1 0x4 ADD PUSH2 0x587 SWAP1 PUSH2 0x121C JUMP JUMPDEST PUSH1 0x40 MLOAD DUP1 SWAP2 SUB SWAP1 REVERT JUMPDEST DUP1 PUSH1 0x1 ADD PUSH0 SWAP1 SLOAD SWAP1 PUSH2 0x100 EXP SWAP1 DIV PUSH20 0xFFFFFFFFFFFFFFFFFFFFFFFFFFFFFFFFFFFFFFFF AND PUSH20 0xFFFFFFFFFFFFFFFFFFFFFFFFFFFFFFFFFFFFFFFF AND PUSH2 0x8FC DUP3 PUSH1 0x2 ADD SLOAD SWAP1 DUP2 ISZERO MUL SWAP1 PUSH1 0x40 MLOAD PUSH0 PUSH1 0x40 MLOAD DUP1 DUP4 SUB DUP2 DUP6 DUP9 DUP9 CALL SWAP4 POP POP POP POP ISZERO DUP1 ISZERO PUSH2 0x5FA JUMPI RETURNDATASIZE PUSH0 DUP1 RETURNDATACOPY RETURNDATASIZE PUSH0 REVERT JUMPDEST POP PUSH1 0x1 DUP2 PUSH1 0x3 ADD PUSH0 PUSH2 0x100 EXP DUP2 SLOAD DUP2 PUSH1 0xFF MUL NOT AND SWAP1 DUP4 ISZERO ISZERO MUL OR SWAP1 SSTORE POP POP POP JUMP JUMPDEST PUSH1 0x2 SLOAD TIMESTAMP GT DUP1 ISZERO PUSH2 0x62F JUMPI POP PUSH1 0x3 SLOAD PUSH1 0x4 SLOAD LT JUMPDEST PUSH2 0x66E JUMPI PUSH1 0x40 MLOAD PUSH32 0x8C379A000000000000000000000000000000000000000000000000000000000 DUP2 MSTORE PUSH1 0x4 ADD PUSH2 0x665 SWAP1 PUSH2 0x12AA JUMP JUMPDEST PUSH1 0x40 MLOAD DUP1 SWAP2 SUB SWAP1 REVERT JUMPDEST PUSH0 DUP1 PUSH0 CALLER PUSH20 0xFFFFFFFFFFFFFFFFFFFFFFFFFFFFFFFFFFFFFFFF AND PUSH20 0xFFFFFFFFFFFFFFFFFFFFFFFFFFFFFFFFFFFFFFFF AND DUP2 MSTORE PUSH1 0x20 ADD SWAP1 DUP2 MSTORE PUSH1 0x20 ADD PUSH0 KECCAK256 SLOAD SWAP1 POP PUSH0 DUP2 GT PUSH2 0x6F0 JUMPI PUSH1 0x40 MLOAD PUSH32 0x8C379A000000000000000000000000000000000000000000000000000000000 DUP2 MSTORE PUSH1 0x4 ADD PUSH2 0x6E7 SWAP1 PUSH2 0x1312 JUMP JUMPDEST PUSH1 0x40 MLOAD DUP1 SWAP2 SUB SWAP1 REVERT JUMPDEST PUSH0 DUP1 PUSH0 CALLER PUSH20 0xFFFFFFFFFFFFFFFFFFFFFFFFFFFFFFFFFFFFFFFF AND PUSH20 0xFFFFFFFFFFFFFFFFFFFFFFFFFFFFFFFFFFFFFFFF AND DUP2 MSTORE PUSH1 0x20 ADD SWAP1 DUP2 MSTORE PUSH1 0x20 ADD PUSH0 KECCAK256 DUP2 SWAP1 SSTORE POP CALLER PUSH20 0xFFFFFFFFFFFFFFFFFFFFFFFFFFFFFFFFFFFFFFFF AND PUSH2 0x8FC DUP3 SWAP1 DUP2 ISZERO MUL SWAP1 PUSH1 0x40 MLOAD PUSH0 PUSH1 0x40 MLOAD DUP1 DUP4 SUB DUP2 DUP6 DUP9 DUP9 CALL SWAP4 POP POP POP POP ISZERO DUP1 ISZERO PUSH2 0x774 JUMPI RETURNDATASIZE PUSH0 DUP1 RETURNDATACOPY RETURNDATASIZE PUSH0 REVERT JUMPDEST POP POP JUMP JUMPDEST PUSH1 0x5 PUSH1 0x20 MSTORE DUP1 PUSH0 MSTORE PUSH1 0x40 PUSH0 KECCAK256 PUSH0 SWAP2 POP SWAP1 POP DUP1 PUSH0 ADD DUP1 SLOAD PUSH2 0x797 SWAP1 PUSH2 0xECE JUMP JUMPDEST DUP1 PUSH1 0x1F ADD PUSH1 0x20 DUP1 SWAP2 DIV MUL PUSH1 0x20 ADD PUSH1 0x40 MLOAD SWAP1 DUP2 ADD PUSH1 0x40 MSTORE DUP1 SWAP3 SWAP2 SWAP1 DUP2 DUP2 MSTORE PUSH1 0x20 ADD DUP3 DUP1 SLOAD PUSH2 0x7C3 SWAP1 PUSH2 0xECE JUMP JUMPDEST DUP1 ISZERO PUSH2 0x80E JUMPI DUP1 PUSH1 0x1F LT PUSH2 0x7E5 JUMPI PUSH2 0x100 DUP1 DUP4 SLOAD DIV MUL DUP4 MSTORE SWAP2 PUSH1 0x20 ADD SWAP2 PUSH2 0x80E JUMP JUMPDEST DUP3 ADD SWAP2 SWAP1 PUSH0 MSTORE PUSH1 0x20 PUSH0 KECCAK256 SWAP1 JUMPDEST DUP2 SLOAD DUP2 MSTORE SWAP1 PUSH1 0x1 ADD SWAP1 PUSH1 0x20 ADD DUP1 DUP4 GT PUSH2 0x7F1 JUMPI DUP3 SWAP1 SUB PUSH1 0x1F AND DUP3 ADD SWAP2 JUMPDEST POP POP POP POP POP SWAP1 DUP1 PUSH1 0x1 ADD PUSH0 SWAP1 SLOAD SWAP1 PUSH2 0x100 EXP SWAP1 DIV PUSH20 0xFFFFFFFFFFFFFFFFFFFFFFFFFFFFFFFFFFFFFFFF AND SWAP1 DUP1 PUSH1 0x2 ADD SLOAD SWAP1 DUP1 PUSH1 0x3 ADD PUSH0 SWAP1 SLOAD SWAP1 PUSH2 0x100 EXP SWAP1 DIV PUSH1 0xFF AND SWAP1 POP DUP5 JUMP JUMPDEST PUSH1 0x2 SLOAD TIMESTAMP LT PUSH2 0x899 JUMPI PUSH1 0x40 MLOAD PUSH32 0x8C379A000000000000000000000000000000000000000000000000000000000 DUP2 MSTORE PUSH1 0x4 ADD PUSH2 0x890 SWAP1 PUSH2 0x137A JUMP JUMPDEST PUSH1 0x40 MLOAD DUP1 SWAP2 SUB SWAP1 REVERT JUMPDEST CALLVALUE PUSH0 DUP1 CALLER PUSH20 0xFFFFFFFFFFFFFFFFFFFFFFFFFFFFFFFFFFFFFFFF AND PUSH20 0xFFFFFFFFFFFFFFFFFFFFFFFFFFFFFFFFFFFFFFFF AND DUP2 MSTORE PUSH1 0x20 ADD SWAP1 DUP2 MSTORE PUSH1 0x20 ADD PUSH0 KECCAK256 PUSH0 DUP3 DUP3 SLOAD PUSH2 0x8E4 SWAP2 SWAP1 PUSH2 0x1398 JUMP JUMPDEST SWAP3 POP POP DUP2 SWAP1 SSTORE POP CALLVALUE PUSH1 0x4 PUSH0 DUP3 DUP3 SLOAD PUSH2 0x8FC SWAP2 SWAP1 PUSH2 0x1398 JUMP JUMPDEST SWAP3 POP POP DUP2 SWAP1 SSTORE POP JUMP JUMPDEST PUSH1 0x3 SLOAD DUP2 JUMP JUMPDEST PUSH1 0x6 SLOAD DUP2 JUMP JUMPDEST PUSH1 0x4 SLOAD DUP2 JUMP JUMPDEST PUSH0 DUP2 SWAP1 POP SWAP2 SWAP1 POP JUMP JUMPDEST PUSH2 0x929 DUP2 PUSH2 0x917 JUMP JUMPDEST DUP3 MSTORE POP POP JUMP JUMPDEST PUSH0 PUSH1 0x20 DUP3 ADD SWAP1 POP PUSH2 0x942 PUSH0 DUP4 ADD DUP5 PUSH2 0x920 JUMP JUMPDEST SWAP3 SWAP2 POP POP JUMP JUMPDEST PUSH0 PUSH1 0x40 MLOAD SWAP1 POP SWAP1 JUMP JUMPDEST PUSH0 DUP1 REVERT JUMPDEST PUSH0 DUP1 REVERT JUMPDEST PUSH0 DUP1 REVERT JUMPDEST PUSH0 DUP1 REVERT JUMPDEST PUSH0 PUSH1 0x1F NOT PUSH1 0x1F DUP4 ADD AND SWAP1 POP SWAP2 SWAP1 POP JUMP JUMPDEST PUSH32 0x4E487B7100000000000000000000000000000000000000000000000000000000 PUSH0 MSTORE PUSH1 0x41 PUSH1 0x4 MSTORE PUSH1 0x24 PUSH0 REVERT JUMPDEST PUSH2 0x9A7 DUP3 PUSH2 0x961 JUMP JUMPDEST DUP2 ADD DUP2 DUP2 LT PUSH8 0xFFFFFFFFFFFFFFFF DUP3 GT OR ISZERO PUSH2 0x9C6 JUMPI PUSH2 0x9C5 PUSH2 0x971 JUMP JUMPDEST JUMPDEST DUP1 PUSH1 0x40 MSTORE POP POP POP JUMP JUMPDEST PUSH0 PUSH2 0x9D8 PUSH2 0x948 JUMP JUMPDEST SWAP1 POP PUSH2 0x9E4 DUP3 DUP3 PUSH2 0x99E JUMP JUMPDEST SWAP2 SWAP1 POP JUMP JUMPDEST PUSH0 PUSH8 0xFFFFFFFFFFFFFFFF DUP3 GT ISZERO PUSH2 0xA03 JUMPI PUSH2 0xA02 PUSH2 0x971 JUMP JUMPDEST JUMPDEST PUSH2 0xA0C DUP3 PUSH2 0x961 JUMP JUMPDEST SWAP1 POP PUSH1 0x20 DUP2 ADD SWAP1 POP SWAP2 SWAP1 POP JUMP JUMPDEST DUP3 DUP2 DUP4 CALLDATACOPY PUSH0 DUP4 DUP4 ADD MSTORE POP POP POP JUMP JUMPDEST PUSH0 PUSH2 0xA39 PUSH2 0xA34 DUP5 PUSH2 0x9E9 JUMP JUMPDEST PUSH2 0x9CF JUMP JUMPDEST SWAP1 POP DUP3 DUP2 MSTORE PUSH1 0x20 DUP2 ADD DUP5 DUP5 DUP5 ADD GT ISZERO PUSH2 0xA55 JUMPI PUSH2 0xA54 PUSH2 0x95D JUMP JUMPDEST JUMPDEST PUSH2 0xA60 DUP5 DUP3 DUP6 PUSH2 0xA19 JUMP JUMPDEST POP SWAP4 SWAP3 POP POP POP JUMP JUMPDEST PUSH0 DUP3 PUSH1 0x1F DUP4 ADD SLT PUSH2 0xA7C JUMPI PUSH2 0xA7B PUSH2 0x959 JUMP JUMPDEST JUMPDEST DUP2 CALLDATALOAD PUSH2 0xA8C DUP5 DUP3 PUSH1 0x20 DUP7 ADD PUSH2 0xA27 JUMP JUMPDEST SWAP2 POP POP SWAP3 SWAP2 POP POP JUMP JUMPDEST PUSH0 PUSH20 0xFFFFFFFFFFFFFFFFFFFFFFFFFFFFFFFFFFFFFFFF DUP3 AND SWAP1 POP SWAP2 SWAP1 POP JUMP JUMPDEST PUSH0 PUSH2 0xABE DUP3 PUSH2 0xA95 JUMP JUMPDEST SWAP1 POP SWAP2 SWAP1 POP JUMP JUMPDEST PUSH2 0xACE DUP2 PUSH2 0xAB4 JUMP JUMPDEST DUP2 EQ PUSH2 0xAD8 JUMPI PUSH0 DUP1 REVERT JUMPDEST POP JUMP JUMPDEST PUSH0 DUP2 CALLDATALOAD SWAP1 POP PUSH2 0xAE9 DUP2 PUSH2 0xAC5 JUMP JUMPDEST SWAP3 SWAP2 POP POP JUMP JUMPDEST PUSH2 0xAF8 DUP2 PUSH2 0x917 JUMP JUMPDEST DUP2 EQ PUSH2 0xB02 JUMPI PUSH0 DUP1 REVERT JUMPDEST POP JUMP JUMPDEST PUSH0 DUP2 CALLDATALOAD SWAP1 POP PUSH2 0xB13 DUP2 PUSH2 0xAEF JUMP JUMPDEST SWAP3 SWAP2 POP POP JUMP JUMPDEST PUSH0 DUP1 PUSH0 PUSH1 0x60 DUP5 DUP7 SUB SLT ISZERO PUSH2 0xB30 JUMPI PUSH2 0xB2F PUSH2 0x951 JUMP JUMPDEST JUMPDEST PUSH0 DUP5 ADD CALLDATALOAD PUSH8 0xFFFFFFFFFFFFFFFF DUP2 GT ISZERO PUSH2 0xB4D JUMPI PUSH2 0xB4C PUSH2 0x955 JUMP JUMPDEST JUMPDEST PUSH2 0xB59 DUP7 DUP3 DUP8 ADD PUSH2 0xA68 JUMP JUMPDEST SWAP4 POP POP PUSH1 0x20 PUSH2 0xB6A DUP7 DUP3 DUP8 ADD PUSH2 0xADB JUMP JUMPDEST SWAP3 POP POP PUSH1 0x40 PUSH2 0xB7B DUP7 DUP3 DUP8 ADD PUSH2 0xB05 JUMP JUMPDEST SWAP2 POP POP SWAP3 POP SWAP3 POP SWAP3 JUMP JUMPDEST PUSH0 PUSH2 0xB8F DUP3 PUSH2 0xA95 JUMP JUMPDEST SWAP1 POP SWAP2 SWAP1 POP JUMP JUMPDEST PUSH2 0xB9F DUP2 PUSH2 0xB85 JUMP JUMPDEST DUP2 EQ PUSH2 0xBA9 JUMPI PUSH0 DUP1 REVERT JUMPDEST POP JUMP JUMPDEST PUSH0 DUP2 CALLDATALOAD SWAP1 POP PUSH2 0xBBA DUP2 PUSH2 0xB96 JUMP JUMPDEST SWAP3 SWAP2 POP POP JUMP JUMPDEST PUSH0 PUSH1 0x20 DUP3 DUP5 SUB SLT ISZERO PUSH2 0xBD5 JUMPI PUSH2 0xBD4 PUSH2 0x951 JUMP JUMPDEST JUMPDEST PUSH0 PUSH2 0xBE2 DUP5 DUP3 DUP6 ADD PUSH2 0xBAC JUMP JUMPDEST SWAP2 POP POP SWAP3 SWAP2 POP POP JUMP JUMPDEST PUSH2 0xBF4 DUP2 PUSH2 0xB85 JUMP JUMPDEST DUP3 MSTORE POP POP JUMP JUMPDEST PUSH0 PUSH1 0x20 DUP3 ADD SWAP1 POP PUSH2 0xC0D PUSH0 DUP4 ADD DUP5 PUSH2 0xBEB JUMP JUMPDEST SWAP3 SWAP2 POP POP JUMP JUMPDEST PUSH0 PUSH1 0x20 DUP3 DUP5 SUB SLT ISZERO PUSH2 0xC28 JUMPI PUSH2 0xC27 PUSH2 0x951 JUMP JUMPDEST JUMPDEST PUSH0 PUSH2 0xC35 DUP5 DUP3 DUP6 ADD PUSH2 0xB05 JUMP JUMPDEST SWAP2 POP POP SWAP3 SWAP2 POP POP JUMP JUMPDEST PUSH0 DUP2 MLOAD SWAP1 POP SWAP2 SWAP1 POP JUMP JUMPDEST PUSH0 DUP3 DUP3 MSTORE PUSH1 0x20 DUP3 ADD SWAP1 POP SWAP3 SWAP2 POP POP JUMP JUMPDEST DUP3 DUP2 DUP4 MCOPY PUSH0 DUP4 DUP4 ADD MSTORE POP POP POP JUMP JUMPDEST PUSH0 PUSH2 0xC70 DUP3 PUSH2 0xC3E JUMP JUMPDEST PUSH2 0xC7A DUP2 DUP6 PUSH2 0xC48 JUMP JUMPDEST SWAP4 POP PUSH2 0xC8A DUP2 DUP6 PUSH1 0x20 DUP7 ADD PUSH2 0xC58 JUMP JUMPDEST PUSH2 0xC93 DUP2 PUSH2 0x961 JUMP JUMPDEST DUP5 ADD SWAP2 POP POP SWAP3 SWAP2 POP POP JUMP JUMPDEST PUSH2 0xCA7 DUP2 PUSH2 0xAB4 JUMP JUMPDEST DUP3 MSTORE POP POP JUMP JUMPDEST PUSH0 DUP2 ISZERO ISZERO SWAP1 POP SWAP2 SWAP1 POP JUMP JUMPDEST PUSH2 0xCC1 DUP2 PUSH2 0xCAD JUMP JUMPDEST DUP3 MSTORE POP POP JUMP JUMPDEST PUSH0 PUSH1 0x80 DUP3 ADD SWAP1 POP DUP2 DUP2 SUB PUSH0 DUP4 ADD MSTORE PUSH2 0xCDF DUP2 DUP8 PUSH2 0xC66 JUMP JUMPDEST SWAP1 POP PUSH2 0xCEE PUSH1 0x20 DUP4 ADD DUP7 PUSH2 0xC9E JUMP JUMPDEST PUSH2 0xCFB PUSH1 0x40 DUP4 ADD DUP6 PUSH2 0x920 JUMP JUMPDEST PUSH2 0xD08 PUSH1 0x60 DUP4 ADD DUP5 PUSH2 0xCB8 JUMP JUMPDEST SWAP6 SWAP5 POP POP POP POP POP JUMP JUMPDEST PUSH32 0x536F6C6F20656C2061646D696E6973747261646F72207075656465207265616C PUSH0 DUP3 ADD MSTORE PUSH32 0x697A6172206573746120616363696F6E00000000000000000000000000000000 PUSH1 0x20 DUP3 ADD MSTORE POP JUMP JUMPDEST PUSH0 PUSH2 0xD6B PUSH1 0x30 DUP4 PUSH2 0xC48 JUMP JUMPDEST SWAP2 POP PUSH2 0xD76 DUP3 PUSH2 0xD11 JUMP JUMPDEST PUSH1 0x40 DUP3 ADD SWAP1 POP SWAP2 SWAP1 POP JUMP JUMPDEST PUSH0 PUSH1 0x20 DUP3 ADD SWAP1 POP DUP2 DUP2 SUB PUSH0 DUP4 ADD MSTORE PUSH2 0xD98 DUP2 PUSH2 0xD5F JUMP JUMPDEST SWAP1 POP SWAP2 SWAP1 POP JUMP JUMPDEST PUSH32 0x4E6F2068617920666F6E646F7320737566696369656E74657320706172612065 PUSH0 DUP3 ADD MSTORE PUSH32 0x73746120736F6C69636974756400000000000000000000000000000000000000 PUSH1 0x20 DUP3 ADD MSTORE POP JUMP JUMPDEST PUSH0 PUSH2 0xDF9 PUSH1 0x2D DUP4 PUSH2 0xC48 JUMP JUMPDEST SWAP2 POP PUSH2 0xE04 DUP3 PUSH2 0xD9F JUMP JUMPDEST PUSH1 0x40 DUP3 ADD SWAP1 POP SWAP2 SWAP1 POP JUMP JUMPDEST PUSH0 PUSH1 0x20 DUP3 ADD SWAP1 POP DUP2 DUP2 SUB PUSH0 DUP4 ADD MSTORE PUSH2 0xE26 DUP2 PUSH2 0xDED JUMP JUMPDEST SWAP1 POP SWAP2 SWAP1 POP JUMP JUMPDEST PUSH32 0x4E487B7100000000000000000000000000000000000000000000000000000000 PUSH0 MSTORE PUSH1 0x11 PUSH1 0x4 MSTORE PUSH1 0x24 PUSH0 REVERT JUMPDEST PUSH0 PUSH2 0xE64 DUP3 PUSH2 0x917 JUMP JUMPDEST SWAP2 POP PUSH32 0xFFFFFFFFFFFFFFFFFFFFFFFFFFFFFFFFFFFFFFFFFFFFFFFFFFFFFFFFFFFFFFFF DUP3 SUB PUSH2 0xE96 JUMPI PUSH2 0xE95 PUSH2 0xE2D JUMP JUMPDEST JUMPDEST PUSH1 0x1 DUP3 ADD SWAP1 POP SWAP2 SWAP1 POP JUMP JUMPDEST PUSH32 0x4E487B7100000000000000000000000000000000000000000000000000000000 PUSH0 MSTORE PUSH1 0x22 PUSH1 0x4 MSTORE PUSH1 0x24 PUSH0 REVERT JUMPDEST PUSH0 PUSH1 0x2 DUP3 DIV SWAP1 POP PUSH1 0x1 DUP3 AND DUP1 PUSH2 0xEE5 JUMPI PUSH1 0x7F DUP3 AND SWAP2 POP JUMPDEST PUSH1 0x20 DUP3 LT DUP2 SUB PUSH2 0xEF8 JUMPI PUSH2 0xEF7 PUSH2 0xEA1 JUMP JUMPDEST JUMPDEST POP SWAP2 SWAP1 POP JUMP JUMPDEST PUSH0 DUP2 SWAP1 POP DUP2 PUSH0 MSTORE PUSH1 0x20 PUSH0 KECCAK256 SWAP1 POP SWAP2 SWAP1 POP JUMP JUMPDEST PUSH0 PUSH1 0x20 PUSH1 0x1F DUP4 ADD DIV SWAP1 POP SWAP2 SWAP1 POP JUMP JUMPDEST PUSH0 DUP3 DUP3 SHL SWAP1 POP SWAP3 SWAP2 POP POP JUMP JUMPDEST PUSH0 PUSH1 0x8 DUP4 MUL PUSH2 0xF5A PUSH32 0xFFFFFFFFFFFFFFFFFFFFFFFFFFFFFFFFFFFFFFFFFFFFFFFFFFFFFFFFFFFFFFFF DUP3 PUSH2 0xF1F JUMP JUMPDEST PUSH2 0xF64 DUP7 DUP4 PUSH2 0xF1F JUMP JUMPDEST SWAP6 POP DUP1 NOT DUP5 AND SWAP4 POP DUP1 DUP7 AND DUP5 OR SWAP3 POP POP POP SWAP4 SWAP3 POP POP POP JUMP JUMPDEST PUSH0 DUP2 SWAP1 POP SWAP2 SWAP1 POP JUMP JUMPDEST PUSH0 PUSH2 0xF9F PUSH2 0xF9A PUSH2 0xF95 DUP5 PUSH2 0x917 JUMP JUMPDEST PUSH2 0xF7C JUMP JUMPDEST PUSH2 0x917 JUMP JUMPDEST SWAP1 POP SWAP2 SWAP1 POP JUMP JUMPDEST PUSH0 DUP2 SWAP1 POP SWAP2 SWAP1 POP JUMP JUMPDEST PUSH2 0xFB8 DUP4 PUSH2 0xF85 JUMP JUMPDEST PUSH2 0xFCC PUSH2 0xFC4 DUP3 PUSH2 0xFA6 JUMP JUMPDEST DUP5 DUP5 SLOAD PUSH2 0xF2B JUMP JUMPDEST DUP3 SSTORE POP POP POP POP JUMP JUMPDEST PUSH0 SWAP1 JUMP JUMPDEST PUSH2 0xFE0 PUSH2 0xFD4 JUMP JUMPDEST PUSH2 0xFEB DUP2 DUP5 DUP5 PUSH2 0xFAF JUMP JUMPDEST POP POP POP JUMP JUMPDEST JUMPDEST DUP2 DUP2 LT ISZERO PUSH2 0x100E JUMPI PUSH2 0x1003 PUSH0 DUP3 PUSH2 0xFD8 JUMP JUMPDEST PUSH1 0x1 DUP2 ADD SWAP1 POP PUSH2 0xFF1 JUMP JUMPDEST POP POP JUMP JUMPDEST PUSH1 0x1F DUP3 GT ISZERO PUSH2 0x1053 JUMPI PUSH2 0x1024 DUP2 PUSH2 0xEFE JUMP JUMPDEST PUSH2 0x102D DUP5 PUSH2 0xF10 JUMP JUMPDEST DUP2 ADD PUSH1 0x20 DUP6 LT ISZERO PUSH2 0x103C JUMPI DUP2 SWAP1 POP JUMPDEST PUSH2 0x1050 PUSH2 0x1048 DUP6 PUSH2 0xF10 JUMP JUMPDEST DUP4 ADD DUP3 PUSH2 0xFF0 JUMP JUMPDEST POP POP JUMPDEST POP POP POP JUMP JUMPDEST PUSH0 DUP3 DUP3 SHR SWAP1 POP SWAP3 SWAP2 POP POP JUMP JUMPDEST PUSH0 PUSH2 0x1073 PUSH0 NOT DUP5 PUSH1 0x8 MUL PUSH2 0x1058 JUMP JUMPDEST NOT DUP1 DUP4 AND SWAP2 POP POP SWAP3 SWAP2 POP POP JUMP JUMPDEST PUSH0 PUSH2 0x108B DUP4 DUP4 PUSH2 0x1064 JUMP JUMPDEST SWAP2 POP DUP3 PUSH1 0x2 MUL DUP3 OR SWAP1 POP SWAP3 SWAP2 POP POP JUMP JUMPDEST PUSH2 0x10A4 DUP3 PUSH2 0xC3E JUMP JUMPDEST PUSH8 0xFFFFFFFFFFFFFFFF DUP2 GT ISZERO PUSH2 0x10BD JUMPI PUSH2 0x10BC PUSH2 0x971 JUMP JUMPDEST JUMPDEST PUSH2 0x10C7 DUP3 SLOAD PUSH2 0xECE JUMP JUMPDEST PUSH2 0x10D2 DUP3 DUP3 DUP6 PUSH2 0x1012 JUMP JUMPDEST PUSH0 PUSH1 0x20 SWAP1 POP PUSH1 0x1F DUP4 GT PUSH1 0x1 DUP2 EQ PUSH2 0x1103 JUMPI PUSH0 DUP5 ISZERO PUSH2 0x10F1 JUMPI DUP3 DUP8 ADD MLOAD SWAP1 POP JUMPDEST PUSH2 0x10FB DUP6 DUP3 PUSH2 0x1080 JUMP JUMPDEST DUP7 SSTORE POP PUSH2 0x1162 JUMP JUMPDEST PUSH1 0x1F NOT DUP5 AND PUSH2 0x1111 DUP7 PUSH2 0xEFE JUMP JUMPDEST PUSH0 JUMPDEST DUP3 DUP2 LT ISZERO PUSH2 0x1138 JUMPI DUP5 DUP10 ADD MLOAD DUP3 SSTORE PUSH1 0x1 DUP3 ADD SWAP2 POP PUSH1 0x20 DUP6 ADD SWAP5 POP PUSH1 0x20 DUP2 ADD SWAP1 POP PUSH2 0x1113 JUMP JUMPDEST DUP7 DUP4 LT ISZERO PUSH2 0x1155 JUMPI DUP5 DUP10 ADD MLOAD PUSH2 0x1151 PUSH1 0x1F DUP10 AND DUP3 PUSH2 0x1064 JUMP JUMPDEST DUP4 SSTORE POP JUMPDEST PUSH1 0x1 PUSH1 0x2 DUP9 MUL ADD DUP9 SSTORE POP POP POP JUMPDEST POP POP POP POP POP POP JUMP JUMPDEST PUSH32 0x4E6F2073652063756D706C696F206C61206D6574610000000000000000000000 PUSH0 DUP3 ADD MSTORE POP JUMP JUMPDEST PUSH0 PUSH2 0x119E PUSH1 0x15 DUP4 PUSH2 0xC48 JUMP JUMPDEST SWAP2 POP PUSH2 0x11A9 DUP3 PUSH2 0x116A JUMP JUMPDEST PUSH1 0x20 DUP3 ADD SWAP1 POP SWAP2 SWAP1 POP JUMP JUMPDEST PUSH0 PUSH1 0x20 DUP3 ADD SWAP1 POP DUP2 DUP2 SUB PUSH0 DUP4 ADD MSTORE PUSH2 0x11CB DUP2 PUSH2 0x1192 JUMP JUMPDEST SWAP1 POP SWAP2 SWAP1 POP JUMP JUMPDEST PUSH32 0x45737461207065746963696F6E2079612066756520636F6D706C657461646100 PUSH0 DUP3 ADD MSTORE POP JUMP JUMPDEST PUSH0 PUSH2 0x1206 PUSH1 0x1F DUP4 PUSH2 0xC48 JUMP JUMPDEST SWAP2 POP PUSH2 0x1211 DUP3 PUSH2 0x11D2 JUMP JUMPDEST PUSH1 0x20 DUP3 ADD SWAP1 POP SWAP2 SWAP1 POP JUMP JUMPDEST PUSH0 PUSH1 0x20 DUP3 ADD SWAP1 POP DUP2 DUP2 SUB PUSH0 DUP4 ADD MSTORE PUSH2 0x1233 DUP2 PUSH2 0x11FA JUMP JUMPDEST SWAP1 POP SWAP2 SWAP1 POP JUMP JUMPDEST PUSH32 0x4C61206D6574612066756520616C63616E7A616461206F20656C20706C617A6F PUSH0 DUP3 ADD MSTORE PUSH32 0x206E6F206861207465726D696E61646F00000000000000000000000000000000 PUSH1 0x20 DUP3 ADD MSTORE POP JUMP JUMPDEST PUSH0 PUSH2 0x1294 PUSH1 0x30 DUP4 PUSH2 0xC48 JUMP JUMPDEST SWAP2 POP PUSH2 0x129F DUP3 PUSH2 0x123A JUMP JUMPDEST PUSH1 0x40 DUP3 ADD SWAP1 POP SWAP2 SWAP1 POP JUMP JUMPDEST PUSH0 PUSH1 0x20 DUP3 ADD SWAP1 POP DUP2 DUP2 SUB PUSH0 DUP4 ADD MSTORE PUSH2 0x12C1 DUP2 PUSH2 0x1288 JUMP JUMPDEST SWAP1 POP SWAP2 SWAP1 POP JUMP JUMPDEST PUSH32 0x4E6F2068617320636F6E747269627569646F20666F6E646F7300000000000000 PUSH0 DUP3 ADD MSTORE POP JUMP JUMPDEST PUSH0 PUSH2 0x12FC PUSH1 0x19 DUP4 PUSH2 0xC48 JUMP JUMPDEST SWAP2 POP PUSH2 0x1307 DUP3 PUSH2 0x12C8 JUMP JUMPDEST PUSH1 0x20 DUP3 ADD SWAP1 POP SWAP2 SWAP1 POP JUMP JUMPDEST PUSH0 PUSH1 0x20 DUP3 ADD SWAP1 POP DUP2 DUP2 SUB PUSH0 DUP4 ADD MSTORE PUSH2 0x1329 DUP2 PUSH2 0x12F0 JUMP JUMPDEST SWAP1 POP SWAP2 SWAP1 POP JUMP JUMPDEST PUSH32 0x456C20706C617A6F206861207465726D696E61646F0000000000000000000000 PUSH0 DUP3 ADD MSTORE POP JUMP JUMPDEST PUSH0 PUSH2 0x1364 PUSH1 0x15 DUP4 PUSH2 0xC48 JUMP JUMPDEST SWAP2 POP PUSH2 0x136F DUP3 PUSH2 0x1330 JUMP JUMPDEST PUSH1 0x20 DUP3 ADD SWAP1 POP SWAP2 SWAP1 POP JUMP JUMPDEST PUSH0 PUSH1 0x20 DUP3 ADD SWAP1 POP DUP2 DUP2 SUB PUSH0 DUP4 ADD MSTORE PUSH2 0x1391 DUP2 PUSH2 0x1358 JUMP JUMPDEST SWAP1 POP SWAP2 SWAP1 POP JUMP JUMPDEST PUSH0 PUSH2 0x13A2 DUP3 PUSH2 0x917 JUMP JUMPDEST SWAP2 POP PUSH2 0x13AD DUP4 PUSH2 0x917 JUMP JUMPDEST SWAP3 POP DUP3 DUP3 ADD SWAP1 POP DUP1 DUP3 GT ISZERO PUSH2 0x13C5 JUMPI PUSH2 0x13C4 PUSH2 0xE2D JUMP JUMPDEST JUMPDEST SWAP3 SWAP2 POP POP JUMP INVALID LOG2 PUSH5 0x6970667358 0x22 SLT KECCAK256 PUSH32 0xF91E85CDF89AD4F766753E9E537668751160954DF60790711982DAECA0D28764 PUSH20 0x6F6C634300081A00330000000000000000000000 "
				},
				"gasEstimates": {
					"creation": {
						"codeDepositCost": "1024200",
						"executionCost": "infinite",
						"totalCost": "infinite"
					},
					"external": {
						"createRequest(string,address,uint256)": "infinite",
						"deadline()": "2470",
						"fundContributors(address)": "2868",
						"getBalance()": "335",
						"makePayment(uint256)": "infinite",
						"manager()": "2597",
						"numRequests()": "2513",
						"raisedAmount()": "2535",
						"refund()": "infinite",
						"requests(uint256)": "infinite",
						"sendFunds()": "infinite",
						"targetAmount()": "2491"
					}
				},
				"methodIdentifiers": {
					"createRequest(string,address,uint256)": "1b16bb5c",
					"deadline()": "29dcb0cf",
					"fundContributors(address)": "4034a539",
					"getBalance()": "12065fe0",
					"makePayment(uint256)": "5114cb52",
					"manager()": "481c6a75",
					"numRequests()": "9fb42b1f",
					"raisedAmount()": "c59ee1dc",
					"refund()": "590e1ae3",
					"requests(uint256)": "81d12c58",
					"sendFunds()": "8d68cf59",
					"targetAmount()": "953b8fb8"
				}
			},
			"storageLayout": {
				"storage": [
					{
						"astId": 5,
						"contract": "Contrato/Contrato_Copilado.sol:CrowdFunding",
						"label": "fundContributors",
						"offset": 0,
						"slot": "0",
						"type": "t_mapping(t_address,t_uint256)"
					},
					{
						"astId": 7,
						"contract": "Contrato/Contrato_Copilado.sol:CrowdFunding",
						"label": "manager",
						"offset": 0,
						"slot": "1",
						"type": "t_address"
					},
					{
						"astId": 9,
						"contract": "Contrato/Contrato_Copilado.sol:CrowdFunding",
						"label": "deadline",
						"offset": 0,
						"slot": "2",
						"type": "t_uint256"
					},
					{
						"astId": 11,
						"contract": "Contrato/Contrato_Copilado.sol:CrowdFunding",
						"label": "targetAmount",
						"offset": 0,
						"slot": "3",
						"type": "t_uint256"
					},
					{
						"astId": 13,
						"contract": "Contrato/Contrato_Copilado.sol:CrowdFunding",
						"label": "raisedAmount",
						"offset": 0,
						"slot": "4",
						"type": "t_uint256"
					},
					{
						"astId": 27,
						"contract": "Contrato/Contrato_Copilado.sol:CrowdFunding",
						"label": "requests",
						"offset": 0,
						"slot": "5",
						"type": "t_mapping(t_uint256,t_struct(Request)22_storage)"
					},
					{
						"astId": 29,
						"contract": "Contrato/Contrato_Copilado.sol:CrowdFunding",
						"label": "numRequests",
						"offset": 0,
						"slot": "6",
						"type": "t_uint256"
					}
				],
				"types": {
					"t_address": {
						"encoding": "inplace",
						"label": "address",
						"numberOfBytes": "20"
					},
					"t_address_payable": {
						"encoding": "inplace",
						"label": "address payable",
						"numberOfBytes": "20"
					},
					"t_bool": {
						"encoding": "inplace",
						"label": "bool",
						"numberOfBytes": "1"
					},
					"t_mapping(t_address,t_uint256)": {
						"encoding": "mapping",
						"key": "t_address",
						"label": "mapping(address => uint256)",
						"numberOfBytes": "32",
						"value": "t_uint256"
					},
					"t_mapping(t_uint256,t_struct(Request)22_storage)": {
						"encoding": "mapping",
						"key": "t_uint256",
						"label": "mapping(uint256 => struct CrowdFunding.Request)",
						"numberOfBytes": "32",
						"value": "t_struct(Request)22_storage"
					},
					"t_string_storage": {
						"encoding": "bytes",
						"label": "string",
						"numberOfBytes": "32"
					},
					"t_struct(Request)22_storage": {
						"encoding": "inplace",
						"label": "struct CrowdFunding.Request",
						"members": [
							{
								"astId": 15,
								"contract": "Contrato/Contrato_Copilado.sol:CrowdFunding",
								"label": "description",
								"offset": 0,
								"slot": "0",
								"type": "t_string_storage"
							},
							{
								"astId": 17,
								"contract": "Contrato/Contrato_Copilado.sol:CrowdFunding",
								"label": "recipient",
								"offset": 0,
								"slot": "1",
								"type": "t_address_payable"
							},
							{
								"astId": 19,
								"contract": "Contrato/Contrato_Copilado.sol:CrowdFunding",
								"label": "value",
								"offset": 0,
								"slot": "2",
								"type": "t_uint256"
							},
							{
								"astId": 21,
								"contract": "Contrato/Contrato_Copilado.sol:CrowdFunding",
								"label": "completed",
								"offset": 0,
								"slot": "3",
								"type": "t_bool"
							}
						],
						"numberOfBytes": "128"
					},
					"t_uint256": {
						"encoding": "inplace",
						"label": "uint256",
						"numberOfBytes": "32"
					}
				}
			},
			"userdoc": {
				"kind": "user",
				"methods": {},
				"version": 1
			}
		}
	}
}