{
	"Proyecto/Proyecto.sol": {
		"ProductTracker": {
			"abi": [
				{
					"inputs": [
						{
							"internalType": "string",
							"name": "_name",
							"type": "string"
						},
						{
							"internalType": "string",
							"name": "_manufacturer",
							"type": "string"
						}
					],
					"name": "createProduct",
					"outputs": [],
					"stateMutability": "nonpayable",
					"type": "function"
				},
				{
					"inputs": [
						{
							"internalType": "uint256",
							"name": "",
							"type": "uint256"
						}
					],
					"name": "products",
					"outputs": [
						{
							"internalType": "uint256",
							"name": "id",
							"type": "uint256"
						},
						{
							"internalType": "string",
							"name": "name",
							"type": "string"
						},
						{
							"internalType": "string",
							"name": "manufacturer",
							"type": "string"
						},
						{
							"internalType": "address",
							"name": "owner",
							"type": "address"
						}
					],
					"stateMutability": "view",
					"type": "function"
				},
				{
					"inputs": [
						{
							"internalType": "uint256",
							"name": "_productId",
							"type": "uint256"
						},
						{
							"internalType": "address",
							"name": "_newOwner",
							"type": "address"
						}
					],
					"name": "transferOwnership",
					"outputs": [],
					"stateMutability": "nonpayable",
					"type": "function"
				}
			],
			"devdoc": {
				"kind": "dev",
				"methods": {},
				"version": 1
			},
			"evm": {
				"assembly": "    /* \"Proyecto/Proyecto.sol\":61:644  contract ProductTracker {... */\n  mstore(0x40, 0x80)\n  callvalue\n  dup1\n  iszero\n  tag_1\n  jumpi\n  0x00\n  dup1\n  revert\ntag_1:\n  pop\n  dataSize(sub_0)\n  dup1\n  dataOffset(sub_0)\n  0x00\n  codecopy\n  0x00\n  return\nstop\n\nsub_0: assembly {\n        /* \"Proyecto/Proyecto.sol\":61:644  contract ProductTracker {... */\n      mstore(0x40, 0x80)\n      callvalue\n      dup1\n      iszero\n      tag_1\n      jumpi\n      0x00\n      dup1\n      revert\n    tag_1:\n      pop\n      jumpi(tag_2, lt(calldatasize, 0x04))\n      shr(0xe0, calldataload(0x00))\n      dup1\n      0x29507f73\n      eq\n      tag_3\n      jumpi\n      dup1\n      0x7acc0b20\n      eq\n      tag_4\n      jumpi\n      dup1\n      0x87592bce\n      eq\n      tag_5\n      jumpi\n    tag_2:\n      0x00\n      dup1\n      revert\n        /* \"Proyecto/Proyecto.sol\":434:641  function transferOwnership(uint256 _productId, address _newOwner) public {... */\n    tag_3:\n      tag_6\n      0x04\n      dup1\n      calldatasize\n      sub\n      dup2\n      add\n      swap1\n      tag_7\n      swap2\n      swap1\n      tag_8\n      jump\t// in\n    tag_7:\n      tag_9\n      jump\t// in\n    tag_6:\n      stop\n        /* \"Proyecto/Proyecto.sol\":220:245  Product[] public products */\n    tag_4:\n      tag_10\n      0x04\n      dup1\n      calldatasize\n      sub\n      dup2\n      add\n      swap1\n      tag_11\n      swap2\n      swap1\n      tag_12\n      jump\t// in\n    tag_11:\n      tag_13\n      jump\t// in\n    tag_10:\n      mload(0x40)\n      tag_14\n      swap5\n      swap4\n      swap3\n      swap2\n      swap1\n      tag_15\n      jump\t// in\n    tag_14:\n      mload(0x40)\n      dup1\n      swap2\n      sub\n      swap1\n      return\n        /* \"Proyecto/Proyecto.sol\":254:426  function createProduct(string memory _name, string memory _manufacturer) public {... */\n    tag_5:\n      tag_16\n      0x04\n      dup1\n      calldatasize\n      sub\n      dup2\n      add\n      swap1\n      tag_17\n      swap2\n      swap1\n      tag_18\n      jump\t// in\n    tag_17:\n      tag_19\n      jump\t// in\n    tag_16:\n      stop\n        /* \"Proyecto/Proyecto.sol\":434:641  function transferOwnership(uint256 _productId, address _newOwner) public {... */\n    tag_9:\n        /* \"Proyecto/Proyecto.sol\":540:548  products */\n      0x00\n        /* \"Proyecto/Proyecto.sol\":549:559  _productId */\n      dup3\n        /* \"Proyecto/Proyecto.sol\":540:560  products[_productId] */\n      dup2\n      sload\n      dup2\n      lt\n      tag_21\n      jumpi\n      tag_22\n      tag_23\n      jump\t// in\n    tag_22:\n    tag_21:\n      swap1\n      0x00\n      mstore\n      keccak256(0x00, 0x20)\n      swap1\n      0x04\n      mul\n      add\n        /* \"Proyecto/Proyecto.sol\":540:566  products[_productId].owner */\n      0x03\n      add\n      0x00\n      swap1\n      sload\n      swap1\n      0x0100\n      exp\n      swap1\n      div\n      0xffffffffffffffffffffffffffffffffffffffff\n      and\n        /* \"Proyecto/Proyecto.sol\":526:566  msg.sender == products[_productId].owner */\n      0xffffffffffffffffffffffffffffffffffffffff\n      and\n        /* \"Proyecto/Proyecto.sol\":526:536  msg.sender */\n      caller\n        /* \"Proyecto/Proyecto.sol\":526:566  msg.sender == products[_productId].owner */\n      0xffffffffffffffffffffffffffffffffffffffff\n      and\n      eq\n        /* \"Proyecto/Proyecto.sol\":518:584  require(msg.sender == products[_productId].owner, \"Not the owner\") */\n      tag_25\n      jumpi\n      mload(0x40)\n      0x08c379a000000000000000000000000000000000000000000000000000000000\n      dup2\n      mstore\n      0x04\n      add\n      tag_26\n      swap1\n      tag_27\n      jump\t// in\n    tag_26:\n      mload(0x40)\n      dup1\n      swap2\n      sub\n      swap1\n      revert\n    tag_25:\n        /* \"Proyecto/Proyecto.sol\":624:633  _newOwner */\n      dup1\n        /* \"Proyecto/Proyecto.sol\":595:603  products */\n      0x00\n        /* \"Proyecto/Proyecto.sol\":604:614  _productId */\n      dup4\n        /* \"Proyecto/Proyecto.sol\":595:615  products[_productId] */\n      dup2\n      sload\n      dup2\n      lt\n      tag_28\n      jumpi\n      tag_29\n      tag_23\n      jump\t// in\n    tag_29:\n    tag_28:\n      swap1\n      0x00\n      mstore\n      keccak256(0x00, 0x20)\n      swap1\n      0x04\n      mul\n      add\n        /* \"Proyecto/Proyecto.sol\":595:621  products[_productId].owner */\n      0x03\n      add\n      0x00\n        /* \"Proyecto/Proyecto.sol\":595:633  products[_productId].owner = _newOwner */\n      0x0100\n      exp\n      dup2\n      sload\n      dup2\n      0xffffffffffffffffffffffffffffffffffffffff\n      mul\n      not\n      and\n      swap1\n      dup4\n      0xffffffffffffffffffffffffffffffffffffffff\n      and\n      mul\n      or\n      swap1\n      sstore\n      pop\n        /* \"Proyecto/Proyecto.sol\":434:641  function transferOwnership(uint256 _productId, address _newOwner) public {... */\n      pop\n      pop\n      jump\t// out\n        /* \"Proyecto/Proyecto.sol\":220:245  Product[] public products */\n    tag_13:\n      0x00\n      dup2\n      dup2\n      sload\n      dup2\n      lt\n      tag_31\n      jumpi\n      0x00\n      dup1\n      revert\n    tag_31:\n      swap1\n      0x00\n      mstore\n      keccak256(0x00, 0x20)\n      swap1\n      0x04\n      mul\n      add\n      0x00\n      swap2\n      pop\n      swap1\n      pop\n      dup1\n      0x00\n      add\n      sload\n      swap1\n      dup1\n      0x01\n      add\n      dup1\n      sload\n      tag_33\n      swap1\n      tag_34\n      jump\t// in\n    tag_33:\n      dup1\n      0x1f\n      add\n      0x20\n      dup1\n      swap2\n      div\n      mul\n      0x20\n      add\n      mload(0x40)\n      swap1\n      dup2\n      add\n      0x40\n      mstore\n      dup1\n      swap3\n      swap2\n      swap1\n      dup2\n      dup2\n      mstore\n      0x20\n      add\n      dup3\n      dup1\n      sload\n      tag_35\n      swap1\n      tag_34\n      jump\t// in\n    tag_35:\n      dup1\n      iszero\n      tag_36\n      jumpi\n      dup1\n      0x1f\n      lt\n      tag_37\n      jumpi\n      0x0100\n      dup1\n      dup4\n      sload\n      div\n      mul\n      dup4\n      mstore\n      swap2\n      0x20\n      add\n      swap2\n      jump(tag_36)\n    tag_37:\n      dup3\n      add\n      swap2\n      swap1\n      0x00\n      mstore\n      keccak256(0x00, 0x20)\n      swap1\n    tag_38:\n      dup2\n      sload\n      dup2\n      mstore\n      swap1\n      0x01\n      add\n      swap1\n      0x20\n      add\n      dup1\n      dup4\n      gt\n      tag_38\n      jumpi\n      dup3\n      swap1\n      sub\n      0x1f\n      and\n      dup3\n      add\n      swap2\n    tag_36:\n      pop\n      pop\n      pop\n      pop\n      pop\n      swap1\n      dup1\n      0x02\n      add\n      dup1\n      sload\n      tag_39\n      swap1\n      tag_34\n      jump\t// in\n    tag_39:\n      dup1\n      0x1f\n      add\n      0x20\n      dup1\n      swap2\n      div\n      mul\n      0x20\n      add\n      mload(0x40)\n      swap1\n      dup2\n      add\n      0x40\n      mstore\n      dup1\n      swap3\n      swap2\n      swap1\n      dup2\n      dup2\n      mstore\n      0x20\n      add\n      dup3\n      dup1\n      sload\n      tag_40\n      swap1\n      tag_34\n      jump\t// in\n    tag_40:\n      dup1\n      iszero\n      tag_41\n      jumpi\n      dup1\n      0x1f\n      lt\n      tag_42\n      jumpi\n      0x0100\n      dup1\n      dup4\n      sload\n      div\n      mul\n      dup4\n      mstore\n      swap2\n      0x20\n      add\n      swap2\n      jump(tag_41)\n    tag_42:\n      dup3\n      add\n      swap2\n      swap1\n      0x00\n      mstore\n      keccak256(0x00, 0x20)\n      swap1\n    tag_43:\n      dup2\n      sload\n      dup2\n      mstore\n      swap1\n      0x01\n      add\n      swap1\n      0x20\n      add\n      dup1\n      dup4\n      gt\n      tag_43\n      jumpi\n      dup3\n      swap1\n      sub\n      0x1f\n      and\n      dup3\n      add\n      swap2\n    tag_41:\n      pop\n      pop\n      pop\n      pop\n      pop\n      swap1\n      dup1\n      0x03\n      add\n      0x00\n      swap1\n      sload\n      swap1\n      0x0100\n      exp\n      swap1\n      div\n      0xffffffffffffffffffffffffffffffffffffffff\n      and\n      swap1\n      pop\n      dup5\n      jump\t// out\n        /* \"Proyecto/Proyecto.sol\":254:426  function createProduct(string memory _name, string memory _manufacturer) public {... */\n    tag_19:\n        /* \"Proyecto/Proyecto.sol\":345:353  products */\n      0x00\n        /* \"Proyecto/Proyecto.sol\":359:417  Product(products.length, _name, _manufacturer, msg.sender) */\n      mload(0x40)\n      dup1\n      0x80\n      add\n      0x40\n      mstore\n      dup1\n        /* \"Proyecto/Proyecto.sol\":367:375  products */\n      0x00\n        /* \"Proyecto/Proyecto.sol\":367:382  products.length */\n      dup1\n      sload\n      swap1\n      pop\n        /* \"Proyecto/Proyecto.sol\":359:417  Product(products.length, _name, _manufacturer, msg.sender) */\n      dup2\n      mstore\n      0x20\n      add\n        /* \"Proyecto/Proyecto.sol\":384:389  _name */\n      dup5\n        /* \"Proyecto/Proyecto.sol\":359:417  Product(products.length, _name, _manufacturer, msg.sender) */\n      dup2\n      mstore\n      0x20\n      add\n        /* \"Proyecto/Proyecto.sol\":391:404  _manufacturer */\n      dup4\n        /* \"Proyecto/Proyecto.sol\":359:417  Product(products.length, _name, _manufacturer, msg.sender) */\n      dup2\n      mstore\n      0x20\n      add\n        /* \"Proyecto/Proyecto.sol\":406:416  msg.sender */\n      caller\n        /* \"Proyecto/Proyecto.sol\":359:417  Product(products.length, _name, _manufacturer, msg.sender) */\n      0xffffffffffffffffffffffffffffffffffffffff\n      and\n      dup2\n      mstore\n      pop\n        /* \"Proyecto/Proyecto.sol\":345:418  products.push(Product(products.length, _name, _manufacturer, msg.sender)) */\n      swap1\n      dup1\n      0x01\n      dup2\n      sload\n      add\n      dup1\n      dup3\n      sstore\n      dup1\n      swap2\n      pop\n      pop\n      0x01\n      swap1\n      sub\n      swap1\n      0x00\n      mstore\n      keccak256(0x00, 0x20)\n      swap1\n      0x04\n      mul\n      add\n      0x00\n      swap1\n      swap2\n      swap1\n      swap2\n      swap1\n      swap2\n      pop\n      0x00\n      dup3\n      add\n      mload\n      dup2\n      0x00\n      add\n      sstore\n      0x20\n      dup3\n      add\n      mload\n      dup2\n      0x01\n      add\n      swap1\n      dup2\n      tag_46\n      swap2\n      swap1\n      tag_47\n      jump\t// in\n    tag_46:\n      pop\n      0x40\n      dup3\n      add\n      mload\n      dup2\n      0x02\n      add\n      swap1\n      dup2\n      tag_48\n      swap2\n      swap1\n      tag_47\n      jump\t// in\n    tag_48:\n      pop\n      0x60\n      dup3\n      add\n      mload\n      dup2\n      0x03\n      add\n      exp(0x0100, 0x00)\n      dup2\n      sload\n      dup2\n      0xffffffffffffffffffffffffffffffffffffffff\n      mul\n      not\n      and\n      swap1\n      dup4\n      0xffffffffffffffffffffffffffffffffffffffff\n      and\n      mul\n      or\n      swap1\n      sstore\n      pop\n      pop\n      pop\n        /* \"Proyecto/Proyecto.sol\":254:426  function createProduct(string memory _name, string memory _manufacturer) public {... */\n      pop\n      pop\n      jump\t// out\n        /* \"#utility.yul\":7:82   */\n    tag_49:\n        /* \"#utility.yul\":40:46   */\n      0x00\n        /* \"#utility.yul\":73:75   */\n      0x40\n        /* \"#utility.yul\":67:76   */\n      mload\n        /* \"#utility.yul\":57:76   */\n      swap1\n      pop\n        /* \"#utility.yul\":7:82   */\n      swap1\n      jump\t// out\n        /* \"#utility.yul\":88:205   */\n    tag_50:\n        /* \"#utility.yul\":197:198   */\n      0x00\n        /* \"#utility.yul\":194:195   */\n      dup1\n        /* \"#utility.yul\":187:199   */\n      revert\n        /* \"#utility.yul\":211:328   */\n    tag_51:\n        /* \"#utility.yul\":320:321   */\n      0x00\n        /* \"#utility.yul\":317:318   */\n      dup1\n        /* \"#utility.yul\":310:322   */\n      revert\n        /* \"#utility.yul\":334:411   */\n    tag_52:\n        /* \"#utility.yul\":371:378   */\n      0x00\n        /* \"#utility.yul\":400:405   */\n      dup2\n        /* \"#utility.yul\":389:405   */\n      swap1\n      pop\n        /* \"#utility.yul\":334:411   */\n      swap2\n      swap1\n      pop\n      jump\t// out\n        /* \"#utility.yul\":417:539   */\n    tag_53:\n        /* \"#utility.yul\":490:514   */\n      tag_99\n        /* \"#utility.yul\":508:513   */\n      dup2\n        /* \"#utility.yul\":490:514   */\n      tag_52\n      jump\t// in\n    tag_99:\n        /* \"#utility.yul\":483:488   */\n      dup2\n        /* \"#utility.yul\":480:515   */\n      eq\n        /* \"#utility.yul\":470:533   */\n      tag_100\n      jumpi\n        /* \"#utility.yul\":529:530   */\n      0x00\n        /* \"#utility.yul\":526:527   */\n      dup1\n        /* \"#utility.yul\":519:531   */\n      revert\n        /* \"#utility.yul\":470:533   */\n    tag_100:\n        /* \"#utility.yul\":417:539   */\n      pop\n      jump\t// out\n        /* \"#utility.yul\":545:684   */\n    tag_54:\n        /* \"#utility.yul\":591:596   */\n      0x00\n        /* \"#utility.yul\":629:635   */\n      dup2\n        /* \"#utility.yul\":616:636   */\n      calldataload\n        /* \"#utility.yul\":607:636   */\n      swap1\n      pop\n        /* \"#utility.yul\":645:678   */\n      tag_102\n        /* \"#utility.yul\":672:677   */\n      dup2\n        /* \"#utility.yul\":645:678   */\n      tag_53\n      jump\t// in\n    tag_102:\n        /* \"#utility.yul\":545:684   */\n      swap3\n      swap2\n      pop\n      pop\n      jump\t// out\n        /* \"#utility.yul\":690:816   */\n    tag_55:\n        /* \"#utility.yul\":727:734   */\n      0x00\n        /* \"#utility.yul\":767:809   */\n      0xffffffffffffffffffffffffffffffffffffffff\n        /* \"#utility.yul\":760:765   */\n      dup3\n        /* \"#utility.yul\":756:810   */\n      and\n        /* \"#utility.yul\":745:810   */\n      swap1\n      pop\n        /* \"#utility.yul\":690:816   */\n      swap2\n      swap1\n      pop\n      jump\t// out\n        /* \"#utility.yul\":822:918   */\n    tag_56:\n        /* \"#utility.yul\":859:866   */\n      0x00\n        /* \"#utility.yul\":888:912   */\n      tag_105\n        /* \"#utility.yul\":906:911   */\n      dup3\n        /* \"#utility.yul\":888:912   */\n      tag_55\n      jump\t// in\n    tag_105:\n        /* \"#utility.yul\":877:912   */\n      swap1\n      pop\n        /* \"#utility.yul\":822:918   */\n      swap2\n      swap1\n      pop\n      jump\t// out\n        /* \"#utility.yul\":924:1046   */\n    tag_57:\n        /* \"#utility.yul\":997:1021   */\n      tag_107\n        /* \"#utility.yul\":1015:1020   */\n      dup2\n        /* \"#utility.yul\":997:1021   */\n      tag_56\n      jump\t// in\n    tag_107:\n        /* \"#utility.yul\":990:995   */\n      dup2\n        /* \"#utility.yul\":987:1022   */\n      eq\n        /* \"#utility.yul\":977:1040   */\n      tag_108\n      jumpi\n        /* \"#utility.yul\":1036:1037   */\n      0x00\n        /* \"#utility.yul\":1033:1034   */\n      dup1\n        /* \"#utility.yul\":1026:1038   */\n      revert\n        /* \"#utility.yul\":977:1040   */\n    tag_108:\n        /* \"#utility.yul\":924:1046   */\n      pop\n      jump\t// out\n        /* \"#utility.yul\":1052:1191   */\n    tag_58:\n        /* \"#utility.yul\":1098:1103   */\n      0x00\n        /* \"#utility.yul\":1136:1142   */\n      dup2\n        /* \"#utility.yul\":1123:1143   */\n      calldataload\n        /* \"#utility.yul\":1114:1143   */\n      swap1\n      pop\n        /* \"#utility.yul\":1152:1185   */\n      tag_110\n        /* \"#utility.yul\":1179:1184   */\n      dup2\n        /* \"#utility.yul\":1152:1185   */\n      tag_57\n      jump\t// in\n    tag_110:\n        /* \"#utility.yul\":1052:1191   */\n      swap3\n      swap2\n      pop\n      pop\n      jump\t// out\n        /* \"#utility.yul\":1197:1671   */\n    tag_8:\n        /* \"#utility.yul\":1265:1271   */\n      0x00\n        /* \"#utility.yul\":1273:1279   */\n      dup1\n        /* \"#utility.yul\":1322:1324   */\n      0x40\n        /* \"#utility.yul\":1310:1319   */\n      dup4\n        /* \"#utility.yul\":1301:1308   */\n      dup6\n        /* \"#utility.yul\":1297:1320   */\n      sub\n        /* \"#utility.yul\":1293:1325   */\n      slt\n        /* \"#utility.yul\":1290:1409   */\n      iszero\n      tag_112\n      jumpi\n        /* \"#utility.yul\":1328:1407   */\n      tag_113\n      tag_50\n      jump\t// in\n    tag_113:\n        /* \"#utility.yul\":1290:1409   */\n    tag_112:\n        /* \"#utility.yul\":1448:1449   */\n      0x00\n        /* \"#utility.yul\":1473:1526   */\n      tag_114\n        /* \"#utility.yul\":1518:1525   */\n      dup6\n        /* \"#utility.yul\":1509:1515   */\n      dup3\n        /* \"#utility.yul\":1498:1507   */\n      dup7\n        /* \"#utility.yul\":1494:1516   */\n      add\n        /* \"#utility.yul\":1473:1526   */\n      tag_54\n      jump\t// in\n    tag_114:\n        /* \"#utility.yul\":1463:1526   */\n      swap3\n      pop\n        /* \"#utility.yul\":1419:1536   */\n      pop\n        /* \"#utility.yul\":1575:1577   */\n      0x20\n        /* \"#utility.yul\":1601:1654   */\n      tag_115\n        /* \"#utility.yul\":1646:1653   */\n      dup6\n        /* \"#utility.yul\":1637:1643   */\n      dup3\n        /* \"#utility.yul\":1626:1635   */\n      dup7\n        /* \"#utility.yul\":1622:1644   */\n      add\n        /* \"#utility.yul\":1601:1654   */\n      tag_58\n      jump\t// in\n    tag_115:\n        /* \"#utility.yul\":1591:1654   */\n      swap2\n      pop\n        /* \"#utility.yul\":1546:1664   */\n      pop\n        /* \"#utility.yul\":1197:1671   */\n      swap3\n      pop\n      swap3\n      swap1\n      pop\n      jump\t// out\n        /* \"#utility.yul\":1677:2006   */\n    tag_12:\n        /* \"#utility.yul\":1736:1742   */\n      0x00\n        /* \"#utility.yul\":1785:1787   */\n      0x20\n        /* \"#utility.yul\":1773:1782   */\n      dup3\n        /* \"#utility.yul\":1764:1771   */\n      dup5\n        /* \"#utility.yul\":1760:1783   */\n      sub\n        /* \"#utility.yul\":1756:1788   */\n      slt\n        /* \"#utility.yul\":1753:1872   */\n      iszero\n      tag_117\n      jumpi\n        /* \"#utility.yul\":1791:1870   */\n      tag_118\n      tag_50\n      jump\t// in\n    tag_118:\n        /* \"#utility.yul\":1753:1872   */\n    tag_117:\n        /* \"#utility.yul\":1911:1912   */\n      0x00\n        /* \"#utility.yul\":1936:1989   */\n      tag_119\n        /* \"#utility.yul\":1981:1988   */\n      dup5\n        /* \"#utility.yul\":1972:1978   */\n      dup3\n        /* \"#utility.yul\":1961:1970   */\n      dup6\n        /* \"#utility.yul\":1957:1979   */\n      add\n        /* \"#utility.yul\":1936:1989   */\n      tag_54\n      jump\t// in\n    tag_119:\n        /* \"#utility.yul\":1926:1989   */\n      swap2\n      pop\n        /* \"#utility.yul\":1882:1999   */\n      pop\n        /* \"#utility.yul\":1677:2006   */\n      swap3\n      swap2\n      pop\n      pop\n      jump\t// out\n        /* \"#utility.yul\":2012:2130   */\n    tag_59:\n        /* \"#utility.yul\":2099:2123   */\n      tag_121\n        /* \"#utility.yul\":2117:2122   */\n      dup2\n        /* \"#utility.yul\":2099:2123   */\n      tag_52\n      jump\t// in\n    tag_121:\n        /* \"#utility.yul\":2094:2097   */\n      dup3\n        /* \"#utility.yul\":2087:2124   */\n      mstore\n        /* \"#utility.yul\":2012:2130   */\n      pop\n      pop\n      jump\t// out\n        /* \"#utility.yul\":2136:2235   */\n    tag_60:\n        /* \"#utility.yul\":2188:2194   */\n      0x00\n        /* \"#utility.yul\":2222:2227   */\n      dup2\n        /* \"#utility.yul\":2216:2228   */\n      mload\n        /* \"#utility.yul\":2206:2228   */\n      swap1\n      pop\n        /* \"#utility.yul\":2136:2235   */\n      swap2\n      swap1\n      pop\n      jump\t// out\n        /* \"#utility.yul\":2241:2410   */\n    tag_61:\n        /* \"#utility.yul\":2325:2336   */\n      0x00\n        /* \"#utility.yul\":2359:2365   */\n      dup3\n        /* \"#utility.yul\":2354:2357   */\n      dup3\n        /* \"#utility.yul\":2347:2366   */\n      mstore\n        /* \"#utility.yul\":2399:2403   */\n      0x20\n        /* \"#utility.yul\":2394:2397   */\n      dup3\n        /* \"#utility.yul\":2390:2404   */\n      add\n        /* \"#utility.yul\":2375:2404   */\n      swap1\n      pop\n        /* \"#utility.yul\":2241:2410   */\n      swap3\n      swap2\n      pop\n      pop\n      jump\t// out\n        /* \"#utility.yul\":2416:2555   */\n    tag_62:\n        /* \"#utility.yul\":2505:2511   */\n      dup3\n        /* \"#utility.yul\":2500:2503   */\n      dup2\n        /* \"#utility.yul\":2495:2498   */\n      dup4\n        /* \"#utility.yul\":2489:2512   */\n      mcopy\n        /* \"#utility.yul\":2546:2547   */\n      0x00\n        /* \"#utility.yul\":2537:2543   */\n      dup4\n        /* \"#utility.yul\":2532:2535   */\n      dup4\n        /* \"#utility.yul\":2528:2544   */\n      add\n        /* \"#utility.yul\":2521:2548   */\n      mstore\n        /* \"#utility.yul\":2416:2555   */\n      pop\n      pop\n      pop\n      jump\t// out\n        /* \"#utility.yul\":2561:2663   */\n    tag_63:\n        /* \"#utility.yul\":2602:2608   */\n      0x00\n        /* \"#utility.yul\":2653:2655   */\n      0x1f\n        /* \"#utility.yul\":2649:2656   */\n      not\n        /* \"#utility.yul\":2644:2646   */\n      0x1f\n        /* \"#utility.yul\":2637:2642   */\n      dup4\n        /* \"#utility.yul\":2633:2647   */\n      add\n        /* \"#utility.yul\":2629:2657   */\n      and\n        /* \"#utility.yul\":2619:2657   */\n      swap1\n      pop\n        /* \"#utility.yul\":2561:2663   */\n      swap2\n      swap1\n      pop\n      jump\t// out\n        /* \"#utility.yul\":2669:3046   */\n    tag_64:\n        /* \"#utility.yul\":2757:2760   */\n      0x00\n        /* \"#utility.yul\":2785:2824   */\n      tag_127\n        /* \"#utility.yul\":2818:2823   */\n      dup3\n        /* \"#utility.yul\":2785:2824   */\n      tag_60\n      jump\t// in\n    tag_127:\n        /* \"#utility.yul\":2840:2911   */\n      tag_128\n        /* \"#utility.yul\":2904:2910   */\n      dup2\n        /* \"#utility.yul\":2899:2902   */\n      dup6\n        /* \"#utility.yul\":2840:2911   */\n      tag_61\n      jump\t// in\n    tag_128:\n        /* \"#utility.yul\":2833:2911   */\n      swap4\n      pop\n        /* \"#utility.yul\":2920:2985   */\n      tag_129\n        /* \"#utility.yul\":2978:2984   */\n      dup2\n        /* \"#utility.yul\":2973:2976   */\n      dup6\n        /* \"#utility.yul\":2966:2970   */\n      0x20\n        /* \"#utility.yul\":2959:2964   */\n      dup7\n        /* \"#utility.yul\":2955:2971   */\n      add\n        /* \"#utility.yul\":2920:2985   */\n      tag_62\n      jump\t// in\n    tag_129:\n        /* \"#utility.yul\":3010:3039   */\n      tag_130\n        /* \"#utility.yul\":3032:3038   */\n      dup2\n        /* \"#utility.yul\":3010:3039   */\n      tag_63\n      jump\t// in\n    tag_130:\n        /* \"#utility.yul\":3005:3008   */\n      dup5\n        /* \"#utility.yul\":3001:3040   */\n      add\n        /* \"#utility.yul\":2994:3040   */\n      swap2\n      pop\n        /* \"#utility.yul\":2761:3046   */\n      pop\n        /* \"#utility.yul\":2669:3046   */\n      swap3\n      swap2\n      pop\n      pop\n      jump\t// out\n        /* \"#utility.yul\":3052:3170   */\n    tag_65:\n        /* \"#utility.yul\":3139:3163   */\n      tag_132\n        /* \"#utility.yul\":3157:3162   */\n      dup2\n        /* \"#utility.yul\":3139:3163   */\n      tag_56\n      jump\t// in\n    tag_132:\n        /* \"#utility.yul\":3134:3137   */\n      dup3\n        /* \"#utility.yul\":3127:3164   */\n      mstore\n        /* \"#utility.yul\":3052:3170   */\n      pop\n      pop\n      jump\t// out\n        /* \"#utility.yul\":3176:3911   */\n    tag_15:\n        /* \"#utility.yul\":3393:3397   */\n      0x00\n        /* \"#utility.yul\":3431:3434   */\n      0x80\n        /* \"#utility.yul\":3420:3429   */\n      dup3\n        /* \"#utility.yul\":3416:3435   */\n      add\n        /* \"#utility.yul\":3408:3435   */\n      swap1\n      pop\n        /* \"#utility.yul\":3445:3516   */\n      tag_134\n        /* \"#utility.yul\":3513:3514   */\n      0x00\n        /* \"#utility.yul\":3502:3511   */\n      dup4\n        /* \"#utility.yul\":3498:3515   */\n      add\n        /* \"#utility.yul\":3489:3495   */\n      dup8\n        /* \"#utility.yul\":3445:3516   */\n      tag_59\n      jump\t// in\n    tag_134:\n        /* \"#utility.yul\":3563:3572   */\n      dup2\n        /* \"#utility.yul\":3557:3561   */\n      dup2\n        /* \"#utility.yul\":3553:3573   */\n      sub\n        /* \"#utility.yul\":3548:3550   */\n      0x20\n        /* \"#utility.yul\":3537:3546   */\n      dup4\n        /* \"#utility.yul\":3533:3551   */\n      add\n        /* \"#utility.yul\":3526:3574   */\n      mstore\n        /* \"#utility.yul\":3591:3669   */\n      tag_135\n        /* \"#utility.yul\":3664:3668   */\n      dup2\n        /* \"#utility.yul\":3655:3661   */\n      dup7\n        /* \"#utility.yul\":3591:3669   */\n      tag_64\n      jump\t// in\n    tag_135:\n        /* \"#utility.yul\":3583:3669   */\n      swap1\n      pop\n        /* \"#utility.yul\":3716:3725   */\n      dup2\n        /* \"#utility.yul\":3710:3714   */\n      dup2\n        /* \"#utility.yul\":3706:3726   */\n      sub\n        /* \"#utility.yul\":3701:3703   */\n      0x40\n        /* \"#utility.yul\":3690:3699   */\n      dup4\n        /* \"#utility.yul\":3686:3704   */\n      add\n        /* \"#utility.yul\":3679:3727   */\n      mstore\n        /* \"#utility.yul\":3744:3822   */\n      tag_136\n        /* \"#utility.yul\":3817:3821   */\n      dup2\n        /* \"#utility.yul\":3808:3814   */\n      dup6\n        /* \"#utility.yul\":3744:3822   */\n      tag_64\n      jump\t// in\n    tag_136:\n        /* \"#utility.yul\":3736:3822   */\n      swap1\n      pop\n        /* \"#utility.yul\":3832:3904   */\n      tag_137\n        /* \"#utility.yul\":3900:3902   */\n      0x60\n        /* \"#utility.yul\":3889:3898   */\n      dup4\n        /* \"#utility.yul\":3885:3903   */\n      add\n        /* \"#utility.yul\":3876:3882   */\n      dup5\n        /* \"#utility.yul\":3832:3904   */\n      tag_65\n      jump\t// in\n    tag_137:\n        /* \"#utility.yul\":3176:3911   */\n      swap6\n      swap5\n      pop\n      pop\n      pop\n      pop\n      pop\n      jump\t// out\n        /* \"#utility.yul\":3917:4034   */\n    tag_66:\n        /* \"#utility.yul\":4026:4027   */\n      0x00\n        /* \"#utility.yul\":4023:4024   */\n      dup1\n        /* \"#utility.yul\":4016:4028   */\n      revert\n        /* \"#utility.yul\":4040:4157   */\n    tag_67:\n        /* \"#utility.yul\":4149:4150   */\n      0x00\n        /* \"#utility.yul\":4146:4147   */\n      dup1\n        /* \"#utility.yul\":4139:4151   */\n      revert\n        /* \"#utility.yul\":4163:4343   */\n    tag_68:\n        /* \"#utility.yul\":4211:4288   */\n      0x4e487b7100000000000000000000000000000000000000000000000000000000\n        /* \"#utility.yul\":4208:4209   */\n      0x00\n        /* \"#utility.yul\":4201:4289   */\n      mstore\n        /* \"#utility.yul\":4308:4312   */\n      0x41\n        /* \"#utility.yul\":4305:4306   */\n      0x04\n        /* \"#utility.yul\":4298:4313   */\n      mstore\n        /* \"#utility.yul\":4332:4336   */\n      0x24\n        /* \"#utility.yul\":4329:4330   */\n      0x00\n        /* \"#utility.yul\":4322:4337   */\n      revert\n        /* \"#utility.yul\":4349:4630   */\n    tag_69:\n        /* \"#utility.yul\":4432:4459   */\n      tag_142\n        /* \"#utility.yul\":4454:4458   */\n      dup3\n        /* \"#utility.yul\":4432:4459   */\n      tag_63\n      jump\t// in\n    tag_142:\n        /* \"#utility.yul\":4424:4430   */\n      dup2\n        /* \"#utility.yul\":4420:4460   */\n      add\n        /* \"#utility.yul\":4562:4568   */\n      dup2\n        /* \"#utility.yul\":4550:4560   */\n      dup2\n        /* \"#utility.yul\":4547:4569   */\n      lt\n        /* \"#utility.yul\":4526:4544   */\n      0xffffffffffffffff\n        /* \"#utility.yul\":4514:4524   */\n      dup3\n        /* \"#utility.yul\":4511:4545   */\n      gt\n        /* \"#utility.yul\":4508:4570   */\n      or\n        /* \"#utility.yul\":4505:4593   */\n      iszero\n      tag_143\n      jumpi\n        /* \"#utility.yul\":4573:4591   */\n      tag_144\n      tag_68\n      jump\t// in\n    tag_144:\n        /* \"#utility.yul\":4505:4593   */\n    tag_143:\n        /* \"#utility.yul\":4613:4623   */\n      dup1\n        /* \"#utility.yul\":4609:4611   */\n      0x40\n        /* \"#utility.yul\":4602:4624   */\n      mstore\n        /* \"#utility.yul\":4392:4630   */\n      pop\n        /* \"#utility.yul\":4349:4630   */\n      pop\n      pop\n      jump\t// out\n        /* \"#utility.yul\":4636:4765   */\n    tag_70:\n        /* \"#utility.yul\":4670:4676   */\n      0x00\n        /* \"#utility.yul\":4697:4717   */\n      tag_146\n      tag_49\n      jump\t// in\n    tag_146:\n        /* \"#utility.yul\":4687:4717   */\n      swap1\n      pop\n        /* \"#utility.yul\":4726:4759   */\n      tag_147\n        /* \"#utility.yul\":4754:4758   */\n      dup3\n        /* \"#utility.yul\":4746:4752   */\n      dup3\n        /* \"#utility.yul\":4726:4759   */\n      tag_69\n      jump\t// in\n    tag_147:\n        /* \"#utility.yul\":4636:4765   */\n      swap2\n      swap1\n      pop\n      jump\t// out\n        /* \"#utility.yul\":4771:5079   */\n    tag_71:\n        /* \"#utility.yul\":4833:4837   */\n      0x00\n        /* \"#utility.yul\":4923:4941   */\n      0xffffffffffffffff\n        /* \"#utility.yul\":4915:4921   */\n      dup3\n        /* \"#utility.yul\":4912:4942   */\n      gt\n        /* \"#utility.yul\":4909:4965   */\n      iszero\n      tag_149\n      jumpi\n        /* \"#utility.yul\":4945:4963   */\n      tag_150\n      tag_68\n      jump\t// in\n    tag_150:\n        /* \"#utility.yul\":4909:4965   */\n    tag_149:\n        /* \"#utility.yul\":4983:5012   */\n      tag_151\n        /* \"#utility.yul\":5005:5011   */\n      dup3\n        /* \"#utility.yul\":4983:5012   */\n      tag_63\n      jump\t// in\n    tag_151:\n        /* \"#utility.yul\":4975:5012   */\n      swap1\n      pop\n        /* \"#utility.yul\":5067:5071   */\n      0x20\n        /* \"#utility.yul\":5061:5065   */\n      dup2\n        /* \"#utility.yul\":5057:5072   */\n      add\n        /* \"#utility.yul\":5049:5072   */\n      swap1\n      pop\n        /* \"#utility.yul\":4771:5079   */\n      swap2\n      swap1\n      pop\n      jump\t// out\n        /* \"#utility.yul\":5085:5233   */\n    tag_72:\n        /* \"#utility.yul\":5183:5189   */\n      dup3\n        /* \"#utility.yul\":5178:5181   */\n      dup2\n        /* \"#utility.yul\":5173:5176   */\n      dup4\n        /* \"#utility.yul\":5160:5190   */\n      calldatacopy\n        /* \"#utility.yul\":5224:5225   */\n      0x00\n        /* \"#utility.yul\":5215:5221   */\n      dup4\n        /* \"#utility.yul\":5210:5213   */\n      dup4\n        /* \"#utility.yul\":5206:5222   */\n      add\n        /* \"#utility.yul\":5199:5226   */\n      mstore\n        /* \"#utility.yul\":5085:5233   */\n      pop\n      pop\n      pop\n      jump\t// out\n        /* \"#utility.yul\":5239:5664   */\n    tag_73:\n        /* \"#utility.yul\":5317:5322   */\n      0x00\n        /* \"#utility.yul\":5342:5408   */\n      tag_154\n        /* \"#utility.yul\":5358:5407   */\n      tag_155\n        /* \"#utility.yul\":5400:5406   */\n      dup5\n        /* \"#utility.yul\":5358:5407   */\n      tag_71\n      jump\t// in\n    tag_155:\n        /* \"#utility.yul\":5342:5408   */\n      tag_70\n      jump\t// in\n    tag_154:\n        /* \"#utility.yul\":5333:5408   */\n      swap1\n      pop\n        /* \"#utility.yul\":5431:5437   */\n      dup3\n        /* \"#utility.yul\":5424:5429   */\n      dup2\n        /* \"#utility.yul\":5417:5438   */\n      mstore\n        /* \"#utility.yul\":5469:5473   */\n      0x20\n        /* \"#utility.yul\":5462:5467   */\n      dup2\n        /* \"#utility.yul\":5458:5474   */\n      add\n        /* \"#utility.yul\":5507:5510   */\n      dup5\n        /* \"#utility.yul\":5498:5504   */\n      dup5\n        /* \"#utility.yul\":5493:5496   */\n      dup5\n        /* \"#utility.yul\":5489:5505   */\n      add\n        /* \"#utility.yul\":5486:5511   */\n      gt\n        /* \"#utility.yul\":5483:5595   */\n      iszero\n      tag_156\n      jumpi\n        /* \"#utility.yul\":5514:5593   */\n      tag_157\n      tag_67\n      jump\t// in\n    tag_157:\n        /* \"#utility.yul\":5483:5595   */\n    tag_156:\n        /* \"#utility.yul\":5604:5658   */\n      tag_158\n        /* \"#utility.yul\":5651:5657   */\n      dup5\n        /* \"#utility.yul\":5646:5649   */\n      dup3\n        /* \"#utility.yul\":5641:5644   */\n      dup6\n        /* \"#utility.yul\":5604:5658   */\n      tag_72\n      jump\t// in\n    tag_158:\n        /* \"#utility.yul\":5323:5664   */\n      pop\n        /* \"#utility.yul\":5239:5664   */\n      swap4\n      swap3\n      pop\n      pop\n      pop\n      jump\t// out\n        /* \"#utility.yul\":5684:6024   */\n    tag_74:\n        /* \"#utility.yul\":5740:5745   */\n      0x00\n        /* \"#utility.yul\":5789:5792   */\n      dup3\n        /* \"#utility.yul\":5782:5786   */\n      0x1f\n        /* \"#utility.yul\":5774:5780   */\n      dup4\n        /* \"#utility.yul\":5770:5787   */\n      add\n        /* \"#utility.yul\":5766:5793   */\n      slt\n        /* \"#utility.yul\":5756:5878   */\n      tag_160\n      jumpi\n        /* \"#utility.yul\":5797:5876   */\n      tag_161\n      tag_66\n      jump\t// in\n    tag_161:\n        /* \"#utility.yul\":5756:5878   */\n    tag_160:\n        /* \"#utility.yul\":5914:5920   */\n      dup2\n        /* \"#utility.yul\":5901:5921   */\n      calldataload\n        /* \"#utility.yul\":5939:6018   */\n      tag_162\n        /* \"#utility.yul\":6014:6017   */\n      dup5\n        /* \"#utility.yul\":6006:6012   */\n      dup3\n        /* \"#utility.yul\":5999:6003   */\n      0x20\n        /* \"#utility.yul\":5991:5997   */\n      dup7\n        /* \"#utility.yul\":5987:6004   */\n      add\n        /* \"#utility.yul\":5939:6018   */\n      tag_73\n      jump\t// in\n    tag_162:\n        /* \"#utility.yul\":5930:6018   */\n      swap2\n      pop\n        /* \"#utility.yul\":5746:6024   */\n      pop\n        /* \"#utility.yul\":5684:6024   */\n      swap3\n      swap2\n      pop\n      pop\n      jump\t// out\n        /* \"#utility.yul\":6030:6864   */\n    tag_18:\n        /* \"#utility.yul\":6118:6124   */\n      0x00\n        /* \"#utility.yul\":6126:6132   */\n      dup1\n        /* \"#utility.yul\":6175:6177   */\n      0x40\n        /* \"#utility.yul\":6163:6172   */\n      dup4\n        /* \"#utility.yul\":6154:6161   */\n      dup6\n        /* \"#utility.yul\":6150:6173   */\n      sub\n        /* \"#utility.yul\":6146:6178   */\n      slt\n        /* \"#utility.yul\":6143:6262   */\n      iszero\n      tag_164\n      jumpi\n        /* \"#utility.yul\":6181:6260   */\n      tag_165\n      tag_50\n      jump\t// in\n    tag_165:\n        /* \"#utility.yul\":6143:6262   */\n    tag_164:\n        /* \"#utility.yul\":6329:6330   */\n      0x00\n        /* \"#utility.yul\":6318:6327   */\n      dup4\n        /* \"#utility.yul\":6314:6331   */\n      add\n        /* \"#utility.yul\":6301:6332   */\n      calldataload\n        /* \"#utility.yul\":6359:6377   */\n      0xffffffffffffffff\n        /* \"#utility.yul\":6351:6357   */\n      dup2\n        /* \"#utility.yul\":6348:6378   */\n      gt\n        /* \"#utility.yul\":6345:6462   */\n      iszero\n      tag_166\n      jumpi\n        /* \"#utility.yul\":6381:6460   */\n      tag_167\n      tag_51\n      jump\t// in\n    tag_167:\n        /* \"#utility.yul\":6345:6462   */\n    tag_166:\n        /* \"#utility.yul\":6486:6549   */\n      tag_168\n        /* \"#utility.yul\":6541:6548   */\n      dup6\n        /* \"#utility.yul\":6532:6538   */\n      dup3\n        /* \"#utility.yul\":6521:6530   */\n      dup7\n        /* \"#utility.yul\":6517:6539   */\n      add\n        /* \"#utility.yul\":6486:6549   */\n      tag_74\n      jump\t// in\n    tag_168:\n        /* \"#utility.yul\":6476:6549   */\n      swap3\n      pop\n        /* \"#utility.yul\":6272:6559   */\n      pop\n        /* \"#utility.yul\":6626:6628   */\n      0x20\n        /* \"#utility.yul\":6615:6624   */\n      dup4\n        /* \"#utility.yul\":6611:6629   */\n      add\n        /* \"#utility.yul\":6598:6630   */\n      calldataload\n        /* \"#utility.yul\":6657:6675   */\n      0xffffffffffffffff\n        /* \"#utility.yul\":6649:6655   */\n      dup2\n        /* \"#utility.yul\":6646:6676   */\n      gt\n        /* \"#utility.yul\":6643:6760   */\n      iszero\n      tag_169\n      jumpi\n        /* \"#utility.yul\":6679:6758   */\n      tag_170\n      tag_51\n      jump\t// in\n    tag_170:\n        /* \"#utility.yul\":6643:6760   */\n    tag_169:\n        /* \"#utility.yul\":6784:6847   */\n      tag_171\n        /* \"#utility.yul\":6839:6846   */\n      dup6\n        /* \"#utility.yul\":6830:6836   */\n      dup3\n        /* \"#utility.yul\":6819:6828   */\n      dup7\n        /* \"#utility.yul\":6815:6837   */\n      add\n        /* \"#utility.yul\":6784:6847   */\n      tag_74\n      jump\t// in\n    tag_171:\n        /* \"#utility.yul\":6774:6847   */\n      swap2\n      pop\n        /* \"#utility.yul\":6569:6857   */\n      pop\n        /* \"#utility.yul\":6030:6864   */\n      swap3\n      pop\n      swap3\n      swap1\n      pop\n      jump\t// out\n        /* \"#utility.yul\":6870:7050   */\n    tag_23:\n        /* \"#utility.yul\":6918:6995   */\n      0x4e487b7100000000000000000000000000000000000000000000000000000000\n        /* \"#utility.yul\":6915:6916   */\n      0x00\n        /* \"#utility.yul\":6908:6996   */\n      mstore\n        /* \"#utility.yul\":7015:7019   */\n      0x32\n        /* \"#utility.yul\":7012:7013   */\n      0x04\n        /* \"#utility.yul\":7005:7020   */\n      mstore\n        /* \"#utility.yul\":7039:7043   */\n      0x24\n        /* \"#utility.yul\":7036:7037   */\n      0x00\n        /* \"#utility.yul\":7029:7044   */\n      revert\n        /* \"#utility.yul\":7056:7219   */\n    tag_75:\n        /* \"#utility.yul\":7196:7211   */\n      0x4e6f7420746865206f776e657200000000000000000000000000000000000000\n        /* \"#utility.yul\":7192:7193   */\n      0x00\n        /* \"#utility.yul\":7184:7190   */\n      dup3\n        /* \"#utility.yul\":7180:7194   */\n      add\n        /* \"#utility.yul\":7173:7212   */\n      mstore\n        /* \"#utility.yul\":7056:7219   */\n      pop\n      jump\t// out\n        /* \"#utility.yul\":7225:7591   */\n    tag_76:\n        /* \"#utility.yul\":7367:7370   */\n      0x00\n        /* \"#utility.yul\":7388:7455   */\n      tag_175\n        /* \"#utility.yul\":7452:7454   */\n      0x0d\n        /* \"#utility.yul\":7447:7450   */\n      dup4\n        /* \"#utility.yul\":7388:7455   */\n      tag_61\n      jump\t// in\n    tag_175:\n        /* \"#utility.yul\":7381:7455   */\n      swap2\n      pop\n        /* \"#utility.yul\":7464:7557   */\n      tag_176\n        /* \"#utility.yul\":7553:7556   */\n      dup3\n        /* \"#utility.yul\":7464:7557   */\n      tag_75\n      jump\t// in\n    tag_176:\n        /* \"#utility.yul\":7582:7584   */\n      0x20\n        /* \"#utility.yul\":7577:7580   */\n      dup3\n        /* \"#utility.yul\":7573:7585   */\n      add\n        /* \"#utility.yul\":7566:7585   */\n      swap1\n      pop\n        /* \"#utility.yul\":7225:7591   */\n      swap2\n      swap1\n      pop\n      jump\t// out\n        /* \"#utility.yul\":7597:8016   */\n    tag_27:\n        /* \"#utility.yul\":7763:7767   */\n      0x00\n        /* \"#utility.yul\":7801:7803   */\n      0x20\n        /* \"#utility.yul\":7790:7799   */\n      dup3\n        /* \"#utility.yul\":7786:7804   */\n      add\n        /* \"#utility.yul\":7778:7804   */\n      swap1\n      pop\n        /* \"#utility.yul\":7850:7859   */\n      dup2\n        /* \"#utility.yul\":7844:7848   */\n      dup2\n        /* \"#utility.yul\":7840:7860   */\n      sub\n        /* \"#utility.yul\":7836:7837   */\n      0x00\n        /* \"#utility.yul\":7825:7834   */\n      dup4\n        /* \"#utility.yul\":7821:7838   */\n      add\n        /* \"#utility.yul\":7814:7861   */\n      mstore\n        /* \"#utility.yul\":7878:8009   */\n      tag_178\n        /* \"#utility.yul\":8004:8008   */\n      dup2\n        /* \"#utility.yul\":7878:8009   */\n      tag_76\n      jump\t// in\n    tag_178:\n        /* \"#utility.yul\":7870:8009   */\n      swap1\n      pop\n        /* \"#utility.yul\":7597:8016   */\n      swap2\n      swap1\n      pop\n      jump\t// out\n        /* \"#utility.yul\":8022:8202   */\n    tag_77:\n        /* \"#utility.yul\":8070:8147   */\n      0x4e487b7100000000000000000000000000000000000000000000000000000000\n        /* \"#utility.yul\":8067:8068   */\n      0x00\n        /* \"#utility.yul\":8060:8148   */\n      mstore\n        /* \"#utility.yul\":8167:8171   */\n      0x22\n        /* \"#utility.yul\":8164:8165   */\n      0x04\n        /* \"#utility.yul\":8157:8172   */\n      mstore\n        /* \"#utility.yul\":8191:8195   */\n      0x24\n        /* \"#utility.yul\":8188:8189   */\n      0x00\n        /* \"#utility.yul\":8181:8196   */\n      revert\n        /* \"#utility.yul\":8208:8528   */\n    tag_34:\n        /* \"#utility.yul\":8252:8258   */\n      0x00\n        /* \"#utility.yul\":8289:8290   */\n      0x02\n        /* \"#utility.yul\":8283:8287   */\n      dup3\n        /* \"#utility.yul\":8279:8291   */\n      div\n        /* \"#utility.yul\":8269:8291   */\n      swap1\n      pop\n        /* \"#utility.yul\":8336:8337   */\n      0x01\n        /* \"#utility.yul\":8330:8334   */\n      dup3\n        /* \"#utility.yul\":8326:8338   */\n      and\n        /* \"#utility.yul\":8357:8375   */\n      dup1\n        /* \"#utility.yul\":8347:8428   */\n      tag_181\n      jumpi\n        /* \"#utility.yul\":8413:8417   */\n      0x7f\n        /* \"#utility.yul\":8405:8411   */\n      dup3\n        /* \"#utility.yul\":8401:8418   */\n      and\n        /* \"#utility.yul\":8391:8418   */\n      swap2\n      pop\n        /* \"#utility.yul\":8347:8428   */\n    tag_181:\n        /* \"#utility.yul\":8475:8477   */\n      0x20\n        /* \"#utility.yul\":8467:8473   */\n      dup3\n        /* \"#utility.yul\":8464:8478   */\n      lt\n        /* \"#utility.yul\":8444:8462   */\n      dup2\n        /* \"#utility.yul\":8441:8479   */\n      sub\n        /* \"#utility.yul\":8438:8522   */\n      tag_182\n      jumpi\n        /* \"#utility.yul\":8494:8512   */\n      tag_183\n      tag_77\n      jump\t// in\n    tag_183:\n        /* \"#utility.yul\":8438:8522   */\n    tag_182:\n        /* \"#utility.yul\":8259:8528   */\n      pop\n        /* \"#utility.yul\":8208:8528   */\n      swap2\n      swap1\n      pop\n      jump\t// out\n        /* \"#utility.yul\":8534:8675   */\n    tag_78:\n        /* \"#utility.yul\":8583:8587   */\n      0x00\n        /* \"#utility.yul\":8606:8609   */\n      dup2\n        /* \"#utility.yul\":8598:8609   */\n      swap1\n      pop\n        /* \"#utility.yul\":8629:8632   */\n      dup2\n        /* \"#utility.yul\":8626:8627   */\n      0x00\n        /* \"#utility.yul\":8619:8633   */\n      mstore\n        /* \"#utility.yul\":8663:8667   */\n      0x20\n        /* \"#utility.yul\":8660:8661   */\n      0x00\n        /* \"#utility.yul\":8650:8668   */\n      keccak256\n        /* \"#utility.yul\":8642:8668   */\n      swap1\n      pop\n        /* \"#utility.yul\":8534:8675   */\n      swap2\n      swap1\n      pop\n      jump\t// out\n        /* \"#utility.yul\":8681:8774   */\n    tag_79:\n        /* \"#utility.yul\":8718:8724   */\n      0x00\n        /* \"#utility.yul\":8765:8767   */\n      0x20\n        /* \"#utility.yul\":8760:8762   */\n      0x1f\n        /* \"#utility.yul\":8753:8758   */\n      dup4\n        /* \"#utility.yul\":8749:8763   */\n      add\n        /* \"#utility.yul\":8745:8768   */\n      div\n        /* \"#utility.yul\":8735:8768   */\n      swap1\n      pop\n        /* \"#utility.yul\":8681:8774   */\n      swap2\n      swap1\n      pop\n      jump\t// out\n        /* \"#utility.yul\":8780:8887   */\n    tag_80:\n        /* \"#utility.yul\":8824:8832   */\n      0x00\n        /* \"#utility.yul\":8874:8879   */\n      dup3\n        /* \"#utility.yul\":8868:8872   */\n      dup3\n        /* \"#utility.yul\":8864:8880   */\n      shl\n        /* \"#utility.yul\":8843:8880   */\n      swap1\n      pop\n        /* \"#utility.yul\":8780:8887   */\n      swap3\n      swap2\n      pop\n      pop\n      jump\t// out\n        /* \"#utility.yul\":8893:9286   */\n    tag_81:\n        /* \"#utility.yul\":8962:8968   */\n      0x00\n        /* \"#utility.yul\":9012:9013   */\n      0x08\n        /* \"#utility.yul\":9000:9010   */\n      dup4\n        /* \"#utility.yul\":8996:9014   */\n      mul\n        /* \"#utility.yul\":9035:9132   */\n      tag_188\n        /* \"#utility.yul\":9065:9131   */\n      0xffffffffffffffffffffffffffffffffffffffffffffffffffffffffffffffff\n        /* \"#utility.yul\":9054:9063   */\n      dup3\n        /* \"#utility.yul\":9035:9132   */\n      tag_80\n      jump\t// in\n    tag_188:\n        /* \"#utility.yul\":9153:9192   */\n      tag_189\n        /* \"#utility.yul\":9183:9191   */\n      dup7\n        /* \"#utility.yul\":9172:9181   */\n      dup4\n        /* \"#utility.yul\":9153:9192   */\n      tag_80\n      jump\t// in\n    tag_189:\n        /* \"#utility.yul\":9141:9192   */\n      swap6\n      pop\n        /* \"#utility.yul\":9225:9229   */\n      dup1\n        /* \"#utility.yul\":9221:9230   */\n      not\n        /* \"#utility.yul\":9214:9219   */\n      dup5\n        /* \"#utility.yul\":9210:9231   */\n      and\n        /* \"#utility.yul\":9201:9231   */\n      swap4\n      pop\n        /* \"#utility.yul\":9274:9278   */\n      dup1\n        /* \"#utility.yul\":9264:9272   */\n      dup7\n        /* \"#utility.yul\":9260:9279   */\n      and\n        /* \"#utility.yul\":9253:9258   */\n      dup5\n        /* \"#utility.yul\":9250:9280   */\n      or\n        /* \"#utility.yul\":9240:9280   */\n      swap3\n      pop\n        /* \"#utility.yul\":8969:9286   */\n      pop\n      pop\n        /* \"#utility.yul\":8893:9286   */\n      swap4\n      swap3\n      pop\n      pop\n      pop\n      jump\t// out\n        /* \"#utility.yul\":9292:9352   */\n    tag_82:\n        /* \"#utility.yul\":9320:9323   */\n      0x00\n        /* \"#utility.yul\":9341:9346   */\n      dup2\n        /* \"#utility.yul\":9334:9346   */\n      swap1\n      pop\n        /* \"#utility.yul\":9292:9352   */\n      swap2\n      swap1\n      pop\n      jump\t// out\n        /* \"#utility.yul\":9358:9500   */\n    tag_83:\n        /* \"#utility.yul\":9408:9417   */\n      0x00\n        /* \"#utility.yul\":9441:9494   */\n      tag_192\n        /* \"#utility.yul\":9459:9493   */\n      tag_193\n        /* \"#utility.yul\":9468:9492   */\n      tag_194\n        /* \"#utility.yul\":9486:9491   */\n      dup5\n        /* \"#utility.yul\":9468:9492   */\n      tag_52\n      jump\t// in\n    tag_194:\n        /* \"#utility.yul\":9459:9493   */\n      tag_82\n      jump\t// in\n    tag_193:\n        /* \"#utility.yul\":9441:9494   */\n      tag_52\n      jump\t// in\n    tag_192:\n        /* \"#utility.yul\":9428:9494   */\n      swap1\n      pop\n        /* \"#utility.yul\":9358:9500   */\n      swap2\n      swap1\n      pop\n      jump\t// out\n        /* \"#utility.yul\":9506:9581   */\n    tag_84:\n        /* \"#utility.yul\":9549:9552   */\n      0x00\n        /* \"#utility.yul\":9570:9575   */\n      dup2\n        /* \"#utility.yul\":9563:9575   */\n      swap1\n      pop\n        /* \"#utility.yul\":9506:9581   */\n      swap2\n      swap1\n      pop\n      jump\t// out\n        /* \"#utility.yul\":9587:9856   */\n    tag_85:\n        /* \"#utility.yul\":9697:9736   */\n      tag_197\n        /* \"#utility.yul\":9728:9735   */\n      dup4\n        /* \"#utility.yul\":9697:9736   */\n      tag_83\n      jump\t// in\n    tag_197:\n        /* \"#utility.yul\":9758:9849   */\n      tag_198\n        /* \"#utility.yul\":9807:9848   */\n      tag_199\n        /* \"#utility.yul\":9831:9847   */\n      dup3\n        /* \"#utility.yul\":9807:9848   */\n      tag_84\n      jump\t// in\n    tag_199:\n        /* \"#utility.yul\":9799:9805   */\n      dup5\n        /* \"#utility.yul\":9792:9796   */\n      dup5\n        /* \"#utility.yul\":9786:9797   */\n      sload\n        /* \"#utility.yul\":9758:9849   */\n      tag_81\n      jump\t// in\n    tag_198:\n        /* \"#utility.yul\":9752:9756   */\n      dup3\n        /* \"#utility.yul\":9745:9850   */\n      sstore\n        /* \"#utility.yul\":9663:9856   */\n      pop\n        /* \"#utility.yul\":9587:9856   */\n      pop\n      pop\n      pop\n      jump\t// out\n        /* \"#utility.yul\":9862:9935   */\n    tag_86:\n        /* \"#utility.yul\":9907:9910   */\n      0x00\n        /* \"#utility.yul\":9862:9935   */\n      swap1\n      jump\t// out\n        /* \"#utility.yul\":9941:10130   */\n    tag_87:\n        /* \"#utility.yul\":10018:10050   */\n      tag_202\n      tag_86\n      jump\t// in\n    tag_202:\n        /* \"#utility.yul\":10059:10124   */\n      tag_203\n        /* \"#utility.yul\":10117:10123   */\n      dup2\n        /* \"#utility.yul\":10109:10115   */\n      dup5\n        /* \"#utility.yul\":10103:10107   */\n      dup5\n        /* \"#utility.yul\":10059:10124   */\n      tag_85\n      jump\t// in\n    tag_203:\n        /* \"#utility.yul\":9994:10130   */\n      pop\n        /* \"#utility.yul\":9941:10130   */\n      pop\n      pop\n      jump\t// out\n        /* \"#utility.yul\":10136:10322   */\n    tag_88:\n        /* \"#utility.yul\":10196:10316   */\n    tag_205:\n        /* \"#utility.yul\":10213:10216   */\n      dup2\n        /* \"#utility.yul\":10206:10211   */\n      dup2\n        /* \"#utility.yul\":10203:10217   */\n      lt\n        /* \"#utility.yul\":10196:10316   */\n      iszero\n      tag_207\n      jumpi\n        /* \"#utility.yul\":10267:10306   */\n      tag_208\n        /* \"#utility.yul\":10304:10305   */\n      0x00\n        /* \"#utility.yul\":10297:10302   */\n      dup3\n        /* \"#utility.yul\":10267:10306   */\n      tag_87\n      jump\t// in\n    tag_208:\n        /* \"#utility.yul\":10240:10241   */\n      0x01\n        /* \"#utility.yul\":10233:10238   */\n      dup2\n        /* \"#utility.yul\":10229:10242   */\n      add\n        /* \"#utility.yul\":10220:10242   */\n      swap1\n      pop\n        /* \"#utility.yul\":10196:10316   */\n      jump(tag_205)\n    tag_207:\n        /* \"#utility.yul\":10136:10322   */\n      pop\n      pop\n      jump\t// out\n        /* \"#utility.yul\":10328:10871   */\n    tag_89:\n        /* \"#utility.yul\":10429:10431   */\n      0x1f\n        /* \"#utility.yul\":10424:10427   */\n      dup3\n        /* \"#utility.yul\":10421:10432   */\n      gt\n        /* \"#utility.yul\":10418:10864   */\n      iszero\n      tag_210\n      jumpi\n        /* \"#utility.yul\":10463:10501   */\n      tag_211\n        /* \"#utility.yul\":10495:10500   */\n      dup2\n        /* \"#utility.yul\":10463:10501   */\n      tag_78\n      jump\t// in\n    tag_211:\n        /* \"#utility.yul\":10547:10576   */\n      tag_212\n        /* \"#utility.yul\":10565:10575   */\n      dup5\n        /* \"#utility.yul\":10547:10576   */\n      tag_79\n      jump\t// in\n    tag_212:\n        /* \"#utility.yul\":10537:10545   */\n      dup2\n        /* \"#utility.yul\":10533:10577   */\n      add\n        /* \"#utility.yul\":10730:10732   */\n      0x20\n        /* \"#utility.yul\":10718:10728   */\n      dup6\n        /* \"#utility.yul\":10715:10733   */\n      lt\n        /* \"#utility.yul\":10712:10761   */\n      iszero\n      tag_213\n      jumpi\n        /* \"#utility.yul\":10751:10759   */\n      dup2\n        /* \"#utility.yul\":10736:10759   */\n      swap1\n      pop\n        /* \"#utility.yul\":10712:10761   */\n    tag_213:\n        /* \"#utility.yul\":10774:10854   */\n      tag_214\n        /* \"#utility.yul\":10830:10852   */\n      tag_215\n        /* \"#utility.yul\":10848:10851   */\n      dup6\n        /* \"#utility.yul\":10830:10852   */\n      tag_79\n      jump\t// in\n    tag_215:\n        /* \"#utility.yul\":10820:10828   */\n      dup4\n        /* \"#utility.yul\":10816:10853   */\n      add\n        /* \"#utility.yul\":10803:10814   */\n      dup3\n        /* \"#utility.yul\":10774:10854   */\n      tag_88\n      jump\t// in\n    tag_214:\n        /* \"#utility.yul\":10433:10864   */\n      pop\n      pop\n        /* \"#utility.yul\":10418:10864   */\n    tag_210:\n        /* \"#utility.yul\":10328:10871   */\n      pop\n      pop\n      pop\n      jump\t// out\n        /* \"#utility.yul\":10877:10994   */\n    tag_90:\n        /* \"#utility.yul\":10931:10939   */\n      0x00\n        /* \"#utility.yul\":10981:10986   */\n      dup3\n        /* \"#utility.yul\":10975:10979   */\n      dup3\n        /* \"#utility.yul\":10971:10987   */\n      shr\n        /* \"#utility.yul\":10950:10987   */\n      swap1\n      pop\n        /* \"#utility.yul\":10877:10994   */\n      swap3\n      swap2\n      pop\n      pop\n      jump\t// out\n        /* \"#utility.yul\":11000:11169   */\n    tag_91:\n        /* \"#utility.yul\":11044:11050   */\n      0x00\n        /* \"#utility.yul\":11077:11128   */\n      tag_218\n        /* \"#utility.yul\":11125:11126   */\n      0x00\n        /* \"#utility.yul\":11121:11127   */\n      not\n        /* \"#utility.yul\":11113:11118   */\n      dup5\n        /* \"#utility.yul\":11110:11111   */\n      0x08\n        /* \"#utility.yul\":11106:11119   */\n      mul\n        /* \"#utility.yul\":11077:11128   */\n      tag_90\n      jump\t// in\n    tag_218:\n        /* \"#utility.yul\":11073:11129   */\n      not\n        /* \"#utility.yul\":11158:11162   */\n      dup1\n        /* \"#utility.yul\":11152:11156   */\n      dup4\n        /* \"#utility.yul\":11148:11163   */\n      and\n        /* \"#utility.yul\":11138:11163   */\n      swap2\n      pop\n        /* \"#utility.yul\":11051:11169   */\n      pop\n        /* \"#utility.yul\":11000:11169   */\n      swap3\n      swap2\n      pop\n      pop\n      jump\t// out\n        /* \"#utility.yul\":11174:11469   */\n    tag_92:\n        /* \"#utility.yul\":11250:11254   */\n      0x00\n        /* \"#utility.yul\":11396:11425   */\n      tag_220\n        /* \"#utility.yul\":11421:11424   */\n      dup4\n        /* \"#utility.yul\":11415:11419   */\n      dup4\n        /* \"#utility.yul\":11396:11425   */\n      tag_91\n      jump\t// in\n    tag_220:\n        /* \"#utility.yul\":11388:11425   */\n      swap2\n      pop\n        /* \"#utility.yul\":11458:11461   */\n      dup3\n        /* \"#utility.yul\":11455:11456   */\n      0x02\n        /* \"#utility.yul\":11451:11462   */\n      mul\n        /* \"#utility.yul\":11445:11449   */\n      dup3\n        /* \"#utility.yul\":11442:11463   */\n      or\n        /* \"#utility.yul\":11434:11463   */\n      swap1\n      pop\n        /* \"#utility.yul\":11174:11469   */\n      swap3\n      swap2\n      pop\n      pop\n      jump\t// out\n        /* \"#utility.yul\":11474:12869   */\n    tag_47:\n        /* \"#utility.yul\":11591:11628   */\n      tag_222\n        /* \"#utility.yul\":11624:11627   */\n      dup3\n        /* \"#utility.yul\":11591:11628   */\n      tag_60\n      jump\t// in\n    tag_222:\n        /* \"#utility.yul\":11693:11711   */\n      0xffffffffffffffff\n        /* \"#utility.yul\":11685:11691   */\n      dup2\n        /* \"#utility.yul\":11682:11712   */\n      gt\n        /* \"#utility.yul\":11679:11735   */\n      iszero\n      tag_223\n      jumpi\n        /* \"#utility.yul\":11715:11733   */\n      tag_224\n      tag_68\n      jump\t// in\n    tag_224:\n        /* \"#utility.yul\":11679:11735   */\n    tag_223:\n        /* \"#utility.yul\":11759:11797   */\n      tag_225\n        /* \"#utility.yul\":11791:11795   */\n      dup3\n        /* \"#utility.yul\":11785:11796   */\n      sload\n        /* \"#utility.yul\":11759:11797   */\n      tag_34\n      jump\t// in\n    tag_225:\n        /* \"#utility.yul\":11844:11911   */\n      tag_226\n        /* \"#utility.yul\":11904:11910   */\n      dup3\n        /* \"#utility.yul\":11896:11902   */\n      dup3\n        /* \"#utility.yul\":11890:11894   */\n      dup6\n        /* \"#utility.yul\":11844:11911   */\n      tag_89\n      jump\t// in\n    tag_226:\n        /* \"#utility.yul\":11938:11939   */\n      0x00\n        /* \"#utility.yul\":11962:11966   */\n      0x20\n        /* \"#utility.yul\":11949:11966   */\n      swap1\n      pop\n        /* \"#utility.yul\":11994:11996   */\n      0x1f\n        /* \"#utility.yul\":11986:11992   */\n      dup4\n        /* \"#utility.yul\":11983:11997   */\n      gt\n        /* \"#utility.yul\":12011:12012   */\n      0x01\n        /* \"#utility.yul\":12006:12624   */\n      dup2\n      eq\n      tag_228\n      jumpi\n        /* \"#utility.yul\":12668:12669   */\n      0x00\n        /* \"#utility.yul\":12685:12691   */\n      dup5\n        /* \"#utility.yul\":12682:12759   */\n      iszero\n      tag_229\n      jumpi\n        /* \"#utility.yul\":12734:12743   */\n      dup3\n        /* \"#utility.yul\":12729:12732   */\n      dup8\n        /* \"#utility.yul\":12725:12744   */\n      add\n        /* \"#utility.yul\":12719:12745   */\n      mload\n        /* \"#utility.yul\":12710:12745   */\n      swap1\n      pop\n        /* \"#utility.yul\":12682:12759   */\n    tag_229:\n        /* \"#utility.yul\":12785:12852   */\n      tag_230\n        /* \"#utility.yul\":12845:12851   */\n      dup6\n        /* \"#utility.yul\":12838:12843   */\n      dup3\n        /* \"#utility.yul\":12785:12852   */\n      tag_92\n      jump\t// in\n    tag_230:\n        /* \"#utility.yul\":12779:12783   */\n      dup7\n        /* \"#utility.yul\":12772:12853   */\n      sstore\n        /* \"#utility.yul\":12641:12863   */\n      pop\n        /* \"#utility.yul\":11976:12863   */\n      jump(tag_227)\n        /* \"#utility.yul\":12006:12624   */\n    tag_228:\n        /* \"#utility.yul\":12058:12062   */\n      0x1f\n        /* \"#utility.yul\":12054:12063   */\n      not\n        /* \"#utility.yul\":12046:12052   */\n      dup5\n        /* \"#utility.yul\":12042:12064   */\n      and\n        /* \"#utility.yul\":12092:12129   */\n      tag_231\n        /* \"#utility.yul\":12124:12128   */\n      dup7\n        /* \"#utility.yul\":12092:12129   */\n      tag_78\n      jump\t// in\n    tag_231:\n        /* \"#utility.yul\":12151:12152   */\n      0x00\n        /* \"#utility.yul\":12165:12373   */\n    tag_232:\n        /* \"#utility.yul\":12179:12186   */\n      dup3\n        /* \"#utility.yul\":12176:12177   */\n      dup2\n        /* \"#utility.yul\":12173:12187   */\n      lt\n        /* \"#utility.yul\":12165:12373   */\n      iszero\n      tag_234\n      jumpi\n        /* \"#utility.yul\":12258:12267   */\n      dup5\n        /* \"#utility.yul\":12253:12256   */\n      dup10\n        /* \"#utility.yul\":12249:12268   */\n      add\n        /* \"#utility.yul\":12243:12269   */\n      mload\n        /* \"#utility.yul\":12235:12241   */\n      dup3\n        /* \"#utility.yul\":12228:12270   */\n      sstore\n        /* \"#utility.yul\":12309:12310   */\n      0x01\n        /* \"#utility.yul\":12301:12307   */\n      dup3\n        /* \"#utility.yul\":12297:12311   */\n      add\n        /* \"#utility.yul\":12287:12311   */\n      swap2\n      pop\n        /* \"#utility.yul\":12356:12358   */\n      0x20\n        /* \"#utility.yul\":12345:12354   */\n      dup6\n        /* \"#utility.yul\":12341:12359   */\n      add\n        /* \"#utility.yul\":12328:12359   */\n      swap5\n      pop\n        /* \"#utility.yul\":12202:12206   */\n      0x20\n        /* \"#utility.yul\":12199:12200   */\n      dup2\n        /* \"#utility.yul\":12195:12207   */\n      add\n        /* \"#utility.yul\":12190:12207   */\n      swap1\n      pop\n        /* \"#utility.yul\":12165:12373   */\n      jump(tag_232)\n    tag_234:\n        /* \"#utility.yul\":12401:12407   */\n      dup7\n        /* \"#utility.yul\":12392:12399   */\n      dup4\n        /* \"#utility.yul\":12389:12408   */\n      lt\n        /* \"#utility.yul\":12386:12565   */\n      iszero\n      tag_235\n      jumpi\n        /* \"#utility.yul\":12459:12468   */\n      dup5\n        /* \"#utility.yul\":12454:12457   */\n      dup10\n        /* \"#utility.yul\":12450:12469   */\n      add\n        /* \"#utility.yul\":12444:12470   */\n      mload\n        /* \"#utility.yul\":12502:12550   */\n      tag_236\n        /* \"#utility.yul\":12544:12548   */\n      0x1f\n        /* \"#utility.yul\":12536:12542   */\n      dup10\n        /* \"#utility.yul\":12532:12549   */\n      and\n        /* \"#utility.yul\":12521:12530   */\n      dup3\n        /* \"#utility.yul\":12502:12550   */\n      tag_91\n      jump\t// in\n    tag_236:\n        /* \"#utility.yul\":12494:12500   */\n      dup4\n        /* \"#utility.yul\":12487:12551   */\n      sstore\n        /* \"#utility.yul\":12409:12565   */\n      pop\n        /* \"#utility.yul\":12386:12565   */\n    tag_235:\n        /* \"#utility.yul\":12611:12612   */\n      0x01\n        /* \"#utility.yul\":12607:12608   */\n      0x02\n        /* \"#utility.yul\":12599:12605   */\n      dup9\n        /* \"#utility.yul\":12595:12609   */\n      mul\n        /* \"#utility.yul\":12591:12613   */\n      add\n        /* \"#utility.yul\":12585:12589   */\n      dup9\n        /* \"#utility.yul\":12578:12614   */\n      sstore\n        /* \"#utility.yul\":12013:12624   */\n      pop\n      pop\n      pop\n        /* \"#utility.yul\":11976:12863   */\n    tag_227:\n      pop\n        /* \"#utility.yul\":11566:12869   */\n      pop\n      pop\n      pop\n        /* \"#utility.yul\":11474:12869   */\n      pop\n      pop\n      jump\t// out\n\n    auxdata: 0xa26469706673582212201e737f68b243a8095c2646cfc13c1b2983c02b6f4eb79c4edea9c9e05194988464736f6c634300081a0033\n}\n",
				"bytecode": {
					"linkReferences": {},
					"object": "6080604052348015600e575f80fd5b50610b248061001c5f395ff3fe608060405234801561000f575f80fd5b506004361061003f575f3560e01c806329507f73146100435780637acc0b201461005f57806387592bce14610092575b5f80fd5b61005d600480360381019061005891906104a6565b6100ae565b005b610079600480360381019061007491906104e4565b6101c1565b604051610089949392919061059d565b60405180910390f35b6100ac60048036038101906100a7919061071a565b610326565b005b5f82815481106100c1576100c0610790565b5b905f5260205f2090600402016003015f9054906101000a900473ffffffffffffffffffffffffffffffffffffffff1673ffffffffffffffffffffffffffffffffffffffff163373ffffffffffffffffffffffffffffffffffffffff161461015d576040517f08c379a000000000000000000000000000000000000000000000000000000000815260040161015490610807565b60405180910390fd5b805f838154811061017157610170610790565b5b905f5260205f2090600402016003015f6101000a81548173ffffffffffffffffffffffffffffffffffffffff021916908373ffffffffffffffffffffffffffffffffffffffff1602179055505050565b5f81815481106101cf575f80fd5b905f5260205f2090600402015f91509050805f0154908060010180546101f490610852565b80601f016020809104026020016040519081016040528092919081815260200182805461022090610852565b801561026b5780601f106102425761010080835404028352916020019161026b565b820191905f5260205f20905b81548152906001019060200180831161024e57829003601f168201915b50505050509080600201805461028090610852565b80601f01602080910402602001604051908101604052809291908181526020018280546102ac90610852565b80156102f75780601f106102ce576101008083540402835291602001916102f7565b820191905f5260205f20905b8154815290600101906020018083116102da57829003601f168201915b505050505090806003015f9054906101000a900473ffffffffffffffffffffffffffffffffffffffff16905084565b5f60405180608001604052805f8054905081526020018481526020018381526020013373ffffffffffffffffffffffffffffffffffffffff16815250908060018154018082558091505060019003905f5260205f2090600402015f909190919091505f820151815f015560208201518160010190816103a59190610a1f565b5060408201518160020190816103bb9190610a1f565b506060820151816003015f6101000a81548173ffffffffffffffffffffffffffffffffffffffff021916908373ffffffffffffffffffffffffffffffffffffffff16021790555050505050565b5f604051905090565b5f80fd5b5f80fd5b5f819050919050565b61042b81610419565b8114610435575f80fd5b50565b5f8135905061044681610422565b92915050565b5f73ffffffffffffffffffffffffffffffffffffffff82169050919050565b5f6104758261044c565b9050919050565b6104858161046b565b811461048f575f80fd5b50565b5f813590506104a08161047c565b92915050565b5f80604083850312156104bc576104bb610411565b5b5f6104c985828601610438565b92505060206104da85828601610492565b9150509250929050565b5f602082840312156104f9576104f8610411565b5b5f61050684828501610438565b91505092915050565b61051881610419565b82525050565b5f81519050919050565b5f82825260208201905092915050565b8281835e5f83830152505050565b5f601f19601f8301169050919050565b5f6105608261051e565b61056a8185610528565b935061057a818560208601610538565b61058381610546565b840191505092915050565b6105978161046b565b82525050565b5f6080820190506105b05f83018761050f565b81810360208301526105c28186610556565b905081810360408301526105d68185610556565b90506105e5606083018461058e565b95945050505050565b5f80fd5b5f80fd5b7f4e487b71000000000000000000000000000000000000000000000000000000005f52604160045260245ffd5b61062c82610546565b810181811067ffffffffffffffff8211171561064b5761064a6105f6565b5b80604052505050565b5f61065d610408565b90506106698282610623565b919050565b5f67ffffffffffffffff821115610688576106876105f6565b5b61069182610546565b9050602081019050919050565b828183375f83830152505050565b5f6106be6106b98461066e565b610654565b9050828152602081018484840111156106da576106d96105f2565b5b6106e584828561069e565b509392505050565b5f82601f830112610701576107006105ee565b5b81356107118482602086016106ac565b91505092915050565b5f80604083850312156107305761072f610411565b5b5f83013567ffffffffffffffff81111561074d5761074c610415565b5b610759858286016106ed565b925050602083013567ffffffffffffffff81111561077a57610779610415565b5b610786858286016106ed565b9150509250929050565b7f4e487b71000000000000000000000000000000000000000000000000000000005f52603260045260245ffd5b7f4e6f7420746865206f776e6572000000000000000000000000000000000000005f82015250565b5f6107f1600d83610528565b91506107fc826107bd565b602082019050919050565b5f6020820190508181035f83015261081e816107e5565b9050919050565b7f4e487b71000000000000000000000000000000000000000000000000000000005f52602260045260245ffd5b5f600282049050600182168061086957607f821691505b60208210810361087c5761087b610825565b5b50919050565b5f819050815f5260205f209050919050565b5f6020601f8301049050919050565b5f82821b905092915050565b5f600883026108de7fffffffffffffffffffffffffffffffffffffffffffffffffffffffffffffffff826108a3565b6108e886836108a3565b95508019841693508086168417925050509392505050565b5f819050919050565b5f61092361091e61091984610419565b610900565b610419565b9050919050565b5f819050919050565b61093c83610909565b6109506109488261092a565b8484546108af565b825550505050565b5f90565b610964610958565b61096f818484610933565b505050565b5b81811015610992576109875f8261095c565b600181019050610975565b5050565b601f8211156109d7576109a881610882565b6109b184610894565b810160208510156109c0578190505b6109d46109cc85610894565b830182610974565b50505b505050565b5f82821c905092915050565b5f6109f75f19846008026109dc565b1980831691505092915050565b5f610a0f83836109e8565b9150826002028217905092915050565b610a288261051e565b67ffffffffffffffff811115610a4157610a406105f6565b5b610a4b8254610852565b610a56828285610996565b5f60209050601f831160018114610a87575f8415610a75578287015190505b610a7f8582610a04565b865550610ae6565b601f198416610a9586610882565b5f5b82811015610abc57848901518255600182019150602085019450602081019050610a97565b86831015610ad95784890151610ad5601f8916826109e8565b8355505b6001600288020188555050505b50505050505056fea26469706673582212201e737f68b243a8095c2646cfc13c1b2983c02b6f4eb79c4edea9c9e05194988464736f6c634300081a0033",
					"opcodes": "PUSH1 0x80 PUSH1 0x40 MSTORE CALLVALUE DUP1 ISZERO PUSH1 0xE JUMPI PUSH0 DUP1 REVERT JUMPDEST POP PUSH2 0xB24 DUP1 PUSH2 0x1C PUSH0 CODECOPY PUSH0 RETURN INVALID PUSH1 0x80 PUSH1 0x40 MSTORE CALLVALUE DUP1 ISZERO PUSH2 0xF JUMPI PUSH0 DUP1 REVERT JUMPDEST POP PUSH1 0x4 CALLDATASIZE LT PUSH2 0x3F JUMPI PUSH0 CALLDATALOAD PUSH1 0xE0 SHR DUP1 PUSH4 0x29507F73 EQ PUSH2 0x43 JUMPI DUP1 PUSH4 0x7ACC0B20 EQ PUSH2 0x5F JUMPI DUP1 PUSH4 0x87592BCE EQ PUSH2 0x92 JUMPI JUMPDEST PUSH0 DUP1 REVERT JUMPDEST PUSH2 0x5D PUSH1 0x4 DUP1 CALLDATASIZE SUB DUP2 ADD SWAP1 PUSH2 0x58 SWAP2 SWAP1 PUSH2 0x4A6 JUMP JUMPDEST PUSH2 0xAE JUMP JUMPDEST STOP JUMPDEST PUSH2 0x79 PUSH1 0x4 DUP1 CALLDATASIZE SUB DUP2 ADD SWAP1 PUSH2 0x74 SWAP2 SWAP1 PUSH2 0x4E4 JUMP JUMPDEST PUSH2 0x1C1 JUMP JUMPDEST PUSH1 0x40 MLOAD PUSH2 0x89 SWAP5 SWAP4 SWAP3 SWAP2 SWAP1 PUSH2 0x59D JUMP JUMPDEST PUSH1 0x40 MLOAD DUP1 SWAP2 SUB SWAP1 RETURN JUMPDEST PUSH2 0xAC PUSH1 0x4 DUP1 CALLDATASIZE SUB DUP2 ADD SWAP1 PUSH2 0xA7 SWAP2 SWAP1 PUSH2 0x71A JUMP JUMPDEST PUSH2 0x326 JUMP JUMPDEST STOP JUMPDEST PUSH0 DUP3 DUP2 SLOAD DUP2 LT PUSH2 0xC1 JUMPI PUSH2 0xC0 PUSH2 0x790 JUMP JUMPDEST JUMPDEST SWAP1 PUSH0 MSTORE PUSH1 0x20 PUSH0 KECCAK256 SWAP1 PUSH1 0x4 MUL ADD PUSH1 0x3 ADD PUSH0 SWAP1 SLOAD SWAP1 PUSH2 0x100 EXP SWAP1 DIV PUSH20 0xFFFFFFFFFFFFFFFFFFFFFFFFFFFFFFFFFFFFFFFF AND PUSH20 0xFFFFFFFFFFFFFFFFFFFFFFFFFFFFFFFFFFFFFFFF AND CALLER PUSH20 0xFFFFFFFFFFFFFFFFFFFFFFFFFFFFFFFFFFFFFFFF AND EQ PUSH2 0x15D JUMPI PUSH1 0x40 MLOAD PUSH32 0x8C379A000000000000000000000000000000000000000000000000000000000 DUP2 MSTORE PUSH1 0x4 ADD PUSH2 0x154 SWAP1 PUSH2 0x807 JUMP JUMPDEST PUSH1 0x40 MLOAD DUP1 SWAP2 SUB SWAP1 REVERT JUMPDEST DUP1 PUSH0 DUP4 DUP2 SLOAD DUP2 LT PUSH2 0x171 JUMPI PUSH2 0x170 PUSH2 0x790 JUMP JUMPDEST JUMPDEST SWAP1 PUSH0 MSTORE PUSH1 0x20 PUSH0 KECCAK256 SWAP1 PUSH1 0x4 MUL ADD PUSH1 0x3 ADD PUSH0 PUSH2 0x100 EXP DUP2 SLOAD DUP2 PUSH20 0xFFFFFFFFFFFFFFFFFFFFFFFFFFFFFFFFFFFFFFFF MUL NOT AND SWAP1 DUP4 PUSH20 0xFFFFFFFFFFFFFFFFFFFFFFFFFFFFFFFFFFFFFFFF AND MUL OR SWAP1 SSTORE POP POP POP JUMP JUMPDEST PUSH0 DUP2 DUP2 SLOAD DUP2 LT PUSH2 0x1CF JUMPI PUSH0 DUP1 REVERT JUMPDEST SWAP1 PUSH0 MSTORE PUSH1 0x20 PUSH0 KECCAK256 SWAP1 PUSH1 0x4 MUL ADD PUSH0 SWAP2 POP SWAP1 POP DUP1 PUSH0 ADD SLOAD SWAP1 DUP1 PUSH1 0x1 ADD DUP1 SLOAD PUSH2 0x1F4 SWAP1 PUSH2 0x852 JUMP JUMPDEST DUP1 PUSH1 0x1F ADD PUSH1 0x20 DUP1 SWAP2 DIV MUL PUSH1 0x20 ADD PUSH1 0x40 MLOAD SWAP1 DUP2 ADD PUSH1 0x40 MSTORE DUP1 SWAP3 SWAP2 SWAP1 DUP2 DUP2 MSTORE PUSH1 0x20 ADD DUP3 DUP1 SLOAD PUSH2 0x220 SWAP1 PUSH2 0x852 JUMP JUMPDEST DUP1 ISZERO PUSH2 0x26B JUMPI DUP1 PUSH1 0x1F LT PUSH2 0x242 JUMPI PUSH2 0x100 DUP1 DUP4 SLOAD DIV MUL DUP4 MSTORE SWAP2 PUSH1 0x20 ADD SWAP2 PUSH2 0x26B JUMP JUMPDEST DUP3 ADD SWAP2 SWAP1 PUSH0 MSTORE PUSH1 0x20 PUSH0 KECCAK256 SWAP1 JUMPDEST DUP2 SLOAD DUP2 MSTORE SWAP1 PUSH1 0x1 ADD SWAP1 PUSH1 0x20 ADD DUP1 DUP4 GT PUSH2 0x24E JUMPI DUP3 SWAP1 SUB PUSH1 0x1F AND DUP3 ADD SWAP2 JUMPDEST POP POP POP POP POP SWAP1 DUP1 PUSH1 0x2 ADD DUP1 SLOAD PUSH2 0x280 SWAP1 PUSH2 0x852 JUMP JUMPDEST DUP1 PUSH1 0x1F ADD PUSH1 0x20 DUP1 SWAP2 DIV MUL PUSH1 0x20 ADD PUSH1 0x40 MLOAD SWAP1 DUP2 ADD PUSH1 0x40 MSTORE DUP1 SWAP3 SWAP2 SWAP1 DUP2 DUP2 MSTORE PUSH1 0x20 ADD DUP3 DUP1 SLOAD PUSH2 0x2AC SWAP1 PUSH2 0x852 JUMP JUMPDEST DUP1 ISZERO PUSH2 0x2F7 JUMPI DUP1 PUSH1 0x1F LT PUSH2 0x2CE JUMPI PUSH2 0x100 DUP1 DUP4 SLOAD DIV MUL DUP4 MSTORE SWAP2 PUSH1 0x20 ADD SWAP2 PUSH2 0x2F7 JUMP JUMPDEST DUP3 ADD SWAP2 SWAP1 PUSH0 MSTORE PUSH1 0x20 PUSH0 KECCAK256 SWAP1 JUMPDEST DUP2 SLOAD DUP2 MSTORE SWAP1 PUSH1 0x1 ADD SWAP1 PUSH1 0x20 ADD DUP1 DUP4 GT PUSH2 0x2DA JUMPI DUP3 SWAP1 SUB PUSH1 0x1F AND DUP3 ADD SWAP2 JUMPDEST POP POP POP POP POP SWAP1 DUP1 PUSH1 0x3 ADD PUSH0 SWAP1 SLOAD SWAP1 PUSH2 0x100 EXP SWAP1 DIV PUSH20 0xFFFFFFFFFFFFFFFFFFFFFFFFFFFFFFFFFFFFFFFF AND SWAP1 POP DUP5 JUMP JUMPDEST PUSH0 PUSH1 0x40 MLOAD DUP1 PUSH1 0x80 ADD PUSH1 0x40 MSTORE DUP1 PUSH0 DUP1 SLOAD SWAP1 POP DUP2 MSTORE PUSH1 0x20 ADD DUP5 DUP2 MSTORE PUSH1 0x20 ADD DUP4 DUP2 MSTORE PUSH1 0x20 ADD CALLER PUSH20 0xFFFFFFFFFFFFFFFFFFFFFFFFFFFFFFFFFFFFFFFF AND DUP2 MSTORE POP SWAP1 DUP1 PUSH1 0x1 DUP2 SLOAD ADD DUP1 DUP3 SSTORE DUP1 SWAP2 POP POP PUSH1 0x1 SWAP1 SUB SWAP1 PUSH0 MSTORE PUSH1 0x20 PUSH0 KECCAK256 SWAP1 PUSH1 0x4 MUL ADD PUSH0 SWAP1 SWAP2 SWAP1 SWAP2 SWAP1 SWAP2 POP PUSH0 DUP3 ADD MLOAD DUP2 PUSH0 ADD SSTORE PUSH1 0x20 DUP3 ADD MLOAD DUP2 PUSH1 0x1 ADD SWAP1 DUP2 PUSH2 0x3A5 SWAP2 SWAP1 PUSH2 0xA1F JUMP JUMPDEST POP PUSH1 0x40 DUP3 ADD MLOAD DUP2 PUSH1 0x2 ADD SWAP1 DUP2 PUSH2 0x3BB SWAP2 SWAP1 PUSH2 0xA1F JUMP JUMPDEST POP PUSH1 0x60 DUP3 ADD MLOAD DUP2 PUSH1 0x3 ADD PUSH0 PUSH2 0x100 EXP DUP2 SLOAD DUP2 PUSH20 0xFFFFFFFFFFFFFFFFFFFFFFFFFFFFFFFFFFFFFFFF MUL NOT AND SWAP1 DUP4 PUSH20 0xFFFFFFFFFFFFFFFFFFFFFFFFFFFFFFFFFFFFFFFF AND MUL OR SWAP1 SSTORE POP POP POP POP POP JUMP JUMPDEST PUSH0 PUSH1 0x40 MLOAD SWAP1 POP SWAP1 JUMP JUMPDEST PUSH0 DUP1 REVERT JUMPDEST PUSH0 DUP1 REVERT JUMPDEST PUSH0 DUP2 SWAP1 POP SWAP2 SWAP1 POP JUMP JUMPDEST PUSH2 0x42B DUP2 PUSH2 0x419 JUMP JUMPDEST DUP2 EQ PUSH2 0x435 JUMPI PUSH0 DUP1 REVERT JUMPDEST POP JUMP JUMPDEST PUSH0 DUP2 CALLDATALOAD SWAP1 POP PUSH2 0x446 DUP2 PUSH2 0x422 JUMP JUMPDEST SWAP3 SWAP2 POP POP JUMP JUMPDEST PUSH0 PUSH20 0xFFFFFFFFFFFFFFFFFFFFFFFFFFFFFFFFFFFFFFFF DUP3 AND SWAP1 POP SWAP2 SWAP1 POP JUMP JUMPDEST PUSH0 PUSH2 0x475 DUP3 PUSH2 0x44C JUMP JUMPDEST SWAP1 POP SWAP2 SWAP1 POP JUMP JUMPDEST PUSH2 0x485 DUP2 PUSH2 0x46B JUMP JUMPDEST DUP2 EQ PUSH2 0x48F JUMPI PUSH0 DUP1 REVERT JUMPDEST POP JUMP JUMPDEST PUSH0 DUP2 CALLDATALOAD SWAP1 POP PUSH2 0x4A0 DUP2 PUSH2 0x47C JUMP JUMPDEST SWAP3 SWAP2 POP POP JUMP JUMPDEST PUSH0 DUP1 PUSH1 0x40 DUP4 DUP6 SUB SLT ISZERO PUSH2 0x4BC JUMPI PUSH2 0x4BB PUSH2 0x411 JUMP JUMPDEST JUMPDEST PUSH0 PUSH2 0x4C9 DUP6 DUP3 DUP7 ADD PUSH2 0x438 JUMP JUMPDEST SWAP3 POP POP PUSH1 0x20 PUSH2 0x4DA DUP6 DUP3 DUP7 ADD PUSH2 0x492 JUMP JUMPDEST SWAP2 POP POP SWAP3 POP SWAP3 SWAP1 POP JUMP JUMPDEST PUSH0 PUSH1 0x20 DUP3 DUP5 SUB SLT ISZERO PUSH2 0x4F9 JUMPI PUSH2 0x4F8 PUSH2 0x411 JUMP JUMPDEST JUMPDEST PUSH0 PUSH2 0x506 DUP5 DUP3 DUP6 ADD PUSH2 0x438 JUMP JUMPDEST SWAP2 POP POP SWAP3 SWAP2 POP POP JUMP JUMPDEST PUSH2 0x518 DUP2 PUSH2 0x419 JUMP JUMPDEST DUP3 MSTORE POP POP JUMP JUMPDEST PUSH0 DUP2 MLOAD SWAP1 POP SWAP2 SWAP1 POP JUMP JUMPDEST PUSH0 DUP3 DUP3 MSTORE PUSH1 0x20 DUP3 ADD SWAP1 POP SWAP3 SWAP2 POP POP JUMP JUMPDEST DUP3 DUP2 DUP4 MCOPY PUSH0 DUP4 DUP4 ADD MSTORE POP POP POP JUMP JUMPDEST PUSH0 PUSH1 0x1F NOT PUSH1 0x1F DUP4 ADD AND SWAP1 POP SWAP2 SWAP1 POP JUMP JUMPDEST PUSH0 PUSH2 0x560 DUP3 PUSH2 0x51E JUMP JUMPDEST PUSH2 0x56A DUP2 DUP6 PUSH2 0x528 JUMP JUMPDEST SWAP4 POP PUSH2 0x57A DUP2 DUP6 PUSH1 0x20 DUP7 ADD PUSH2 0x538 JUMP JUMPDEST PUSH2 0x583 DUP2 PUSH2 0x546 JUMP JUMPDEST DUP5 ADD SWAP2 POP POP SWAP3 SWAP2 POP POP JUMP JUMPDEST PUSH2 0x597 DUP2 PUSH2 0x46B JUMP JUMPDEST DUP3 MSTORE POP POP JUMP JUMPDEST PUSH0 PUSH1 0x80 DUP3 ADD SWAP1 POP PUSH2 0x5B0 PUSH0 DUP4 ADD DUP8 PUSH2 0x50F JUMP JUMPDEST DUP2 DUP2 SUB PUSH1 0x20 DUP4 ADD MSTORE PUSH2 0x5C2 DUP2 DUP7 PUSH2 0x556 JUMP JUMPDEST SWAP1 POP DUP2 DUP2 SUB PUSH1 0x40 DUP4 ADD MSTORE PUSH2 0x5D6 DUP2 DUP6 PUSH2 0x556 JUMP JUMPDEST SWAP1 POP PUSH2 0x5E5 PUSH1 0x60 DUP4 ADD DUP5 PUSH2 0x58E JUMP JUMPDEST SWAP6 SWAP5 POP POP POP POP POP JUMP JUMPDEST PUSH0 DUP1 REVERT JUMPDEST PUSH0 DUP1 REVERT JUMPDEST PUSH32 0x4E487B7100000000000000000000000000000000000000000000000000000000 PUSH0 MSTORE PUSH1 0x41 PUSH1 0x4 MSTORE PUSH1 0x24 PUSH0 REVERT JUMPDEST PUSH2 0x62C DUP3 PUSH2 0x546 JUMP JUMPDEST DUP2 ADD DUP2 DUP2 LT PUSH8 0xFFFFFFFFFFFFFFFF DUP3 GT OR ISZERO PUSH2 0x64B JUMPI PUSH2 0x64A PUSH2 0x5F6 JUMP JUMPDEST JUMPDEST DUP1 PUSH1 0x40 MSTORE POP POP POP JUMP JUMPDEST PUSH0 PUSH2 0x65D PUSH2 0x408 JUMP JUMPDEST SWAP1 POP PUSH2 0x669 DUP3 DUP3 PUSH2 0x623 JUMP JUMPDEST SWAP2 SWAP1 POP JUMP JUMPDEST PUSH0 PUSH8 0xFFFFFFFFFFFFFFFF DUP3 GT ISZERO PUSH2 0x688 JUMPI PUSH2 0x687 PUSH2 0x5F6 JUMP JUMPDEST JUMPDEST PUSH2 0x691 DUP3 PUSH2 0x546 JUMP JUMPDEST SWAP1 POP PUSH1 0x20 DUP2 ADD SWAP1 POP SWAP2 SWAP1 POP JUMP JUMPDEST DUP3 DUP2 DUP4 CALLDATACOPY PUSH0 DUP4 DUP4 ADD MSTORE POP POP POP JUMP JUMPDEST PUSH0 PUSH2 0x6BE PUSH2 0x6B9 DUP5 PUSH2 0x66E JUMP JUMPDEST PUSH2 0x654 JUMP JUMPDEST SWAP1 POP DUP3 DUP2 MSTORE PUSH1 0x20 DUP2 ADD DUP5 DUP5 DUP5 ADD GT ISZERO PUSH2 0x6DA JUMPI PUSH2 0x6D9 PUSH2 0x5F2 JUMP JUMPDEST JUMPDEST PUSH2 0x6E5 DUP5 DUP3 DUP6 PUSH2 0x69E JUMP JUMPDEST POP SWAP4 SWAP3 POP POP POP JUMP JUMPDEST PUSH0 DUP3 PUSH1 0x1F DUP4 ADD SLT PUSH2 0x701 JUMPI PUSH2 0x700 PUSH2 0x5EE JUMP JUMPDEST JUMPDEST DUP2 CALLDATALOAD PUSH2 0x711 DUP5 DUP3 PUSH1 0x20 DUP7 ADD PUSH2 0x6AC JUMP JUMPDEST SWAP2 POP POP SWAP3 SWAP2 POP POP JUMP JUMPDEST PUSH0 DUP1 PUSH1 0x40 DUP4 DUP6 SUB SLT ISZERO PUSH2 0x730 JUMPI PUSH2 0x72F PUSH2 0x411 JUMP JUMPDEST JUMPDEST PUSH0 DUP4 ADD CALLDATALOAD PUSH8 0xFFFFFFFFFFFFFFFF DUP2 GT ISZERO PUSH2 0x74D JUMPI PUSH2 0x74C PUSH2 0x415 JUMP JUMPDEST JUMPDEST PUSH2 0x759 DUP6 DUP3 DUP7 ADD PUSH2 0x6ED JUMP JUMPDEST SWAP3 POP POP PUSH1 0x20 DUP4 ADD CALLDATALOAD PUSH8 0xFFFFFFFFFFFFFFFF DUP2 GT ISZERO PUSH2 0x77A JUMPI PUSH2 0x779 PUSH2 0x415 JUMP JUMPDEST JUMPDEST PUSH2 0x786 DUP6 DUP3 DUP7 ADD PUSH2 0x6ED JUMP JUMPDEST SWAP2 POP POP SWAP3 POP SWAP3 SWAP1 POP JUMP JUMPDEST PUSH32 0x4E487B7100000000000000000000000000000000000000000000000000000000 PUSH0 MSTORE PUSH1 0x32 PUSH1 0x4 MSTORE PUSH1 0x24 PUSH0 REVERT JUMPDEST PUSH32 0x4E6F7420746865206F776E657200000000000000000000000000000000000000 PUSH0 DUP3 ADD MSTORE POP JUMP JUMPDEST PUSH0 PUSH2 0x7F1 PUSH1 0xD DUP4 PUSH2 0x528 JUMP JUMPDEST SWAP2 POP PUSH2 0x7FC DUP3 PUSH2 0x7BD JUMP JUMPDEST PUSH1 0x20 DUP3 ADD SWAP1 POP SWAP2 SWAP1 POP JUMP JUMPDEST PUSH0 PUSH1 0x20 DUP3 ADD SWAP1 POP DUP2 DUP2 SUB PUSH0 DUP4 ADD MSTORE PUSH2 0x81E DUP2 PUSH2 0x7E5 JUMP JUMPDEST SWAP1 POP SWAP2 SWAP1 POP JUMP JUMPDEST PUSH32 0x4E487B7100000000000000000000000000000000000000000000000000000000 PUSH0 MSTORE PUSH1 0x22 PUSH1 0x4 MSTORE PUSH1 0x24 PUSH0 REVERT JUMPDEST PUSH0 PUSH1 0x2 DUP3 DIV SWAP1 POP PUSH1 0x1 DUP3 AND DUP1 PUSH2 0x869 JUMPI PUSH1 0x7F DUP3 AND SWAP2 POP JUMPDEST PUSH1 0x20 DUP3 LT DUP2 SUB PUSH2 0x87C JUMPI PUSH2 0x87B PUSH2 0x825 JUMP JUMPDEST JUMPDEST POP SWAP2 SWAP1 POP JUMP JUMPDEST PUSH0 DUP2 SWAP1 POP DUP2 PUSH0 MSTORE PUSH1 0x20 PUSH0 KECCAK256 SWAP1 POP SWAP2 SWAP1 POP JUMP JUMPDEST PUSH0 PUSH1 0x20 PUSH1 0x1F DUP4 ADD DIV SWAP1 POP SWAP2 SWAP1 POP JUMP JUMPDEST PUSH0 DUP3 DUP3 SHL SWAP1 POP SWAP3 SWAP2 POP POP JUMP JUMPDEST PUSH0 PUSH1 0x8 DUP4 MUL PUSH2 0x8DE PUSH32 0xFFFFFFFFFFFFFFFFFFFFFFFFFFFFFFFFFFFFFFFFFFFFFFFFFFFFFFFFFFFFFFFF DUP3 PUSH2 0x8A3 JUMP JUMPDEST PUSH2 0x8E8 DUP7 DUP4 PUSH2 0x8A3 JUMP JUMPDEST SWAP6 POP DUP1 NOT DUP5 AND SWAP4 POP DUP1 DUP7 AND DUP5 OR SWAP3 POP POP POP SWAP4 SWAP3 POP POP POP JUMP JUMPDEST PUSH0 DUP2 SWAP1 POP SWAP2 SWAP1 POP JUMP JUMPDEST PUSH0 PUSH2 0x923 PUSH2 0x91E PUSH2 0x919 DUP5 PUSH2 0x419 JUMP JUMPDEST PUSH2 0x900 JUMP JUMPDEST PUSH2 0x419 JUMP JUMPDEST SWAP1 POP SWAP2 SWAP1 POP JUMP JUMPDEST PUSH0 DUP2 SWAP1 POP SWAP2 SWAP1 POP JUMP JUMPDEST PUSH2 0x93C DUP4 PUSH2 0x909 JUMP JUMPDEST PUSH2 0x950 PUSH2 0x948 DUP3 PUSH2 0x92A JUMP JUMPDEST DUP5 DUP5 SLOAD PUSH2 0x8AF JUMP JUMPDEST DUP3 SSTORE POP POP POP POP JUMP JUMPDEST PUSH0 SWAP1 JUMP JUMPDEST PUSH2 0x964 PUSH2 0x958 JUMP JUMPDEST PUSH2 0x96F DUP2 DUP5 DUP5 PUSH2 0x933 JUMP JUMPDEST POP POP POP JUMP JUMPDEST JUMPDEST DUP2 DUP2 LT ISZERO PUSH2 0x992 JUMPI PUSH2 0x987 PUSH0 DUP3 PUSH2 0x95C JUMP JUMPDEST PUSH1 0x1 DUP2 ADD SWAP1 POP PUSH2 0x975 JUMP JUMPDEST POP POP JUMP JUMPDEST PUSH1 0x1F DUP3 GT ISZERO PUSH2 0x9D7 JUMPI PUSH2 0x9A8 DUP2 PUSH2 0x882 JUMP JUMPDEST PUSH2 0x9B1 DUP5 PUSH2 0x894 JUMP JUMPDEST DUP2 ADD PUSH1 0x20 DUP6 LT ISZERO PUSH2 0x9C0 JUMPI DUP2 SWAP1 POP JUMPDEST PUSH2 0x9D4 PUSH2 0x9CC DUP6 PUSH2 0x894 JUMP JUMPDEST DUP4 ADD DUP3 PUSH2 0x974 JUMP JUMPDEST POP POP JUMPDEST POP POP POP JUMP JUMPDEST PUSH0 DUP3 DUP3 SHR SWAP1 POP SWAP3 SWAP2 POP POP JUMP JUMPDEST PUSH0 PUSH2 0x9F7 PUSH0 NOT DUP5 PUSH1 0x8 MUL PUSH2 0x9DC JUMP JUMPDEST NOT DUP1 DUP4 AND SWAP2 POP POP SWAP3 SWAP2 POP POP JUMP JUMPDEST PUSH0 PUSH2 0xA0F DUP4 DUP4 PUSH2 0x9E8 JUMP JUMPDEST SWAP2 POP DUP3 PUSH1 0x2 MUL DUP3 OR SWAP1 POP SWAP3 SWAP2 POP POP JUMP JUMPDEST PUSH2 0xA28 DUP3 PUSH2 0x51E JUMP JUMPDEST PUSH8 0xFFFFFFFFFFFFFFFF DUP2 GT ISZERO PUSH2 0xA41 JUMPI PUSH2 0xA40 PUSH2 0x5F6 JUMP JUMPDEST JUMPDEST PUSH2 0xA4B DUP3 SLOAD PUSH2 0x852 JUMP JUMPDEST PUSH2 0xA56 DUP3 DUP3 DUP6 PUSH2 0x996 JUMP JUMPDEST PUSH0 PUSH1 0x20 SWAP1 POP PUSH1 0x1F DUP4 GT PUSH1 0x1 DUP2 EQ PUSH2 0xA87 JUMPI PUSH0 DUP5 ISZERO PUSH2 0xA75 JUMPI DUP3 DUP8 ADD MLOAD SWAP1 POP JUMPDEST PUSH2 0xA7F DUP6 DUP3 PUSH2 0xA04 JUMP JUMPDEST DUP7 SSTORE POP PUSH2 0xAE6 JUMP JUMPDEST PUSH1 0x1F NOT DUP5 AND PUSH2 0xA95 DUP7 PUSH2 0x882 JUMP JUMPDEST PUSH0 JUMPDEST DUP3 DUP2 LT ISZERO PUSH2 0xABC JUMPI DUP5 DUP10 ADD MLOAD DUP3 SSTORE PUSH1 0x1 DUP3 ADD SWAP2 POP PUSH1 0x20 DUP6 ADD SWAP5 POP PUSH1 0x20 DUP2 ADD SWAP1 POP PUSH2 0xA97 JUMP JUMPDEST DUP7 DUP4 LT ISZERO PUSH2 0xAD9 JUMPI DUP5 DUP10 ADD MLOAD PUSH2 0xAD5 PUSH1 0x1F DUP10 AND DUP3 PUSH2 0x9E8 JUMP JUMPDEST DUP4 SSTORE POP JUMPDEST PUSH1 0x1 PUSH1 0x2 DUP9 MUL ADD DUP9 SSTORE POP POP POP JUMPDEST POP POP POP POP POP POP JUMP INVALID LOG2 PUSH5 0x6970667358 0x22 SLT KECCAK256 0x1E PUSH20 0x7F68B243A8095C2646CFC13C1B2983C02B6F4EB7 SWAP13 0x4E 0xDE 0xA9 0xC9 0xE0 MLOAD SWAP5 SWAP9 DUP5 PUSH5 0x736F6C6343 STOP ADDMOD BYTE STOP CALLER "
				},
				"gasEstimates": {
					"creation": {
						"codeDepositCost": "570400",
						"executionCost": "604",
						"totalCost": "571004"
					},
					"external": {
						"createProduct(string,string)": "infinite",
						"products(uint256)": "infinite",
						"transferOwnership(uint256,address)": "31421"
					}
				},
				"methodIdentifiers": {
					"createProduct(string,string)": "87592bce",
					"products(uint256)": "7acc0b20",
					"transferOwnership(uint256,address)": "29507f73"
				}
			},
			"storageLayout": {
				"storage": [
					{
						"astId": 14,
						"contract": "Proyecto/Proyecto.sol:ProductTracker",
						"label": "products",
						"offset": 0,
						"slot": "0",
						"type": "t_array(t_struct(Product)10_storage)dyn_storage"
					}
				],
				"types": {
					"t_address": {
						"encoding": "inplace",
						"label": "address",
						"numberOfBytes": "20"
					},
					"t_array(t_struct(Product)10_storage)dyn_storage": {
						"base": "t_struct(Product)10_storage",
						"encoding": "dynamic_array",
						"label": "struct ProductTracker.Product[]",
						"numberOfBytes": "32"
					},
					"t_string_storage": {
						"encoding": "bytes",
						"label": "string",
						"numberOfBytes": "32"
					},
					"t_struct(Product)10_storage": {
						"encoding": "inplace",
						"label": "struct ProductTracker.Product",
						"members": [
							{
								"astId": 3,
								"contract": "Proyecto/Proyecto.sol:ProductTracker",
								"label": "id",
								"offset": 0,
								"slot": "0",
								"type": "t_uint256"
							},
							{
								"astId": 5,
								"contract": "Proyecto/Proyecto.sol:ProductTracker",
								"label": "name",
								"offset": 0,
								"slot": "1",
								"type": "t_string_storage"
							},
							{
								"astId": 7,
								"contract": "Proyecto/Proyecto.sol:ProductTracker",
								"label": "manufacturer",
								"offset": 0,
								"slot": "2",
								"type": "t_string_storage"
							},
							{
								"astId": 9,
								"contract": "Proyecto/Proyecto.sol:ProductTracker",
								"label": "owner",
								"offset": 0,
								"slot": "3",
								"type": "t_address"
							}
						],
						"numberOfBytes": "128"
					},
					"t_uint256": {
						"encoding": "inplace",
						"label": "uint256",
						"numberOfBytes": "32"
					}
				}
			},
			"userdoc": {
				"kind": "user",
				"methods": {},
				"version": 1
			}
		}
	}
}