{
	"Lunes-23-Sep-24/Tc.avax.sol": {
		"tc_avax": {
			"abi": [
				{
					"inputs": [],
					"stateMutability": "nonpayable",
					"type": "constructor"
				},
				{
					"anonymous": false,
					"inputs": [
						{
							"indexed": false,
							"internalType": "string",
							"name": "date",
							"type": "string"
						},
						{
							"indexed": false,
							"internalType": "string",
							"name": "delivery_date",
							"type": "string"
						},
						{
							"indexed": false,
							"internalType": "string",
							"name": "product",
							"type": "string"
						},
						{
							"indexed": false,
							"internalType": "string",
							"name": "price",
							"type": "string"
						},
						{
							"indexed": false,
							"internalType": "string",
							"name": "code",
							"type": "string"
						},
						{
							"indexed": false,
							"internalType": "string",
							"name": "cel_number",
							"type": "string"
						},
						{
							"indexed": false,
							"internalType": "int8",
							"name": "status",
							"type": "int8"
						},
						{
							"indexed": false,
							"internalType": "address",
							"name": "wallet",
							"type": "address"
						}
					],
					"name": "newData",
					"type": "event"
				},
				{
					"inputs": [],
					"name": "data",
					"outputs": [
						{
							"internalType": "string",
							"name": "date",
							"type": "string"
						},
						{
							"internalType": "string",
							"name": "delivery_date",
							"type": "string"
						},
						{
							"internalType": "string",
							"name": "product",
							"type": "string"
						},
						{
							"internalType": "string",
							"name": "price",
							"type": "string"
						},
						{
							"internalType": "string",
							"name": "code",
							"type": "string"
						},
						{
							"internalType": "string",
							"name": "cel_number",
							"type": "string"
						},
						{
							"internalType": "int8",
							"name": "status",
							"type": "int8"
						},
						{
							"internalType": "address",
							"name": "wallet",
							"type": "address"
						}
					],
					"stateMutability": "view",
					"type": "function"
				},
				{
					"inputs": [],
					"name": "getBalance",
					"outputs": [
						{
							"internalType": "uint256",
							"name": "",
							"type": "uint256"
						}
					],
					"stateMutability": "view",
					"type": "function"
				},
				{
					"inputs": [],
					"name": "owner",
					"outputs": [
						{
							"internalType": "address payable",
							"name": "",
							"type": "address"
						}
					],
					"stateMutability": "view",
					"type": "function"
				},
				{
					"inputs": [
						{
							"internalType": "string",
							"name": "_date",
							"type": "string"
						},
						{
							"internalType": "string",
							"name": "_delivery_date",
							"type": "string"
						},
						{
							"internalType": "string",
							"name": "_product",
							"type": "string"
						},
						{
							"internalType": "string",
							"name": "_price",
							"type": "string"
						},
						{
							"internalType": "string",
							"name": "_code",
							"type": "string"
						},
						{
							"internalType": "string",
							"name": "_cel_number",
							"type": "string"
						},
						{
							"internalType": "int8",
							"name": "_status",
							"type": "int8"
						}
					],
					"name": "pushData",
					"outputs": [],
					"stateMutability": "payable",
					"type": "function"
				},
				{
					"inputs": [],
					"name": "withdraw",
					"outputs": [],
					"stateMutability": "nonpayable",
					"type": "function"
				}
			],
			"devdoc": {
				"kind": "dev",
				"methods": {},
				"version": 1
			},
			"evm": {
				"assembly": "    /* \"Lunes-23-Sep-24/Tc.avax.sol\":63:2682  contract tc_avax {... */\n  mstore(0x40, 0x80)\n    /* \"Lunes-23-Sep-24/Tc.avax.sol\":1170:1229  constructor(){... */\n  callvalue\n  dup1\n  iszero\n  tag_1\n  jumpi\n  0x00\n  dup1\n  revert\ntag_1:\n  pop\n    /* \"Lunes-23-Sep-24/Tc.avax.sol\":1210:1220  msg.sender */\n  caller\n    /* \"Lunes-23-Sep-24/Tc.avax.sol\":1194:1199  owner */\n  0x00\n  dup1\n    /* \"Lunes-23-Sep-24/Tc.avax.sol\":1194:1221  owner = payable(msg.sender) */\n  0x0100\n  exp\n  dup2\n  sload\n  dup2\n  0xffffffffffffffffffffffffffffffffffffffff\n  mul\n  not\n  and\n  swap1\n  dup4\n  0xffffffffffffffffffffffffffffffffffffffff\n  and\n  mul\n  or\n  swap1\n  sstore\n  pop\n    /* \"Lunes-23-Sep-24/Tc.avax.sol\":63:2682  contract tc_avax {... */\n  dataSize(sub_0)\n  dup1\n  dataOffset(sub_0)\n  0x00\n  codecopy\n  0x00\n  return\nstop\n\nsub_0: assembly {\n        /* \"Lunes-23-Sep-24/Tc.avax.sol\":63:2682  contract tc_avax {... */\n      mstore(0x40, 0x80)\n      jumpi(tag_1, lt(calldatasize, 0x04))\n      shr(0xe0, calldataload(0x00))\n      dup1\n      0x12065fe0\n      eq\n      tag_2\n      jumpi\n      dup1\n      0x3ccfd60b\n      eq\n      tag_3\n      jumpi\n      dup1\n      0x73d4a13a\n      eq\n      tag_4\n      jumpi\n      dup1\n      0x782154df\n      eq\n      tag_5\n      jumpi\n      dup1\n      0x8da5cb5b\n      eq\n      tag_6\n      jumpi\n    tag_1:\n      0x00\n      dup1\n      revert\n        /* \"Lunes-23-Sep-24/Tc.avax.sol\":2559:2666  function getBalance() public view returns (uint256) {... */\n    tag_2:\n      callvalue\n      dup1\n      iszero\n      tag_7\n      jumpi\n      0x00\n      dup1\n      revert\n    tag_7:\n      pop\n      tag_8\n      tag_9\n      jump\t// in\n    tag_8:\n      mload(0x40)\n      tag_10\n      swap2\n      swap1\n      tag_11\n      jump\t// in\n    tag_10:\n      mload(0x40)\n      dup1\n      swap2\n      sub\n      swap1\n      return\n        /* \"Lunes-23-Sep-24/Tc.avax.sol\":2252:2471  function withdraw() public onlyOwner {... */\n    tag_3:\n      callvalue\n      dup1\n      iszero\n      tag_12\n      jumpi\n      0x00\n      dup1\n      revert\n    tag_12:\n      pop\n      tag_13\n      tag_14\n      jump\t// in\n    tag_13:\n      stop\n        /* \"Lunes-23-Sep-24/Tc.avax.sol\":421:437  Data public data */\n    tag_4:\n      callvalue\n      dup1\n      iszero\n      tag_15\n      jumpi\n      0x00\n      dup1\n      revert\n    tag_15:\n      pop\n      tag_16\n      tag_17\n      jump\t// in\n    tag_16:\n      mload(0x40)\n      tag_18\n      swap9\n      swap8\n      swap7\n      swap6\n      swap5\n      swap4\n      swap3\n      swap2\n      swap1\n      tag_19\n      jump\t// in\n    tag_18:\n      mload(0x40)\n      dup1\n      swap2\n      sub\n      swap1\n      return\n        /* \"Lunes-23-Sep-24/Tc.avax.sol\":1285:2183  function pushData(string memory _date,... */\n    tag_5:\n      tag_20\n      0x04\n      dup1\n      calldatasize\n      sub\n      dup2\n      add\n      swap1\n      tag_21\n      swap2\n      swap1\n      tag_22\n      jump\t// in\n    tag_21:\n      tag_23\n      jump\t// in\n    tag_20:\n      stop\n        /* \"Lunes-23-Sep-24/Tc.avax.sol\":158:186  address payable public owner */\n    tag_6:\n      callvalue\n      dup1\n      iszero\n      tag_24\n      jumpi\n      0x00\n      dup1\n      revert\n    tag_24:\n      pop\n      tag_25\n      tag_26\n      jump\t// in\n    tag_25:\n      mload(0x40)\n      tag_27\n      swap2\n      swap1\n      tag_28\n      jump\t// in\n    tag_27:\n      mload(0x40)\n      dup1\n      swap2\n      sub\n      swap1\n      return\n        /* \"Lunes-23-Sep-24/Tc.avax.sol\":2559:2666  function getBalance() public view returns (uint256) {... */\n    tag_9:\n        /* \"Lunes-23-Sep-24/Tc.avax.sol\":2602:2609  uint256 */\n      0x00\n        /* \"Lunes-23-Sep-24/Tc.avax.sol\":2633:2654  address(this).balance */\n      selfbalance\n        /* \"Lunes-23-Sep-24/Tc.avax.sol\":2626:2654  return address(this).balance */\n      swap1\n      pop\n        /* \"Lunes-23-Sep-24/Tc.avax.sol\":2559:2666  function getBalance() public view returns (uint256) {... */\n      swap1\n      jump\t// out\n        /* \"Lunes-23-Sep-24/Tc.avax.sol\":2252:2471  function withdraw() public onlyOwner {... */\n    tag_14:\n        /* \"Lunes-23-Sep-24/Tc.avax.sol\":805:810  owner */\n      0x00\n      dup1\n      sload\n      swap1\n      0x0100\n      exp\n      swap1\n      div\n      0xffffffffffffffffffffffffffffffffffffffff\n      and\n        /* \"Lunes-23-Sep-24/Tc.avax.sol\":791:810  msg.sender == owner */\n      0xffffffffffffffffffffffffffffffffffffffff\n      and\n        /* \"Lunes-23-Sep-24/Tc.avax.sol\":791:801  msg.sender */\n      caller\n        /* \"Lunes-23-Sep-24/Tc.avax.sol\":791:810  msg.sender == owner */\n      0xffffffffffffffffffffffffffffffffffffffff\n      and\n      eq\n        /* \"Lunes-23-Sep-24/Tc.avax.sol\":783:859  require(msg.sender == owner, \"Solo el propietario puede retirar los fondos\") */\n      tag_31\n      jumpi\n      mload(0x40)\n      0x08c379a000000000000000000000000000000000000000000000000000000000\n      dup2\n      mstore\n      0x04\n      add\n      tag_32\n      swap1\n      tag_33\n      jump\t// in\n    tag_32:\n      mload(0x40)\n      dup1\n      swap2\n      sub\n      swap1\n      revert\n    tag_31:\n        /* \"Lunes-23-Sep-24/Tc.avax.sol\":2304:2316  uint balance */\n      0x00\n        /* \"Lunes-23-Sep-24/Tc.avax.sol\":2319:2340  address(this).balance */\n      selfbalance\n        /* \"Lunes-23-Sep-24/Tc.avax.sol\":2304:2340  uint balance = address(this).balance */\n      swap1\n      pop\n        /* \"Lunes-23-Sep-24/Tc.avax.sol\":2373:2374  0 */\n      0x00\n        /* \"Lunes-23-Sep-24/Tc.avax.sol\":2363:2370  balance */\n      dup2\n        /* \"Lunes-23-Sep-24/Tc.avax.sol\":2363:2374  balance > 0 */\n      gt\n        /* \"Lunes-23-Sep-24/Tc.avax.sol\":2355:2421  require(balance > 0, \"No se tienen fondos en el contrato todavia\") */\n      tag_35\n      jumpi\n      mload(0x40)\n      0x08c379a000000000000000000000000000000000000000000000000000000000\n      dup2\n      mstore\n      0x04\n      add\n      tag_36\n      swap1\n      tag_37\n      jump\t// in\n    tag_36:\n      mload(0x40)\n      dup1\n      swap2\n      sub\n      swap1\n      revert\n    tag_35:\n        /* \"Lunes-23-Sep-24/Tc.avax.sol\":2436:2441  owner */\n      0x00\n      dup1\n      sload\n      swap1\n      0x0100\n      exp\n      swap1\n      div\n      0xffffffffffffffffffffffffffffffffffffffff\n      and\n        /* \"Lunes-23-Sep-24/Tc.avax.sol\":2436:2450  owner.transfer */\n      0xffffffffffffffffffffffffffffffffffffffff\n      and\n        /* \"Lunes-23-Sep-24/Tc.avax.sol\":2436:2459  owner.transfer(balance) */\n      0x08fc\n        /* \"Lunes-23-Sep-24/Tc.avax.sol\":2451:2458  balance */\n      dup3\n        /* \"Lunes-23-Sep-24/Tc.avax.sol\":2436:2459  owner.transfer(balance) */\n      swap1\n      dup2\n      iszero\n      mul\n      swap1\n      mload(0x40)\n      0x00\n      mload(0x40)\n      dup1\n      dup4\n      sub\n      dup2\n      dup6\n      dup9\n      dup9\n      call\n      swap4\n      pop\n      pop\n      pop\n      pop\n      iszero\n      dup1\n      iszero\n      tag_39\n      jumpi\n      returndatasize\n      0x00\n      dup1\n      returndatacopy\n      revert(0x00, returndatasize)\n    tag_39:\n      pop\n        /* \"Lunes-23-Sep-24/Tc.avax.sol\":2289:2471  {... */\n      pop\n        /* \"Lunes-23-Sep-24/Tc.avax.sol\":2252:2471  function withdraw() public onlyOwner {... */\n      jump\t// out\n        /* \"Lunes-23-Sep-24/Tc.avax.sol\":421:437  Data public data */\n    tag_17:\n      0x01\n      dup1\n      0x00\n      add\n      dup1\n      sload\n      tag_40\n      swap1\n      tag_41\n      jump\t// in\n    tag_40:\n      dup1\n      0x1f\n      add\n      0x20\n      dup1\n      swap2\n      div\n      mul\n      0x20\n      add\n      mload(0x40)\n      swap1\n      dup2\n      add\n      0x40\n      mstore\n      dup1\n      swap3\n      swap2\n      swap1\n      dup2\n      dup2\n      mstore\n      0x20\n      add\n      dup3\n      dup1\n      sload\n      tag_42\n      swap1\n      tag_41\n      jump\t// in\n    tag_42:\n      dup1\n      iszero\n      tag_43\n      jumpi\n      dup1\n      0x1f\n      lt\n      tag_44\n      jumpi\n      0x0100\n      dup1\n      dup4\n      sload\n      div\n      mul\n      dup4\n      mstore\n      swap2\n      0x20\n      add\n      swap2\n      jump(tag_43)\n    tag_44:\n      dup3\n      add\n      swap2\n      swap1\n      0x00\n      mstore\n      keccak256(0x00, 0x20)\n      swap1\n    tag_45:\n      dup2\n      sload\n      dup2\n      mstore\n      swap1\n      0x01\n      add\n      swap1\n      0x20\n      add\n      dup1\n      dup4\n      gt\n      tag_45\n      jumpi\n      dup3\n      swap1\n      sub\n      0x1f\n      and\n      dup3\n      add\n      swap2\n    tag_43:\n      pop\n      pop\n      pop\n      pop\n      pop\n      swap1\n      dup1\n      0x01\n      add\n      dup1\n      sload\n      tag_46\n      swap1\n      tag_41\n      jump\t// in\n    tag_46:\n      dup1\n      0x1f\n      add\n      0x20\n      dup1\n      swap2\n      div\n      mul\n      0x20\n      add\n      mload(0x40)\n      swap1\n      dup2\n      add\n      0x40\n      mstore\n      dup1\n      swap3\n      swap2\n      swap1\n      dup2\n      dup2\n      mstore\n      0x20\n      add\n      dup3\n      dup1\n      sload\n      tag_47\n      swap1\n      tag_41\n      jump\t// in\n    tag_47:\n      dup1\n      iszero\n      tag_48\n      jumpi\n      dup1\n      0x1f\n      lt\n      tag_49\n      jumpi\n      0x0100\n      dup1\n      dup4\n      sload\n      div\n      mul\n      dup4\n      mstore\n      swap2\n      0x20\n      add\n      swap2\n      jump(tag_48)\n    tag_49:\n      dup3\n      add\n      swap2\n      swap1\n      0x00\n      mstore\n      keccak256(0x00, 0x20)\n      swap1\n    tag_50:\n      dup2\n      sload\n      dup2\n      mstore\n      swap1\n      0x01\n      add\n      swap1\n      0x20\n      add\n      dup1\n      dup4\n      gt\n      tag_50\n      jumpi\n      dup3\n      swap1\n      sub\n      0x1f\n      and\n      dup3\n      add\n      swap2\n    tag_48:\n      pop\n      pop\n      pop\n      pop\n      pop\n      swap1\n      dup1\n      0x02\n      add\n      dup1\n      sload\n      tag_51\n      swap1\n      tag_41\n      jump\t// in\n    tag_51:\n      dup1\n      0x1f\n      add\n      0x20\n      dup1\n      swap2\n      div\n      mul\n      0x20\n      add\n      mload(0x40)\n      swap1\n      dup2\n      add\n      0x40\n      mstore\n      dup1\n      swap3\n      swap2\n      swap1\n      dup2\n      dup2\n      mstore\n      0x20\n      add\n      dup3\n      dup1\n      sload\n      tag_52\n      swap1\n      tag_41\n      jump\t// in\n    tag_52:\n      dup1\n      iszero\n      tag_53\n      jumpi\n      dup1\n      0x1f\n      lt\n      tag_54\n      jumpi\n      0x0100\n      dup1\n      dup4\n      sload\n      div\n      mul\n      dup4\n      mstore\n      swap2\n      0x20\n      add\n      swap2\n      jump(tag_53)\n    tag_54:\n      dup3\n      add\n      swap2\n      swap1\n      0x00\n      mstore\n      keccak256(0x00, 0x20)\n      swap1\n    tag_55:\n      dup2\n      sload\n      dup2\n      mstore\n      swap1\n      0x01\n      add\n      swap1\n      0x20\n      add\n      dup1\n      dup4\n      gt\n      tag_55\n      jumpi\n      dup3\n      swap1\n      sub\n      0x1f\n      and\n      dup3\n      add\n      swap2\n    tag_53:\n      pop\n      pop\n      pop\n      pop\n      pop\n      swap1\n      dup1\n      0x03\n      add\n      dup1\n      sload\n      tag_56\n      swap1\n      tag_41\n      jump\t// in\n    tag_56:\n      dup1\n      0x1f\n      add\n      0x20\n      dup1\n      swap2\n      div\n      mul\n      0x20\n      add\n      mload(0x40)\n      swap1\n      dup2\n      add\n      0x40\n      mstore\n      dup1\n      swap3\n      swap2\n      swap1\n      dup2\n      dup2\n      mstore\n      0x20\n      add\n      dup3\n      dup1\n      sload\n      tag_57\n      swap1\n      tag_41\n      jump\t// in\n    tag_57:\n      dup1\n      iszero\n      tag_58\n      jumpi\n      dup1\n      0x1f\n      lt\n      tag_59\n      jumpi\n      0x0100\n      dup1\n      dup4\n      sload\n      div\n      mul\n      dup4\n      mstore\n      swap2\n      0x20\n      add\n      swap2\n      jump(tag_58)\n    tag_59:\n      dup3\n      add\n      swap2\n      swap1\n      0x00\n      mstore\n      keccak256(0x00, 0x20)\n      swap1\n    tag_60:\n      dup2\n      sload\n      dup2\n      mstore\n      swap1\n      0x01\n      add\n      swap1\n      0x20\n      add\n      dup1\n      dup4\n      gt\n      tag_60\n      jumpi\n      dup3\n      swap1\n      sub\n      0x1f\n      and\n      dup3\n      add\n      swap2\n    tag_58:\n      pop\n      pop\n      pop\n      pop\n      pop\n      swap1\n      dup1\n      0x04\n      add\n      dup1\n      sload\n      tag_61\n      swap1\n      tag_41\n      jump\t// in\n    tag_61:\n      dup1\n      0x1f\n      add\n      0x20\n      dup1\n      swap2\n      div\n      mul\n      0x20\n      add\n      mload(0x40)\n      swap1\n      dup2\n      add\n      0x40\n      mstore\n      dup1\n      swap3\n      swap2\n      swap1\n      dup2\n      dup2\n      mstore\n      0x20\n      add\n      dup3\n      dup1\n      sload\n      tag_62\n      swap1\n      tag_41\n      jump\t// in\n    tag_62:\n      dup1\n      iszero\n      tag_63\n      jumpi\n      dup1\n      0x1f\n      lt\n      tag_64\n      jumpi\n      0x0100\n      dup1\n      dup4\n      sload\n      div\n      mul\n      dup4\n      mstore\n      swap2\n      0x20\n      add\n      swap2\n      jump(tag_63)\n    tag_64:\n      dup3\n      add\n      swap2\n      swap1\n      0x00\n      mstore\n      keccak256(0x00, 0x20)\n      swap1\n    tag_65:\n      dup2\n      sload\n      dup2\n      mstore\n      swap1\n      0x01\n      add\n      swap1\n      0x20\n      add\n      dup1\n      dup4\n      gt\n      tag_65\n      jumpi\n      dup3\n      swap1\n      sub\n      0x1f\n      and\n      dup3\n      add\n      swap2\n    tag_63:\n      pop\n      pop\n      pop\n      pop\n      pop\n      swap1\n      dup1\n      0x05\n      add\n      dup1\n      sload\n      tag_66\n      swap1\n      tag_41\n      jump\t// in\n    tag_66:\n      dup1\n      0x1f\n      add\n      0x20\n      dup1\n      swap2\n      div\n      mul\n      0x20\n      add\n      mload(0x40)\n      swap1\n      dup2\n      add\n      0x40\n      mstore\n      dup1\n      swap3\n      swap2\n      swap1\n      dup2\n      dup2\n      mstore\n      0x20\n      add\n      dup3\n      dup1\n      sload\n      tag_67\n      swap1\n      tag_41\n      jump\t// in\n    tag_67:\n      dup1\n      iszero\n      tag_68\n      jumpi\n      dup1\n      0x1f\n      lt\n      tag_69\n      jumpi\n      0x0100\n      dup1\n      dup4\n      sload\n      div\n      mul\n      dup4\n      mstore\n      swap2\n      0x20\n      add\n      swap2\n      jump(tag_68)\n    tag_69:\n      dup3\n      add\n      swap2\n      swap1\n      0x00\n      mstore\n      keccak256(0x00, 0x20)\n      swap1\n    tag_70:\n      dup2\n      sload\n      dup2\n      mstore\n      swap1\n      0x01\n      add\n      swap1\n      0x20\n      add\n      dup1\n      dup4\n      gt\n      tag_70\n      jumpi\n      dup3\n      swap1\n      sub\n      0x1f\n      and\n      dup3\n      add\n      swap2\n    tag_68:\n      pop\n      pop\n      pop\n      pop\n      pop\n      swap1\n      dup1\n      0x06\n      add\n      0x00\n      swap1\n      sload\n      swap1\n      0x0100\n      exp\n      swap1\n      div\n      0x00\n      signextend\n      swap1\n      dup1\n      0x06\n      add\n      0x01\n      swap1\n      sload\n      swap1\n      0x0100\n      exp\n      swap1\n      div\n      0xffffffffffffffffffffffffffffffffffffffff\n      and\n      swap1\n      pop\n      dup9\n      jump\t// out\n        /* \"Lunes-23-Sep-24/Tc.avax.sol\":1285:2183  function pushData(string memory _date,... */\n    tag_23:\n        /* \"Lunes-23-Sep-24/Tc.avax.sol\":1620:1638  100000000000000000 */\n      0x016345785d8a0000\n        /* \"Lunes-23-Sep-24/Tc.avax.sol\":1096:1102  amount */\n      dup1\n        /* \"Lunes-23-Sep-24/Tc.avax.sol\":1083:1092  msg.value */\n      callvalue\n        /* \"Lunes-23-Sep-24/Tc.avax.sol\":1083:1102  msg.value >= amount */\n      lt\n      iszero\n        /* \"Lunes-23-Sep-24/Tc.avax.sol\":1075:1142  require(msg.value >= amount, \"No tiene saldo en AVAX para ejcutar\") */\n      tag_72\n      jumpi\n      mload(0x40)\n      0x08c379a000000000000000000000000000000000000000000000000000000000\n      dup2\n      mstore\n      0x04\n      add\n      tag_73\n      swap1\n      tag_74\n      jump\t// in\n    tag_73:\n      mload(0x40)\n      dup1\n      swap2\n      sub\n      swap1\n      revert\n    tag_72:\n        /* \"Lunes-23-Sep-24/Tc.avax.sol\":1667:1914  Data(_date,... */\n      mload(0x40)\n      dup1\n      0x0100\n      add\n      0x40\n      mstore\n      dup1\n        /* \"Lunes-23-Sep-24/Tc.avax.sol\":1672:1677  _date */\n      dup10\n        /* \"Lunes-23-Sep-24/Tc.avax.sol\":1667:1914  Data(_date,... */\n      dup2\n      mstore\n      0x20\n      add\n        /* \"Lunes-23-Sep-24/Tc.avax.sol\":1700:1714  _delivery_date */\n      dup9\n        /* \"Lunes-23-Sep-24/Tc.avax.sol\":1667:1914  Data(_date,... */\n      dup2\n      mstore\n      0x20\n      add\n        /* \"Lunes-23-Sep-24/Tc.avax.sol\":1737:1745  _product */\n      dup8\n        /* \"Lunes-23-Sep-24/Tc.avax.sol\":1667:1914  Data(_date,... */\n      dup2\n      mstore\n      0x20\n      add\n        /* \"Lunes-23-Sep-24/Tc.avax.sol\":1768:1774  _price */\n      dup7\n        /* \"Lunes-23-Sep-24/Tc.avax.sol\":1667:1914  Data(_date,... */\n      dup2\n      mstore\n      0x20\n      add\n        /* \"Lunes-23-Sep-24/Tc.avax.sol\":1797:1802  _code */\n      dup6\n        /* \"Lunes-23-Sep-24/Tc.avax.sol\":1667:1914  Data(_date,... */\n      dup2\n      mstore\n      0x20\n      add\n        /* \"Lunes-23-Sep-24/Tc.avax.sol\":1825:1836  _cel_number */\n      dup5\n        /* \"Lunes-23-Sep-24/Tc.avax.sol\":1667:1914  Data(_date,... */\n      dup2\n      mstore\n      0x20\n      add\n        /* \"Lunes-23-Sep-24/Tc.avax.sol\":1859:1866  _status */\n      dup4\n        /* \"Lunes-23-Sep-24/Tc.avax.sol\":1667:1914  Data(_date,... */\n      0x00\n      signextend\n      dup2\n      mstore\n      0x20\n      add\n        /* \"Lunes-23-Sep-24/Tc.avax.sol\":1885:1895  msg.sender */\n      caller\n        /* \"Lunes-23-Sep-24/Tc.avax.sol\":1667:1914  Data(_date,... */\n      0xffffffffffffffffffffffffffffffffffffffff\n      and\n      dup2\n      mstore\n      pop\n        /* \"Lunes-23-Sep-24/Tc.avax.sol\":1660:1664  data */\n      0x01\n        /* \"Lunes-23-Sep-24/Tc.avax.sol\":1660:1914  data = Data(_date,... */\n      0x00\n      dup3\n      add\n      mload\n      dup2\n      0x00\n      add\n      swap1\n      dup2\n      tag_76\n      swap2\n      swap1\n      tag_77\n      jump\t// in\n    tag_76:\n      pop\n      0x20\n      dup3\n      add\n      mload\n      dup2\n      0x01\n      add\n      swap1\n      dup2\n      tag_78\n      swap2\n      swap1\n      tag_77\n      jump\t// in\n    tag_78:\n      pop\n      0x40\n      dup3\n      add\n      mload\n      dup2\n      0x02\n      add\n      swap1\n      dup2\n      tag_79\n      swap2\n      swap1\n      tag_77\n      jump\t// in\n    tag_79:\n      pop\n      0x60\n      dup3\n      add\n      mload\n      dup2\n      0x03\n      add\n      swap1\n      dup2\n      tag_80\n      swap2\n      swap1\n      tag_77\n      jump\t// in\n    tag_80:\n      pop\n      0x80\n      dup3\n      add\n      mload\n      dup2\n      0x04\n      add\n      swap1\n      dup2\n      tag_81\n      swap2\n      swap1\n      tag_77\n      jump\t// in\n    tag_81:\n      pop\n      0xa0\n      dup3\n      add\n      mload\n      dup2\n      0x05\n      add\n      swap1\n      dup2\n      tag_82\n      swap2\n      swap1\n      tag_77\n      jump\t// in\n    tag_82:\n      pop\n      0xc0\n      dup3\n      add\n      mload\n      dup2\n      0x06\n      add\n      exp(0x0100, 0x00)\n      dup2\n      sload\n      dup2\n      0xff\n      mul\n      not\n      and\n      swap1\n      dup4\n      0x00\n      signextend\n      0xff\n      and\n      mul\n      or\n      swap1\n      sstore\n      pop\n      0xe0\n      dup3\n      add\n      mload\n      dup2\n      0x06\n      add\n      exp(0x0100, 0x01)\n      dup2\n      sload\n      dup2\n      0xffffffffffffffffffffffffffffffffffffffff\n      mul\n      not\n      and\n      swap1\n      dup4\n      0xffffffffffffffffffffffffffffffffffffffff\n      and\n      mul\n      or\n      swap1\n      sstore\n      pop\n      swap1\n      pop\n      pop\n        /* \"Lunes-23-Sep-24/Tc.avax.sol\":1932:2171  newData(_date,... */\n      0x870247eb151fd35c4907322d059c22cbe7eb7930b7b7116d4a107cbbb5378d12\n        /* \"Lunes-23-Sep-24/Tc.avax.sol\":1940:1945  _date */\n      dup9\n        /* \"Lunes-23-Sep-24/Tc.avax.sol\":1968:1982  _delivery_date */\n      dup9\n        /* \"Lunes-23-Sep-24/Tc.avax.sol\":2005:2013  _product */\n      dup9\n        /* \"Lunes-23-Sep-24/Tc.avax.sol\":2036:2042  _price */\n      dup9\n        /* \"Lunes-23-Sep-24/Tc.avax.sol\":2065:2070  _code */\n      dup9\n        /* \"Lunes-23-Sep-24/Tc.avax.sol\":2094:2105  _cel_number */\n      dup9\n        /* \"Lunes-23-Sep-24/Tc.avax.sol\":2129:2136  _status */\n      dup9\n        /* \"Lunes-23-Sep-24/Tc.avax.sol\":2160:2170  msg.sender */\n      caller\n        /* \"Lunes-23-Sep-24/Tc.avax.sol\":1932:2171  newData(_date,... */\n      mload(0x40)\n      tag_83\n      swap9\n      swap8\n      swap7\n      swap6\n      swap5\n      swap4\n      swap3\n      swap2\n      swap1\n      tag_19\n      jump\t// in\n    tag_83:\n      mload(0x40)\n      dup1\n      swap2\n      sub\n      swap1\n      log1\n        /* \"Lunes-23-Sep-24/Tc.avax.sol\":1285:2183  function pushData(string memory _date,... */\n      pop\n      pop\n      pop\n      pop\n      pop\n      pop\n      pop\n      pop\n      jump\t// out\n        /* \"Lunes-23-Sep-24/Tc.avax.sol\":158:186  address payable public owner */\n    tag_26:\n      0x00\n      dup1\n      sload\n      swap1\n      0x0100\n      exp\n      swap1\n      div\n      0xffffffffffffffffffffffffffffffffffffffff\n      and\n      dup2\n      jump\t// out\n        /* \"#utility.yul\":7:84   */\n    tag_84:\n        /* \"#utility.yul\":44:51   */\n      0x00\n        /* \"#utility.yul\":73:78   */\n      dup2\n        /* \"#utility.yul\":62:78   */\n      swap1\n      pop\n        /* \"#utility.yul\":7:84   */\n      swap2\n      swap1\n      pop\n      jump\t// out\n        /* \"#utility.yul\":90:208   */\n    tag_85:\n        /* \"#utility.yul\":177:201   */\n      tag_137\n        /* \"#utility.yul\":195:200   */\n      dup2\n        /* \"#utility.yul\":177:201   */\n      tag_84\n      jump\t// in\n    tag_137:\n        /* \"#utility.yul\":172:175   */\n      dup3\n        /* \"#utility.yul\":165:202   */\n      mstore\n        /* \"#utility.yul\":90:208   */\n      pop\n      pop\n      jump\t// out\n        /* \"#utility.yul\":214:436   */\n    tag_11:\n        /* \"#utility.yul\":307:311   */\n      0x00\n        /* \"#utility.yul\":345:347   */\n      0x20\n        /* \"#utility.yul\":334:343   */\n      dup3\n        /* \"#utility.yul\":330:348   */\n      add\n        /* \"#utility.yul\":322:348   */\n      swap1\n      pop\n        /* \"#utility.yul\":358:429   */\n      tag_139\n        /* \"#utility.yul\":426:427   */\n      0x00\n        /* \"#utility.yul\":415:424   */\n      dup4\n        /* \"#utility.yul\":411:428   */\n      add\n        /* \"#utility.yul\":402:408   */\n      dup5\n        /* \"#utility.yul\":358:429   */\n      tag_85\n      jump\t// in\n    tag_139:\n        /* \"#utility.yul\":214:436   */\n      swap3\n      swap2\n      pop\n      pop\n      jump\t// out\n        /* \"#utility.yul\":442:541   */\n    tag_86:\n        /* \"#utility.yul\":494:500   */\n      0x00\n        /* \"#utility.yul\":528:533   */\n      dup2\n        /* \"#utility.yul\":522:534   */\n      mload\n        /* \"#utility.yul\":512:534   */\n      swap1\n      pop\n        /* \"#utility.yul\":442:541   */\n      swap2\n      swap1\n      pop\n      jump\t// out\n        /* \"#utility.yul\":547:716   */\n    tag_87:\n        /* \"#utility.yul\":631:642   */\n      0x00\n        /* \"#utility.yul\":665:671   */\n      dup3\n        /* \"#utility.yul\":660:663   */\n      dup3\n        /* \"#utility.yul\":653:672   */\n      mstore\n        /* \"#utility.yul\":705:709   */\n      0x20\n        /* \"#utility.yul\":700:703   */\n      dup3\n        /* \"#utility.yul\":696:710   */\n      add\n        /* \"#utility.yul\":681:710   */\n      swap1\n      pop\n        /* \"#utility.yul\":547:716   */\n      swap3\n      swap2\n      pop\n      pop\n      jump\t// out\n        /* \"#utility.yul\":722:861   */\n    tag_88:\n        /* \"#utility.yul\":811:817   */\n      dup3\n        /* \"#utility.yul\":806:809   */\n      dup2\n        /* \"#utility.yul\":801:804   */\n      dup4\n        /* \"#utility.yul\":795:818   */\n      mcopy\n        /* \"#utility.yul\":852:853   */\n      0x00\n        /* \"#utility.yul\":843:849   */\n      dup4\n        /* \"#utility.yul\":838:841   */\n      dup4\n        /* \"#utility.yul\":834:850   */\n      add\n        /* \"#utility.yul\":827:854   */\n      mstore\n        /* \"#utility.yul\":722:861   */\n      pop\n      pop\n      pop\n      jump\t// out\n        /* \"#utility.yul\":867:969   */\n    tag_89:\n        /* \"#utility.yul\":908:914   */\n      0x00\n        /* \"#utility.yul\":959:961   */\n      0x1f\n        /* \"#utility.yul\":955:962   */\n      not\n        /* \"#utility.yul\":950:952   */\n      0x1f\n        /* \"#utility.yul\":943:948   */\n      dup4\n        /* \"#utility.yul\":939:953   */\n      add\n        /* \"#utility.yul\":935:963   */\n      and\n        /* \"#utility.yul\":925:963   */\n      swap1\n      pop\n        /* \"#utility.yul\":867:969   */\n      swap2\n      swap1\n      pop\n      jump\t// out\n        /* \"#utility.yul\":975:1352   */\n    tag_90:\n        /* \"#utility.yul\":1063:1066   */\n      0x00\n        /* \"#utility.yul\":1091:1130   */\n      tag_145\n        /* \"#utility.yul\":1124:1129   */\n      dup3\n        /* \"#utility.yul\":1091:1130   */\n      tag_86\n      jump\t// in\n    tag_145:\n        /* \"#utility.yul\":1146:1217   */\n      tag_146\n        /* \"#utility.yul\":1210:1216   */\n      dup2\n        /* \"#utility.yul\":1205:1208   */\n      dup6\n        /* \"#utility.yul\":1146:1217   */\n      tag_87\n      jump\t// in\n    tag_146:\n        /* \"#utility.yul\":1139:1217   */\n      swap4\n      pop\n        /* \"#utility.yul\":1226:1291   */\n      tag_147\n        /* \"#utility.yul\":1284:1290   */\n      dup2\n        /* \"#utility.yul\":1279:1282   */\n      dup6\n        /* \"#utility.yul\":1272:1276   */\n      0x20\n        /* \"#utility.yul\":1265:1270   */\n      dup7\n        /* \"#utility.yul\":1261:1277   */\n      add\n        /* \"#utility.yul\":1226:1291   */\n      tag_88\n      jump\t// in\n    tag_147:\n        /* \"#utility.yul\":1316:1345   */\n      tag_148\n        /* \"#utility.yul\":1338:1344   */\n      dup2\n        /* \"#utility.yul\":1316:1345   */\n      tag_89\n      jump\t// in\n    tag_148:\n        /* \"#utility.yul\":1311:1314   */\n      dup5\n        /* \"#utility.yul\":1307:1346   */\n      add\n        /* \"#utility.yul\":1300:1346   */\n      swap2\n      pop\n        /* \"#utility.yul\":1067:1352   */\n      pop\n        /* \"#utility.yul\":975:1352   */\n      swap3\n      swap2\n      pop\n      pop\n      jump\t// out\n        /* \"#utility.yul\":1358:1447   */\n    tag_91:\n        /* \"#utility.yul\":1392:1399   */\n      0x00\n        /* \"#utility.yul\":1435:1440   */\n      dup2\n        /* \"#utility.yul\":1432:1433   */\n      0x00\n        /* \"#utility.yul\":1421:1441   */\n      signextend\n        /* \"#utility.yul\":1410:1441   */\n      swap1\n      pop\n        /* \"#utility.yul\":1358:1447   */\n      swap2\n      swap1\n      pop\n      jump\t// out\n        /* \"#utility.yul\":1453:1562   */\n    tag_92:\n        /* \"#utility.yul\":1534:1555   */\n      tag_151\n        /* \"#utility.yul\":1549:1554   */\n      dup2\n        /* \"#utility.yul\":1534:1555   */\n      tag_91\n      jump\t// in\n    tag_151:\n        /* \"#utility.yul\":1529:1532   */\n      dup3\n        /* \"#utility.yul\":1522:1556   */\n      mstore\n        /* \"#utility.yul\":1453:1562   */\n      pop\n      pop\n      jump\t// out\n        /* \"#utility.yul\":1568:1694   */\n    tag_93:\n        /* \"#utility.yul\":1605:1612   */\n      0x00\n        /* \"#utility.yul\":1645:1687   */\n      0xffffffffffffffffffffffffffffffffffffffff\n        /* \"#utility.yul\":1638:1643   */\n      dup3\n        /* \"#utility.yul\":1634:1688   */\n      and\n        /* \"#utility.yul\":1623:1688   */\n      swap1\n      pop\n        /* \"#utility.yul\":1568:1694   */\n      swap2\n      swap1\n      pop\n      jump\t// out\n        /* \"#utility.yul\":1700:1796   */\n    tag_94:\n        /* \"#utility.yul\":1737:1744   */\n      0x00\n        /* \"#utility.yul\":1766:1790   */\n      tag_154\n        /* \"#utility.yul\":1784:1789   */\n      dup3\n        /* \"#utility.yul\":1766:1790   */\n      tag_93\n      jump\t// in\n    tag_154:\n        /* \"#utility.yul\":1755:1790   */\n      swap1\n      pop\n        /* \"#utility.yul\":1700:1796   */\n      swap2\n      swap1\n      pop\n      jump\t// out\n        /* \"#utility.yul\":1802:1920   */\n    tag_95:\n        /* \"#utility.yul\":1889:1913   */\n      tag_156\n        /* \"#utility.yul\":1907:1912   */\n      dup2\n        /* \"#utility.yul\":1889:1913   */\n      tag_94\n      jump\t// in\n    tag_156:\n        /* \"#utility.yul\":1884:1887   */\n      dup3\n        /* \"#utility.yul\":1877:1914   */\n      mstore\n        /* \"#utility.yul\":1802:1920   */\n      pop\n      pop\n      jump\t// out\n        /* \"#utility.yul\":1926:3457   */\n    tag_19:\n        /* \"#utility.yul\":2329:2333   */\n      0x00\n        /* \"#utility.yul\":2367:2370   */\n      0x0100\n        /* \"#utility.yul\":2356:2365   */\n      dup3\n        /* \"#utility.yul\":2352:2371   */\n      add\n        /* \"#utility.yul\":2344:2371   */\n      swap1\n      pop\n        /* \"#utility.yul\":2417:2426   */\n      dup2\n        /* \"#utility.yul\":2411:2415   */\n      dup2\n        /* \"#utility.yul\":2407:2427   */\n      sub\n        /* \"#utility.yul\":2403:2404   */\n      0x00\n        /* \"#utility.yul\":2392:2401   */\n      dup4\n        /* \"#utility.yul\":2388:2405   */\n      add\n        /* \"#utility.yul\":2381:2428   */\n      mstore\n        /* \"#utility.yul\":2445:2523   */\n      tag_158\n        /* \"#utility.yul\":2518:2522   */\n      dup2\n        /* \"#utility.yul\":2509:2515   */\n      dup12\n        /* \"#utility.yul\":2445:2523   */\n      tag_90\n      jump\t// in\n    tag_158:\n        /* \"#utility.yul\":2437:2523   */\n      swap1\n      pop\n        /* \"#utility.yul\":2570:2579   */\n      dup2\n        /* \"#utility.yul\":2564:2568   */\n      dup2\n        /* \"#utility.yul\":2560:2580   */\n      sub\n        /* \"#utility.yul\":2555:2557   */\n      0x20\n        /* \"#utility.yul\":2544:2553   */\n      dup4\n        /* \"#utility.yul\":2540:2558   */\n      add\n        /* \"#utility.yul\":2533:2581   */\n      mstore\n        /* \"#utility.yul\":2598:2676   */\n      tag_159\n        /* \"#utility.yul\":2671:2675   */\n      dup2\n        /* \"#utility.yul\":2662:2668   */\n      dup11\n        /* \"#utility.yul\":2598:2676   */\n      tag_90\n      jump\t// in\n    tag_159:\n        /* \"#utility.yul\":2590:2676   */\n      swap1\n      pop\n        /* \"#utility.yul\":2723:2732   */\n      dup2\n        /* \"#utility.yul\":2717:2721   */\n      dup2\n        /* \"#utility.yul\":2713:2733   */\n      sub\n        /* \"#utility.yul\":2708:2710   */\n      0x40\n        /* \"#utility.yul\":2697:2706   */\n      dup4\n        /* \"#utility.yul\":2693:2711   */\n      add\n        /* \"#utility.yul\":2686:2734   */\n      mstore\n        /* \"#utility.yul\":2751:2829   */\n      tag_160\n        /* \"#utility.yul\":2824:2828   */\n      dup2\n        /* \"#utility.yul\":2815:2821   */\n      dup10\n        /* \"#utility.yul\":2751:2829   */\n      tag_90\n      jump\t// in\n    tag_160:\n        /* \"#utility.yul\":2743:2829   */\n      swap1\n      pop\n        /* \"#utility.yul\":2876:2885   */\n      dup2\n        /* \"#utility.yul\":2870:2874   */\n      dup2\n        /* \"#utility.yul\":2866:2886   */\n      sub\n        /* \"#utility.yul\":2861:2863   */\n      0x60\n        /* \"#utility.yul\":2850:2859   */\n      dup4\n        /* \"#utility.yul\":2846:2864   */\n      add\n        /* \"#utility.yul\":2839:2887   */\n      mstore\n        /* \"#utility.yul\":2904:2982   */\n      tag_161\n        /* \"#utility.yul\":2977:2981   */\n      dup2\n        /* \"#utility.yul\":2968:2974   */\n      dup9\n        /* \"#utility.yul\":2904:2982   */\n      tag_90\n      jump\t// in\n    tag_161:\n        /* \"#utility.yul\":2896:2982   */\n      swap1\n      pop\n        /* \"#utility.yul\":3030:3039   */\n      dup2\n        /* \"#utility.yul\":3024:3028   */\n      dup2\n        /* \"#utility.yul\":3020:3040   */\n      sub\n        /* \"#utility.yul\":3014:3017   */\n      0x80\n        /* \"#utility.yul\":3003:3012   */\n      dup4\n        /* \"#utility.yul\":2999:3018   */\n      add\n        /* \"#utility.yul\":2992:3041   */\n      mstore\n        /* \"#utility.yul\":3058:3136   */\n      tag_162\n        /* \"#utility.yul\":3131:3135   */\n      dup2\n        /* \"#utility.yul\":3122:3128   */\n      dup8\n        /* \"#utility.yul\":3058:3136   */\n      tag_90\n      jump\t// in\n    tag_162:\n        /* \"#utility.yul\":3050:3136   */\n      swap1\n      pop\n        /* \"#utility.yul\":3184:3193   */\n      dup2\n        /* \"#utility.yul\":3178:3182   */\n      dup2\n        /* \"#utility.yul\":3174:3194   */\n      sub\n        /* \"#utility.yul\":3168:3171   */\n      0xa0\n        /* \"#utility.yul\":3157:3166   */\n      dup4\n        /* \"#utility.yul\":3153:3172   */\n      add\n        /* \"#utility.yul\":3146:3195   */\n      mstore\n        /* \"#utility.yul\":3212:3290   */\n      tag_163\n        /* \"#utility.yul\":3285:3289   */\n      dup2\n        /* \"#utility.yul\":3276:3282   */\n      dup7\n        /* \"#utility.yul\":3212:3290   */\n      tag_90\n      jump\t// in\n    tag_163:\n        /* \"#utility.yul\":3204:3290   */\n      swap1\n      pop\n        /* \"#utility.yul\":3300:3367   */\n      tag_164\n        /* \"#utility.yul\":3362:3365   */\n      0xc0\n        /* \"#utility.yul\":3351:3360   */\n      dup4\n        /* \"#utility.yul\":3347:3366   */\n      add\n        /* \"#utility.yul\":3338:3344   */\n      dup6\n        /* \"#utility.yul\":3300:3367   */\n      tag_92\n      jump\t// in\n    tag_164:\n        /* \"#utility.yul\":3377:3450   */\n      tag_165\n        /* \"#utility.yul\":3445:3448   */\n      0xe0\n        /* \"#utility.yul\":3434:3443   */\n      dup4\n        /* \"#utility.yul\":3430:3449   */\n      add\n        /* \"#utility.yul\":3421:3427   */\n      dup5\n        /* \"#utility.yul\":3377:3450   */\n      tag_95\n      jump\t// in\n    tag_165:\n        /* \"#utility.yul\":1926:3457   */\n      swap10\n      swap9\n      pop\n      pop\n      pop\n      pop\n      pop\n      pop\n      pop\n      pop\n      pop\n      jump\t// out\n        /* \"#utility.yul\":3463:3538   */\n    tag_96:\n        /* \"#utility.yul\":3496:3502   */\n      0x00\n        /* \"#utility.yul\":3529:3531   */\n      0x40\n        /* \"#utility.yul\":3523:3532   */\n      mload\n        /* \"#utility.yul\":3513:3532   */\n      swap1\n      pop\n        /* \"#utility.yul\":3463:3538   */\n      swap1\n      jump\t// out\n        /* \"#utility.yul\":3544:3661   */\n    tag_97:\n        /* \"#utility.yul\":3653:3654   */\n      0x00\n        /* \"#utility.yul\":3650:3651   */\n      dup1\n        /* \"#utility.yul\":3643:3655   */\n      revert\n        /* \"#utility.yul\":3667:3784   */\n    tag_98:\n        /* \"#utility.yul\":3776:3777   */\n      0x00\n        /* \"#utility.yul\":3773:3774   */\n      dup1\n        /* \"#utility.yul\":3766:3778   */\n      revert\n        /* \"#utility.yul\":3790:3907   */\n    tag_99:\n        /* \"#utility.yul\":3899:3900   */\n      0x00\n        /* \"#utility.yul\":3896:3897   */\n      dup1\n        /* \"#utility.yul\":3889:3901   */\n      revert\n        /* \"#utility.yul\":3913:4030   */\n    tag_100:\n        /* \"#utility.yul\":4022:4023   */\n      0x00\n        /* \"#utility.yul\":4019:4020   */\n      dup1\n        /* \"#utility.yul\":4012:4024   */\n      revert\n        /* \"#utility.yul\":4036:4216   */\n    tag_101:\n        /* \"#utility.yul\":4084:4161   */\n      0x4e487b7100000000000000000000000000000000000000000000000000000000\n        /* \"#utility.yul\":4081:4082   */\n      0x00\n        /* \"#utility.yul\":4074:4162   */\n      mstore\n        /* \"#utility.yul\":4181:4185   */\n      0x41\n        /* \"#utility.yul\":4178:4179   */\n      0x04\n        /* \"#utility.yul\":4171:4186   */\n      mstore\n        /* \"#utility.yul\":4205:4209   */\n      0x24\n        /* \"#utility.yul\":4202:4203   */\n      0x00\n        /* \"#utility.yul\":4195:4210   */\n      revert\n        /* \"#utility.yul\":4222:4503   */\n    tag_102:\n        /* \"#utility.yul\":4305:4332   */\n      tag_173\n        /* \"#utility.yul\":4327:4331   */\n      dup3\n        /* \"#utility.yul\":4305:4332   */\n      tag_89\n      jump\t// in\n    tag_173:\n        /* \"#utility.yul\":4297:4303   */\n      dup2\n        /* \"#utility.yul\":4293:4333   */\n      add\n        /* \"#utility.yul\":4435:4441   */\n      dup2\n        /* \"#utility.yul\":4423:4433   */\n      dup2\n        /* \"#utility.yul\":4420:4442   */\n      lt\n        /* \"#utility.yul\":4399:4417   */\n      0xffffffffffffffff\n        /* \"#utility.yul\":4387:4397   */\n      dup3\n        /* \"#utility.yul\":4384:4418   */\n      gt\n        /* \"#utility.yul\":4381:4443   */\n      or\n        /* \"#utility.yul\":4378:4466   */\n      iszero\n      tag_174\n      jumpi\n        /* \"#utility.yul\":4446:4464   */\n      tag_175\n      tag_101\n      jump\t// in\n    tag_175:\n        /* \"#utility.yul\":4378:4466   */\n    tag_174:\n        /* \"#utility.yul\":4486:4496   */\n      dup1\n        /* \"#utility.yul\":4482:4484   */\n      0x40\n        /* \"#utility.yul\":4475:4497   */\n      mstore\n        /* \"#utility.yul\":4265:4503   */\n      pop\n        /* \"#utility.yul\":4222:4503   */\n      pop\n      pop\n      jump\t// out\n        /* \"#utility.yul\":4509:4638   */\n    tag_103:\n        /* \"#utility.yul\":4543:4549   */\n      0x00\n        /* \"#utility.yul\":4570:4590   */\n      tag_177\n      tag_96\n      jump\t// in\n    tag_177:\n        /* \"#utility.yul\":4560:4590   */\n      swap1\n      pop\n        /* \"#utility.yul\":4599:4632   */\n      tag_178\n        /* \"#utility.yul\":4627:4631   */\n      dup3\n        /* \"#utility.yul\":4619:4625   */\n      dup3\n        /* \"#utility.yul\":4599:4632   */\n      tag_102\n      jump\t// in\n    tag_178:\n        /* \"#utility.yul\":4509:4638   */\n      swap2\n      swap1\n      pop\n      jump\t// out\n        /* \"#utility.yul\":4644:4952   */\n    tag_104:\n        /* \"#utility.yul\":4706:4710   */\n      0x00\n        /* \"#utility.yul\":4796:4814   */\n      0xffffffffffffffff\n        /* \"#utility.yul\":4788:4794   */\n      dup3\n        /* \"#utility.yul\":4785:4815   */\n      gt\n        /* \"#utility.yul\":4782:4838   */\n      iszero\n      tag_180\n      jumpi\n        /* \"#utility.yul\":4818:4836   */\n      tag_181\n      tag_101\n      jump\t// in\n    tag_181:\n        /* \"#utility.yul\":4782:4838   */\n    tag_180:\n        /* \"#utility.yul\":4856:4885   */\n      tag_182\n        /* \"#utility.yul\":4878:4884   */\n      dup3\n        /* \"#utility.yul\":4856:4885   */\n      tag_89\n      jump\t// in\n    tag_182:\n        /* \"#utility.yul\":4848:4885   */\n      swap1\n      pop\n        /* \"#utility.yul\":4940:4944   */\n      0x20\n        /* \"#utility.yul\":4934:4938   */\n      dup2\n        /* \"#utility.yul\":4930:4945   */\n      add\n        /* \"#utility.yul\":4922:4945   */\n      swap1\n      pop\n        /* \"#utility.yul\":4644:4952   */\n      swap2\n      swap1\n      pop\n      jump\t// out\n        /* \"#utility.yul\":4958:5106   */\n    tag_105:\n        /* \"#utility.yul\":5056:5062   */\n      dup3\n        /* \"#utility.yul\":5051:5054   */\n      dup2\n        /* \"#utility.yul\":5046:5049   */\n      dup4\n        /* \"#utility.yul\":5033:5063   */\n      calldatacopy\n        /* \"#utility.yul\":5097:5098   */\n      0x00\n        /* \"#utility.yul\":5088:5094   */\n      dup4\n        /* \"#utility.yul\":5083:5086   */\n      dup4\n        /* \"#utility.yul\":5079:5095   */\n      add\n        /* \"#utility.yul\":5072:5099   */\n      mstore\n        /* \"#utility.yul\":4958:5106   */\n      pop\n      pop\n      pop\n      jump\t// out\n        /* \"#utility.yul\":5112:5537   */\n    tag_106:\n        /* \"#utility.yul\":5190:5195   */\n      0x00\n        /* \"#utility.yul\":5215:5281   */\n      tag_185\n        /* \"#utility.yul\":5231:5280   */\n      tag_186\n        /* \"#utility.yul\":5273:5279   */\n      dup5\n        /* \"#utility.yul\":5231:5280   */\n      tag_104\n      jump\t// in\n    tag_186:\n        /* \"#utility.yul\":5215:5281   */\n      tag_103\n      jump\t// in\n    tag_185:\n        /* \"#utility.yul\":5206:5281   */\n      swap1\n      pop\n        /* \"#utility.yul\":5304:5310   */\n      dup3\n        /* \"#utility.yul\":5297:5302   */\n      dup2\n        /* \"#utility.yul\":5290:5311   */\n      mstore\n        /* \"#utility.yul\":5342:5346   */\n      0x20\n        /* \"#utility.yul\":5335:5340   */\n      dup2\n        /* \"#utility.yul\":5331:5347   */\n      add\n        /* \"#utility.yul\":5380:5383   */\n      dup5\n        /* \"#utility.yul\":5371:5377   */\n      dup5\n        /* \"#utility.yul\":5366:5369   */\n      dup5\n        /* \"#utility.yul\":5362:5378   */\n      add\n        /* \"#utility.yul\":5359:5384   */\n      gt\n        /* \"#utility.yul\":5356:5468   */\n      iszero\n      tag_187\n      jumpi\n        /* \"#utility.yul\":5387:5466   */\n      tag_188\n      tag_100\n      jump\t// in\n    tag_188:\n        /* \"#utility.yul\":5356:5468   */\n    tag_187:\n        /* \"#utility.yul\":5477:5531   */\n      tag_189\n        /* \"#utility.yul\":5524:5530   */\n      dup5\n        /* \"#utility.yul\":5519:5522   */\n      dup3\n        /* \"#utility.yul\":5514:5517   */\n      dup6\n        /* \"#utility.yul\":5477:5531   */\n      tag_105\n      jump\t// in\n    tag_189:\n        /* \"#utility.yul\":5196:5537   */\n      pop\n        /* \"#utility.yul\":5112:5537   */\n      swap4\n      swap3\n      pop\n      pop\n      pop\n      jump\t// out\n        /* \"#utility.yul\":5557:5897   */\n    tag_107:\n        /* \"#utility.yul\":5613:5618   */\n      0x00\n        /* \"#utility.yul\":5662:5665   */\n      dup3\n        /* \"#utility.yul\":5655:5659   */\n      0x1f\n        /* \"#utility.yul\":5647:5653   */\n      dup4\n        /* \"#utility.yul\":5643:5660   */\n      add\n        /* \"#utility.yul\":5639:5666   */\n      slt\n        /* \"#utility.yul\":5629:5751   */\n      tag_191\n      jumpi\n        /* \"#utility.yul\":5670:5749   */\n      tag_192\n      tag_99\n      jump\t// in\n    tag_192:\n        /* \"#utility.yul\":5629:5751   */\n    tag_191:\n        /* \"#utility.yul\":5787:5793   */\n      dup2\n        /* \"#utility.yul\":5774:5794   */\n      calldataload\n        /* \"#utility.yul\":5812:5891   */\n      tag_193\n        /* \"#utility.yul\":5887:5890   */\n      dup5\n        /* \"#utility.yul\":5879:5885   */\n      dup3\n        /* \"#utility.yul\":5872:5876   */\n      0x20\n        /* \"#utility.yul\":5864:5870   */\n      dup7\n        /* \"#utility.yul\":5860:5877   */\n      add\n        /* \"#utility.yul\":5812:5891   */\n      tag_106\n      jump\t// in\n    tag_193:\n        /* \"#utility.yul\":5803:5891   */\n      swap2\n      pop\n        /* \"#utility.yul\":5619:5897   */\n      pop\n        /* \"#utility.yul\":5557:5897   */\n      swap3\n      swap2\n      pop\n      pop\n      jump\t// out\n        /* \"#utility.yul\":5903:6019   */\n    tag_108:\n        /* \"#utility.yul\":5973:5994   */\n      tag_195\n        /* \"#utility.yul\":5988:5993   */\n      dup2\n        /* \"#utility.yul\":5973:5994   */\n      tag_91\n      jump\t// in\n    tag_195:\n        /* \"#utility.yul\":5966:5971   */\n      dup2\n        /* \"#utility.yul\":5963:5995   */\n      eq\n        /* \"#utility.yul\":5953:6013   */\n      tag_196\n      jumpi\n        /* \"#utility.yul\":6009:6010   */\n      0x00\n        /* \"#utility.yul\":6006:6007   */\n      dup1\n        /* \"#utility.yul\":5999:6011   */\n      revert\n        /* \"#utility.yul\":5953:6013   */\n    tag_196:\n        /* \"#utility.yul\":5903:6019   */\n      pop\n      jump\t// out\n        /* \"#utility.yul\":6025:6158   */\n    tag_109:\n        /* \"#utility.yul\":6068:6073   */\n      0x00\n        /* \"#utility.yul\":6106:6112   */\n      dup2\n        /* \"#utility.yul\":6093:6113   */\n      calldataload\n        /* \"#utility.yul\":6084:6113   */\n      swap1\n      pop\n        /* \"#utility.yul\":6122:6152   */\n      tag_198\n        /* \"#utility.yul\":6146:6151   */\n      dup2\n        /* \"#utility.yul\":6122:6152   */\n      tag_108\n      jump\t// in\n    tag_198:\n        /* \"#utility.yul\":6025:6158   */\n      swap3\n      swap2\n      pop\n      pop\n      jump\t// out\n        /* \"#utility.yul\":6164:8441   */\n    tag_22:\n        /* \"#utility.yul\":6334:6340   */\n      0x00\n        /* \"#utility.yul\":6342:6348   */\n      dup1\n        /* \"#utility.yul\":6350:6356   */\n      0x00\n        /* \"#utility.yul\":6358:6364   */\n      dup1\n        /* \"#utility.yul\":6366:6372   */\n      0x00\n        /* \"#utility.yul\":6374:6380   */\n      dup1\n        /* \"#utility.yul\":6382:6388   */\n      0x00\n        /* \"#utility.yul\":6431:6434   */\n      0xe0\n        /* \"#utility.yul\":6419:6428   */\n      dup9\n        /* \"#utility.yul\":6410:6417   */\n      dup11\n        /* \"#utility.yul\":6406:6429   */\n      sub\n        /* \"#utility.yul\":6402:6435   */\n      slt\n        /* \"#utility.yul\":6399:6519   */\n      iszero\n      tag_200\n      jumpi\n        /* \"#utility.yul\":6438:6517   */\n      tag_201\n      tag_97\n      jump\t// in\n    tag_201:\n        /* \"#utility.yul\":6399:6519   */\n    tag_200:\n        /* \"#utility.yul\":6586:6587   */\n      0x00\n        /* \"#utility.yul\":6575:6584   */\n      dup9\n        /* \"#utility.yul\":6571:6588   */\n      add\n        /* \"#utility.yul\":6558:6589   */\n      calldataload\n        /* \"#utility.yul\":6616:6634   */\n      0xffffffffffffffff\n        /* \"#utility.yul\":6608:6614   */\n      dup2\n        /* \"#utility.yul\":6605:6635   */\n      gt\n        /* \"#utility.yul\":6602:6719   */\n      iszero\n      tag_202\n      jumpi\n        /* \"#utility.yul\":6638:6717   */\n      tag_203\n      tag_98\n      jump\t// in\n    tag_203:\n        /* \"#utility.yul\":6602:6719   */\n    tag_202:\n        /* \"#utility.yul\":6743:6806   */\n      tag_204\n        /* \"#utility.yul\":6798:6805   */\n      dup11\n        /* \"#utility.yul\":6789:6795   */\n      dup3\n        /* \"#utility.yul\":6778:6787   */\n      dup12\n        /* \"#utility.yul\":6774:6796   */\n      add\n        /* \"#utility.yul\":6743:6806   */\n      tag_107\n      jump\t// in\n    tag_204:\n        /* \"#utility.yul\":6733:6806   */\n      swap8\n      pop\n        /* \"#utility.yul\":6529:6816   */\n      pop\n        /* \"#utility.yul\":6883:6885   */\n      0x20\n        /* \"#utility.yul\":6872:6881   */\n      dup9\n        /* \"#utility.yul\":6868:6886   */\n      add\n        /* \"#utility.yul\":6855:6887   */\n      calldataload\n        /* \"#utility.yul\":6914:6932   */\n      0xffffffffffffffff\n        /* \"#utility.yul\":6906:6912   */\n      dup2\n        /* \"#utility.yul\":6903:6933   */\n      gt\n        /* \"#utility.yul\":6900:7017   */\n      iszero\n      tag_205\n      jumpi\n        /* \"#utility.yul\":6936:7015   */\n      tag_206\n      tag_98\n      jump\t// in\n    tag_206:\n        /* \"#utility.yul\":6900:7017   */\n    tag_205:\n        /* \"#utility.yul\":7041:7104   */\n      tag_207\n        /* \"#utility.yul\":7096:7103   */\n      dup11\n        /* \"#utility.yul\":7087:7093   */\n      dup3\n        /* \"#utility.yul\":7076:7085   */\n      dup12\n        /* \"#utility.yul\":7072:7094   */\n      add\n        /* \"#utility.yul\":7041:7104   */\n      tag_107\n      jump\t// in\n    tag_207:\n        /* \"#utility.yul\":7031:7104   */\n      swap7\n      pop\n        /* \"#utility.yul\":6826:7114   */\n      pop\n        /* \"#utility.yul\":7181:7183   */\n      0x40\n        /* \"#utility.yul\":7170:7179   */\n      dup9\n        /* \"#utility.yul\":7166:7184   */\n      add\n        /* \"#utility.yul\":7153:7185   */\n      calldataload\n        /* \"#utility.yul\":7212:7230   */\n      0xffffffffffffffff\n        /* \"#utility.yul\":7204:7210   */\n      dup2\n        /* \"#utility.yul\":7201:7231   */\n      gt\n        /* \"#utility.yul\":7198:7315   */\n      iszero\n      tag_208\n      jumpi\n        /* \"#utility.yul\":7234:7313   */\n      tag_209\n      tag_98\n      jump\t// in\n    tag_209:\n        /* \"#utility.yul\":7198:7315   */\n    tag_208:\n        /* \"#utility.yul\":7339:7402   */\n      tag_210\n        /* \"#utility.yul\":7394:7401   */\n      dup11\n        /* \"#utility.yul\":7385:7391   */\n      dup3\n        /* \"#utility.yul\":7374:7383   */\n      dup12\n        /* \"#utility.yul\":7370:7392   */\n      add\n        /* \"#utility.yul\":7339:7402   */\n      tag_107\n      jump\t// in\n    tag_210:\n        /* \"#utility.yul\":7329:7402   */\n      swap6\n      pop\n        /* \"#utility.yul\":7124:7412   */\n      pop\n        /* \"#utility.yul\":7479:7481   */\n      0x60\n        /* \"#utility.yul\":7468:7477   */\n      dup9\n        /* \"#utility.yul\":7464:7482   */\n      add\n        /* \"#utility.yul\":7451:7483   */\n      calldataload\n        /* \"#utility.yul\":7510:7528   */\n      0xffffffffffffffff\n        /* \"#utility.yul\":7502:7508   */\n      dup2\n        /* \"#utility.yul\":7499:7529   */\n      gt\n        /* \"#utility.yul\":7496:7613   */\n      iszero\n      tag_211\n      jumpi\n        /* \"#utility.yul\":7532:7611   */\n      tag_212\n      tag_98\n      jump\t// in\n    tag_212:\n        /* \"#utility.yul\":7496:7613   */\n    tag_211:\n        /* \"#utility.yul\":7637:7700   */\n      tag_213\n        /* \"#utility.yul\":7692:7699   */\n      dup11\n        /* \"#utility.yul\":7683:7689   */\n      dup3\n        /* \"#utility.yul\":7672:7681   */\n      dup12\n        /* \"#utility.yul\":7668:7690   */\n      add\n        /* \"#utility.yul\":7637:7700   */\n      tag_107\n      jump\t// in\n    tag_213:\n        /* \"#utility.yul\":7627:7700   */\n      swap5\n      pop\n        /* \"#utility.yul\":7422:7710   */\n      pop\n        /* \"#utility.yul\":7777:7780   */\n      0x80\n        /* \"#utility.yul\":7766:7775   */\n      dup9\n        /* \"#utility.yul\":7762:7781   */\n      add\n        /* \"#utility.yul\":7749:7782   */\n      calldataload\n        /* \"#utility.yul\":7809:7827   */\n      0xffffffffffffffff\n        /* \"#utility.yul\":7801:7807   */\n      dup2\n        /* \"#utility.yul\":7798:7828   */\n      gt\n        /* \"#utility.yul\":7795:7912   */\n      iszero\n      tag_214\n      jumpi\n        /* \"#utility.yul\":7831:7910   */\n      tag_215\n      tag_98\n      jump\t// in\n    tag_215:\n        /* \"#utility.yul\":7795:7912   */\n    tag_214:\n        /* \"#utility.yul\":7936:7999   */\n      tag_216\n        /* \"#utility.yul\":7991:7998   */\n      dup11\n        /* \"#utility.yul\":7982:7988   */\n      dup3\n        /* \"#utility.yul\":7971:7980   */\n      dup12\n        /* \"#utility.yul\":7967:7989   */\n      add\n        /* \"#utility.yul\":7936:7999   */\n      tag_107\n      jump\t// in\n    tag_216:\n        /* \"#utility.yul\":7926:7999   */\n      swap4\n      pop\n        /* \"#utility.yul\":7720:8009   */\n      pop\n        /* \"#utility.yul\":8076:8079   */\n      0xa0\n        /* \"#utility.yul\":8065:8074   */\n      dup9\n        /* \"#utility.yul\":8061:8080   */\n      add\n        /* \"#utility.yul\":8048:8081   */\n      calldataload\n        /* \"#utility.yul\":8108:8126   */\n      0xffffffffffffffff\n        /* \"#utility.yul\":8100:8106   */\n      dup2\n        /* \"#utility.yul\":8097:8127   */\n      gt\n        /* \"#utility.yul\":8094:8211   */\n      iszero\n      tag_217\n      jumpi\n        /* \"#utility.yul\":8130:8209   */\n      tag_218\n      tag_98\n      jump\t// in\n    tag_218:\n        /* \"#utility.yul\":8094:8211   */\n    tag_217:\n        /* \"#utility.yul\":8235:8298   */\n      tag_219\n        /* \"#utility.yul\":8290:8297   */\n      dup11\n        /* \"#utility.yul\":8281:8287   */\n      dup3\n        /* \"#utility.yul\":8270:8279   */\n      dup12\n        /* \"#utility.yul\":8266:8288   */\n      add\n        /* \"#utility.yul\":8235:8298   */\n      tag_107\n      jump\t// in\n    tag_219:\n        /* \"#utility.yul\":8225:8298   */\n      swap3\n      pop\n        /* \"#utility.yul\":8019:8308   */\n      pop\n        /* \"#utility.yul\":8347:8350   */\n      0xc0\n        /* \"#utility.yul\":8374:8424   */\n      tag_220\n        /* \"#utility.yul\":8416:8423   */\n      dup11\n        /* \"#utility.yul\":8407:8413   */\n      dup3\n        /* \"#utility.yul\":8396:8405   */\n      dup12\n        /* \"#utility.yul\":8392:8414   */\n      add\n        /* \"#utility.yul\":8374:8424   */\n      tag_109\n      jump\t// in\n    tag_220:\n        /* \"#utility.yul\":8364:8424   */\n      swap2\n      pop\n        /* \"#utility.yul\":8318:8434   */\n      pop\n        /* \"#utility.yul\":6164:8441   */\n      swap3\n      swap6\n      swap9\n      swap2\n      swap5\n      swap8\n      pop\n      swap3\n      swap6\n      pop\n      jump\t// out\n        /* \"#utility.yul\":8447:8551   */\n    tag_110:\n        /* \"#utility.yul\":8492:8499   */\n      0x00\n        /* \"#utility.yul\":8521:8545   */\n      tag_222\n        /* \"#utility.yul\":8539:8544   */\n      dup3\n        /* \"#utility.yul\":8521:8545   */\n      tag_93\n      jump\t// in\n    tag_222:\n        /* \"#utility.yul\":8510:8545   */\n      swap1\n      pop\n        /* \"#utility.yul\":8447:8551   */\n      swap2\n      swap1\n      pop\n      jump\t// out\n        /* \"#utility.yul\":8557:8699   */\n    tag_111:\n        /* \"#utility.yul\":8660:8692   */\n      tag_224\n        /* \"#utility.yul\":8686:8691   */\n      dup2\n        /* \"#utility.yul\":8660:8692   */\n      tag_110\n      jump\t// in\n    tag_224:\n        /* \"#utility.yul\":8655:8658   */\n      dup3\n        /* \"#utility.yul\":8648:8693   */\n      mstore\n        /* \"#utility.yul\":8557:8699   */\n      pop\n      pop\n      jump\t// out\n        /* \"#utility.yul\":8705:8959   */\n    tag_28:\n        /* \"#utility.yul\":8814:8818   */\n      0x00\n        /* \"#utility.yul\":8852:8854   */\n      0x20\n        /* \"#utility.yul\":8841:8850   */\n      dup3\n        /* \"#utility.yul\":8837:8855   */\n      add\n        /* \"#utility.yul\":8829:8855   */\n      swap1\n      pop\n        /* \"#utility.yul\":8865:8952   */\n      tag_226\n        /* \"#utility.yul\":8949:8950   */\n      0x00\n        /* \"#utility.yul\":8938:8947   */\n      dup4\n        /* \"#utility.yul\":8934:8951   */\n      add\n        /* \"#utility.yul\":8925:8931   */\n      dup5\n        /* \"#utility.yul\":8865:8952   */\n      tag_111\n      jump\t// in\n    tag_226:\n        /* \"#utility.yul\":8705:8959   */\n      swap3\n      swap2\n      pop\n      pop\n      jump\t// out\n        /* \"#utility.yul\":8965:9196   */\n    tag_112:\n        /* \"#utility.yul\":9105:9139   */\n      0x536f6c6f20656c2070726f706965746172696f20707565646520726574697261\n        /* \"#utility.yul\":9101:9102   */\n      0x00\n        /* \"#utility.yul\":9093:9099   */\n      dup3\n        /* \"#utility.yul\":9089:9103   */\n      add\n        /* \"#utility.yul\":9082:9140   */\n      mstore\n        /* \"#utility.yul\":9174:9188   */\n      0x72206c6f7320666f6e646f730000000000000000000000000000000000000000\n        /* \"#utility.yul\":9169:9171   */\n      0x20\n        /* \"#utility.yul\":9161:9167   */\n      dup3\n        /* \"#utility.yul\":9157:9172   */\n      add\n        /* \"#utility.yul\":9150:9189   */\n      mstore\n        /* \"#utility.yul\":8965:9196   */\n      pop\n      jump\t// out\n        /* \"#utility.yul\":9202:9568   */\n    tag_113:\n        /* \"#utility.yul\":9344:9347   */\n      0x00\n        /* \"#utility.yul\":9365:9432   */\n      tag_229\n        /* \"#utility.yul\":9429:9431   */\n      0x2c\n        /* \"#utility.yul\":9424:9427   */\n      dup4\n        /* \"#utility.yul\":9365:9432   */\n      tag_87\n      jump\t// in\n    tag_229:\n        /* \"#utility.yul\":9358:9432   */\n      swap2\n      pop\n        /* \"#utility.yul\":9441:9534   */\n      tag_230\n        /* \"#utility.yul\":9530:9533   */\n      dup3\n        /* \"#utility.yul\":9441:9534   */\n      tag_112\n      jump\t// in\n    tag_230:\n        /* \"#utility.yul\":9559:9561   */\n      0x40\n        /* \"#utility.yul\":9554:9557   */\n      dup3\n        /* \"#utility.yul\":9550:9562   */\n      add\n        /* \"#utility.yul\":9543:9562   */\n      swap1\n      pop\n        /* \"#utility.yul\":9202:9568   */\n      swap2\n      swap1\n      pop\n      jump\t// out\n        /* \"#utility.yul\":9574:9993   */\n    tag_33:\n        /* \"#utility.yul\":9740:9744   */\n      0x00\n        /* \"#utility.yul\":9778:9780   */\n      0x20\n        /* \"#utility.yul\":9767:9776   */\n      dup3\n        /* \"#utility.yul\":9763:9781   */\n      add\n        /* \"#utility.yul\":9755:9781   */\n      swap1\n      pop\n        /* \"#utility.yul\":9827:9836   */\n      dup2\n        /* \"#utility.yul\":9821:9825   */\n      dup2\n        /* \"#utility.yul\":9817:9837   */\n      sub\n        /* \"#utility.yul\":9813:9814   */\n      0x00\n        /* \"#utility.yul\":9802:9811   */\n      dup4\n        /* \"#utility.yul\":9798:9815   */\n      add\n        /* \"#utility.yul\":9791:9838   */\n      mstore\n        /* \"#utility.yul\":9855:9986   */\n      tag_232\n        /* \"#utility.yul\":9981:9985   */\n      dup2\n        /* \"#utility.yul\":9855:9986   */\n      tag_113\n      jump\t// in\n    tag_232:\n        /* \"#utility.yul\":9847:9986   */\n      swap1\n      pop\n        /* \"#utility.yul\":9574:9993   */\n      swap2\n      swap1\n      pop\n      jump\t// out\n        /* \"#utility.yul\":9999:10228   */\n    tag_114:\n        /* \"#utility.yul\":10139:10173   */\n      0x4e6f207365207469656e656e20666f6e646f7320656e20656c20636f6e747261\n        /* \"#utility.yul\":10135:10136   */\n      0x00\n        /* \"#utility.yul\":10127:10133   */\n      dup3\n        /* \"#utility.yul\":10123:10137   */\n      add\n        /* \"#utility.yul\":10116:10174   */\n      mstore\n        /* \"#utility.yul\":10208:10220   */\n      0x746f20746f646176696100000000000000000000000000000000000000000000\n        /* \"#utility.yul\":10203:10205   */\n      0x20\n        /* \"#utility.yul\":10195:10201   */\n      dup3\n        /* \"#utility.yul\":10191:10206   */\n      add\n        /* \"#utility.yul\":10184:10221   */\n      mstore\n        /* \"#utility.yul\":9999:10228   */\n      pop\n      jump\t// out\n        /* \"#utility.yul\":10234:10600   */\n    tag_115:\n        /* \"#utility.yul\":10376:10379   */\n      0x00\n        /* \"#utility.yul\":10397:10464   */\n      tag_235\n        /* \"#utility.yul\":10461:10463   */\n      0x2a\n        /* \"#utility.yul\":10456:10459   */\n      dup4\n        /* \"#utility.yul\":10397:10464   */\n      tag_87\n      jump\t// in\n    tag_235:\n        /* \"#utility.yul\":10390:10464   */\n      swap2\n      pop\n        /* \"#utility.yul\":10473:10566   */\n      tag_236\n        /* \"#utility.yul\":10562:10565   */\n      dup3\n        /* \"#utility.yul\":10473:10566   */\n      tag_114\n      jump\t// in\n    tag_236:\n        /* \"#utility.yul\":10591:10593   */\n      0x40\n        /* \"#utility.yul\":10586:10589   */\n      dup3\n        /* \"#utility.yul\":10582:10594   */\n      add\n        /* \"#utility.yul\":10575:10594   */\n      swap1\n      pop\n        /* \"#utility.yul\":10234:10600   */\n      swap2\n      swap1\n      pop\n      jump\t// out\n        /* \"#utility.yul\":10606:11025   */\n    tag_37:\n        /* \"#utility.yul\":10772:10776   */\n      0x00\n        /* \"#utility.yul\":10810:10812   */\n      0x20\n        /* \"#utility.yul\":10799:10808   */\n      dup3\n        /* \"#utility.yul\":10795:10813   */\n      add\n        /* \"#utility.yul\":10787:10813   */\n      swap1\n      pop\n        /* \"#utility.yul\":10859:10868   */\n      dup2\n        /* \"#utility.yul\":10853:10857   */\n      dup2\n        /* \"#utility.yul\":10849:10869   */\n      sub\n        /* \"#utility.yul\":10845:10846   */\n      0x00\n        /* \"#utility.yul\":10834:10843   */\n      dup4\n        /* \"#utility.yul\":10830:10847   */\n      add\n        /* \"#utility.yul\":10823:10870   */\n      mstore\n        /* \"#utility.yul\":10887:11018   */\n      tag_238\n        /* \"#utility.yul\":11013:11017   */\n      dup2\n        /* \"#utility.yul\":10887:11018   */\n      tag_115\n      jump\t// in\n    tag_238:\n        /* \"#utility.yul\":10879:11018   */\n      swap1\n      pop\n        /* \"#utility.yul\":10606:11025   */\n      swap2\n      swap1\n      pop\n      jump\t// out\n        /* \"#utility.yul\":11031:11211   */\n    tag_116:\n        /* \"#utility.yul\":11079:11156   */\n      0x4e487b7100000000000000000000000000000000000000000000000000000000\n        /* \"#utility.yul\":11076:11077   */\n      0x00\n        /* \"#utility.yul\":11069:11157   */\n      mstore\n        /* \"#utility.yul\":11176:11180   */\n      0x22\n        /* \"#utility.yul\":11173:11174   */\n      0x04\n        /* \"#utility.yul\":11166:11181   */\n      mstore\n        /* \"#utility.yul\":11200:11204   */\n      0x24\n        /* \"#utility.yul\":11197:11198   */\n      0x00\n        /* \"#utility.yul\":11190:11205   */\n      revert\n        /* \"#utility.yul\":11217:11537   */\n    tag_41:\n        /* \"#utility.yul\":11261:11267   */\n      0x00\n        /* \"#utility.yul\":11298:11299   */\n      0x02\n        /* \"#utility.yul\":11292:11296   */\n      dup3\n        /* \"#utility.yul\":11288:11300   */\n      div\n        /* \"#utility.yul\":11278:11300   */\n      swap1\n      pop\n        /* \"#utility.yul\":11345:11346   */\n      0x01\n        /* \"#utility.yul\":11339:11343   */\n      dup3\n        /* \"#utility.yul\":11335:11347   */\n      and\n        /* \"#utility.yul\":11366:11384   */\n      dup1\n        /* \"#utility.yul\":11356:11437   */\n      tag_241\n      jumpi\n        /* \"#utility.yul\":11422:11426   */\n      0x7f\n        /* \"#utility.yul\":11414:11420   */\n      dup3\n        /* \"#utility.yul\":11410:11427   */\n      and\n        /* \"#utility.yul\":11400:11427   */\n      swap2\n      pop\n        /* \"#utility.yul\":11356:11437   */\n    tag_241:\n        /* \"#utility.yul\":11484:11486   */\n      0x20\n        /* \"#utility.yul\":11476:11482   */\n      dup3\n        /* \"#utility.yul\":11473:11487   */\n      lt\n        /* \"#utility.yul\":11453:11471   */\n      dup2\n        /* \"#utility.yul\":11450:11488   */\n      sub\n        /* \"#utility.yul\":11447:11531   */\n      tag_242\n      jumpi\n        /* \"#utility.yul\":11503:11521   */\n      tag_243\n      tag_116\n      jump\t// in\n    tag_243:\n        /* \"#utility.yul\":11447:11531   */\n    tag_242:\n        /* \"#utility.yul\":11268:11537   */\n      pop\n        /* \"#utility.yul\":11217:11537   */\n      swap2\n      swap1\n      pop\n      jump\t// out\n        /* \"#utility.yul\":11543:11765   */\n    tag_117:\n        /* \"#utility.yul\":11683:11717   */\n      0x4e6f207469656e652073616c646f20656e2041564158207061726120656a6375\n        /* \"#utility.yul\":11679:11680   */\n      0x00\n        /* \"#utility.yul\":11671:11677   */\n      dup3\n        /* \"#utility.yul\":11667:11681   */\n      add\n        /* \"#utility.yul\":11660:11718   */\n      mstore\n        /* \"#utility.yul\":11752:11757   */\n      0x7461720000000000000000000000000000000000000000000000000000000000\n        /* \"#utility.yul\":11747:11749   */\n      0x20\n        /* \"#utility.yul\":11739:11745   */\n      dup3\n        /* \"#utility.yul\":11735:11750   */\n      add\n        /* \"#utility.yul\":11728:11758   */\n      mstore\n        /* \"#utility.yul\":11543:11765   */\n      pop\n      jump\t// out\n        /* \"#utility.yul\":11771:12137   */\n    tag_118:\n        /* \"#utility.yul\":11913:11916   */\n      0x00\n        /* \"#utility.yul\":11934:12001   */\n      tag_246\n        /* \"#utility.yul\":11998:12000   */\n      0x23\n        /* \"#utility.yul\":11993:11996   */\n      dup4\n        /* \"#utility.yul\":11934:12001   */\n      tag_87\n      jump\t// in\n    tag_246:\n        /* \"#utility.yul\":11927:12001   */\n      swap2\n      pop\n        /* \"#utility.yul\":12010:12103   */\n      tag_247\n        /* \"#utility.yul\":12099:12102   */\n      dup3\n        /* \"#utility.yul\":12010:12103   */\n      tag_117\n      jump\t// in\n    tag_247:\n        /* \"#utility.yul\":12128:12130   */\n      0x40\n        /* \"#utility.yul\":12123:12126   */\n      dup3\n        /* \"#utility.yul\":12119:12131   */\n      add\n        /* \"#utility.yul\":12112:12131   */\n      swap1\n      pop\n        /* \"#utility.yul\":11771:12137   */\n      swap2\n      swap1\n      pop\n      jump\t// out\n        /* \"#utility.yul\":12143:12562   */\n    tag_74:\n        /* \"#utility.yul\":12309:12313   */\n      0x00\n        /* \"#utility.yul\":12347:12349   */\n      0x20\n        /* \"#utility.yul\":12336:12345   */\n      dup3\n        /* \"#utility.yul\":12332:12350   */\n      add\n        /* \"#utility.yul\":12324:12350   */\n      swap1\n      pop\n        /* \"#utility.yul\":12396:12405   */\n      dup2\n        /* \"#utility.yul\":12390:12394   */\n      dup2\n        /* \"#utility.yul\":12386:12406   */\n      sub\n        /* \"#utility.yul\":12382:12383   */\n      0x00\n        /* \"#utility.yul\":12371:12380   */\n      dup4\n        /* \"#utility.yul\":12367:12384   */\n      add\n        /* \"#utility.yul\":12360:12407   */\n      mstore\n        /* \"#utility.yul\":12424:12555   */\n      tag_249\n        /* \"#utility.yul\":12550:12554   */\n      dup2\n        /* \"#utility.yul\":12424:12555   */\n      tag_118\n      jump\t// in\n    tag_249:\n        /* \"#utility.yul\":12416:12555   */\n      swap1\n      pop\n        /* \"#utility.yul\":12143:12562   */\n      swap2\n      swap1\n      pop\n      jump\t// out\n        /* \"#utility.yul\":12568:12709   */\n    tag_119:\n        /* \"#utility.yul\":12617:12621   */\n      0x00\n        /* \"#utility.yul\":12640:12643   */\n      dup2\n        /* \"#utility.yul\":12632:12643   */\n      swap1\n      pop\n        /* \"#utility.yul\":12663:12666   */\n      dup2\n        /* \"#utility.yul\":12660:12661   */\n      0x00\n        /* \"#utility.yul\":12653:12667   */\n      mstore\n        /* \"#utility.yul\":12697:12701   */\n      0x20\n        /* \"#utility.yul\":12694:12695   */\n      0x00\n        /* \"#utility.yul\":12684:12702   */\n      keccak256\n        /* \"#utility.yul\":12676:12702   */\n      swap1\n      pop\n        /* \"#utility.yul\":12568:12709   */\n      swap2\n      swap1\n      pop\n      jump\t// out\n        /* \"#utility.yul\":12715:12808   */\n    tag_120:\n        /* \"#utility.yul\":12752:12758   */\n      0x00\n        /* \"#utility.yul\":12799:12801   */\n      0x20\n        /* \"#utility.yul\":12794:12796   */\n      0x1f\n        /* \"#utility.yul\":12787:12792   */\n      dup4\n        /* \"#utility.yul\":12783:12797   */\n      add\n        /* \"#utility.yul\":12779:12802   */\n      div\n        /* \"#utility.yul\":12769:12802   */\n      swap1\n      pop\n        /* \"#utility.yul\":12715:12808   */\n      swap2\n      swap1\n      pop\n      jump\t// out\n        /* \"#utility.yul\":12814:12921   */\n    tag_121:\n        /* \"#utility.yul\":12858:12866   */\n      0x00\n        /* \"#utility.yul\":12908:12913   */\n      dup3\n        /* \"#utility.yul\":12902:12906   */\n      dup3\n        /* \"#utility.yul\":12898:12914   */\n      shl\n        /* \"#utility.yul\":12877:12914   */\n      swap1\n      pop\n        /* \"#utility.yul\":12814:12921   */\n      swap3\n      swap2\n      pop\n      pop\n      jump\t// out\n        /* \"#utility.yul\":12927:13320   */\n    tag_122:\n        /* \"#utility.yul\":12996:13002   */\n      0x00\n        /* \"#utility.yul\":13046:13047   */\n      0x08\n        /* \"#utility.yul\":13034:13044   */\n      dup4\n        /* \"#utility.yul\":13030:13048   */\n      mul\n        /* \"#utility.yul\":13069:13166   */\n      tag_254\n        /* \"#utility.yul\":13099:13165   */\n      0xffffffffffffffffffffffffffffffffffffffffffffffffffffffffffffffff\n        /* \"#utility.yul\":13088:13097   */\n      dup3\n        /* \"#utility.yul\":13069:13166   */\n      tag_121\n      jump\t// in\n    tag_254:\n        /* \"#utility.yul\":13187:13226   */\n      tag_255\n        /* \"#utility.yul\":13217:13225   */\n      dup7\n        /* \"#utility.yul\":13206:13215   */\n      dup4\n        /* \"#utility.yul\":13187:13226   */\n      tag_121\n      jump\t// in\n    tag_255:\n        /* \"#utility.yul\":13175:13226   */\n      swap6\n      pop\n        /* \"#utility.yul\":13259:13263   */\n      dup1\n        /* \"#utility.yul\":13255:13264   */\n      not\n        /* \"#utility.yul\":13248:13253   */\n      dup5\n        /* \"#utility.yul\":13244:13265   */\n      and\n        /* \"#utility.yul\":13235:13265   */\n      swap4\n      pop\n        /* \"#utility.yul\":13308:13312   */\n      dup1\n        /* \"#utility.yul\":13298:13306   */\n      dup7\n        /* \"#utility.yul\":13294:13313   */\n      and\n        /* \"#utility.yul\":13287:13292   */\n      dup5\n        /* \"#utility.yul\":13284:13314   */\n      or\n        /* \"#utility.yul\":13274:13314   */\n      swap3\n      pop\n        /* \"#utility.yul\":13003:13320   */\n      pop\n      pop\n        /* \"#utility.yul\":12927:13320   */\n      swap4\n      swap3\n      pop\n      pop\n      pop\n      jump\t// out\n        /* \"#utility.yul\":13326:13386   */\n    tag_123:\n        /* \"#utility.yul\":13354:13357   */\n      0x00\n        /* \"#utility.yul\":13375:13380   */\n      dup2\n        /* \"#utility.yul\":13368:13380   */\n      swap1\n      pop\n        /* \"#utility.yul\":13326:13386   */\n      swap2\n      swap1\n      pop\n      jump\t// out\n        /* \"#utility.yul\":13392:13534   */\n    tag_124:\n        /* \"#utility.yul\":13442:13451   */\n      0x00\n        /* \"#utility.yul\":13475:13528   */\n      tag_258\n        /* \"#utility.yul\":13493:13527   */\n      tag_259\n        /* \"#utility.yul\":13502:13526   */\n      tag_260\n        /* \"#utility.yul\":13520:13525   */\n      dup5\n        /* \"#utility.yul\":13502:13526   */\n      tag_84\n      jump\t// in\n    tag_260:\n        /* \"#utility.yul\":13493:13527   */\n      tag_123\n      jump\t// in\n    tag_259:\n        /* \"#utility.yul\":13475:13528   */\n      tag_84\n      jump\t// in\n    tag_258:\n        /* \"#utility.yul\":13462:13528   */\n      swap1\n      pop\n        /* \"#utility.yul\":13392:13534   */\n      swap2\n      swap1\n      pop\n      jump\t// out\n        /* \"#utility.yul\":13540:13615   */\n    tag_125:\n        /* \"#utility.yul\":13583:13586   */\n      0x00\n        /* \"#utility.yul\":13604:13609   */\n      dup2\n        /* \"#utility.yul\":13597:13609   */\n      swap1\n      pop\n        /* \"#utility.yul\":13540:13615   */\n      swap2\n      swap1\n      pop\n      jump\t// out\n        /* \"#utility.yul\":13621:13890   */\n    tag_126:\n        /* \"#utility.yul\":13731:13770   */\n      tag_263\n        /* \"#utility.yul\":13762:13769   */\n      dup4\n        /* \"#utility.yul\":13731:13770   */\n      tag_124\n      jump\t// in\n    tag_263:\n        /* \"#utility.yul\":13792:13883   */\n      tag_264\n        /* \"#utility.yul\":13841:13882   */\n      tag_265\n        /* \"#utility.yul\":13865:13881   */\n      dup3\n        /* \"#utility.yul\":13841:13882   */\n      tag_125\n      jump\t// in\n    tag_265:\n        /* \"#utility.yul\":13833:13839   */\n      dup5\n        /* \"#utility.yul\":13826:13830   */\n      dup5\n        /* \"#utility.yul\":13820:13831   */\n      sload\n        /* \"#utility.yul\":13792:13883   */\n      tag_122\n      jump\t// in\n    tag_264:\n        /* \"#utility.yul\":13786:13790   */\n      dup3\n        /* \"#utility.yul\":13779:13884   */\n      sstore\n        /* \"#utility.yul\":13697:13890   */\n      pop\n        /* \"#utility.yul\":13621:13890   */\n      pop\n      pop\n      pop\n      jump\t// out\n        /* \"#utility.yul\":13896:13969   */\n    tag_127:\n        /* \"#utility.yul\":13941:13944   */\n      0x00\n        /* \"#utility.yul\":13896:13969   */\n      swap1\n      jump\t// out\n        /* \"#utility.yul\":13975:14164   */\n    tag_128:\n        /* \"#utility.yul\":14052:14084   */\n      tag_268\n      tag_127\n      jump\t// in\n    tag_268:\n        /* \"#utility.yul\":14093:14158   */\n      tag_269\n        /* \"#utility.yul\":14151:14157   */\n      dup2\n        /* \"#utility.yul\":14143:14149   */\n      dup5\n        /* \"#utility.yul\":14137:14141   */\n      dup5\n        /* \"#utility.yul\":14093:14158   */\n      tag_126\n      jump\t// in\n    tag_269:\n        /* \"#utility.yul\":14028:14164   */\n      pop\n        /* \"#utility.yul\":13975:14164   */\n      pop\n      pop\n      jump\t// out\n        /* \"#utility.yul\":14170:14356   */\n    tag_129:\n        /* \"#utility.yul\":14230:14350   */\n    tag_271:\n        /* \"#utility.yul\":14247:14250   */\n      dup2\n        /* \"#utility.yul\":14240:14245   */\n      dup2\n        /* \"#utility.yul\":14237:14251   */\n      lt\n        /* \"#utility.yul\":14230:14350   */\n      iszero\n      tag_273\n      jumpi\n        /* \"#utility.yul\":14301:14340   */\n      tag_274\n        /* \"#utility.yul\":14338:14339   */\n      0x00\n        /* \"#utility.yul\":14331:14336   */\n      dup3\n        /* \"#utility.yul\":14301:14340   */\n      tag_128\n      jump\t// in\n    tag_274:\n        /* \"#utility.yul\":14274:14275   */\n      0x01\n        /* \"#utility.yul\":14267:14272   */\n      dup2\n        /* \"#utility.yul\":14263:14276   */\n      add\n        /* \"#utility.yul\":14254:14276   */\n      swap1\n      pop\n        /* \"#utility.yul\":14230:14350   */\n      jump(tag_271)\n    tag_273:\n        /* \"#utility.yul\":14170:14356   */\n      pop\n      pop\n      jump\t// out\n        /* \"#utility.yul\":14362:14905   */\n    tag_130:\n        /* \"#utility.yul\":14463:14465   */\n      0x1f\n        /* \"#utility.yul\":14458:14461   */\n      dup3\n        /* \"#utility.yul\":14455:14466   */\n      gt\n        /* \"#utility.yul\":14452:14898   */\n      iszero\n      tag_276\n      jumpi\n        /* \"#utility.yul\":14497:14535   */\n      tag_277\n        /* \"#utility.yul\":14529:14534   */\n      dup2\n        /* \"#utility.yul\":14497:14535   */\n      tag_119\n      jump\t// in\n    tag_277:\n        /* \"#utility.yul\":14581:14610   */\n      tag_278\n        /* \"#utility.yul\":14599:14609   */\n      dup5\n        /* \"#utility.yul\":14581:14610   */\n      tag_120\n      jump\t// in\n    tag_278:\n        /* \"#utility.yul\":14571:14579   */\n      dup2\n        /* \"#utility.yul\":14567:14611   */\n      add\n        /* \"#utility.yul\":14764:14766   */\n      0x20\n        /* \"#utility.yul\":14752:14762   */\n      dup6\n        /* \"#utility.yul\":14749:14767   */\n      lt\n        /* \"#utility.yul\":14746:14795   */\n      iszero\n      tag_279\n      jumpi\n        /* \"#utility.yul\":14785:14793   */\n      dup2\n        /* \"#utility.yul\":14770:14793   */\n      swap1\n      pop\n        /* \"#utility.yul\":14746:14795   */\n    tag_279:\n        /* \"#utility.yul\":14808:14888   */\n      tag_280\n        /* \"#utility.yul\":14864:14886   */\n      tag_281\n        /* \"#utility.yul\":14882:14885   */\n      dup6\n        /* \"#utility.yul\":14864:14886   */\n      tag_120\n      jump\t// in\n    tag_281:\n        /* \"#utility.yul\":14854:14862   */\n      dup4\n        /* \"#utility.yul\":14850:14887   */\n      add\n        /* \"#utility.yul\":14837:14848   */\n      dup3\n        /* \"#utility.yul\":14808:14888   */\n      tag_129\n      jump\t// in\n    tag_280:\n        /* \"#utility.yul\":14467:14898   */\n      pop\n      pop\n        /* \"#utility.yul\":14452:14898   */\n    tag_276:\n        /* \"#utility.yul\":14362:14905   */\n      pop\n      pop\n      pop\n      jump\t// out\n        /* \"#utility.yul\":14911:15028   */\n    tag_131:\n        /* \"#utility.yul\":14965:14973   */\n      0x00\n        /* \"#utility.yul\":15015:15020   */\n      dup3\n        /* \"#utility.yul\":15009:15013   */\n      dup3\n        /* \"#utility.yul\":15005:15021   */\n      shr\n        /* \"#utility.yul\":14984:15021   */\n      swap1\n      pop\n        /* \"#utility.yul\":14911:15028   */\n      swap3\n      swap2\n      pop\n      pop\n      jump\t// out\n        /* \"#utility.yul\":15034:15203   */\n    tag_132:\n        /* \"#utility.yul\":15078:15084   */\n      0x00\n        /* \"#utility.yul\":15111:15162   */\n      tag_284\n        /* \"#utility.yul\":15159:15160   */\n      0x00\n        /* \"#utility.yul\":15155:15161   */\n      not\n        /* \"#utility.yul\":15147:15152   */\n      dup5\n        /* \"#utility.yul\":15144:15145   */\n      0x08\n        /* \"#utility.yul\":15140:15153   */\n      mul\n        /* \"#utility.yul\":15111:15162   */\n      tag_131\n      jump\t// in\n    tag_284:\n        /* \"#utility.yul\":15107:15163   */\n      not\n        /* \"#utility.yul\":15192:15196   */\n      dup1\n        /* \"#utility.yul\":15186:15190   */\n      dup4\n        /* \"#utility.yul\":15182:15197   */\n      and\n        /* \"#utility.yul\":15172:15197   */\n      swap2\n      pop\n        /* \"#utility.yul\":15085:15203   */\n      pop\n        /* \"#utility.yul\":15034:15203   */\n      swap3\n      swap2\n      pop\n      pop\n      jump\t// out\n        /* \"#utility.yul\":15208:15503   */\n    tag_133:\n        /* \"#utility.yul\":15284:15288   */\n      0x00\n        /* \"#utility.yul\":15430:15459   */\n      tag_286\n        /* \"#utility.yul\":15455:15458   */\n      dup4\n        /* \"#utility.yul\":15449:15453   */\n      dup4\n        /* \"#utility.yul\":15430:15459   */\n      tag_132\n      jump\t// in\n    tag_286:\n        /* \"#utility.yul\":15422:15459   */\n      swap2\n      pop\n        /* \"#utility.yul\":15492:15495   */\n      dup3\n        /* \"#utility.yul\":15489:15490   */\n      0x02\n        /* \"#utility.yul\":15485:15496   */\n      mul\n        /* \"#utility.yul\":15479:15483   */\n      dup3\n        /* \"#utility.yul\":15476:15497   */\n      or\n        /* \"#utility.yul\":15468:15497   */\n      swap1\n      pop\n        /* \"#utility.yul\":15208:15503   */\n      swap3\n      swap2\n      pop\n      pop\n      jump\t// out\n        /* \"#utility.yul\":15508:16903   */\n    tag_77:\n        /* \"#utility.yul\":15625:15662   */\n      tag_288\n        /* \"#utility.yul\":15658:15661   */\n      dup3\n        /* \"#utility.yul\":15625:15662   */\n      tag_86\n      jump\t// in\n    tag_288:\n        /* \"#utility.yul\":15727:15745   */\n      0xffffffffffffffff\n        /* \"#utility.yul\":15719:15725   */\n      dup2\n        /* \"#utility.yul\":15716:15746   */\n      gt\n        /* \"#utility.yul\":15713:15769   */\n      iszero\n      tag_289\n      jumpi\n        /* \"#utility.yul\":15749:15767   */\n      tag_290\n      tag_101\n      jump\t// in\n    tag_290:\n        /* \"#utility.yul\":15713:15769   */\n    tag_289:\n        /* \"#utility.yul\":15793:15831   */\n      tag_291\n        /* \"#utility.yul\":15825:15829   */\n      dup3\n        /* \"#utility.yul\":15819:15830   */\n      sload\n        /* \"#utility.yul\":15793:15831   */\n      tag_41\n      jump\t// in\n    tag_291:\n        /* \"#utility.yul\":15878:15945   */\n      tag_292\n        /* \"#utility.yul\":15938:15944   */\n      dup3\n        /* \"#utility.yul\":15930:15936   */\n      dup3\n        /* \"#utility.yul\":15924:15928   */\n      dup6\n        /* \"#utility.yul\":15878:15945   */\n      tag_130\n      jump\t// in\n    tag_292:\n        /* \"#utility.yul\":15972:15973   */\n      0x00\n        /* \"#utility.yul\":15996:16000   */\n      0x20\n        /* \"#utility.yul\":15983:16000   */\n      swap1\n      pop\n        /* \"#utility.yul\":16028:16030   */\n      0x1f\n        /* \"#utility.yul\":16020:16026   */\n      dup4\n        /* \"#utility.yul\":16017:16031   */\n      gt\n        /* \"#utility.yul\":16045:16046   */\n      0x01\n        /* \"#utility.yul\":16040:16658   */\n      dup2\n      eq\n      tag_294\n      jumpi\n        /* \"#utility.yul\":16702:16703   */\n      0x00\n        /* \"#utility.yul\":16719:16725   */\n      dup5\n        /* \"#utility.yul\":16716:16793   */\n      iszero\n      tag_295\n      jumpi\n        /* \"#utility.yul\":16768:16777   */\n      dup3\n        /* \"#utility.yul\":16763:16766   */\n      dup8\n        /* \"#utility.yul\":16759:16778   */\n      add\n        /* \"#utility.yul\":16753:16779   */\n      mload\n        /* \"#utility.yul\":16744:16779   */\n      swap1\n      pop\n        /* \"#utility.yul\":16716:16793   */\n    tag_295:\n        /* \"#utility.yul\":16819:16886   */\n      tag_296\n        /* \"#utility.yul\":16879:16885   */\n      dup6\n        /* \"#utility.yul\":16872:16877   */\n      dup3\n        /* \"#utility.yul\":16819:16886   */\n      tag_133\n      jump\t// in\n    tag_296:\n        /* \"#utility.yul\":16813:16817   */\n      dup7\n        /* \"#utility.yul\":16806:16887   */\n      sstore\n        /* \"#utility.yul\":16675:16897   */\n      pop\n        /* \"#utility.yul\":16010:16897   */\n      jump(tag_293)\n        /* \"#utility.yul\":16040:16658   */\n    tag_294:\n        /* \"#utility.yul\":16092:16096   */\n      0x1f\n        /* \"#utility.yul\":16088:16097   */\n      not\n        /* \"#utility.yul\":16080:16086   */\n      dup5\n        /* \"#utility.yul\":16076:16098   */\n      and\n        /* \"#utility.yul\":16126:16163   */\n      tag_297\n        /* \"#utility.yul\":16158:16162   */\n      dup7\n        /* \"#utility.yul\":16126:16163   */\n      tag_119\n      jump\t// in\n    tag_297:\n        /* \"#utility.yul\":16185:16186   */\n      0x00\n        /* \"#utility.yul\":16199:16407   */\n    tag_298:\n        /* \"#utility.yul\":16213:16220   */\n      dup3\n        /* \"#utility.yul\":16210:16211   */\n      dup2\n        /* \"#utility.yul\":16207:16221   */\n      lt\n        /* \"#utility.yul\":16199:16407   */\n      iszero\n      tag_300\n      jumpi\n        /* \"#utility.yul\":16292:16301   */\n      dup5\n        /* \"#utility.yul\":16287:16290   */\n      dup10\n        /* \"#utility.yul\":16283:16302   */\n      add\n        /* \"#utility.yul\":16277:16303   */\n      mload\n        /* \"#utility.yul\":16269:16275   */\n      dup3\n        /* \"#utility.yul\":16262:16304   */\n      sstore\n        /* \"#utility.yul\":16343:16344   */\n      0x01\n        /* \"#utility.yul\":16335:16341   */\n      dup3\n        /* \"#utility.yul\":16331:16345   */\n      add\n        /* \"#utility.yul\":16321:16345   */\n      swap2\n      pop\n        /* \"#utility.yul\":16390:16392   */\n      0x20\n        /* \"#utility.yul\":16379:16388   */\n      dup6\n        /* \"#utility.yul\":16375:16393   */\n      add\n        /* \"#utility.yul\":16362:16393   */\n      swap5\n      pop\n        /* \"#utility.yul\":16236:16240   */\n      0x20\n        /* \"#utility.yul\":16233:16234   */\n      dup2\n        /* \"#utility.yul\":16229:16241   */\n      add\n        /* \"#utility.yul\":16224:16241   */\n      swap1\n      pop\n        /* \"#utility.yul\":16199:16407   */\n      jump(tag_298)\n    tag_300:\n        /* \"#utility.yul\":16435:16441   */\n      dup7\n        /* \"#utility.yul\":16426:16433   */\n      dup4\n        /* \"#utility.yul\":16423:16442   */\n      lt\n        /* \"#utility.yul\":16420:16599   */\n      iszero\n      tag_301\n      jumpi\n        /* \"#utility.yul\":16493:16502   */\n      dup5\n        /* \"#utility.yul\":16488:16491   */\n      dup10\n        /* \"#utility.yul\":16484:16503   */\n      add\n        /* \"#utility.yul\":16478:16504   */\n      mload\n        /* \"#utility.yul\":16536:16584   */\n      tag_302\n        /* \"#utility.yul\":16578:16582   */\n      0x1f\n        /* \"#utility.yul\":16570:16576   */\n      dup10\n        /* \"#utility.yul\":16566:16583   */\n      and\n        /* \"#utility.yul\":16555:16564   */\n      dup3\n        /* \"#utility.yul\":16536:16584   */\n      tag_132\n      jump\t// in\n    tag_302:\n        /* \"#utility.yul\":16528:16534   */\n      dup4\n        /* \"#utility.yul\":16521:16585   */\n      sstore\n        /* \"#utility.yul\":16443:16599   */\n      pop\n        /* \"#utility.yul\":16420:16599   */\n    tag_301:\n        /* \"#utility.yul\":16645:16646   */\n      0x01\n        /* \"#utility.yul\":16641:16642   */\n      0x02\n        /* \"#utility.yul\":16633:16639   */\n      dup9\n        /* \"#utility.yul\":16629:16643   */\n      mul\n        /* \"#utility.yul\":16625:16647   */\n      add\n        /* \"#utility.yul\":16619:16623   */\n      dup9\n        /* \"#utility.yul\":16612:16648   */\n      sstore\n        /* \"#utility.yul\":16047:16658   */\n      pop\n      pop\n      pop\n        /* \"#utility.yul\":16010:16897   */\n    tag_293:\n      pop\n        /* \"#utility.yul\":15600:16903   */\n      pop\n      pop\n      pop\n        /* \"#utility.yul\":15508:16903   */\n      pop\n      pop\n      jump\t// out\n\n    auxdata: 0xa2646970667358221220cdeee9431372c10ea280f82857be07cdaf9aa1e890cc7dd82044b788577a504e64736f6c634300081a0033\n}\n",
				"bytecode": {
					"linkReferences": {},
					"object": "6080604052348015600e575f80fd5b50335f806101000a81548173ffffffffffffffffffffffffffffffffffffffff021916908373ffffffffffffffffffffffffffffffffffffffff1602179055506110f68061005b5f395ff3fe608060405260043610610049575f3560e01c806312065fe01461004d5780633ccfd60b1461007757806373d4a13a1461008d578063782154df146100be5780638da5cb5b146100da575b5f80fd5b348015610058575f80fd5b50610061610104565b60405161006e91906107e0565b60405180910390f35b348015610082575f80fd5b5061008b61010b565b005b348015610098575f80fd5b506100a1610244565b6040516100b59897969594939291906108c2565b60405180910390f35b6100d860048036038101906100d39190610acf565b6105c8565b005b3480156100e5575f80fd5b506100ee6107a5565b6040516100fb9190610c34565b60405180910390f35b5f47905090565b5f8054906101000a900473ffffffffffffffffffffffffffffffffffffffff1673ffffffffffffffffffffffffffffffffffffffff163373ffffffffffffffffffffffffffffffffffffffff1614610198576040517f08c379a000000000000000000000000000000000000000000000000000000000815260040161018f90610cbd565b60405180910390fd5b5f4790505f81116101de576040517f08c379a00000000000000000000000000000000000000000000000000000000081526004016101d590610d4b565b60405180910390fd5b5f8054906101000a900473ffffffffffffffffffffffffffffffffffffffff1673ffffffffffffffffffffffffffffffffffffffff166108fc8290811502906040515f60405180830381858888f19350505050158015610240573d5f803e3d5ffd5b5050565b6001805f01805461025490610d96565b80601f016020809104026020016040519081016040528092919081815260200182805461028090610d96565b80156102cb5780601f106102a2576101008083540402835291602001916102cb565b820191905f5260205f20905b8154815290600101906020018083116102ae57829003601f168201915b5050505050908060010180546102e090610d96565b80601f016020809104026020016040519081016040528092919081815260200182805461030c90610d96565b80156103575780601f1061032e57610100808354040283529160200191610357565b820191905f5260205f20905b81548152906001019060200180831161033a57829003601f168201915b50505050509080600201805461036c90610d96565b80601f016020809104026020016040519081016040528092919081815260200182805461039890610d96565b80156103e35780601f106103ba576101008083540402835291602001916103e3565b820191905f5260205f20905b8154815290600101906020018083116103c657829003601f168201915b5050505050908060030180546103f890610d96565b80601f016020809104026020016040519081016040528092919081815260200182805461042490610d96565b801561046f5780601f106104465761010080835404028352916020019161046f565b820191905f5260205f20905b81548152906001019060200180831161045257829003601f168201915b50505050509080600401805461048490610d96565b80601f01602080910402602001604051908101604052809291908181526020018280546104b090610d96565b80156104fb5780601f106104d2576101008083540402835291602001916104fb565b820191905f5260205f20905b8154815290600101906020018083116104de57829003601f168201915b50505050509080600501805461051090610d96565b80601f016020809104026020016040519081016040528092919081815260200182805461053c90610d96565b80156105875780601f1061055e57610100808354040283529160200191610587565b820191905f5260205f20905b81548152906001019060200180831161056a57829003601f168201915b505050505090806006015f9054906101000a90045f0b908060060160019054906101000a900473ffffffffffffffffffffffffffffffffffffffff16905088565b67016345785d8a000080341015610614576040517f08c379a000000000000000000000000000000000000000000000000000000000815260040161060b90610e36565b60405180910390fd5b604051806101000160405280898152602001888152602001878152602001868152602001858152602001848152602001835f0b81526020013373ffffffffffffffffffffffffffffffffffffffff1681525060015f820151815f01908161067b9190610ff1565b5060208201518160010190816106919190610ff1565b5060408201518160020190816106a79190610ff1565b5060608201518160030190816106bd9190610ff1565b5060808201518160040190816106d39190610ff1565b5060a08201518160050190816106e99190610ff1565b5060c0820151816006015f6101000a81548160ff02191690835f0b60ff16021790555060e08201518160060160016101000a81548173ffffffffffffffffffffffffffffffffffffffff021916908373ffffffffffffffffffffffffffffffffffffffff1602179055509050507f870247eb151fd35c4907322d059c22cbe7eb7930b7b7116d4a107cbbb5378d1288888888888888336040516107939897969594939291906108c2565b60405180910390a15050505050505050565b5f8054906101000a900473ffffffffffffffffffffffffffffffffffffffff1681565b5f819050919050565b6107da816107c8565b82525050565b5f6020820190506107f35f8301846107d1565b92915050565b5f81519050919050565b5f82825260208201905092915050565b8281835e5f83830152505050565b5f601f19601f8301169050919050565b5f61083b826107f9565b6108458185610803565b9350610855818560208601610813565b61085e81610821565b840191505092915050565b5f815f0b9050919050565b61087d81610869565b82525050565b5f73ffffffffffffffffffffffffffffffffffffffff82169050919050565b5f6108ac82610883565b9050919050565b6108bc816108a2565b82525050565b5f610100820190508181035f8301526108db818b610831565b905081810360208301526108ef818a610831565b905081810360408301526109038189610831565b905081810360608301526109178188610831565b9050818103608083015261092b8187610831565b905081810360a083015261093f8186610831565b905061094e60c0830185610874565b61095b60e08301846108b3565b9998505050505050505050565b5f604051905090565b5f80fd5b5f80fd5b5f80fd5b5f80fd5b7f4e487b71000000000000000000000000000000000000000000000000000000005f52604160045260245ffd5b6109b782610821565b810181811067ffffffffffffffff821117156109d6576109d5610981565b5b80604052505050565b5f6109e8610968565b90506109f482826109ae565b919050565b5f67ffffffffffffffff821115610a1357610a12610981565b5b610a1c82610821565b9050602081019050919050565b828183375f83830152505050565b5f610a49610a44846109f9565b6109df565b905082815260208101848484011115610a6557610a6461097d565b5b610a70848285610a29565b509392505050565b5f82601f830112610a8c57610a8b610979565b5b8135610a9c848260208601610a37565b91505092915050565b610aae81610869565b8114610ab8575f80fd5b50565b5f81359050610ac981610aa5565b92915050565b5f805f805f805f60e0888a031215610aea57610ae9610971565b5b5f88013567ffffffffffffffff811115610b0757610b06610975565b5b610b138a828b01610a78565b975050602088013567ffffffffffffffff811115610b3457610b33610975565b5b610b408a828b01610a78565b965050604088013567ffffffffffffffff811115610b6157610b60610975565b5b610b6d8a828b01610a78565b955050606088013567ffffffffffffffff811115610b8e57610b8d610975565b5b610b9a8a828b01610a78565b945050608088013567ffffffffffffffff811115610bbb57610bba610975565b5b610bc78a828b01610a78565b93505060a088013567ffffffffffffffff811115610be857610be7610975565b5b610bf48a828b01610a78565b92505060c0610c058a828b01610abb565b91505092959891949750929550565b5f610c1e82610883565b9050919050565b610c2e81610c14565b82525050565b5f602082019050610c475f830184610c25565b92915050565b7f536f6c6f20656c2070726f706965746172696f207075656465207265746972615f8201527f72206c6f7320666f6e646f730000000000000000000000000000000000000000602082015250565b5f610ca7602c83610803565b9150610cb282610c4d565b604082019050919050565b5f6020820190508181035f830152610cd481610c9b565b9050919050565b7f4e6f207365207469656e656e20666f6e646f7320656e20656c20636f6e7472615f8201527f746f20746f646176696100000000000000000000000000000000000000000000602082015250565b5f610d35602a83610803565b9150610d4082610cdb565b604082019050919050565b5f6020820190508181035f830152610d6281610d29565b9050919050565b7f4e487b71000000000000000000000000000000000000000000000000000000005f52602260045260245ffd5b5f6002820490506001821680610dad57607f821691505b602082108103610dc057610dbf610d69565b5b50919050565b7f4e6f207469656e652073616c646f20656e2041564158207061726120656a63755f8201527f7461720000000000000000000000000000000000000000000000000000000000602082015250565b5f610e20602383610803565b9150610e2b82610dc6565b604082019050919050565b5f6020820190508181035f830152610e4d81610e14565b9050919050565b5f819050815f5260205f209050919050565b5f6020601f8301049050919050565b5f82821b905092915050565b5f60088302610eb07fffffffffffffffffffffffffffffffffffffffffffffffffffffffffffffffff82610e75565b610eba8683610e75565b95508019841693508086168417925050509392505050565b5f819050919050565b5f610ef5610ef0610eeb846107c8565b610ed2565b6107c8565b9050919050565b5f819050919050565b610f0e83610edb565b610f22610f1a82610efc565b848454610e81565b825550505050565b5f90565b610f36610f2a565b610f41818484610f05565b505050565b5b81811015610f6457610f595f82610f2e565b600181019050610f47565b5050565b601f821115610fa957610f7a81610e54565b610f8384610e66565b81016020851015610f92578190505b610fa6610f9e85610e66565b830182610f46565b50505b505050565b5f82821c905092915050565b5f610fc95f1984600802610fae565b1980831691505092915050565b5f610fe18383610fba565b9150826002028217905092915050565b610ffa826107f9565b67ffffffffffffffff81111561101357611012610981565b5b61101d8254610d96565b611028828285610f68565b5f60209050601f831160018114611059575f8415611047578287015190505b6110518582610fd6565b8655506110b8565b601f19841661106786610e54565b5f5b8281101561108e57848901518255600182019150602085019450602081019050611069565b868310156110ab57848901516110a7601f891682610fba565b8355505b6001600288020188555050505b50505050505056fea2646970667358221220cdeee9431372c10ea280f82857be07cdaf9aa1e890cc7dd82044b788577a504e64736f6c634300081a0033",
					"opcodes": "PUSH1 0x80 PUSH1 0x40 MSTORE CALLVALUE DUP1 ISZERO PUSH1 0xE JUMPI PUSH0 DUP1 REVERT JUMPDEST POP CALLER PUSH0 DUP1 PUSH2 0x100 EXP DUP2 SLOAD DUP2 PUSH20 0xFFFFFFFFFFFFFFFFFFFFFFFFFFFFFFFFFFFFFFFF MUL NOT AND SWAP1 DUP4 PUSH20 0xFFFFFFFFFFFFFFFFFFFFFFFFFFFFFFFFFFFFFFFF AND MUL OR SWAP1 SSTORE POP PUSH2 0x10F6 DUP1 PUSH2 0x5B PUSH0 CODECOPY PUSH0 RETURN INVALID PUSH1 0x80 PUSH1 0x40 MSTORE PUSH1 0x4 CALLDATASIZE LT PUSH2 0x49 JUMPI PUSH0 CALLDATALOAD PUSH1 0xE0 SHR DUP1 PUSH4 0x12065FE0 EQ PUSH2 0x4D JUMPI DUP1 PUSH4 0x3CCFD60B EQ PUSH2 0x77 JUMPI DUP1 PUSH4 0x73D4A13A EQ PUSH2 0x8D JUMPI DUP1 PUSH4 0x782154DF EQ PUSH2 0xBE JUMPI DUP1 PUSH4 0x8DA5CB5B EQ PUSH2 0xDA JUMPI JUMPDEST PUSH0 DUP1 REVERT JUMPDEST CALLVALUE DUP1 ISZERO PUSH2 0x58 JUMPI PUSH0 DUP1 REVERT JUMPDEST POP PUSH2 0x61 PUSH2 0x104 JUMP JUMPDEST PUSH1 0x40 MLOAD PUSH2 0x6E SWAP2 SWAP1 PUSH2 0x7E0 JUMP JUMPDEST PUSH1 0x40 MLOAD DUP1 SWAP2 SUB SWAP1 RETURN JUMPDEST CALLVALUE DUP1 ISZERO PUSH2 0x82 JUMPI PUSH0 DUP1 REVERT JUMPDEST POP PUSH2 0x8B PUSH2 0x10B JUMP JUMPDEST STOP JUMPDEST CALLVALUE DUP1 ISZERO PUSH2 0x98 JUMPI PUSH0 DUP1 REVERT JUMPDEST POP PUSH2 0xA1 PUSH2 0x244 JUMP JUMPDEST PUSH1 0x40 MLOAD PUSH2 0xB5 SWAP9 SWAP8 SWAP7 SWAP6 SWAP5 SWAP4 SWAP3 SWAP2 SWAP1 PUSH2 0x8C2 JUMP JUMPDEST PUSH1 0x40 MLOAD DUP1 SWAP2 SUB SWAP1 RETURN JUMPDEST PUSH2 0xD8 PUSH1 0x4 DUP1 CALLDATASIZE SUB DUP2 ADD SWAP1 PUSH2 0xD3 SWAP2 SWAP1 PUSH2 0xACF JUMP JUMPDEST PUSH2 0x5C8 JUMP JUMPDEST STOP JUMPDEST CALLVALUE DUP1 ISZERO PUSH2 0xE5 JUMPI PUSH0 DUP1 REVERT JUMPDEST POP PUSH2 0xEE PUSH2 0x7A5 JUMP JUMPDEST PUSH1 0x40 MLOAD PUSH2 0xFB SWAP2 SWAP1 PUSH2 0xC34 JUMP JUMPDEST PUSH1 0x40 MLOAD DUP1 SWAP2 SUB SWAP1 RETURN JUMPDEST PUSH0 SELFBALANCE SWAP1 POP SWAP1 JUMP JUMPDEST PUSH0 DUP1 SLOAD SWAP1 PUSH2 0x100 EXP SWAP1 DIV PUSH20 0xFFFFFFFFFFFFFFFFFFFFFFFFFFFFFFFFFFFFFFFF AND PUSH20 0xFFFFFFFFFFFFFFFFFFFFFFFFFFFFFFFFFFFFFFFF AND CALLER PUSH20 0xFFFFFFFFFFFFFFFFFFFFFFFFFFFFFFFFFFFFFFFF AND EQ PUSH2 0x198 JUMPI PUSH1 0x40 MLOAD PUSH32 0x8C379A000000000000000000000000000000000000000000000000000000000 DUP2 MSTORE PUSH1 0x4 ADD PUSH2 0x18F SWAP1 PUSH2 0xCBD JUMP JUMPDEST PUSH1 0x40 MLOAD DUP1 SWAP2 SUB SWAP1 REVERT JUMPDEST PUSH0 SELFBALANCE SWAP1 POP PUSH0 DUP2 GT PUSH2 0x1DE JUMPI PUSH1 0x40 MLOAD PUSH32 0x8C379A000000000000000000000000000000000000000000000000000000000 DUP2 MSTORE PUSH1 0x4 ADD PUSH2 0x1D5 SWAP1 PUSH2 0xD4B JUMP JUMPDEST PUSH1 0x40 MLOAD DUP1 SWAP2 SUB SWAP1 REVERT JUMPDEST PUSH0 DUP1 SLOAD SWAP1 PUSH2 0x100 EXP SWAP1 DIV PUSH20 0xFFFFFFFFFFFFFFFFFFFFFFFFFFFFFFFFFFFFFFFF AND PUSH20 0xFFFFFFFFFFFFFFFFFFFFFFFFFFFFFFFFFFFFFFFF AND PUSH2 0x8FC DUP3 SWAP1 DUP2 ISZERO MUL SWAP1 PUSH1 0x40 MLOAD PUSH0 PUSH1 0x40 MLOAD DUP1 DUP4 SUB DUP2 DUP6 DUP9 DUP9 CALL SWAP4 POP POP POP POP ISZERO DUP1 ISZERO PUSH2 0x240 JUMPI RETURNDATASIZE PUSH0 DUP1 RETURNDATACOPY RETURNDATASIZE PUSH0 REVERT JUMPDEST POP POP JUMP JUMPDEST PUSH1 0x1 DUP1 PUSH0 ADD DUP1 SLOAD PUSH2 0x254 SWAP1 PUSH2 0xD96 JUMP JUMPDEST DUP1 PUSH1 0x1F ADD PUSH1 0x20 DUP1 SWAP2 DIV MUL PUSH1 0x20 ADD PUSH1 0x40 MLOAD SWAP1 DUP2 ADD PUSH1 0x40 MSTORE DUP1 SWAP3 SWAP2 SWAP1 DUP2 DUP2 MSTORE PUSH1 0x20 ADD DUP3 DUP1 SLOAD PUSH2 0x280 SWAP1 PUSH2 0xD96 JUMP JUMPDEST DUP1 ISZERO PUSH2 0x2CB JUMPI DUP1 PUSH1 0x1F LT PUSH2 0x2A2 JUMPI PUSH2 0x100 DUP1 DUP4 SLOAD DIV MUL DUP4 MSTORE SWAP2 PUSH1 0x20 ADD SWAP2 PUSH2 0x2CB JUMP JUMPDEST DUP3 ADD SWAP2 SWAP1 PUSH0 MSTORE PUSH1 0x20 PUSH0 KECCAK256 SWAP1 JUMPDEST DUP2 SLOAD DUP2 MSTORE SWAP1 PUSH1 0x1 ADD SWAP1 PUSH1 0x20 ADD DUP1 DUP4 GT PUSH2 0x2AE JUMPI DUP3 SWAP1 SUB PUSH1 0x1F AND DUP3 ADD SWAP2 JUMPDEST POP POP POP POP POP SWAP1 DUP1 PUSH1 0x1 ADD DUP1 SLOAD PUSH2 0x2E0 SWAP1 PUSH2 0xD96 JUMP JUMPDEST DUP1 PUSH1 0x1F ADD PUSH1 0x20 DUP1 SWAP2 DIV MUL PUSH1 0x20 ADD PUSH1 0x40 MLOAD SWAP1 DUP2 ADD PUSH1 0x40 MSTORE DUP1 SWAP3 SWAP2 SWAP1 DUP2 DUP2 MSTORE PUSH1 0x20 ADD DUP3 DUP1 SLOAD PUSH2 0x30C SWAP1 PUSH2 0xD96 JUMP JUMPDEST DUP1 ISZERO PUSH2 0x357 JUMPI DUP1 PUSH1 0x1F LT PUSH2 0x32E JUMPI PUSH2 0x100 DUP1 DUP4 SLOAD DIV MUL DUP4 MSTORE SWAP2 PUSH1 0x20 ADD SWAP2 PUSH2 0x357 JUMP JUMPDEST DUP3 ADD SWAP2 SWAP1 PUSH0 MSTORE PUSH1 0x20 PUSH0 KECCAK256 SWAP1 JUMPDEST DUP2 SLOAD DUP2 MSTORE SWAP1 PUSH1 0x1 ADD SWAP1 PUSH1 0x20 ADD DUP1 DUP4 GT PUSH2 0x33A JUMPI DUP3 SWAP1 SUB PUSH1 0x1F AND DUP3 ADD SWAP2 JUMPDEST POP POP POP POP POP SWAP1 DUP1 PUSH1 0x2 ADD DUP1 SLOAD PUSH2 0x36C SWAP1 PUSH2 0xD96 JUMP JUMPDEST DUP1 PUSH1 0x1F ADD PUSH1 0x20 DUP1 SWAP2 DIV MUL PUSH1 0x20 ADD PUSH1 0x40 MLOAD SWAP1 DUP2 ADD PUSH1 0x40 MSTORE DUP1 SWAP3 SWAP2 SWAP1 DUP2 DUP2 MSTORE PUSH1 0x20 ADD DUP3 DUP1 SLOAD PUSH2 0x398 SWAP1 PUSH2 0xD96 JUMP JUMPDEST DUP1 ISZERO PUSH2 0x3E3 JUMPI DUP1 PUSH1 0x1F LT PUSH2 0x3BA JUMPI PUSH2 0x100 DUP1 DUP4 SLOAD DIV MUL DUP4 MSTORE SWAP2 PUSH1 0x20 ADD SWAP2 PUSH2 0x3E3 JUMP JUMPDEST DUP3 ADD SWAP2 SWAP1 PUSH0 MSTORE PUSH1 0x20 PUSH0 KECCAK256 SWAP1 JUMPDEST DUP2 SLOAD DUP2 MSTORE SWAP1 PUSH1 0x1 ADD SWAP1 PUSH1 0x20 ADD DUP1 DUP4 GT PUSH2 0x3C6 JUMPI DUP3 SWAP1 SUB PUSH1 0x1F AND DUP3 ADD SWAP2 JUMPDEST POP POP POP POP POP SWAP1 DUP1 PUSH1 0x3 ADD DUP1 SLOAD PUSH2 0x3F8 SWAP1 PUSH2 0xD96 JUMP JUMPDEST DUP1 PUSH1 0x1F ADD PUSH1 0x20 DUP1 SWAP2 DIV MUL PUSH1 0x20 ADD PUSH1 0x40 MLOAD SWAP1 DUP2 ADD PUSH1 0x40 MSTORE DUP1 SWAP3 SWAP2 SWAP1 DUP2 DUP2 MSTORE PUSH1 0x20 ADD DUP3 DUP1 SLOAD PUSH2 0x424 SWAP1 PUSH2 0xD96 JUMP JUMPDEST DUP1 ISZERO PUSH2 0x46F JUMPI DUP1 PUSH1 0x1F LT PUSH2 0x446 JUMPI PUSH2 0x100 DUP1 DUP4 SLOAD DIV MUL DUP4 MSTORE SWAP2 PUSH1 0x20 ADD SWAP2 PUSH2 0x46F JUMP JUMPDEST DUP3 ADD SWAP2 SWAP1 PUSH0 MSTORE PUSH1 0x20 PUSH0 KECCAK256 SWAP1 JUMPDEST DUP2 SLOAD DUP2 MSTORE SWAP1 PUSH1 0x1 ADD SWAP1 PUSH1 0x20 ADD DUP1 DUP4 GT PUSH2 0x452 JUMPI DUP3 SWAP1 SUB PUSH1 0x1F AND DUP3 ADD SWAP2 JUMPDEST POP POP POP POP POP SWAP1 DUP1 PUSH1 0x4 ADD DUP1 SLOAD PUSH2 0x484 SWAP1 PUSH2 0xD96 JUMP JUMPDEST DUP1 PUSH1 0x1F ADD PUSH1 0x20 DUP1 SWAP2 DIV MUL PUSH1 0x20 ADD PUSH1 0x40 MLOAD SWAP1 DUP2 ADD PUSH1 0x40 MSTORE DUP1 SWAP3 SWAP2 SWAP1 DUP2 DUP2 MSTORE PUSH1 0x20 ADD DUP3 DUP1 SLOAD PUSH2 0x4B0 SWAP1 PUSH2 0xD96 JUMP JUMPDEST DUP1 ISZERO PUSH2 0x4FB JUMPI DUP1 PUSH1 0x1F LT PUSH2 0x4D2 JUMPI PUSH2 0x100 DUP1 DUP4 SLOAD DIV MUL DUP4 MSTORE SWAP2 PUSH1 0x20 ADD SWAP2 PUSH2 0x4FB JUMP JUMPDEST DUP3 ADD SWAP2 SWAP1 PUSH0 MSTORE PUSH1 0x20 PUSH0 KECCAK256 SWAP1 JUMPDEST DUP2 SLOAD DUP2 MSTORE SWAP1 PUSH1 0x1 ADD SWAP1 PUSH1 0x20 ADD DUP1 DUP4 GT PUSH2 0x4DE JUMPI DUP3 SWAP1 SUB PUSH1 0x1F AND DUP3 ADD SWAP2 JUMPDEST POP POP POP POP POP SWAP1 DUP1 PUSH1 0x5 ADD DUP1 SLOAD PUSH2 0x510 SWAP1 PUSH2 0xD96 JUMP JUMPDEST DUP1 PUSH1 0x1F ADD PUSH1 0x20 DUP1 SWAP2 DIV MUL PUSH1 0x20 ADD PUSH1 0x40 MLOAD SWAP1 DUP2 ADD PUSH1 0x40 MSTORE DUP1 SWAP3 SWAP2 SWAP1 DUP2 DUP2 MSTORE PUSH1 0x20 ADD DUP3 DUP1 SLOAD PUSH2 0x53C SWAP1 PUSH2 0xD96 JUMP JUMPDEST DUP1 ISZERO PUSH2 0x587 JUMPI DUP1 PUSH1 0x1F LT PUSH2 0x55E JUMPI PUSH2 0x100 DUP1 DUP4 SLOAD DIV MUL DUP4 MSTORE SWAP2 PUSH1 0x20 ADD SWAP2 PUSH2 0x587 JUMP JUMPDEST DUP3 ADD SWAP2 SWAP1 PUSH0 MSTORE PUSH1 0x20 PUSH0 KECCAK256 SWAP1 JUMPDEST DUP2 SLOAD DUP2 MSTORE SWAP1 PUSH1 0x1 ADD SWAP1 PUSH1 0x20 ADD DUP1 DUP4 GT PUSH2 0x56A JUMPI DUP3 SWAP1 SUB PUSH1 0x1F AND DUP3 ADD SWAP2 JUMPDEST POP POP POP POP POP SWAP1 DUP1 PUSH1 0x6 ADD PUSH0 SWAP1 SLOAD SWAP1 PUSH2 0x100 EXP SWAP1 DIV PUSH0 SIGNEXTEND SWAP1 DUP1 PUSH1 0x6 ADD PUSH1 0x1 SWAP1 SLOAD SWAP1 PUSH2 0x100 EXP SWAP1 DIV PUSH20 0xFFFFFFFFFFFFFFFFFFFFFFFFFFFFFFFFFFFFFFFF AND SWAP1 POP DUP9 JUMP JUMPDEST PUSH8 0x16345785D8A0000 DUP1 CALLVALUE LT ISZERO PUSH2 0x614 JUMPI PUSH1 0x40 MLOAD PUSH32 0x8C379A000000000000000000000000000000000000000000000000000000000 DUP2 MSTORE PUSH1 0x4 ADD PUSH2 0x60B SWAP1 PUSH2 0xE36 JUMP JUMPDEST PUSH1 0x40 MLOAD DUP1 SWAP2 SUB SWAP1 REVERT JUMPDEST PUSH1 0x40 MLOAD DUP1 PUSH2 0x100 ADD PUSH1 0x40 MSTORE DUP1 DUP10 DUP2 MSTORE PUSH1 0x20 ADD DUP9 DUP2 MSTORE PUSH1 0x20 ADD DUP8 DUP2 MSTORE PUSH1 0x20 ADD DUP7 DUP2 MSTORE PUSH1 0x20 ADD DUP6 DUP2 MSTORE PUSH1 0x20 ADD DUP5 DUP2 MSTORE PUSH1 0x20 ADD DUP4 PUSH0 SIGNEXTEND DUP2 MSTORE PUSH1 0x20 ADD CALLER PUSH20 0xFFFFFFFFFFFFFFFFFFFFFFFFFFFFFFFFFFFFFFFF AND DUP2 MSTORE POP PUSH1 0x1 PUSH0 DUP3 ADD MLOAD DUP2 PUSH0 ADD SWAP1 DUP2 PUSH2 0x67B SWAP2 SWAP1 PUSH2 0xFF1 JUMP JUMPDEST POP PUSH1 0x20 DUP3 ADD MLOAD DUP2 PUSH1 0x1 ADD SWAP1 DUP2 PUSH2 0x691 SWAP2 SWAP1 PUSH2 0xFF1 JUMP JUMPDEST POP PUSH1 0x40 DUP3 ADD MLOAD DUP2 PUSH1 0x2 ADD SWAP1 DUP2 PUSH2 0x6A7 SWAP2 SWAP1 PUSH2 0xFF1 JUMP JUMPDEST POP PUSH1 0x60 DUP3 ADD MLOAD DUP2 PUSH1 0x3 ADD SWAP1 DUP2 PUSH2 0x6BD SWAP2 SWAP1 PUSH2 0xFF1 JUMP JUMPDEST POP PUSH1 0x80 DUP3 ADD MLOAD DUP2 PUSH1 0x4 ADD SWAP1 DUP2 PUSH2 0x6D3 SWAP2 SWAP1 PUSH2 0xFF1 JUMP JUMPDEST POP PUSH1 0xA0 DUP3 ADD MLOAD DUP2 PUSH1 0x5 ADD SWAP1 DUP2 PUSH2 0x6E9 SWAP2 SWAP1 PUSH2 0xFF1 JUMP JUMPDEST POP PUSH1 0xC0 DUP3 ADD MLOAD DUP2 PUSH1 0x6 ADD PUSH0 PUSH2 0x100 EXP DUP2 SLOAD DUP2 PUSH1 0xFF MUL NOT AND SWAP1 DUP4 PUSH0 SIGNEXTEND PUSH1 0xFF AND MUL OR SWAP1 SSTORE POP PUSH1 0xE0 DUP3 ADD MLOAD DUP2 PUSH1 0x6 ADD PUSH1 0x1 PUSH2 0x100 EXP DUP2 SLOAD DUP2 PUSH20 0xFFFFFFFFFFFFFFFFFFFFFFFFFFFFFFFFFFFFFFFF MUL NOT AND SWAP1 DUP4 PUSH20 0xFFFFFFFFFFFFFFFFFFFFFFFFFFFFFFFFFFFFFFFF AND MUL OR SWAP1 SSTORE POP SWAP1 POP POP PUSH32 0x870247EB151FD35C4907322D059C22CBE7EB7930B7B7116D4A107CBBB5378D12 DUP9 DUP9 DUP9 DUP9 DUP9 DUP9 DUP9 CALLER PUSH1 0x40 MLOAD PUSH2 0x793 SWAP9 SWAP8 SWAP7 SWAP6 SWAP5 SWAP4 SWAP3 SWAP2 SWAP1 PUSH2 0x8C2 JUMP JUMPDEST PUSH1 0x40 MLOAD DUP1 SWAP2 SUB SWAP1 LOG1 POP POP POP POP POP POP POP POP JUMP JUMPDEST PUSH0 DUP1 SLOAD SWAP1 PUSH2 0x100 EXP SWAP1 DIV PUSH20 0xFFFFFFFFFFFFFFFFFFFFFFFFFFFFFFFFFFFFFFFF AND DUP2 JUMP JUMPDEST PUSH0 DUP2 SWAP1 POP SWAP2 SWAP1 POP JUMP JUMPDEST PUSH2 0x7DA DUP2 PUSH2 0x7C8 JUMP JUMPDEST DUP3 MSTORE POP POP JUMP JUMPDEST PUSH0 PUSH1 0x20 DUP3 ADD SWAP1 POP PUSH2 0x7F3 PUSH0 DUP4 ADD DUP5 PUSH2 0x7D1 JUMP JUMPDEST SWAP3 SWAP2 POP POP JUMP JUMPDEST PUSH0 DUP2 MLOAD SWAP1 POP SWAP2 SWAP1 POP JUMP JUMPDEST PUSH0 DUP3 DUP3 MSTORE PUSH1 0x20 DUP3 ADD SWAP1 POP SWAP3 SWAP2 POP POP JUMP JUMPDEST DUP3 DUP2 DUP4 MCOPY PUSH0 DUP4 DUP4 ADD MSTORE POP POP POP JUMP JUMPDEST PUSH0 PUSH1 0x1F NOT PUSH1 0x1F DUP4 ADD AND SWAP1 POP SWAP2 SWAP1 POP JUMP JUMPDEST PUSH0 PUSH2 0x83B DUP3 PUSH2 0x7F9 JUMP JUMPDEST PUSH2 0x845 DUP2 DUP6 PUSH2 0x803 JUMP JUMPDEST SWAP4 POP PUSH2 0x855 DUP2 DUP6 PUSH1 0x20 DUP7 ADD PUSH2 0x813 JUMP JUMPDEST PUSH2 0x85E DUP2 PUSH2 0x821 JUMP JUMPDEST DUP5 ADD SWAP2 POP POP SWAP3 SWAP2 POP POP JUMP JUMPDEST PUSH0 DUP2 PUSH0 SIGNEXTEND SWAP1 POP SWAP2 SWAP1 POP JUMP JUMPDEST PUSH2 0x87D DUP2 PUSH2 0x869 JUMP JUMPDEST DUP3 MSTORE POP POP JUMP JUMPDEST PUSH0 PUSH20 0xFFFFFFFFFFFFFFFFFFFFFFFFFFFFFFFFFFFFFFFF DUP3 AND SWAP1 POP SWAP2 SWAP1 POP JUMP JUMPDEST PUSH0 PUSH2 0x8AC DUP3 PUSH2 0x883 JUMP JUMPDEST SWAP1 POP SWAP2 SWAP1 POP JUMP JUMPDEST PUSH2 0x8BC DUP2 PUSH2 0x8A2 JUMP JUMPDEST DUP3 MSTORE POP POP JUMP JUMPDEST PUSH0 PUSH2 0x100 DUP3 ADD SWAP1 POP DUP2 DUP2 SUB PUSH0 DUP4 ADD MSTORE PUSH2 0x8DB DUP2 DUP12 PUSH2 0x831 JUMP JUMPDEST SWAP1 POP DUP2 DUP2 SUB PUSH1 0x20 DUP4 ADD MSTORE PUSH2 0x8EF DUP2 DUP11 PUSH2 0x831 JUMP JUMPDEST SWAP1 POP DUP2 DUP2 SUB PUSH1 0x40 DUP4 ADD MSTORE PUSH2 0x903 DUP2 DUP10 PUSH2 0x831 JUMP JUMPDEST SWAP1 POP DUP2 DUP2 SUB PUSH1 0x60 DUP4 ADD MSTORE PUSH2 0x917 DUP2 DUP9 PUSH2 0x831 JUMP JUMPDEST SWAP1 POP DUP2 DUP2 SUB PUSH1 0x80 DUP4 ADD MSTORE PUSH2 0x92B DUP2 DUP8 PUSH2 0x831 JUMP JUMPDEST SWAP1 POP DUP2 DUP2 SUB PUSH1 0xA0 DUP4 ADD MSTORE PUSH2 0x93F DUP2 DUP7 PUSH2 0x831 JUMP JUMPDEST SWAP1 POP PUSH2 0x94E PUSH1 0xC0 DUP4 ADD DUP6 PUSH2 0x874 JUMP JUMPDEST PUSH2 0x95B PUSH1 0xE0 DUP4 ADD DUP5 PUSH2 0x8B3 JUMP JUMPDEST SWAP10 SWAP9 POP POP POP POP POP POP POP POP POP JUMP JUMPDEST PUSH0 PUSH1 0x40 MLOAD SWAP1 POP SWAP1 JUMP JUMPDEST PUSH0 DUP1 REVERT JUMPDEST PUSH0 DUP1 REVERT JUMPDEST PUSH0 DUP1 REVERT JUMPDEST PUSH0 DUP1 REVERT JUMPDEST PUSH32 0x4E487B7100000000000000000000000000000000000000000000000000000000 PUSH0 MSTORE PUSH1 0x41 PUSH1 0x4 MSTORE PUSH1 0x24 PUSH0 REVERT JUMPDEST PUSH2 0x9B7 DUP3 PUSH2 0x821 JUMP JUMPDEST DUP2 ADD DUP2 DUP2 LT PUSH8 0xFFFFFFFFFFFFFFFF DUP3 GT OR ISZERO PUSH2 0x9D6 JUMPI PUSH2 0x9D5 PUSH2 0x981 JUMP JUMPDEST JUMPDEST DUP1 PUSH1 0x40 MSTORE POP POP POP JUMP JUMPDEST PUSH0 PUSH2 0x9E8 PUSH2 0x968 JUMP JUMPDEST SWAP1 POP PUSH2 0x9F4 DUP3 DUP3 PUSH2 0x9AE JUMP JUMPDEST SWAP2 SWAP1 POP JUMP JUMPDEST PUSH0 PUSH8 0xFFFFFFFFFFFFFFFF DUP3 GT ISZERO PUSH2 0xA13 JUMPI PUSH2 0xA12 PUSH2 0x981 JUMP JUMPDEST JUMPDEST PUSH2 0xA1C DUP3 PUSH2 0x821 JUMP JUMPDEST SWAP1 POP PUSH1 0x20 DUP2 ADD SWAP1 POP SWAP2 SWAP1 POP JUMP JUMPDEST DUP3 DUP2 DUP4 CALLDATACOPY PUSH0 DUP4 DUP4 ADD MSTORE POP POP POP JUMP JUMPDEST PUSH0 PUSH2 0xA49 PUSH2 0xA44 DUP5 PUSH2 0x9F9 JUMP JUMPDEST PUSH2 0x9DF JUMP JUMPDEST SWAP1 POP DUP3 DUP2 MSTORE PUSH1 0x20 DUP2 ADD DUP5 DUP5 DUP5 ADD GT ISZERO PUSH2 0xA65 JUMPI PUSH2 0xA64 PUSH2 0x97D JUMP JUMPDEST JUMPDEST PUSH2 0xA70 DUP5 DUP3 DUP6 PUSH2 0xA29 JUMP JUMPDEST POP SWAP4 SWAP3 POP POP POP JUMP JUMPDEST PUSH0 DUP3 PUSH1 0x1F DUP4 ADD SLT PUSH2 0xA8C JUMPI PUSH2 0xA8B PUSH2 0x979 JUMP JUMPDEST JUMPDEST DUP2 CALLDATALOAD PUSH2 0xA9C DUP5 DUP3 PUSH1 0x20 DUP7 ADD PUSH2 0xA37 JUMP JUMPDEST SWAP2 POP POP SWAP3 SWAP2 POP POP JUMP JUMPDEST PUSH2 0xAAE DUP2 PUSH2 0x869 JUMP JUMPDEST DUP2 EQ PUSH2 0xAB8 JUMPI PUSH0 DUP1 REVERT JUMPDEST POP JUMP JUMPDEST PUSH0 DUP2 CALLDATALOAD SWAP1 POP PUSH2 0xAC9 DUP2 PUSH2 0xAA5 JUMP JUMPDEST SWAP3 SWAP2 POP POP JUMP JUMPDEST PUSH0 DUP1 PUSH0 DUP1 PUSH0 DUP1 PUSH0 PUSH1 0xE0 DUP9 DUP11 SUB SLT ISZERO PUSH2 0xAEA JUMPI PUSH2 0xAE9 PUSH2 0x971 JUMP JUMPDEST JUMPDEST PUSH0 DUP9 ADD CALLDATALOAD PUSH8 0xFFFFFFFFFFFFFFFF DUP2 GT ISZERO PUSH2 0xB07 JUMPI PUSH2 0xB06 PUSH2 0x975 JUMP JUMPDEST JUMPDEST PUSH2 0xB13 DUP11 DUP3 DUP12 ADD PUSH2 0xA78 JUMP JUMPDEST SWAP8 POP POP PUSH1 0x20 DUP9 ADD CALLDATALOAD PUSH8 0xFFFFFFFFFFFFFFFF DUP2 GT ISZERO PUSH2 0xB34 JUMPI PUSH2 0xB33 PUSH2 0x975 JUMP JUMPDEST JUMPDEST PUSH2 0xB40 DUP11 DUP3 DUP12 ADD PUSH2 0xA78 JUMP JUMPDEST SWAP7 POP POP PUSH1 0x40 DUP9 ADD CALLDATALOAD PUSH8 0xFFFFFFFFFFFFFFFF DUP2 GT ISZERO PUSH2 0xB61 JUMPI PUSH2 0xB60 PUSH2 0x975 JUMP JUMPDEST JUMPDEST PUSH2 0xB6D DUP11 DUP3 DUP12 ADD PUSH2 0xA78 JUMP JUMPDEST SWAP6 POP POP PUSH1 0x60 DUP9 ADD CALLDATALOAD PUSH8 0xFFFFFFFFFFFFFFFF DUP2 GT ISZERO PUSH2 0xB8E JUMPI PUSH2 0xB8D PUSH2 0x975 JUMP JUMPDEST JUMPDEST PUSH2 0xB9A DUP11 DUP3 DUP12 ADD PUSH2 0xA78 JUMP JUMPDEST SWAP5 POP POP PUSH1 0x80 DUP9 ADD CALLDATALOAD PUSH8 0xFFFFFFFFFFFFFFFF DUP2 GT ISZERO PUSH2 0xBBB JUMPI PUSH2 0xBBA PUSH2 0x975 JUMP JUMPDEST JUMPDEST PUSH2 0xBC7 DUP11 DUP3 DUP12 ADD PUSH2 0xA78 JUMP JUMPDEST SWAP4 POP POP PUSH1 0xA0 DUP9 ADD CALLDATALOAD PUSH8 0xFFFFFFFFFFFFFFFF DUP2 GT ISZERO PUSH2 0xBE8 JUMPI PUSH2 0xBE7 PUSH2 0x975 JUMP JUMPDEST JUMPDEST PUSH2 0xBF4 DUP11 DUP3 DUP12 ADD PUSH2 0xA78 JUMP JUMPDEST SWAP3 POP POP PUSH1 0xC0 PUSH2 0xC05 DUP11 DUP3 DUP12 ADD PUSH2 0xABB JUMP JUMPDEST SWAP2 POP POP SWAP3 SWAP6 SWAP9 SWAP2 SWAP5 SWAP8 POP SWAP3 SWAP6 POP JUMP JUMPDEST PUSH0 PUSH2 0xC1E DUP3 PUSH2 0x883 JUMP JUMPDEST SWAP1 POP SWAP2 SWAP1 POP JUMP JUMPDEST PUSH2 0xC2E DUP2 PUSH2 0xC14 JUMP JUMPDEST DUP3 MSTORE POP POP JUMP JUMPDEST PUSH0 PUSH1 0x20 DUP3 ADD SWAP1 POP PUSH2 0xC47 PUSH0 DUP4 ADD DUP5 PUSH2 0xC25 JUMP JUMPDEST SWAP3 SWAP2 POP POP JUMP JUMPDEST PUSH32 0x536F6C6F20656C2070726F706965746172696F20707565646520726574697261 PUSH0 DUP3 ADD MSTORE PUSH32 0x72206C6F7320666F6E646F730000000000000000000000000000000000000000 PUSH1 0x20 DUP3 ADD MSTORE POP JUMP JUMPDEST PUSH0 PUSH2 0xCA7 PUSH1 0x2C DUP4 PUSH2 0x803 JUMP JUMPDEST SWAP2 POP PUSH2 0xCB2 DUP3 PUSH2 0xC4D JUMP JUMPDEST PUSH1 0x40 DUP3 ADD SWAP1 POP SWAP2 SWAP1 POP JUMP JUMPDEST PUSH0 PUSH1 0x20 DUP3 ADD SWAP1 POP DUP2 DUP2 SUB PUSH0 DUP4 ADD MSTORE PUSH2 0xCD4 DUP2 PUSH2 0xC9B JUMP JUMPDEST SWAP1 POP SWAP2 SWAP1 POP JUMP JUMPDEST PUSH32 0x4E6F207365207469656E656E20666F6E646F7320656E20656C20636F6E747261 PUSH0 DUP3 ADD MSTORE PUSH32 0x746F20746F646176696100000000000000000000000000000000000000000000 PUSH1 0x20 DUP3 ADD MSTORE POP JUMP JUMPDEST PUSH0 PUSH2 0xD35 PUSH1 0x2A DUP4 PUSH2 0x803 JUMP JUMPDEST SWAP2 POP PUSH2 0xD40 DUP3 PUSH2 0xCDB JUMP JUMPDEST PUSH1 0x40 DUP3 ADD SWAP1 POP SWAP2 SWAP1 POP JUMP JUMPDEST PUSH0 PUSH1 0x20 DUP3 ADD SWAP1 POP DUP2 DUP2 SUB PUSH0 DUP4 ADD MSTORE PUSH2 0xD62 DUP2 PUSH2 0xD29 JUMP JUMPDEST SWAP1 POP SWAP2 SWAP1 POP JUMP JUMPDEST PUSH32 0x4E487B7100000000000000000000000000000000000000000000000000000000 PUSH0 MSTORE PUSH1 0x22 PUSH1 0x4 MSTORE PUSH1 0x24 PUSH0 REVERT JUMPDEST PUSH0 PUSH1 0x2 DUP3 DIV SWAP1 POP PUSH1 0x1 DUP3 AND DUP1 PUSH2 0xDAD JUMPI PUSH1 0x7F DUP3 AND SWAP2 POP JUMPDEST PUSH1 0x20 DUP3 LT DUP2 SUB PUSH2 0xDC0 JUMPI PUSH2 0xDBF PUSH2 0xD69 JUMP JUMPDEST JUMPDEST POP SWAP2 SWAP1 POP JUMP JUMPDEST PUSH32 0x4E6F207469656E652073616C646F20656E2041564158207061726120656A6375 PUSH0 DUP3 ADD MSTORE PUSH32 0x7461720000000000000000000000000000000000000000000000000000000000 PUSH1 0x20 DUP3 ADD MSTORE POP JUMP JUMPDEST PUSH0 PUSH2 0xE20 PUSH1 0x23 DUP4 PUSH2 0x803 JUMP JUMPDEST SWAP2 POP PUSH2 0xE2B DUP3 PUSH2 0xDC6 JUMP JUMPDEST PUSH1 0x40 DUP3 ADD SWAP1 POP SWAP2 SWAP1 POP JUMP JUMPDEST PUSH0 PUSH1 0x20 DUP3 ADD SWAP1 POP DUP2 DUP2 SUB PUSH0 DUP4 ADD MSTORE PUSH2 0xE4D DUP2 PUSH2 0xE14 JUMP JUMPDEST SWAP1 POP SWAP2 SWAP1 POP JUMP JUMPDEST PUSH0 DUP2 SWAP1 POP DUP2 PUSH0 MSTORE PUSH1 0x20 PUSH0 KECCAK256 SWAP1 POP SWAP2 SWAP1 POP JUMP JUMPDEST PUSH0 PUSH1 0x20 PUSH1 0x1F DUP4 ADD DIV SWAP1 POP SWAP2 SWAP1 POP JUMP JUMPDEST PUSH0 DUP3 DUP3 SHL SWAP1 POP SWAP3 SWAP2 POP POP JUMP JUMPDEST PUSH0 PUSH1 0x8 DUP4 MUL PUSH2 0xEB0 PUSH32 0xFFFFFFFFFFFFFFFFFFFFFFFFFFFFFFFFFFFFFFFFFFFFFFFFFFFFFFFFFFFFFFFF DUP3 PUSH2 0xE75 JUMP JUMPDEST PUSH2 0xEBA DUP7 DUP4 PUSH2 0xE75 JUMP JUMPDEST SWAP6 POP DUP1 NOT DUP5 AND SWAP4 POP DUP1 DUP7 AND DUP5 OR SWAP3 POP POP POP SWAP4 SWAP3 POP POP POP JUMP JUMPDEST PUSH0 DUP2 SWAP1 POP SWAP2 SWAP1 POP JUMP JUMPDEST PUSH0 PUSH2 0xEF5 PUSH2 0xEF0 PUSH2 0xEEB DUP5 PUSH2 0x7C8 JUMP JUMPDEST PUSH2 0xED2 JUMP JUMPDEST PUSH2 0x7C8 JUMP JUMPDEST SWAP1 POP SWAP2 SWAP1 POP JUMP JUMPDEST PUSH0 DUP2 SWAP1 POP SWAP2 SWAP1 POP JUMP JUMPDEST PUSH2 0xF0E DUP4 PUSH2 0xEDB JUMP JUMPDEST PUSH2 0xF22 PUSH2 0xF1A DUP3 PUSH2 0xEFC JUMP JUMPDEST DUP5 DUP5 SLOAD PUSH2 0xE81 JUMP JUMPDEST DUP3 SSTORE POP POP POP POP JUMP JUMPDEST PUSH0 SWAP1 JUMP JUMPDEST PUSH2 0xF36 PUSH2 0xF2A JUMP JUMPDEST PUSH2 0xF41 DUP2 DUP5 DUP5 PUSH2 0xF05 JUMP JUMPDEST POP POP POP JUMP JUMPDEST JUMPDEST DUP2 DUP2 LT ISZERO PUSH2 0xF64 JUMPI PUSH2 0xF59 PUSH0 DUP3 PUSH2 0xF2E JUMP JUMPDEST PUSH1 0x1 DUP2 ADD SWAP1 POP PUSH2 0xF47 JUMP JUMPDEST POP POP JUMP JUMPDEST PUSH1 0x1F DUP3 GT ISZERO PUSH2 0xFA9 JUMPI PUSH2 0xF7A DUP2 PUSH2 0xE54 JUMP JUMPDEST PUSH2 0xF83 DUP5 PUSH2 0xE66 JUMP JUMPDEST DUP2 ADD PUSH1 0x20 DUP6 LT ISZERO PUSH2 0xF92 JUMPI DUP2 SWAP1 POP JUMPDEST PUSH2 0xFA6 PUSH2 0xF9E DUP6 PUSH2 0xE66 JUMP JUMPDEST DUP4 ADD DUP3 PUSH2 0xF46 JUMP JUMPDEST POP POP JUMPDEST POP POP POP JUMP JUMPDEST PUSH0 DUP3 DUP3 SHR SWAP1 POP SWAP3 SWAP2 POP POP JUMP JUMPDEST PUSH0 PUSH2 0xFC9 PUSH0 NOT DUP5 PUSH1 0x8 MUL PUSH2 0xFAE JUMP JUMPDEST NOT DUP1 DUP4 AND SWAP2 POP POP SWAP3 SWAP2 POP POP JUMP JUMPDEST PUSH0 PUSH2 0xFE1 DUP4 DUP4 PUSH2 0xFBA JUMP JUMPDEST SWAP2 POP DUP3 PUSH1 0x2 MUL DUP3 OR SWAP1 POP SWAP3 SWAP2 POP POP JUMP JUMPDEST PUSH2 0xFFA DUP3 PUSH2 0x7F9 JUMP JUMPDEST PUSH8 0xFFFFFFFFFFFFFFFF DUP2 GT ISZERO PUSH2 0x1013 JUMPI PUSH2 0x1012 PUSH2 0x981 JUMP JUMPDEST JUMPDEST PUSH2 0x101D DUP3 SLOAD PUSH2 0xD96 JUMP JUMPDEST PUSH2 0x1028 DUP3 DUP3 DUP6 PUSH2 0xF68 JUMP JUMPDEST PUSH0 PUSH1 0x20 SWAP1 POP PUSH1 0x1F DUP4 GT PUSH1 0x1 DUP2 EQ PUSH2 0x1059 JUMPI PUSH0 DUP5 ISZERO PUSH2 0x1047 JUMPI DUP3 DUP8 ADD MLOAD SWAP1 POP JUMPDEST PUSH2 0x1051 DUP6 DUP3 PUSH2 0xFD6 JUMP JUMPDEST DUP7 SSTORE POP PUSH2 0x10B8 JUMP JUMPDEST PUSH1 0x1F NOT DUP5 AND PUSH2 0x1067 DUP7 PUSH2 0xE54 JUMP JUMPDEST PUSH0 JUMPDEST DUP3 DUP2 LT ISZERO PUSH2 0x108E JUMPI DUP5 DUP10 ADD MLOAD DUP3 SSTORE PUSH1 0x1 DUP3 ADD SWAP2 POP PUSH1 0x20 DUP6 ADD SWAP5 POP PUSH1 0x20 DUP2 ADD SWAP1 POP PUSH2 0x1069 JUMP JUMPDEST DUP7 DUP4 LT ISZERO PUSH2 0x10AB JUMPI DUP5 DUP10 ADD MLOAD PUSH2 0x10A7 PUSH1 0x1F DUP10 AND DUP3 PUSH2 0xFBA JUMP JUMPDEST DUP4 SSTORE POP JUMPDEST PUSH1 0x1 PUSH1 0x2 DUP9 MUL ADD DUP9 SSTORE POP POP POP JUMPDEST POP POP POP POP POP POP JUMP INVALID LOG2 PUSH5 0x6970667358 0x22 SLT KECCAK256 0xCD 0xEE 0xE9 NUMBER SGT PUSH19 0xC10EA280F82857BE07CDAF9AA1E890CC7DD820 PREVRANDAO 0xB7 DUP9 JUMPI PUSH27 0x504E64736F6C634300081A00330000000000000000000000000000 "
				},
				"gasEstimates": {
					"creation": {
						"codeDepositCost": "868400",
						"executionCost": "25166",
						"totalCost": "893566"
					},
					"external": {
						"data()": "infinite",
						"getBalance()": "312",
						"owner()": "2571",
						"pushData(string,string,string,string,string,string,int8)": "infinite",
						"withdraw()": "infinite"
					}
				},
				"methodIdentifiers": {
					"data()": "73d4a13a",
					"getBalance()": "12065fe0",
					"owner()": "8da5cb5b",
					"pushData(string,string,string,string,string,string,int8)": "782154df",
					"withdraw()": "3ccfd60b"
				}
			},
			"storageLayout": {
				"storage": [
					{
						"astId": 3,
						"contract": "Lunes-23-Sep-24/Tc.avax.sol:tc_avax",
						"label": "owner",
						"offset": 0,
						"slot": "0",
						"type": "t_address_payable"
					},
					{
						"astId": 23,
						"contract": "Lunes-23-Sep-24/Tc.avax.sol:tc_avax",
						"label": "data",
						"offset": 0,
						"slot": "1",
						"type": "t_struct(Data)20_storage"
					}
				],
				"types": {
					"t_address": {
						"encoding": "inplace",
						"label": "address",
						"numberOfBytes": "20"
					},
					"t_address_payable": {
						"encoding": "inplace",
						"label": "address payable",
						"numberOfBytes": "20"
					},
					"t_int8": {
						"encoding": "inplace",
						"label": "int8",
						"numberOfBytes": "1"
					},
					"t_string_storage": {
						"encoding": "bytes",
						"label": "string",
						"numberOfBytes": "32"
					},
					"t_struct(Data)20_storage": {
						"encoding": "inplace",
						"label": "struct tc_avax.Data",
						"members": [
							{
								"astId": 5,
								"contract": "Lunes-23-Sep-24/Tc.avax.sol:tc_avax",
								"label": "date",
								"offset": 0,
								"slot": "0",
								"type": "t_string_storage"
							},
							{
								"astId": 7,
								"contract": "Lunes-23-Sep-24/Tc.avax.sol:tc_avax",
								"label": "delivery_date",
								"offset": 0,
								"slot": "1",
								"type": "t_string_storage"
							},
							{
								"astId": 9,
								"contract": "Lunes-23-Sep-24/Tc.avax.sol:tc_avax",
								"label": "product",
								"offset": 0,
								"slot": "2",
								"type": "t_string_storage"
							},
							{
								"astId": 11,
								"contract": "Lunes-23-Sep-24/Tc.avax.sol:tc_avax",
								"label": "price",
								"offset": 0,
								"slot": "3",
								"type": "t_string_storage"
							},
							{
								"astId": 13,
								"contract": "Lunes-23-Sep-24/Tc.avax.sol:tc_avax",
								"label": "code",
								"offset": 0,
								"slot": "4",
								"type": "t_string_storage"
							},
							{
								"astId": 15,
								"contract": "Lunes-23-Sep-24/Tc.avax.sol:tc_avax",
								"label": "cel_number",
								"offset": 0,
								"slot": "5",
								"type": "t_string_storage"
							},
							{
								"astId": 17,
								"contract": "Lunes-23-Sep-24/Tc.avax.sol:tc_avax",
								"label": "status",
								"offset": 0,
								"slot": "6",
								"type": "t_int8"
							},
							{
								"astId": 19,
								"contract": "Lunes-23-Sep-24/Tc.avax.sol:tc_avax",
								"label": "wallet",
								"offset": 1,
								"slot": "6",
								"type": "t_address"
							}
						],
						"numberOfBytes": "224"
					}
				}
			},
			"userdoc": {
				"kind": "user",
				"methods": {},
				"version": 1
			}
		}
	}
}